:100000000C9428010C9459010C9459010C94590139
:100010000C9459010C9459010C9459010C945901F8
:100020000C9459010C9459010C9459010C945901E8
:100030000C9459010C9459010C9459010C945901D8
:100040000C9459010C9459010C9459010C945901C8
:100050000C9459010C9459010C9459010C945A04B4
:100060000C9459010C9459010C9459010C945901A8
:100070000C9459010C9459010C9459010C94590198
:100080000C9459010C9459010C9459010C94590188
:100090000C9459010C9459010C9459010C94590178
:1000A0000C9459010C9459010C9459010C94590168
:1000B0000C9459010C9459010C9459010C94590158
:1000C0000C9459010C9459010C9459010C94590148
:1000D0000C9459010C9459010C9424040C94FA03C7
:1000E0000C9459010C94B7010C9436030C9424031E
:1000F0000C941F030C9455030C945D030C9445035E
:100100000C9442030C9459030C940B020C949E0221
:100110000C9475030C94FD0C0C9419020C943A0386
:100120000C9451020C9467030C944F030C946303DA
:100130000C944B030C947B010C9471030C94A80158
:100140000C943E030C946B0300000A0B02090C0D87
:100150000E0807030401000000000000000000007A
:10016000000000000000000000000000000000008F
:10017000000000001211100000000000000000004C
:10018000000000000000000000000000000000006F
:100190002200250028002B002E003100340002012F
:1001A0000000050108010B010000210024002700C8
:1001B0002A002D0030003300010100000401070176
:1001C0000A010505050507050808080802020202DC
:1001D0000A0A0808040404040101010101010101E3
:1001E0000303030303030303040707070C0C0C0CAE
:1001F0000C0C0C0C02020202060606060606060697
:100200000B0B0B0B0B0B0B0B010210202008081023
:100210002040102040800201020108040201010276
:10022000040810204080804020100804020180044F
:1002300002018040201008040201080402010102AA
:100240000408102040800102040810204080FD0CAA
:1002500011241FBECFEFD1E2DEBFCDBF00E00CBF47
:1002600022E0ACE1B2E001C01D92A73CB207E1F789
:1002700012E0A0E0B2E0E4E9FEE100E00BBF02C062
:1002800007900D92AC31B107D9F711E0C8E2D1E087
:1002900000E006C021970109802FFE010E942A0D6F
:1002A000C732D10780E00807A9F70E94A4040C9484
:1002B000480F0C94000090E0FC01E85FFD4F249192
:1002C0008E539E4FFC018491882399F090E0880F13
:1002D000991FFC01E855FE4FA591B491FC01E2572E
:1002E000FE4F859194918FB7F894EC91E22BEC93AB
:1002F0008FBF08950895AF92BF92CF92DF92EF9291
:10030000FF920F931F93CF93DF936C017B018B01BF
:10031000040F151FEB015E01AE18BF08C017D1070F
:1003200059F06991D601ED91FC910190F081E02D99
:10033000C6011995892B79F7C501DF91CF911F91DE
:100340000F91FF90EF90DF90CF90BF90AF90089506
:10035000FC01538D448D252F30E0842F90E0821BCB
:10036000930B541710F0CF96089501970895FC0150
:10037000918D828D981761F0A28DAE0FBF2FB11DA8
:100380005D968C91928D9F5F9F73928F90E0089500
:100390008FEF9FEF08952FB7F894809122029091EC
:1003A0002302A0912402B09125022FBF80932E0238
:1003B00090932F02A0933002B093310286E292E034
:1003C0000E94B70197FF26C02FB7F89480912202B0
:1003D00090912302A0912402B09125022FBF409159
:1003E0002E0250912F026091300270913102841BD5
:1003F000950BA60BB70B40912A0250912B026091EE
:100400002C0270912D0284179507A607B707B0F24A
:100410008FEF9FEF0895FC01918D828D981731F039
:10042000828DE80FF11D858D90E008958FEF9FEF8D
:100430000895FC01918D228D892F90E0805C9F4F63
:10044000821B91098F739927089586E292E00E949A
:10045000190221E0892B09F420E0822F0895FC0184
:10046000A48DA80FB92FB11DA35ABF4F2C91848D15
:1004700090E001968F739927848FA689B7892C9372
:10048000A089B1898C91837080648C93938D848DC5
:10049000981306C00288F389E02D80818F7D8083C8
:1004A0000895EF92FF920F931F93CF93DF93EC0188
:1004B00081E0888F9B8D8C8D98131AC0E889F9890B
:1004C000808185FF15C09FB7F894EE89FF8960830E
:1004D000E889F98980818370806480839FBF81E08F
:1004E00090E0DF91CF911F910F91FF90EF900895D1
:1004F000F62E0B8D10E00F5F1F4F0F731127E02EAC
:100500008C8D8E110CC00FB607FCFACFE889F989E3
:10051000808185FFF5CFCE010E942F02F1CFEB8DB8
:10052000EC0FFD2FF11DE35AFF4FF0829FB7F894B7
:100530000B8FEA89FB8980818062CFCFCF93DF93D5
:10054000EC01888D8823B9F0AA89BB89E889F989EB
:100550008C9185FD03C0808186FD0DC00FB607FC20
:10056000F7CF8C9185FFF2CF808185FFEDCFCE0153
:100570000E942F02E9CFDF91CF91089580E090E0B3
:10058000892B49F080E090E0892B29F00E9400003F
:1005900081110E94000080E090E0892B49F080E00A
:1005A00090E0892B29F00E94000081110E94000038
:1005B00080E090E0892B49F080E090E0892B29F0E1
:1005C0000E94000081110E94000080E090E0892BD1
:1005D00029F00E94250281110C9400000895282F13
:1005E00030E0F901E85BFE4F9491F901E85FFD4FBF
:1005F00044912E533E4FF9012491222309F435C032
:10060000992311F191509231F8F4E92FF0E0882705
:10061000E35FFC4F8F4F0C942A0D3E0342031F03F0
:1006200036033A03240345034B034F035503590391
:100630005D036303670324036B03710375038091F8
:1006400080008F7780938000E22FF0E0EE0FFF1F95
:10065000E257FE4FA591B4918FB7F894EC916111D8
:1006600048C040954E234C938FBF089580918000E1
:100670008F7DE8CF80918000877FE4CF84B58F772E
:1006800084BDE2CF84B58F7DFBCF8091B0008F77A2
:100690008093B000D9CF8091B0008F7DF9CF809149
:1006A00090008F7780939000CFCF809190008F7DC6
:1006B000F9CF80919000877FF5CF8091A0008F7750
:1006C0008093A000C1CF8091A0008F7DF9CF809151
:1006D000A000877FF5CF809120018F778093200144
:1006E000B3CF809120018F7DF9CF80912001877F4A
:1006F000F5CF4E2BB8CF3FB7F89480911D02909163
:100700001E02A0911F02B091200226B5A89B05C031
:100710002F3F19F00196A11DB11D3FBFBA2FA92F80
:10072000982F8827BC01CD01620F711D811D911D7D
:1007300042E0660F771F881F991F4A95D1F70895E9
:100740008F929F92AF92BF92CF92DF92EF92FF92E1
:100750004B015C010E947B036B017C010E947B03C7
:100760006C197D098E099F09683E734081059105CA
:10077000A8F321E0821A9108A108B10888EEC80EFA
:1007800083E0D81EE11CF11C81149104A104B10482
:1007900029F7FF90EF90DF90CF90BF90AF909F90A0
:1007A0008F9008950F931F93CF93DF93EC0188816F
:1007B0009981009759F02A813B812617370730F03D
:1007C00081E0DF91CF911F910F9108958B016F5FB1
:1007D0007F4F0E94570E009759F0998388831B839F
:1007E0000A832C813D81232B59F7FC011082E8CF2D
:1007F00080E0E7CF1F920F920FB60F9211240BB635
:100800000F922F933F934F935F936F937F938F93A9
:100810009F93AF93BF93EF93FF9386E292E00E9482
:100820002F02FF91EF91BF91AF919F918F917F9197
:100830006F915F914F913F912F910F900BBE0F9051
:100840000FBE0F901F9018951F920F920FB60F9228
:1008500011240BB60F922F938F939F93EF93FF93D7
:10086000E0913602F09137028081E0913C02F091F4
:100870003D0282FD1DC0908180913F028F5F8F738A
:1008800020914002821741F0E0913F02F0E0EA5DE2
:10089000FD4F958F80933F02FF91EF919F918F9134
:1008A0002F910F900BBE0F900FBE0F901F901895B9
:1008B0008081F2CF1F920F920FB60F9211242F93C7
:1008C0003F938F939F93AF93BF9380912202909118
:1008D0002302A0912402B091250230911C0223E052
:1008E000230F2D3758F50196A11DB11D20931C0231
:1008F0008093220290932302A0932402B0932502B6
:1009000080911D0290911E02A0911F02B0912002C1
:100910000196A11DB11D80931D0290931E02A0930C
:100920001F02B0932002BF91AF919F918F913F9191
:100930002F910F900FBE0F901F90189526E8230F50
:100940000296A11DB11DD2CFCF93DF93CDB7DEB7F5
:100950002E970FB6F894DEBF0FBECDBF789484B546
:10096000826084BD84B5816084BD85B5826085BDAB
:1009700085B5816085BD80916E00816080936E0039
:10098000109281008091810082608093810080912B
:1009900081008160809381008091800081608093DC
:1009A00080008091B10084608093B1008091B0009C
:1009B00081608093B000809191008260809391006B
:1009C000809191008160809391008091900081607E
:1009D000809390008091A10082608093A10080911B
:1009E000A10081608093A1008091A000816080932C
:1009F000A0008091210182608093210180912101DA
:100A00008160809321018091200181608093200189
:100A100080917A00846080937A0080917A0082606D
:100A200080937A0080917A00816080937A0080912F
:100A30007A00806880937A001092C100E0913602BB
:100A4000F091370282E08083E0913202F09133022C
:100A50001082E0913402F09135028FEC8083109285
:100A60003E02E0913A02F0913B0286E08083E09101
:100A70003802F0913902808180618083E0913802F0
:100A8000F0913902808188608083E0913802F09192
:100A90003902808180688083E0913802F0913902C8
:100AA00080818F7D808381E00E945B0182E00E94D3
:100AB0005B0183E00E945B0184E00E945B01EDB674
:100AC000FEB618861F821A8619861C861B8670E061
:100AD00060E0CE0107960E94D2032F8138858111F4
:100AE0004DC02115310519F0C9010E94CE0D18869F
:100AF0001F821C861B861A86198686E292E00E9457
:100B00001902892BD1F31A8219821C821B821E8240
:100B10001D8270E060E0CE0101960E94D20329811F
:100B20003A81811133C02115310519F0C9010E94A4
:100B3000CE0D1A8219821E821D821C821B820E9487
:100B4000CB0197FD2BC08D871E860D811E810F5F07
:100B50001F4FB801CE0101960E94D203882379F37A
:100B600029813A818D819E81BE01635F7F4F820F13
:100B7000931F0E94410F1E830D83E1CF1C861B86AD
:100B80006AE172E0C9010E94410FB7CF1E821D8247
:100B90006AE172E0C9010E94410FD1CF8F8198852F
:100BA000009709F455C069817A816115710509F4CE
:100BB0004DC049855A852D813E814217530708F45F
:100BC00045C00E94410F8D819E819C878B871E822C
:100BD0001D8289819A81009711F00E94CE0D4B856C
:100BE0005C856F81788586E292E00E947B0142E01D
:100BF00050E068E172E086E292E00E947B010B85A2
:100C00001C858DB79EB7801B910B0FB6F8949EBFC5
:100C10000FBE8DBFEDB7FEB731966F012F813885BE
:100C200090E080E08017910724F58017910730F459
:100C3000D901A80FB91F2115310521F41092210205
:100C4000A1E2B2E04C9141930196ECCF0E94CE0D0F
:100C500089819A8198878F838B819C819A878987E4
:100C60008D819E819C878B871A8219821C821B82B0
:100C7000AECF5601C5018C199D09801791070CF064
:100C8000AEC660E971E080E090E00E94A003F5014B
:100C900091915F01892F8F7D8134C9F561E081E0F9
:100CA0000E94EF0261E084E00E94EF0268E572E0DA
:100CB00080E090E00E94A00361E082E00E94EF02E9
:100CC00061E083E00E94EF0268EC70E080E090E079
:100CD0000E94A00360E082E00E94EF0260E083E0F7
:100CE0000E94EF0260E971E080E090E00E94A003C2
:100CF00061E082E00E94EF0261E083E00E94EF0287
:100D000060E081E00E94EF0260E084E049C082344C
:100D100009F04DC061E081E00E94EF0261E082E0F5
:100D20000E94EF0261E083E00E94EF0261E084E054
:100D30000E94EF0268EC70E080E090E00E94A00367
:100D400060E082E00E94EF0260E083E00E94EF0238
:100D500060E971E080E090E00E94A00361E082E041
:100D60000E94EF0261E083E00E94EF0268EC70E015
:100D700080E090E00E94A00360E082E00E94EF0229
:100D800060E083E00E94EF0260E971E080E090E0C3
:100D90000E94A00361E082E00E94EF0261E083E034
:100DA0000E94EF0268EC70E080E090E0A8C4833419
:100DB000B9F561E081E00E94EF0261E082E00E940B
:100DC000EF0261E083E00E94EF0260E084E00E94B5
:100DD000EF0268EC70E080E090E00E94A00361E028
:100DE00084E00E94EF0260E081E00E94EF0260E098
:100DF00082E00E94EF0260E083E00E94EF0268E57B
:100E000072E080E090E00E94A00361E081E00E9437
:100E1000EF0261E082E00E94EF0261E083E072CFC6
:100E20008434B1F560E081E00E94EF0261E082E08D
:100E30000E94EF0261E083E00E94EF0261E084E043
:100E40000E94EF0268EC70E080E090E00E94A00356
:100E500061E084E00E94EF0261E081E00E94EF0225
:100E600060E082E00E94EF0260E083E00E94EF0217
:100E700068E572E080E090E00E94A00360E081E01D
:100E80000E94EF0261E082E00E94EF0261E0A8C4EC
:100E9000853409F052C061E081E00E94EF0261E018
:100EA00082E00E94EF0261E083E00E94EF0261E0D5
:100EB00084E00E94EF0268EC70E080E090E00E9425
:100EC000A00360E082E00E94EF0260E083E00E9405
:100ED000EF0260E081E00E94EF0260E971E080E0F3
:100EE00090E00E94A00361E081E00E94EF0261E0D7
:100EF00082E00E94EF0261E083E00E94EF0261E085
:100F000084E00E94EF0268EC70E080E090E00E94D4
:100F1000A00360E082E00E94EF0260E083E00E94B4
:100F2000EF0260E081E00E94EF0260E971E080E0A2
:100F300090E00E94A00361E0A2CF8634D9F560E082
:100F400081E00E94EF0260E082E00E94EF0260E038
:100F500083E00E94EF0261E084E00E94EF0268E516
:100F600072E080E090E00E94A00361E082E00E94D5
:100F7000EF0261E083E00E94EF0261E084E00E9402
:100F8000EF0260E081E00E94EF0268EC70E080E038
:100F900090E00E94A00360E081E00E94EF0260E028
:100FA00082E00E94EF0260E083E00E94EF0261E0D5
:100FB00084E0B9CF873409F057C061E081E00E9436
:100FC000EF0261E082E00E94EF0261E083E00E94B4
:100FD000EF0261E084E00E94EF0268EC70E080E0E4
:100FE00090E00E94A00361E081E00E94EF0260E0D7
:100FF00082E00E94EF0261E084E00E94EF0260E084
:1010000083E00E94EF0268EC70E080E090E00E94D4
:10101000A00361E081E00E94EF0261E082E00E94B3
:10102000EF0260E083E00E94EF0261E084E00E9452
:10103000EF0268EC70E080E090E00E94A00360E0C6
:1010400081E00E94EF0260E082E00E94EF0260E037
:1010500083E00E94EF0261E084E00E94EF0268EC0E
:1010600070E080E090E065CF883469F561E081E070
:101070000E94EF0261E084E00E94EF0268E572E006
:1010800080E090E00E94A00361E082E00E94EF0215
:1010900061E083E00E94EF0268EC70E080E090E0A5
:1010A0000E94A00360E082E00E94EF0260E083E023
:1010B0000E94EF0268E572E080E090E00E94A003E9
:1010C00060E081E058C1893459F560E081E00E9418
:1010D000EF0261E082E00E94EF0261E083E00E94A3
:1010E000EF0261E084E00E94EF0268EC70E080E0D3
:1010F00090E00E94A00361E083E00E94EF0260E0C4
:1011000081E00E94EF0260E082E00E94EF0260E076
:1011100084E00E94EF0260E273E080E090E0ACCEF9
:101120008A3409F041C060E081E00E94EF0261E092
:1011300082E00E94EF0261E083E00E94EF0261E042
:1011400084E00E94EF0268EC70E080E090E00E9492
:10115000A00361E082E00E94EF0260E081E00E9473
:10116000EF0261E084E00E94EF0260E083E00E9411
:10117000EF0260E971E080E090E00E94A00360E08F
:1011800081E00E94EF0261E082E00E94EF0260E0F5
:1011900083E00E94EF0260E084E00E94EF0260E9D9
:1011A00071E080E090E02FCE8B3409F08BC061E0DD
:1011B00081E00E94EF0260E082E00E94EF0260E0C6
:1011C00083E00E94EF0261E084E00E94EF0268EC9D
:1011D00070E080E090E00E94A00361E082E00E9465
:1011E000EF0260E081E00E94EF0261E084E00E9493
:1011F000EF0260E083E00E94EF0268EC70E080E0C4
:1012000090E00E94A00360E081E00E94EF0260E0B5
:1012100082E00E94EF0261E083E00E94EF0261E061
:1012200084E00E94EF0268EC70E080E090E00E94B1
:10123000A00360E081E00E94EF0260E082E00E9493
:10124000EF0260E083E00E94EF0261E084E00E9430
:10125000EF0268EC70E080E090E00E94A00361E0A3
:1012600083E00E94EF0260E081E00E94EF0261E013
:1012700084E00E94EF0260E082E00E94EF0268ECEE
:1012800070E080E090E00E94A00360E081E00E94B6
:10129000EF0260E083E00E94EF0261E082E00E94E2
:1012A000EF0261E084E00E94EF0268EC70E080E011
:1012B00090E00E94A00361E081E00E94EF0260E004
:1012C00082E08BC28C3489F561E081E00E94EF02FC
:1012D00061E082E00E94EF0261E083E00E94EF02A1
:1012E00061E084E00E94EF0268EC70E080E090E052
:1012F0000E94A00361E084E00E94EF0260E081E0D0
:101300000E94EF0260E082E00E94EF0260E083E072
:101310000E94EF0260E273E080E090E00E94A00390
:1013200060E084E00E94EF02A5CC8D3439F561E0E5
:1013300082E00E94EF0261E084E00E94EF0268EC2C
:1013400070E080E090E00E94A00361E083E00E94F2
:10135000EF0268EC70E080E090E00E94A00360E0A3
:1013600083E00E94EF0268EC70E080E090E00E9471
:10137000A00360E082E00E94EF02D2CF8E3479F5C4
:1013800061E081E00E94EF0261E084E00E94EF02F0
:1013900068EC70E080E090E00E94A00361E082E0F1
:1013A0000E94EF0268EC70E080E090E00E94A003F1
:1013B00060E082E00E94EF0261E083E00E94EF02C1
:1013C00068EC70E080E090E00E94A00360E083E0C1
:1013D0000E94EF0268EC70E080E090E06FCE8F3406
:1013E00029F561E081E00E94EF0261E082E00E9465
:1013F000EF0261E083E00E94EF0261E084E00E947E
:10140000EF0268EC70E080E090E00E94A00361E0F1
:1014100081E00E94EF0260E082E00E94EF0261E062
:1014200084E00E94EF0260E083E07DCD8035B9F476
:1014300060E081E00E94EF0260E082E00E94EF0243
:1014400060E083E00E94EF0261E084E00E94EF022E
:1014500068E572E080E090E00E94A003C2CF813591
:1014600009F041C061E081E00E94EF0260E082E0AB
:101470000E94EF0260E083E00E94EF0260E084E0FF
:101480000E94EF0268EC70E080E090E00E94A00310
:1014900060E081E00E94EF0261E082E00E94EF02E2
:1014A00061E083E00E94EF0261E084E00E94EF02CD
:1014B00060E971E080E090E00E94A00360E081E0DC
:1014C0000E94EF0261E082E00E94EF0260E083E0B0
:1014D0000E94EF0261E084E00E94EF0268EC70E09D
:1014E00080E090E0C9CC823509F067C061E081E01E
:1014F0000E94EF0261E084E00E94EF0260E082E07F
:101500000E94EF0260E083E00E94EF0268EC70E06E
:1015100080E090E00E94A00361E082E00E94EF0280
:1015200060E081E00E94EF0268EC70E080E090E013
:101530000E94A00361E083E00E94EF0260E082E08D
:101540000E94EF0268EC70E080E090E00E94A0034F
:1015500061E081E00E94EF0261E084E00E94EF021E
:1015600061E082E00E94EF0261E083E00E94EF020E
:1015700068EC70E080E090E00E94A00361E081E010
:101580000E94EF0261E084E00E94EF0260E082E0EE
:101590000E94EF0260E083E00E94EF0260E971E0E8
:1015A00080E090E00E94A00361E081E00E94EF02F1
:1015B00061E084E00E94EF02EDCB833509F070C05A
:1015C00061E081E00E94EF0261E082E00E94EF02B0
:1015D00061E083E00E94EF0261E084E00E94EF029C
:1015E00068EC70E080E090E00E94A00361E081E0A0
:1015F0000E94EF0260E082E00E94EF0260E083E080
:101600000E94EF0261E084E00E94EF0268EC70E06B
:1016100080E090E00E94A00361E081E00E94EF0280
:1016200060E082E00E94EF0260E083E00E94EF024F
:1016300060E084E00E94EF0268EC70E080E090E0FF
:101640000E94A00361E081E00E94EF0261E082E07D
:101650000E94EF0261E083E00E94EF0261E084E01B
:101660000E94EF0268EC70E080E090E00E94A0032E
:1016700060E081E00E94EF0260E082E00E94EF0201
:1016800060E083E00E94EF0261E084E00E94EF02EC
:1016900068EC70E080E090E00E94A00361E0D0CCB4
:1016A000843509F428CD8535B9F561E081E00E94E3
:1016B000EF0261E082E00E94EF0261E083E00E94BD
:1016C000EF0261E084E00E94EF0268EC70E080E0ED
:1016D00090E00E94A00361E081E00E94EF0260E0E0
:1016E00082E00E94EF0260E083E00E94EF0261E08E
:1016F00084E00E94EF0260E273E080E090E00E94EC
:10170000A00360E081E00E94EF0260E082E00E94BE
:10171000EF0260E083E02FCE863559F561E083E08B
:101720000E94EF0260E081E00E94EF0260E082E050
:101730000E94EF0260E084E00E94EF0268EC70E03B
:1017400080E090E00E94A00360E081E00E94EF0250
:1017500061E082E00E94EF0260E083E00E94EF021D
:1017600061E084E00E94EF0260E971E080E090E0D7
:10177000C6CF8735D1F561E082E00E94EF0260E0DC
:1017800081E00E94EF0260E083E00E94EF0261E0EE
:1017900084E00E94EF0268EC70E080E090E00E943C
:1017A000A00360E081E00E94EF0261E082E00E941D
:1017B000EF0261E083E00E94EF0261E084E00E94BA
:1017C000EF0268EC70E080E090E00E94A00361E02E
:1017D00082E00E94EF0260E081E00E94EF0260E0A0
:1017E00083E00E94EF0261E090CA883559F561E01C
:1017F00081E00E94EF0260E082E00E94EF0260E080
:1018000083E00E94EF0261E084E00E94EF0268EC56
:1018100070E080E090E00E94A00360E081E00E9420
:10182000EF0261E082E00E94EF0261E083E00E944B
:10183000EF0260E084E00E94EF0260E971E080E086
:1018400090E037CD893509F066C061E083E00E9401
:10185000EF0261E081E00E94EF0261E082E00E941D
:10186000EF0261E084E00E94EF0268EC70E080E04B
:1018700090E00E94A00360E082E00E94EF0261E03D
:1018800081E00E94EF0260E083E00E94EF0261E0ED
:1018900084E00E94EF0268EC70E080E090E00E943B
:1018A000A00360E082E00E94EF0261E081E00E941C
:1018B000EF0260E083E00E94EF0260E084E00E94BB
:1018C000EF0260E971E080E090E00E94A00361E037
:1018D00082E00E94EF0261E081E00E94EF0261E09D
:1018E00083E00E94EF0260E084E00E94EF0268EC77
:1018F00070E080E090E00E94A00360E082E00E943F
:10190000EF0261E081E00E94EF0261E083E00E946B
:10191000EF0260E026CF8A35D1F561E081E00E94D8
:10192000EF0261E082E00E94EF0261E083E00E944A
:10193000EF0261E084E00E94EF0268EC70E080E07A
:1019400090E00E94A00361E083E00E94EF0260E06B
:1019500081E00E94EF0260E082E00E94EF0260E01E
:1019600084E00E94EF0268EC70E080E090E00E946A
:10197000A00361E082E00E94EF0260E081E00E944B
:10198000EF0260E083E00E94EF0260E065CB9133FC
:1019900009F070C961E081E00E94EF0261E084E03B
:1019A0000E94EF0261E083E00E94EF0261E082E0CA
:1019B0000E94EF0268EC70E080E090E00E94A003DB
:1019C00060E081E00E94EF0260E084E00E94EF02AC
:1019D00060E083E00E94EF0260E082E0A3CC8F81B0
:1019E0009885009711F00E94CE0D0FB6F894FEBEB8
:1019F0000FBEEDBE0E94BE0262C8E6E2F2E01382B4
:101A0000128288EE93E0A0E0B0E084839583A68301
:101A1000B7838AE092E09183808385E391E09587A4
:101A2000848784E391E09787868780E391E0918BB8
:101A3000808B81E391E0938B828B82E391E0958BA5
:101A4000848B86E391E0978B868B118E128E138E9A
:101A5000148E0895EE0FFF1F881F8BBF0790F6911D
:101A6000E02D19940F931F93CF93DF93823091054C
:101A700010F482E090E0E091C502F091C60230E0FF
:101A800020E0B0E0A0E0309799F42115310509F489
:101A90004AC0281B390B24303105D8F58A819B8137
:101AA0006115710589F1FB0193838283FE0111C0E9
:101AB000408151810281138148175907E0F048178E
:101AC000590799F4109761F012960C931297139698
:101AD0001C933296CF01DF91CF911F910F91089502
:101AE0000093C5021093C602F4CF2115310551F0C1
:101AF0004217530738F0A901DB019A01BD01DF014C
:101B0000F801C1CFEF01F9CF9093C6028093C502CF
:101B1000CDCFFE01E20FF31F819391932250310943
:101B200039832883D7CF2091C3023091C402232B5D
:101B300041F420910202309103023093C4022093B9
:101B4000C30220910002309101022115310541F4B8
:101B50002DB73EB74091040250910502241B350B6E
:101B6000E091C302F091C402E217F307A0F42E1B28
:101B70003F0B2817390778F0AC014E5F5F4F2417F1
:101B8000350748F04E0F5F1F5093C4024093C302C5
:101B9000819391939FCFF0E0E0E09CCFCF93DF93D0
:101BA0000097E9F0FC01329713821282A091C502DE
:101BB000B091C602ED0130E020E01097A1F4208141
:101BC0003181820F931F2091C3023091C4022817E4
:101BD000390709F061C0F093C402E093C302DF91BA
:101BE000CF910895EA01CE17DF07E8F54A815B81BE
:101BF0009E0141155105B1F7E901FB83EA83499143
:101C00005991C40FD51FEC17FD0761F480819181B4
:101C10000296840F951FE9019983888382819381BD
:101C20009B838A83F0E0E0E012968D919C9113975C
:101C30000097B9F52D913C911197CD010296820F35
:101C4000931F2091C3023091C4022817390739F637
:101C5000309751F51092C6021092C502B093C4029B
:101C6000A093C302BCCFD383C28340815181840F30
:101C7000951FC817D90761F44E5F5F4F888199811E
:101C8000480F591F518340838A819B8193838283AC
:101C90002115310509F0B0CFF093C602E093C502DB
:101CA0009ECFFD01DC01C0CF13821282D7CF4F92AD
:101CB0005F926F927F928F929F92AF92BF92CF92DC
:101CC000DF92EF92FF920F931F93CF93DF938C01DC
:101CD000009799F4CB01DF91CF911F910F91FF9065
:101CE000EF90DF90CF90BF90AF909F908F907F90BC
:101CF0006F905F904F900C94320DFC01E60FF71F30
:101D00009C0122503109E217F30708F4AEC0D90153
:101D1000CD91DC911197C617D70720F1C530D105B9
:101D200078F0CE0104978617970750F0C61BD70BA3
:101D30002297C193D1936D937C93CF010E94CE0DD6
:101D4000C801DF91CF911F910F91FF90EF90DF902D
:101D5000CF90BF90AF909F908F907F906F905F904B
:101D60004F9008955B01AC1ABD0A4C018C0E9D1E6C
:101D7000A091C502B091C602512C412CF12CE12C4E
:101D8000109731F58091C3029091C402881599058E
:101D900009F05CC04616570608F058C08091000252
:101DA00090910102009741F48DB79EB740910402D3
:101DB00050910502841B950BE817F90708F055C0F0
:101DC000F093C402E093C302F90171836083B8CF3A
:101DD0008D919C91119712966C90129713967C900E
:101DE0001397A815B90559F56C0142E0C40ED11C32
:101DF000CA14DB0420F1AC014A195B09DA0112961E
:101E0000159780F06282738251834083D9016D936C
:101E10007C93E114F10471F0D7011396FC93EE93D7
:101E200012978ECF22968C0F9D1FF901918380838C
:101E3000F301EFCFF093C602E093C50281CF4816BD
:101E4000590608F42C017D01D3019ACFCB010E94E1
:101E5000320D7C01009749F0AE01B8010E94380FA5
:101E6000C8010E94CE0D87016BCF10E000E068CF63
:101E7000FB01DC0102C001900D9241505040D8F7A7
:101E80000895FB01DC0101900D920020E1F7089517
:041E9000F894FFCFF4
:101E94000000C70280000000000051027B01A8017D
:0C1EA4009E021902B7010B020D0A00009B
:00000001FF
