:100000000C943B010C946C010C946C010C946C01ED
:100010000C946C010C946C010C946C010C946C01AC
:100020000C946C010C946C010C946C010C946C019C
:100030000C946C010C946C010C946C010C946C018C
:100040000C946C010C94A6060C946C010C946C013D
:100050000C946C010C946C010C946C010C94D20502
:100060000C946C010C949C050C9472050C946C011E
:100070000C946C010C946C010C946C010C946C014C
:100080000C9478060C946C010C946C010C946C012B
:100090000C946C010C946C010C946C010C946C012C
:1000A0000C946C010C946C010C944A060C946C0139
:1000B0000C946C010C946C010C946C010C941C0657
:1000C0000C946C010C946C010C946C010C946C01FC
:1000D0000C946C010C946C010C946C010C946C01EC
:1000E0000C946C010C944F030C946E020C9453030B
:1000F0000C9461030C9434030C94D8010C943003D9
:100100000C946B030C9414020C9445030C94490357
:100110000C9465030C9463040C94D4060C9457035C
:100120000C9436020C94BB020C9437040C943C03E0
:100130000C946F030C946A030C943F030C943803E3
:100140000C9405020C945F040C942A030C945D0338
:100150000C942802000020002300260029002C0017
:100160002F00320000010000030106010901000018
:100170002100240027002A002D0030003300010157
:100180000000040107010A010000220025002800E8
:100190002B002E003100340002010000050108018F
:1001A0000B010505050507050808080802020202FB
:1001B0000A0A080804040404010101010101010103
:1001C0000303030303030303040707070C0C0C0CCE
:1001D0000C0C0C0C020202020606060606060606B7
:1001E0000B0B0B0B0B0B0B0B010210202008081044
:1001F0002040102040800201020108040201010297
:10020000040810204080804020100804020180046F
:1002100002018040201008040201080402010102CA
:1002200004081020408001020408102040800000D3
:100230000A0B02090C0D0E08070304010000000060
:1002400000000000000000000000000000000000AE
:10025000000000000000000000001211100000006B
:10026000000000000000000000000000000000008E
:1002700000000000D40611241FBECFEFD1E2DEBF84
:10028000CDBF00E00CBF12E0A0E0B2E0EAEBF2E18B
:1002900000E00BBF02C007900D92A833B107D9F759
:1002A00023E0A8E3B2E001C01D92A53EB207E1F74A
:1002B00011E0CBE3D1E000E006C021970109802FD7
:1002C000FE010E945309CA33D10780E00807A9F74D
:1002D0000E947B070C945B090C9400008F929F9204
:1002E000AF92BF92FF920F931F93CF93DF938F3FF5
:1002F000980711F490E080E0F09073032FE22F153F
:1003000008F44CC02091750308E512E0021B1109A6
:1003100027FD1395000F111F000F111F209174036B
:10032000C8E8D0E0C21BD10927FDD395CC0FDD1F53
:10033000CC0FDD1F4E010D2E000CAA08BB08980142
:10034000012E000C440B550B281939094A095B0989
:10035000DC010E940E0924EB30E040E050E00E94F6
:10036000E408820E931EA41EB51E8C169D062CF06A
:10037000E801801691060CF4E4012297CC0FDD1FF2
:100380002FB7F8948F2D90E0FC01EE0FFF1FE80FC0
:10039000F91FEE51FD4FD283C1832FBFDF91CF9163
:1003A0001F910F91FF90BF90AF909F908F900895F5
:1003B000AF92BF92CF92DF92EF92FF920F931F9373
:1003C000CF93DF936C017B018B01040F151FEB01B1
:1003D0005E01AE18BF08C017D10759F06991D60168
:1003E000ED91FC910190F081E02DC6011995892BCA
:1003F00079F7C501DF91CF911F910F91FF90EF9099
:10040000DF90CF90BF90AF900895FC01538D448D45
:10041000252F30E0842F90E0821B930B541710F0AF
:10042000CF96089501970895FC01918D828D9817BC
:1004300061F0A28DAE0FBF2FB11D5D968C91928D94
:100440009F5F9F73928F90E008958FEF9FEF0895C5
:10045000FC01918D828D981731F0828DE80FF11D8E
:10046000858D90E008958FEF9FEF0895FC01918DA9
:10047000228D892F90E0805C9F4F821B91098F73A2
:100480009927089585E492E00E94360221E0892BA5
:1004900009F420E0822F0895FC01A48DA80FB92F44
:1004A000B11DA35ABF4F2C91848D90E001968F739C
:1004B0009927848FA689B7892C93A089B1898C91BB
:1004C000837080648C93938D848D981306C002880A
:1004D000F389E02D80818F7D80830895EF92FF92D4
:1004E0000F931F93CF93DF93EC0181E0888F9B8D57
:1004F0008C8D98131AC0E889F989808185FF15C011
:100500009FB7F894EE89FF896083E889F989808133
:100510008370806480839FBF81E090E0DF91CF9102
:100520001F910F91FF90EF900895F62E0B8D10E024
:100530000F5F1F4F0F731127E02E8C8D8E110CC093
:100540000FB607FCFACFE889F989808185FFF5CFDE
:10055000CE010E944C02F1CFEB8DEC0FFD2FF11D6F
:10056000E35AFF4FF0829FB7F8940B8FEA89FB891B
:1005700080818062CFCFCF93DF93EC01888D882379
:10058000B9F0AA89BB89E889F9898C9185FD03C0F6
:10059000808186FD0DC00FB607FCF7CF8C9185FFDB
:1005A000F2CF808185FFEDCFCE010E944C02E9CFD2
:1005B000DF91CF91089580E090E0892B29F00E948F
:1005C000420281110E94000080E090E0892B49F0F6
:1005D00080E090E0892B29F00E94000081110E94A8
:1005E000000080E090E0892B49F080E090E0892BCA
:1005F00029F00E94000081110E94000080E090E03C
:10060000892B49F080E090E0892B29F00E940000BE
:1006100081110C94000008958150823108F05AC075
:10062000E82FF0E08827E85EFC4F8F4F0C945309C9
:1006300038033C032A03300334036A033F034503B2
:1006400049034F03530357035D0361036A036503C3
:100650006B036F03809180008F77809380000895F3
:10066000809180008F7DF9CF80918000877FF5CFCA
:1006700084B58F7784BD089584B58F7DFBCF80913D
:10068000B0008F778093B00008958091B0008F7D87
:10069000F9CF809190008F7780939000089580919A
:1006A00090008F7DF9CF80919000877FF5CF80916A
:1006B000A0008F778093A00008958091A0008F7D87
:1006C000F9CF8091A000877FF5CF809120018F77AF
:1006D000809320010895809120018F7DF9CF809132
:1006E0002001877FF5CF1F93CF93DF93282F30E032
:1006F000F901E25DFD4F8491F901E851FE4FD4917B
:10070000F901EE55FE4FC491CC23A9F0162F8111AB
:100710000E940C03EC2FF0E0EE0FFF1FE857FE4F96
:10072000A591B4918FB7F894EC91111108C0D095B0
:10073000DE23DC938FBFDF91CF911F910895DE2BD5
:10074000F8CFCF93DF9390E0FC01E851FE4F249166
:100750008E559E4FFC0184918823C9F090E0880F4C
:10076000991FFC01E259FE4FA591B491FC01E85795
:10077000FE4FC591D49161110DC09FB7F8948C9133
:10078000209582238C938881282328839FBFDF9123
:10079000CF910895623051F49FB7F8943C91822F25
:1007A000809583238C93E8812E2BEFCF8FB7F8941D
:1007B000EC912E2B2C938FBFEACF3FB7F89480910A
:1007C000410290914202A0914302B091440226B5A9
:1007D000A89B05C02F3F19F00196A11DB11D3FBF79
:1007E000BA2FA92F982F8827BC01CD01620F711D48
:1007F000811D911D42E0660F771F881F991F4A9542
:10080000D1F708958F929F92AF92BF92CF92DF92CD
:10081000EF92FF920E94DD034B015C018AE0C82E3B
:10082000D12CE12CF12C0E94DD03681979098A0989
:100830009B09683E734081059105A8F321E0C21A27
:10084000D108E108F10888EE880E83E0981EA11C0B
:10085000B11CC114D104E104F10429F7FF90EF9019
:10086000DF90CF90BF90AF909F908F900895CF93DF
:10087000DF9370E0FB01E25DFD4F8491FB01E851E5
:10088000FE4FD4916E557E4FFB01C491CC23A1F055
:1008900081110E940C03EC2FF0E0EE0FFF1FEC5AC9
:1008A000FE4FA591B491EC91ED2381E090E009F425
:1008B00080E0DF91CF91089580E090E0FACF862F1D
:1008C000642F0C947303862F642F0C94A103AF92B2
:1008D000BF92CF92DF92EF92FF920F931F93CF932D
:1008E000DF936B017A01EC01C85CDD4F28813CE0AD
:1008F000389F8001399F100D1124A0907203B12CF4
:1009000027FF1FC0FB011182108288818F5F8883BF
:1009100088819801280F311D87FD3A95F6012A1527
:100920003B051CF488818C30C4F180819181049650
:1009300080349C4908F473C0F6018081918104964B
:1009400070C088819801280F311D87FD3A952A15BE
:100950003B05DCF68881A801480F511D87FD5A959B
:10096000FA01EE0FFF1FE40FF51FEE51FD4F8081DE
:1009700086FFCBCF8881F801E80FF11D87FDFA953E
:10098000CF01EE0FFF1FE80FF91FEE51FD4F8081E1
:1009900060E08F730E947303B8CF808191812881BA
:1009A000A801420F511D27FD5A959A01FA01EE0F39
:1009B000FF1FE20FF31FEE51FD4F21813281820FA5
:1009C000931FF7019183808388819801280F311D3F
:1009D00087FD3A95F901EE0FFF1FE20FF31FEE516D
:1009E000FD4F808186FF22C08881080F111D87FD81
:1009F0001A95F801EE0FFF1FE00FF11FEE51FD4FAA
:100A0000808161E08F73DF91CF911F910F91FF90F3
:100A1000EF90DF90CF90BF90AF900C94730380E481
:100A20009CE9F701918380838FEF8883DF91CF91D9
:100A30001F910F91FF90EF90DF90CF90BF90AF90FC
:100A40000895FC0101900020E9F73197AF01481BA0
:100A5000590BBC0185E492E00C94D8018F929F92CF
:100A6000AF92BF920F931F93CF93DF93CDB7DEB7B3
:100A7000A1970FB6F894DEBF0FBECDBF19A24230CA
:100A800008F44AE08E010F5D1F4F842E912CB12C8B
:100A9000A12CA50194010E941609E62FB901CA01F3
:100AA000EA30F4F4E05DD801EE938D01232B242B82
:100AB000252B79F790E080E0109719F0CD010E9486
:100AC0002105A1960FB6F894DEBF0FBECDBFDF9112
:100AD000CF911F910F91BF90AF909F908F900895ED
:100AE000E95CE1CF1F920F920FB60F9211240BB663
:100AF0000F922F933F934F935F936F937F938F93B7
:100B00009F93AF93BF93EF93FF9385E492E00E948E
:100B10004C02FF91EF91BF91AF919F918F917F9187
:100B20006F915F914F913F912F910F900BBE0F905E
:100B30000FBE0F901F9018951F920F920FB60F9235
:100B400011240BB60F922F938F939F93EF93FF93E4
:100B5000E0915502F09156028081E0915B02F091A4
:100B60005C0282FD1DC0908180915E028F5F8F7359
:100B700020915F02821741F0E0915E02F0E0EB5BB2
:100B8000FD4F958F80935E02FF91EF919F918F9122
:100B90002F910F900BBE0F900FBE0F901F901895C6
:100BA0008081F2CF1F920F920FB60F9211242F93D4
:100BB0003F938F939F93AF93BF9380913D0290910A
:100BC0003E02A0913F02B091400230913C0223E0EE
:100BD000230F2D3758F50196A11DB11D20933C021E
:100BE00080933D0290933E02A0933F02B093400257
:100BF0008091410290914202A0914302B09144023F
:100C00000196A11DB11D8093410290934202A093D1
:100C10004302B0934402BF91AF919F918F913F9156
:100C20002F910F900FBE0F901F90189526E8230F5D
:100C30000296A11DB11DD2CF1F920F920FB60F9237
:100C400011240BB60F922F933F934F935F936F93A3
:100C50007F938F939F93AF93BF93EF93FF9348E25C
:100C600051E064E271E090E080E00E946704FF914F
:100C7000EF91BF91AF919F918F917F916F915F9114
:100C80004F913F912F910F900BBE0F900FBE0F9081
:100C90001F9018951F920F920FB60F9211240BB64A
:100CA0000F922F933F934F935F936F937F938F9305
:100CB0009F93AF93BF93EF93FF9348EA50E064EAAA
:100CC00070E083E090E00E946704FF91EF91BF9194
:100CD000AF919F918F917F916F915F914F913F91D4
:100CE0002F910F900BBE0F900FBE0F901F90189575
:100CF0001F920F920FB60F9211240BB60F922F93E3
:100D00003F934F935F936F937F938F939F93AF9393
:100D1000BF93EF93FF9348E950E064E970E082E00D
:100D200090E00E946704FF91EF91BF91AF919F9176
:100D30008F917F916F915F914F913F912F910F9084
:100D40000BBE0F900FBE0F901F9018951F920F9221
:100D50000FB60F9211240BB60F922F933F934F9320
:100D60005F936F937F938F939F93AF93BF93EF9313
:100D7000FF9348E850E064E870E081E090E00E9472
:100D80006704FF91EF91BF91AF919F918F917F91F8
:100D90006F915F914F913F912F910F900BBE0F90EC
:100DA0000FBE0F901F9018951092480210924702A4
:100DB00088EE93E0A0E0B0E08093490290934A026D
:100DC000A0934B02B0934C028CE192E090934602C8
:100DD0008093450285EC90E09093520280935102FB
:100DE00084EC90E0909354028093530280EC90E066
:100DF000909356028093550281EC90E090935802B4
:100E00008093570282EC90E090935A0280935902AB
:100E100086EC90E090935C0280935B0210925E02FD
:100E200010925F0210926002109261021092780399
:100E300010927C0310927B0310927D038EE292E06D
:100E40009093770380937603E2E9F3E010821482B3
:100E500013821582369683E0EE3CF807B9F784E0FA
:100E600092E09093D9038093D80380E092E090932E
:100E7000DB038093DA0384E08093DC038093DD035B
:100E800088E092E09093D7038093D6038AE090E0C5
:100E90009093DF038093DE0384EF91E09093E1036E
:100EA0008093E0031092E4031092E3031092D203C4
:100EB0001092D3031092D4031092D5031092E20340
:100EC00080917203803398F491E0980F90937203AD
:100ED0008093730390E0FC01EE0FFF1FE80FF91FF2
:100EE000EE51FD4F88EB9BE09283818308958FEF55
:100EF000809373030895789484B5826084BD84B52B
:100F0000816084BD85B5826085BD85B5816085BD04
:100F100080916E00816080936E00109281008091BC
:100F20008100826080938100809181008160809344
:100F30008100809180008160809380008091B10069
:100F400084608093B1008091B00081608093B00094
:100F500080919100826080939100809191008160E6
:100F600080939100809190008160809390008091A7
:100F7000A10082608093A1008091A1008160809394
:100F8000A1008091A00081608093A0008091210148
:100F900082608093210180912101816080932101F1
:100FA0008091200181608093200180917A0084608B
:100FB00080937A0080917A00826080937A00809199
:100FC0007A00816080937A0080917A0080688093B3
:100FD0007A001092C10080917303803308F054C0EE
:100FE00061E089E00E94A10380917303282F30E023
:100FF000F901EE0FFF1FE20FF31FEE51FD4F90813D
:10100000907C996090839EE89093740394E690930B
:1010100075032CE0622F0E944709829FB0011124C2
:1010200030E020E0AB01420F531FFA01EE0FFF1F2B
:10103000E40FF51FEE51FD4F908196FD17C02F5F15
:101040003F4F2C30310571F7813009F091C010927B
:10105000800082E0809381001092850010928400CD
:10106000B19A80916F00826080936F00E09173036A
:101070008E2F90E0FC01EE0FFF1FE80FF91FEE51DD
:10108000FD4F808180648083E0915502F09156028B
:1010900082E08083E0915102F09152021082E0914F
:1010A0005302F09154028FEC808310925D02E09124
:1010B0005902F0915A0286E08083E0915702F09144
:1010C0005802808180618083E0915702F09158023C
:1010D000808188608083E0915702F091580280817E
:1010E00080688083E0915702F091580280818F7D63
:1010F0008083C12CD12C7601C6010E946E014AE08A
:10110000C701B6010E942E0584E392E00E942105EA
:101110000E9402048FEFC81AD80AE80AF80A8BE581
:10112000C816D104E104F10439F70E9402048AE5EB
:10113000C82ED12CE12CF12CC6010E946E014AE090
:10114000C701B6010E942E0584E392E00E942105AA
:101150000E94020481E0C81AD108E108F1088FEF6B
:10116000C816D806E806F80639F70E94DB02C1CF98
:10117000823061F41092900080939100109295005B
:101180001092940088BB8093710070CF833069F413
:101190001092A00082E08093A1001092A50010920E
:1011A000A40089BB8093720061CF81115FCF109240
:1011B000200182E0809321011092250110922401E8
:1011C0008ABB8093730052CF052E97FB1EF40094C8
:1011D0000E94FB0857FD07D00E94160907FC03D0A8
:1011E0004EF40C94FB0850954095309521953F4F57
:1011F0004F4F5F4F089590958095709561957F4F03
:101200008F4F9F4F08950E943809A59F900DB49F5E
:10121000900DA49F800D911D11240895B7FF0C948B
:1012200003090E940309821B930B0895A1E21A2E61
:10123000AA1BBB1BFD010DC0AA1FBB1FEE1FFF1F7A
:10124000A217B307E407F50720F0A21BB30BE40BCA
:10125000F50B661F771F881F991F1A9469F7609511
:101260007095809590959B01AC01BD01CF010895CB
:10127000A29FB001B39FC001A39F700D811D1124D7
:10128000911DB29F700D811D1124911D0895991B10
:1012900079E004C0991F961708F0961B881F7A956D
:1012A000C9F780950895EE0FFF1F881F8BBF079029
:0A12B000F691E02D1994F894FFCF99
:1012BA001F21232517191B1D3738392F3435362A94
:1012CA003132332D4F303D2B000000006E02D80121
:1012DA000502BB0236021402280200000000630461
:0812EA005F0437040D0A000047
:00000001FF
