:100000000C9428010C9459010C9459010C94590139
:100010000C9459010C9459010C9459010C945901F8
:100020000C9459010C9459010C9459010C945901E8
:100030000C9459010C9459010C9459010C945901D8
:100040000C9459010C943B050C9459010C945901E2
:100050000C9459010C9459010C9459010C946704A7
:100060000C9459010C9431040C9407040C9459011C
:100070000C9459010C9459010C9459010C94590198
:100080000C940D050C9459010C9459010C945901D0
:100090000C9459010C9459010C9459010C94590178
:1000A0000C9459010C9459010C94DF040C945901DF
:1000B0000C9459010C9459010C9459010C94B104FD
:1000C0000C9459010C9459010C9459010C94590148
:1000D0000C9459010C9459010C9459010C94590138
:1000E0000C9459010C94E2020C94BF020C94EB02A4
:1000F0000C9469050C945B010C94D6020C940703D4
:100100000C94F1010C94AB010C94DA020C94FD02F6
:100110000C94EF020C94F5020C94E5020C94DE02B0
:100120000C94B9010C9403030C94C4020C943E0289
:100130000C9488010C9415030C9411030C940B037C
:100140000C9497010C94F90200000A0B02090C0DA3
:100150000E0807030401000000000000000000007A
:10016000000000000000000000000000000000008F
:10017000000000001211100000000000000000004C
:10018000000000000000000000000000000000006F
:100190002200250028002B002E003100340002012F
:1001A0000000050108010B010000210024002700C8
:1001B0002A002D0030003300010100000401070176
:1001C0000A010505050507050808080802020202DC
:1001D0000A0A0808040404040101010101010101E3
:1001E0000303030303030303040707070C0C0C0CAE
:1001F0000C0C0C0C02020202060606060606060697
:100200000B0B0B0B0B0B0B0B010210202008081023
:100210002040102040800201020108040201010276
:10022000040810204080804020100804020180044F
:1002300002018040201008040201080402010102AA
:100240000408102040800102040810204080690545
:1002500011241FBECFEFD1E2DEBFCDBF00E00CBF47
:1002600012E0A0E0B2E0E0E4F1E100E00BBF02C088
:1002700007900D92A632B107D9F723E0A6E2B2E0CB
:1002800001C01D92A636B207E1F711E0C8E2D1E045
:1002900000E006C021970109802FFE010E948F080F
:1002A000C732D10780E00807A9F70E94C6050C9461
:1002B0009E080C940000AF92BF92CF92DF92EF9213
:1002C000FF920F931F93CF93DF936C017B018B0100
:1002D000040F151FEB015E01AE18BF08C017D10750
:1002E00059F06991D601ED91FC910190F081E02DDA
:1002F000C6011995892B79F7C501DF91CF911F911F
:100300000F91FF90EF90DF90CF90BF90AF90089546
:10031000FC01538D448D252F30E0842F90E0821B0B
:10032000930B541710F0CF96089501970895FC0190
:10033000918D828D981761F0A28DAE0FBF2FB11DE8
:100340005D968C91928D9F5F9F73928F90E0089540
:100350008FEF9FEF0895FC01918D828D981731F0FA
:10036000828DE80FF11D858D90E008958FEF9FEF4E
:100370000895FC01918D228D892F90E0805C9F4F24
:10038000821B91098F739927089585E392E00E945B
:10039000B90121E0892B09F420E0822F0895FC01A6
:1003A000A48DA80FB92FB11DA35ABF4F2C91848DD6
:1003B00090E001968F739927848FA689B7892C9333
:1003C000A089B1898C91837080648C93938D848D86
:1003D000981306C00288F389E02D80818F7D808389
:1003E0000895EF92FF920F931F93CF93DF93EC0149
:1003F00081E0888F9B8D8C8D98131AC0E889F989CC
:10040000808185FF15C09FB7F894EE89FF896083CE
:10041000E889F98980818370806480839FBF81E04F
:1004200090E0DF91CF911F910F91FF90EF90089591
:10043000F62E0B8D10E00F5F1F4F0F731127E02E6C
:100440008C8D8E110CC00FB607FCFACFE889F989A4
:10045000808185FFF5CFCE010E94CF01F1CFEB8DDA
:10046000EC0FFD2FF11DE35AFF4FF0829FB7F89478
:100470000B8FEA89FB8980818062CFCFCF93DF9396
:10048000EC01888D8823B9F0AA89BB89E889F989AC
:100490008C9185FD03C0808186FD0DC00FB607FCE1
:1004A000F7CF8C9185FFF2CF808185FFEDCFCE0114
:1004B0000E94CF01E9CFDF91CF91089580E090E0D5
:1004C000892B29F00E94C50181110E94000080E063
:1004D00090E0892B49F080E090E0892B29F00E9480
:1004E000000081110E94000080E090E0892B49F01B
:1004F00080E090E0892B29F00E94000081110E9489
:10050000000080E090E0892B49F080E090E0892BAA
:1005100029F00E94000081110C9400000895282FFA
:1005200030E0F901E85BFE4F9491F901E85FFD4F7F
:1005300044912E533E4FF9012491222309F435C0F2
:10054000992311F191509231F8F4E92FF0E08827C6
:10055000E355FD4F8F4F0C948F08DE02E202BF027D
:10056000D602DA02C402E502EB02EF02F502F9025A
:10057000FD0203030703C4020B031103150380915B
:1005800080008F7780938000E22FF0E0EE0FFF1F56
:10059000E257FE4FA591B4918FB7F894EC91611199
:1005A00048C040954E234C938FBF089580918000A2
:1005B0008F7DE8CF80918000877FE4CF84B58F77EF
:1005C00084BDE2CF84B58F7DFBCF8091B0008F7763
:1005D0008093B000D9CF8091B0008F7DF9CF80910A
:1005E00090008F7780939000CFCF809190008F7D87
:1005F000F9CF80919000877FF5CF8091A0008F7711
:100600008093A000C1CF8091A0008F7DF9CF809111
:10061000A000877FF5CF809120018F778093200104
:10062000B3CF809120018F7DF9CF80912001877F0A
:10063000F5CF4E2BB8CF3FB7F89480912F02909111
:100640003002A0913102B091320226B5A89B05C0BC
:100650002F3F19F00196A11DB11D3FBFBA2FA92F41
:10066000982F8827BC01CD01620F711D811D911D3E
:1006700042E0660F771F881F991F4A95D1F70895AA
:10068000AF92BF92CF92DF92EF92FF920F931F93A0
:10069000CF93DF936B017A01EC01CA5DDD4F2881B6
:1006A0003CE0389F8001399F100D1124A090620317
:1006B000B12C27FF1FC0FB011182108288818F5F40
:1006C000888388819801280F311D87FD3A95F601AE
:1006D0002A153B051CF488818C30C4F180819181FE
:1006E000049680349C4908F473C0F601808191819E
:1006F000049670C088819801280F311D87FD3A95B6
:100700002A153B05DCF68881A801480F511D87FD9D
:100710005A95FA01EE0FFF1FE40FF51FEE52FD4F41
:10072000808186FFCBCF8881F801E80FF11D87FD1E
:10073000FA95CF01EE0FFF1FE80FF91FEE52FD4FA4
:10074000808160E08F730E948F02B8CF8081918199
:100750002881A801420F511D27FD5A959A01FA01DF
:10076000EE0FFF1FE20FF31FEE52FD4F218132818A
:10077000820F931FF7019183808388819801280F4E
:10078000311D87FD3A95F901EE0FFF1FE20FF31FB0
:10079000EE52FD4F808186FF22C08881080F111D17
:1007A00087FD1A95F801EE0FFF1FE00FF11FEE52C3
:1007B000FD4F808161E08F73DF91CF911F910F9189
:1007C000FF90EF90DF90CF90BF90AF900C948F028E
:1007D00080E49CE9F701918380838FEF8883DF9128
:1007E000CF911F910F91FF90EF90DF90CF90BF902E
:1007F000AF900895FC0101900020E9F73197AF0117
:10080000481B590BBC0185E392E00C945B011F92DD
:100810000F920FB60F9211240BB60F922F933F93A6
:100820004F935F936F937F938F939F93AF93BF93F8
:10083000EF93FF9385E392E00E94CF01FF91EF9148
:10084000BF91AF919F918F917F916F915F914F91E8
:100850003F912F910F900BBE0F900FBE0F901F90E6
:1008600018951F920F920FB60F9211240BB60F928C
:100870002F938F939F93EF93FF93E0914502F09115
:1008800046028081E0914B02F0914C0282FD1DC036
:10089000908180914E028F5F8F7320914F0282175B
:1008A00041F0E0914E02F0E0EB5CFD4F958F8093BC
:1008B0004E02FF91EF919F918F912F910F900BBE60
:1008C0000F900FBE0F901F9018958081F2CF1F924E
:1008D0000F920FB60F9211242F933F938F939F93F4
:1008E000AF93BF9380912B0290912C02A0912D0287
:1008F000B0912E0230912A0223E0230F2D3758F5B4
:100900000196A11DB11D20932A0280932B02909382
:100910002C02A0932D02B0932E0280912F02909171
:100920003002A0913102B09132020196A11DB11D99
:1009300080932F0290933002A0933102B093320241
:10094000BF91AF919F918F913F912F910F900FBECB
:100950000F901F90189526E8230F0296A11DB11D38
:10096000D2CF1F920F920FB60F9211240BB60F9297
:100970002F933F934F935F936F937F938F939F93A7
:10098000AF93BF93EF93FF9348E251E064E271E0CD
:1009900090E080E00E944003FF91EF91BF91AF9102
:1009A0009F918F917F916F915F914F913F912F9187
:1009B0000F900BBE0F900FBE0F901F9018951F92B7
:1009C0000F920FB60F9211240BB60F922F933F93F5
:1009D0004F935F936F937F938F939F93AF93BF9347
:1009E000EF93FF9348EA50E064EA70E083E090E020
:1009F0000E944003FF91EF91BF91AF919F918F9122
:100A00007F916F915F914F913F912F910F900BBE0E
:100A10000F900FBE0F901F9018951F920F920FB658
:100A20000F9211240BB60F922F933F934F935F9326
:100A30006F937F938F939F93AF93BF93EF93FF93A6
:100A400048E950E064E970E082E090E00E944003F1
:100A5000FF91EF91BF91AF919F918F917F916F9196
:100A60005F914F913F912F910F900BBE0F900FBE52
:100A70000F901F9018951F920F920FB60F9211248E
:100A80000BB60F922F933F934F935F936F937F9388
:100A90008F939F93AF93BF93EF93FF9348E850E0FA
:100AA00064E870E081E090E00E944003FF91EF91E4
:100AB000BF91AF919F918F917F916F915F914F9176
:100AC0003F912F910F900BBE0F900FBE0F901F9074
:100AD0001895109238021092370288EE93E0A0E049
:100AE000B0E08093390290933A02A0933B02B09316
:100AF0003C0284E092E0909336028093350285ECCC
:100B000090E0909342028093410284EC90E09093B5
:100B100044028093430280EC90E0909346028093DD
:100B2000450281EC90E0909348028093470282EC6A
:100B300090E090934A028093490286EC90E0909373
:100B40004C0280934B0210924E0210924F02109270
:100B500050021092510280916203803398F491E028
:100B6000980F909362038093630390E0FC01EE0F73
:100B7000FF1FE80FF91FEE52FD4F88EB9BE09283B9
:100B8000818308958FEF809363030895CF93DF935C
:100B9000CDB7DEB7A1970FB6F894DEBF0FBECDBFBD
:100BA000789484B5826084BD84B5816084BD85B548
:100BB000826085BD85B5816085BD80916E00816054
:100BC00080936E00109281008091810082608093FA
:100BD00081008091810081608093810080918000FC
:100BE0008160809380008091B10084608093B10027
:100BF0008091B00081608093B0008091910082600C
:100C00008093910080919100816080939100809108
:100C100090008160809390008091A1008260809319
:100C2000A1008091A10081608093A1008091A0002B
:100C300081608093A00080912101826080932101D6
:100C40008091210181608093210180912001816048
:100C50008093200180917A00846080937A00809153
:100C60007A00826080937A0080917A00816080931C
:100C70007A0080917A00806880937A001092C10097
:100C800080916303803308F06BC0E1E1F2E02491CE
:100C9000EBECF1E08491882399F090E0880F991FA4
:100CA000FC01E855FE4FA591B491FC01E257FE4FBF
:100CB000859194918FB7F894EC91E22BEC938FBFD0
:100CC00080916303282F30E0F901EE0FFF1FE20F40
:100CD000F31FEE52FD4F9081907C996090839EE8C7
:100CE0009093640394E6909365032CE0622F0E9436
:100CF0008308829FB001112430E020E0AB01420F55
:100D0000531FFA01EE0FFF1FE40FF51FEE52FD4FC8
:100D1000908196FD17C02F5F3F4F2C30310571F742
:100D2000813009F04DC11092800082E080938100F3
:100D30001092850010928400B19A80916F008260B9
:100D400080936F00E09163038E2F90E0FC01EE0F23
:100D5000FF1FE80FF91FEE52FD4F808180648083F2
:100D6000E0914502F091460282E08083E0914102E9
:100D7000F09142021082E0914302F09144028FEC24
:100D8000808310924D02E0914902F0914A0286E080
:100D90008083E0914702F0914802808180618083E6
:100DA000E0914702F0914802808188608083E09161
:100DB0004702F0914802808180688083E091470279
:100DC000F091480280818F7D8083AAE08A2E912C49
:100DD000A12CB12CB8E82B2E312C82E192E00E949C
:100DE000FA0380917B00877F80937B0020E420932F
:100DF0007C0080917A00806480937A0080917A00F0
:100E000086FDFCCF80917800A0917900BA2FA82FA1
:100E100024EB30E00E9497082FEF33E040E050E0F1
:100E20000E94200869017A01309334022093330232
:100E3000F7FEF2C06DE285E392E00E94F101222705
:100E40003327A9012C193D094E095F0919A28E010A
:100E50000F5D1F4FCA01B901A50194010E945208FC
:100E6000605DF80162938F0121153105410551053F
:100E700089F70115110519F0C8010E94FA0382E2F1
:100E800092E00E94FA03A0913302B0913402A032A2
:100E9000F2E0BF07CCF5809164036101C81AD10864
:100EA00087FDD394CC0CDD1CCC0CDD1C0D2C000C70
:100EB000EE08FF088091650328E532E0281B310920
:100EC00087FD3395220F331F220F331F032E000C93
:100ED000440B550B2C193D094E095F09A53BB10583
:100EE00014F0A4EBB0E0B7FF02C0B0E0A0E00E94B5
:100EF0004A0824EB30E040E050E00E942008C20E97
:100F0000D31EE41EF51ED60120916303203380F525
:100F100080916403A101481B510987FD5395CA01C3
:100F2000880F991F880F991FA817B9078CF0809117
:100F30006503E8E5F2E0E81BF10987FDF395CF01D1
:100F4000880F991F880F991FA817B9070CF4CD01B6
:100F50000297880F991F4FB7F89430E0F901EE0F10
:100F6000FF1FE20FF31FEE52FD4F928381834FBFAD
:100F70000E941B032B013C0188EEC82E83E0D82E73
:100F8000E12CF12C0E941B0364197509860997094D
:100F9000683E734081059105A8F3F1E0CF1AD108AE
:100FA000E108F10828EE420E23E0521E611C711C7C
:100FB000C114D104E104F10429F70E945E020DCFAF
:100FC000823061F41092900080939100109295000D
:100FD0001092940088BB80937100B4CE833069F482
:100FE0001092A00082E08093A1001092A5001092C0
:100FF000A40089BB80937200A5CE8111A3CE10926C
:10100000200182E080932101109225011092240199
:101010008ABB8093730096CE19A28E010F5D1F4F7D
:10102000CA01B901A50194010E945208605DF8014E
:1010300062938F01211531054105510589F719CFBB
:10104000052E97FB1EF400940E94370857FD07D029
:101050000E94520807FC03D04EF40C9437085095B8
:101060004095309521953F4F4F4F5F4F0895909594
:101070008095709561957F4F8F4F9F4F08950E9487
:101080007408A59F900DB49F900DA49F800D911D95
:1010900011240895B7FF0C943F080E943F08821B5B
:1010A000930B0895A1E21A2EAA1BBB1BFD010DC0D4
:1010B000AA1FBB1FEE1FFF1FA217B307E407F50708
:1010C00020F0A21BB30BE40BF50B661F771F881FE4
:1010D000991F1A9469F760957095809590959B017A
:1010E000AC01BD01CF010895A29FB001B39FC00123
:1010F000A39F700D811D1124911DB29F700D811D44
:101100001124911D0895991B79E004C0991F961729
:1011100008F0961B881F7A95C9F780950895EE0F01
:10112000FF1F881F8BBF0790F691E02D19940E9436
:101130007408B7FF0895821B930B0895F894FFCFAE
:1011400000000000F1015B0188013E02B901970136
:10115000AB01506F74656E74696F6D657465723A3A
:0611600020000D0A000052
:00000001FF
