:100000000C942B010C945C010C945C010C945C012D
:100010000C945C010C945C010C945C010C945C01EC
:100020000C945C010C945C010C945C010C945C01DC
:100030000C945C010C945C010C945C010C945C01CC
:100040000C945C010C945C010C945C010C945C01BC
:100050000C945C010C945C010C945C010C9487037F
:100060000C945C010C94FB030C94D1030C945C0184
:100070000C945C010C945C010C945C010C945C018C
:100080000C945C010C945C010C945C010C945C017C
:100090000C945C010C945C010C945C010C945C016C
:1000A0000C945C010C945C010C945C010C945C015C
:1000B0000C945C010C945C010C945C010C945C014C
:1000C0000C945C010C945C010C945C010C945C013C
:1000D0000C945C010C945C010C945C010C945C012C
:1000E0000C945C010C9426030C945F010C94470360
:1000F0000C9422030C9459030C94EF010C943502D8
:100100000C9439030C941A030C9441030C943D0392
:100110000C9431040C941E030C9446060C94290391
:100120000C942F030C9433030C9455030C94080384
:100130000C9482020C94FD010C944F030C948C01DE
:100140000C9403030C949B010C944B0300000A0BCA
:1001500002090C0D0E080703040100000000000056
:10016000000000000000000000000000000000008F
:10017000000000000000000012111000000000004C
:10018000000000000000000000000000000000006F
:10019000000000002200250028002B002E00310066
:1001A000340002010000050108010B0100002100DC
:1001B000240027002A002D00300033000101000038
:1001C000040107010A0105050505070508080808D7
:1001D000020202020A0A08080404040401010101DF
:1001E00001010101030303030303030304070707DA
:1001F0000C0C0C0C0C0C0C0C02020202060606067F
:10020000060606060B0B0B0B0B0B0B0B010210204B
:10021000200808102040102040800201020108043C
:1002200002010102040810204080804020100804D0
:100230000201800402018040201008040201080429
:10024000020101020408102040800102040810206D
:1002500040803104460611241FBECFEFD1E2DEBF3D
:10026000CDBF00E00CBF22E0A4E3B2E001C01D92CC
:10027000A43EB207E1F712E0A0E0B2E0E6E7F1E168
:1002800000E00BBF02C007900D92A433B107D9F76D
:1002900011E0CAE2D1E000E006C021970109802FF9
:1002A000FE010E948B06C932D10780E00807A9F73A
:1002B0000E94A7040C94A9080C9400000895AF9222
:1002C000BF92CF92DF92EF92FF920F931F93CF9343
:1002D000DF936C017B018B01040F151FEB015E01A5
:1002E000AE18BF08C017D10759F06991D601ED913A
:1002F000FC910190F081E02DC6011995892B79F7C9
:10030000C501DF91CF911F910F91FF90EF90DF908A
:10031000CF90BF90AF900895FC01538D448D252F51
:1003200030E0842F90E0821B930B541710F0CF968F
:10033000089501970895FC01918D828D981761F0C1
:10034000A28DAE0FBF2FB11D5D968C91928D9F5FD8
:100350009F73928F90E008958FEF9FEF08952FB7CE
:10036000F8948091390290913A02A0913B02B091A9
:100370003C022FBF8093450290934602A093470210
:10038000B09348028DE392E00E949B0197FF26C044
:100390002FB7F8948091390290913A02A0913B02D4
:1003A000B0913C022FBF40914502509146026091AE
:1003B000470270914802841B950BA60BB70B409126
:1003C00041025091420260914302709144028417AD
:1003D0009507A607B707B0F28FEF9FEF0895FC01CE
:1003E000918D828D981731F0828DE80FF11D858DEA
:1003F00090E008958FEF9FEF0895FC01918D228D7D
:10040000892F90E0805C9F4F821B91098F73992701
:1004100008958DE392E00E94FD0121E0892B09F40B
:1004200020E0822F0895FC01A48DA80FB92FB11DE3
:10043000A35ABF4F2C91848D90E001968F7399271A
:10044000848FA689B7892C93A089B1898C918370F8
:1004500080648C93938D848D981306C00288F389F1
:10046000E02D80818F7D80830895EF92FF920F931E
:100470001F93CF93DF93EC0181E0888F9B8D8C8D50
:1004800098131AC0E889F989808185FF15C09FB744
:10049000F894EE89FF896083E889F9898081837007
:1004A000806480839FBF81E090E0DF91CF911F91B6
:1004B0000F91FF90EF900895F62E0B8D10E00F5FD7
:1004C0001F4F0F731127E02E8C8D8E110CC00FB6AD
:1004D00007FCFACFE889F989808185FFF5CFCE0145
:1004E0000E941302F1CFEB8DEC0FFD2FF11DE35AAB
:1004F000FF4FF0829FB7F8940B8FEA89FB898081C8
:100500008062CFCFCF93DF93EC01888D8823B9F041
:10051000AA89BB89E889F9898C9185FD03C080810E
:1005200086FD0DC00FB607FCF7CF8C9185FFF2CF8B
:10053000808185FFEDCFCE010E941302E9CFDF91CC
:10054000CF91089580E090E0892B29F00E94090264
:1005500081110E94000080E090E0892B49F080E04A
:1005600090E0892B29F00E94000081110E94000078
:1005700080E090E0892B49F080E090E0892B29F021
:100580000E94000081110E94000080E090E0892B11
:1005900049F080E090E0892B29F00E940000811151
:1005A0000C9400000895282F30E0F901E45BFE4F21
:1005B0009491F901E45FFD4F44912A533E4FF901B4
:1005C0002491222309F435C0992311F191509231DD
:1005D000F8F4E92FF0E08827EF50FD4F8F4F0C948F
:1005E0008B062203260303031A031E0308032903B1
:1005F0002F03330339033D03410347034B03080330
:100600004F0355035903809180008F7780938000BA
:10061000E22FF0E0EE0FFF1FEE56FE4FA591B491D2
:100620008FB7F894EC91611148C040954E234C93DC
:100630008FBF0895809180008F7DE8CF80918000EA
:10064000877FE4CF84B58F7784BDE2CF84B58F7D7B
:10065000FBCF8091B0008F778093B000D9CF80918D
:10066000B0008F7DF9CF809190008F7780939000BC
:10067000CFCF809190008F7DF9CF80919000877FC0
:10068000F5CF8091A0008F778093A000C1CF80919B
:10069000A0008F7DF9CF8091A000877FF5CF80915A
:1006A00020018F7780932001B3CF809120018F7D2F
:1006B000F9CF80912001877FF5CF4E2BB8CF0F93D4
:1006C0001F93CF93DF93EC0188819981009759F0B4
:1006D0002A813B812617370730F081E0DF91CF91E7
:1006E0001F910F9108958B016F5F7F4F0E94B80794
:1006F000009759F0998388831B830A832C813D815D
:10070000232B59F7FC011082E8CF80E0E7CF1F923E
:100710000F920FB60F9211242F933F938F939F93B5
:10072000AF93BF938091390290913A02A0913B021E
:10073000B0913C023091380223E0230F2D3758F559
:100740000196A11DB11D2093380280933902909328
:100750003A02A0933B02B0933C0280913402909104
:100760003502A0913602B09137020196A11DB11D4C
:100770008093340290933502A0933602B0933702EF
:10078000BF91AF919F918F913F912F910F900FBE8D
:100790000F901F90189526E8230F0296A11DB11DFA
:1007A000D2CF1F920F920FB60F9211240BB60F9259
:1007B0002F933F934F935F936F937F938F939F9369
:1007C000AF93BF93EF93FF938DE392E00E941302E8
:1007D000FF91EF91BF91AF919F918F917F916F9119
:1007E0005F914F913F912F910F900BBE0F900FBED5
:1007F0000F901F9018951F920F920FB60F92112411
:100800000BB60F922F938F939F93EF93FF93E091EB
:100810004D02F0914E028081E0915302F09154021A
:1008200082FD1DC09081809156028F5F8F73209151
:100830005702821741F0E0915602F0E0E35CFD4F71
:10084000958F80935602FF91EF919F918F912F91F9
:100850000F900BBE0F900FBE0F901F9018958081C8
:10086000F2CF1092400210923F0288EE93E0A0E097
:10087000B0E08093410290934202A0934302B09370
:10088000440283E192E090933E0280933D0285EC26
:1008900090E090934A028093490284EC90E0909318
:1008A0004C0280934B0280EC90E090934E02809338
:1008B0004D0281EC90E09093500280934F0282ECC5
:1008C00090E0909352028093510286EC90E09093D6
:1008D00054028093530210925602109257021092C3
:1008E0005802109259021092DB021092DA02109212
:1008F000DD021092DC021092DF021092DE0270E044
:1009000060E08AED92E00E945F032091DA0230916C
:10091000DB02811113C02115310519F0C9010E94B4
:100920002F071092DB021092DA021092DF0210926F
:10093000DE021092DD021092DC0208951092DF02B6
:100940001092DE0262E372E0C9010C94A208CF9318
:10095000DF9300D000D01F921F92CDB7DEB77894FE
:1009600084B5826084BD84B5816084BD85B58260B4
:1009700085BD85B5816085BD80916E008160809365
:100980006E001092810080918100826080938100CE
:1009900080918100816080938100809180008160DE
:1009A000809380008091B10084608093B100809139
:1009B000B00081608093B00080919100826080934C
:1009C00091008091910081608093910080919000CE
:1009D0008160809390008091A10082608093A1004B
:1009E0008091A10081608093A1008091A00081602E
:1009F0008093A000809121018260809321018091E9
:100A00002101816080932101809120018160809388
:100A1000200180917A00846080937A0080917A002E
:100A2000826080937A0080917A00816080937A005E
:100A300080917A00806880937A001092C100E091E2
:100A40004D02F0914E0282E08083E0914902F091E4
:100A50004A021082E0914B02F0914C028FEC8083AD
:100A600010925502E0915102F091520286E080838B
:100A7000E0914F02F0915002808180618083E0918B
:100A80004F02F0915002808188608083E0914F0294
:100A9000F0915002808180688083E0914F02F09154
:100AA000500280818F7D808306E012E0F801819101
:100AB0008F0190E0FC01E45FFD4F24918A539E4F2B
:100AC000FC018491882399F090E0880F991FFC0124
:100AD000E455FE4FA591B491FC01EE56FE4F859171
:100AE00094918FB7F894EC91E22BEC938FBFF2E0E6
:100AF0000F301F07D9F68DE392E00E94FD01181612
:100B000019060CF089C01A8219821C821B821E826F
:100B10001D8270E060E0CE0101960E945F03298192
:100B20003A8181112CC02115310519F0C9010E94AB
:100B30002F071A8219821E821D821C821B820E942C
:100B4000AF0197FD24C08F831886ED80FE808FEF64
:100B5000E81AF80AB701CE0101960E945F038823C4
:100B600071F329813A818D819E81BE01695F7F4F3A
:100B7000820F931F0E94A208FE82ED82E0CF1E82A8
:100B80001D8262E372E0C9010E94A208D8CF809161
:100B9000DA029091DB02009709F443C069817A81FF
:100BA00061157105E1F14091DC025091DD022D816A
:100BB0003E814217530798F10E94A2088D819E81C1
:100BC0009093DF028093DE021E821D8289819A81CA
:100BD000009711F00E942F078091DA029091DB02BA
:100BE0000097B1F10E944F067B0196E0C92E92E07A
:100BF000D92E6A30710584F14EE050E061E272E076
:100C00008DE392E00E945F0142E050E060E372E019
:100C10008DE392E00E945F010E94A2026CCF0E94CD
:100C20002F0789819A819093DB028093DA028B816E
:100C30009C819093DD028093DC028D819E81909354
:100C4000DF028093DE021A8219821C821B82BCCFD3
:100C500060E070E0CB01C8CF60E0F60181916F01E8
:100C60000E94D3020C151D05B9F786E0C82E82E05C
:100C7000D82EC601865092408E159F056CF661E015
:100C8000F60181916F010E94D302F3CF8091DA02C5
:100C90009091DB02009711F00C942F0708951F9399
:100CA000FC0199278827BC01E89411911032E9F3DF
:100CB000193010F01E30C8F31B3251F01D3249F4C8
:100CC000689406C00E947606610F711D811D911DFA
:100CD000119110531A30B0F33EF4909580957095B1
:100CE00061957F4F8F4F9F4F1F910895592F482F28
:100CF000372F262F660F771F881F991F660F771FC4
:100D0000881F991F620F731F841F951F660F771F1F
:100D1000881F991F0895EE0FFF1F881F8BBF079034
:100D2000F691E02D19940F931F93CF93DF938230A8
:100D3000910510F482E090E0E091E202F091E3028C
:100D400030E020E0B0E0A0E0309799F421153105C3
:100D500009F44AC0281B390B24303105D8F58A81A3
:100D60009B816115710589F1FB0193838283FE01EB
:100D700011C0408151810281138148175907E0F069
:100D80004817590799F4109761F012960C9312972F
:100D900013961C933296CF01DF91CF911F910F9143
:100DA00008950093E2021093E302F4CF2115310578
:100DB00051F04217530738F0A901DB019A01BD0138
:100DC000DF01F801C1CFEF01F9CF9093E3028093E7
:100DD000E202CDCFFE01E20FF31F819391932250E7
:100DE000310939832883D7CF2091E0023091E10285
:100DF000232B41F420910202309103023093E1024F
:100E00002093E0022091000230910102211531056A
:100E100041F42DB73EB74091040250910502241BC6
:100E2000350BE091E002F091E102E217F307A0F444
:100E30002E1B3F0B2817390778F0AC014E5F5F4F30
:100E40002417350748F04E0F5F1F5093E10240937F
:100E5000E002819391939FCFF0E0E0E09CCFCF93AD
:100E6000DF930097E9F0FC01329713821282A09180
:100E7000E202B091E302ED0130E020E01097A1F42E
:100E800020813181820F931F2091E0023091E10295
:100E90002817390709F061C0F093E102E093E002FE
:100EA000DF91CF910895EA01CE17DF07E8F54A8177
:100EB0005B819E0141155105B1F7E901FB83EA838E
:100EC00049915991C40FD51FEC17FD0761F480813A
:100ED00091810296840F951FE9019983888382810D
:100EE00093819B838A83F0E0E0E012968D919C9140
:100EF00013970097B9F52D913C911197CD0102966A
:100F0000820F931F2091E0023091E10228173907E8
:100F100039F6309751F51092E3021092E202B09345
:100F2000E102A093E002BCCFD383C2834081518110
:100F3000840F951FC817D90761F44E5F5F4F8881F2
:100F40009981480F591F518340838A819B819383E4
:100F500082832115310509F0B0CFF093E302E093CD
:100F6000E2029ECFFD01DC01C0CF13821282D7CFF7
:100F70004F925F926F927F928F929F92AF92BF92A9
:100F8000CF92DF92EF92FF920F931F93CF93DF9355
:100F90008C01009799F4CB01DF91CF911F910F91B4
:100FA000FF90EF90DF90CF90BF90AF909F908F9089
:100FB0007F906F905F904F900C949306FC01E60F2A
:100FC000F71F9C0122503109E217F30708F4AEC065
:100FD000D901CD91DC911197C617D70720F1C53003
:100FE000D10578F0CE0104978617970750F0C61BFD
:100FF000D70B2297C193D1936D937C93CF010E941D
:101000002F07C801DF91CF911F910F91FF90EF90B3
:10101000DF90CF90BF90AF909F908F907F906F9018
:101020005F904F9008955B01AC1ABD0A4C018C0E85
:101030009D1EA091E202B091E302512C412CF12CB3
:10104000E12C109731F58091E0029091E102881532
:10105000990509F05CC04616570608F058C0809103
:10106000000290910102009741F48DB79EB7409124
:10107000040250910502841B950BE817F90708F04C
:1010800055C0F093E102E093E002F90171836083BF
:10109000B8CF8D919C91119712966C9012971396E0
:1010A0007C901397A815B90559F56C0142E0C40E60
:1010B000D11CCA14DB0420F1AC014A195B09DA0126
:1010C0001296159780F06282738251834083D90112
:1010D0006D937C93E114F10471F0D7011396FC93A6
:1010E000EE9312978ECF22968C0F9D1FF90191835C
:1010F0008083F301EFCFF093E302E093E20281CF2C
:101100004816590608F42C017D01D3019ACFCB0172
:101110000E9493067C01009749F0AE01B8010E943D
:101120009908C8010E942F0787016BCF10E000E0EB
:1011300068CFFB01DC0102C001900D92415050408C
:10114000D8F70895FB01DC0101900D920020E1F732
:10115000089511E0CAE2D1E000E006C0802FFE0150
:101160000E948B062196011DCB32D10780E0080733
:06117000A9F7F894FFCF7F
:101176000000E4028000363738393A3B3C3D3E00F9
:1011860000000035025F018C018202FD019B01EF28
:1011960001696E76616C6964206E756D62657200B8
:0411A6000D0A00002E
:00000001FF
