:100000000C9441010C9472010C9472010C947201D5
:100010000C9472010C9472010C9472010C94720194
:100020000C9472010C9472010C9472010C94720184
:100030000C9472010C9472010C9472010C94720174
:100040000C9472010C9472010C9472010C94720164
:100050000C9472010C9472010C9472010C94A90618
:100060000C9472010C9473060C9449060C94720162
:100070000C9472010C9472010C9472010C94720134
:100080000C9472010C9472010C9472010C94720124
:100090000C9472010C9472010C9472010C94720114
:1000A0000C9472010C9472010C9472010C94720104
:1000B0000C9472010C9472010C9472010C947201F4
:1000C0000C9472010C9472010C9472010C947201E4
:1000D0000C9472010C9472010C9472010C947201D4
:1000E0000C9472010C9499030C9457020C94D00355
:1000F0000C9407020C9446040C9470030C94A30314
:100100000C94EF020C946C030C9487030C94010480
:100110000C9483030C9468030C9434020C94F3063F
:100120000C9464030C94E2050C9491030C947303F7
:100130000C947D030C948B030C949E030C94450447
:100140000C9465020C9495030C9441040C9479036F
:100150000C9443020C949D020C949F030C945E0338
:1001600000002100240027002A002D003000330069
:1001700001010000040107010A010000220025001E
:1001800028002B002E003100340002010000050180
:1001900008010B01000020002300260029002C008C
:1001A0002F003200000100000301060109010505CE
:1001B0000505070508080808020202020A0A0808DD
:1001C000040404040101010101010101030303030B
:1001D00003030303040707070C0C0C0C0C0C0C0C9A
:1001E0000202020206060606060606060B0B0B0BAB
:1001F0000B0B0B0B010210202008081020401020D0
:1002000040800201020108040201010204081020DA
:1002100040808040201008040201800402018040D8
:100220002010080402010804020101020408102041
:100230004080010204081020408000000A0B0209DF
:100240000C0D0E0807030401000000000000000070
:10025000000000000000000000000000000000009E
:10026000000000000000121110000000000000005B
:10027000000000000000000000000000000000007E
:10028000F30611241FBECFEFD1E2DEBFCDBF00E0E9
:100290000CBF12E0A0E0B2E0E4E5F5E100E00BBF46
:1002A00002C007900D92AE35B107D9F723E0AEE555
:1002B000B2E001C01D92A439B207E1F711E0C1E438
:1002C000D1E000E006C021970109802FFE010E94C5
:1002D000A00AC034D10780E00807A9F70E94AD0743
:1002E0000C94A80A0C94000096E0899FD001112478
:1002F000A35FBC4F90967C936E935F9791E091962D
:100300009C939197E0917A03F0917B03909179030C
:10031000992339F0309751F0811108C08091290359
:100320001994309719F05C968C91FACF0895CF927A
:10033000DF92EF92FF920F931F9396E0899FF00157
:100340001124E35FFC4F11A2278D30A1213031052C
:1003500051F178F02230310509F451C023303105D4
:1003600009F452C01F910F91FF90EF90DF90CF9052
:1003700008956623B9F361E070E00E9474012FB71D
:10038000F89480916C0290916D02A0916E02B091F0
:100390006F022FBF8093650390936603A09367035A
:1003A000B0936803DFCF9FB7F894C0906C02D090F1
:1003B0006D02E0906E02F0906F029FBF00916503A6
:1003C000109166032091670330916803C01AD10A27
:1003D000E20AF30A009177031091780330E020E0FD
:1003E0000C151D052E053F0550F462E070E01F91CD
:1003F0000F91FF90EF90DF90CF900C9474016111FA
:10040000B1CF63E070E0F3CF70E060E0F0CFAF9287
:10041000BF92CF92DF92EF92FF920F931F93CF93F1
:10042000DF936C017B018B01040F151FEB015E0153
:10043000AE18BF08C017D10759F06991D601ED91E8
:10044000FC910190F081E02DC6011995892B79F777
:10045000C501DF91CF911F910F91FF90EF90DF9039
:10046000CF90BF90AF900895FC01538D448D252F00
:1004700030E0842F90E0821B930B541710F0CF963E
:10048000089501970895FC01918D828D981761F070
:10049000A28DAE0FBF2FB11D5D968C91928D9F5F87
:1004A0009F73928F90E008958FEF9FEF0895FC0166
:1004B000918D828D981731F0828DE80FF11D858D19
:1004C00090E008958FEF9FEF0895FC01918D228DAC
:1004D000892F90E0805C9F4F821B91098F73992731
:1004E000089580E792E00E94650221E0892B09F4DB
:1004F00020E0822F0895FC01A48DA80FB92FB11D13
:10050000A35ABF4F2C91848D90E001968F73992749
:10051000848FA689B7892C93A089B1898C91837027
:1005200080648C93938D848D981306C00288F38920
:10053000E02D80818F7D80830895EF92FF920F934D
:100540001F93CF93DF93EC0181E0888F9B8D8C8D7F
:1005500098131AC0E889F989808185FF15C09FB773
:10056000F894EE89FF896083E889F9898081837036
:10057000806480839FBF81E090E0DF91CF911F91E5
:100580000F91FF90EF900895F62E0B8D10E00F5F06
:100590001F4F0F731127E02E8C8D8E110CC00FB6DC
:1005A00007FCFACFE889F989808185FFF5CFCE0174
:1005B0000E947B02F1CFEB8DEC0FFD2FF11DE35A72
:1005C000FF4FF0829FB7F8940B8FEA89FB898081F7
:1005D0008062CFCF682F80E792E00C949D02CF938A
:1005E000DF93EC01888D8823B9F0AA89BB89E8895B
:1005F000F9898C9185FD03C0808186FD0DC00FB601
:1006000007FCF7CF8C9185FFF2CF808185FFEDCF7E
:10061000CE010E947B02E9CFDF91CF91089580E067
:1006200090E0892B29F00E94710281110E94000044
:1006300080E090E0892B49F080E090E0892B29F060
:100640000E94000081110E94000080E090E0892B50
:1006500049F080E090E0892B29F00E940000811190
:100660000E94000080E090E0892B49F080E090E05B
:10067000892B29F00E94000081110C94000008953C
:100680008150823108F05AC0E82FF0E08827E45BFF
:10069000FC4F8F4F0C94A00A6C0370035E0364033D
:1006A00068039E03730379037D03830387038B032E
:1006B000910395039E0399039F03A30380918000F8
:1006C0008F77809380000895809180008F7DF9CF8F
:1006D00080918000877FF5CF84B58F7784BD0895A2
:1006E00084B58F7DFBCF8091B0008F778093B00071
:1006F00008958091B0008F7DF9CF809190008F7721
:10070000809390000895809190008F7DF9CF809123
:100710009000877FF5CF8091A0008F778093A00015
:1007200008958091A0008F7DF9CF8091A000877FF0
:10073000F5CF809120018F778093200108958091DB
:1007400020018F7DF9CF80912001877FF5CFCF9356
:10075000DF93282F30E0F901E65CFD4F8491F90129
:10076000EC50FE4FD491F901E255FE4FC491CC23D9
:10077000A1F081110E944003EC2FF0E0EE0FFF1F6B
:10078000EC56FE4FA591B491EC91ED2381E090E001
:1007900009F480E0DF91CF91089580E090E0FACFF6
:1007A000862F0C94A7031F93CF93DF93282F30E05D
:1007B000F901E65CFD4F8491F901EC50FE4FD491B4
:1007C000F901E255FE4FC491CC23A9F0162F8111F7
:1007D0000E944003EC2FF0E0EE0FFF1FE658FE4FA3
:1007E000A591B4918FB7F894EC91111108C0D095F0
:1007F000DE23DC938FBFDF91CF911F910895DE2B15
:10080000F8CF862F642F0C94D303CF93DF9390E01F
:10081000FC01EC50FE4F249182559E4FFC018491C7
:100820008823C9F090E0880F991FFC01E05AFE4F21
:10083000A591B491FC01E658FE4FC591D491611188
:100840000DC09FB7F8948C91209582238C9388815A
:10085000282328839FBFDF91CF910895623051F400
:100860009FB7F8943C91822F809583238C93E881E5
:100870002E2BEFCF8FB7F894EC912E2B2C938FBFAC
:10088000EACF862F642F0C940504089590E080E051
:100890000895813399F08233A1F08333A9F0843332
:1008A000B1F08533B9F08633C1F08733C9F08833AE
:1008B000D1F08933D9F489E090E0089581E090E0A7
:1008C000089582E090E0089583E090E0089584E048
:1008D00090E0089585E090E0089586E090E0089526
:1008E00087E090E0089588E090E0089590E080E04F
:1008F0000895FC0101900020E9F73197AF01481BF2
:10090000590BBC018CE793E00C940702CF93DF9363
:10091000EC0160E08E810E94D30361E08E810E9431
:10092000D30360E08E810E94D3038BE891E00197AE
:10093000F1F7DF91CF910895CF92DF92EF92FF927E
:100940000F931F93CF93DF936C017C0187E0E80E38
:10095000F11CD0E0C0E0062F10E0B8010C2E02C060
:10096000759567950A94E2F76170F70181917F01AF
:100970000E94D3032196C430D10579F7C601DF91D7
:10098000CF911F910F91FF90EF90DF90CF900C943B
:100990008604CF92DF92EF92FF920F931F93CF9333
:1009A000DF93EC01F62E642F8C810E94D3038D819E
:1009B0008F3F19F060E00E94D3030F2D10E08F8568
:1009C00084FF25C06E0187E0C80ED11CF12CE12CFC
:1009D000B8010E2C02C0759567950A94E2F7617014
:1009E000F60181916F010E94D303FFEFEF1AFF0A16
:1009F00088E0E816F10461F7CE01DF91CF911F91F5
:100A00000F91FF90EF90DF90CF900C948604B80187
:100A100084E0759567958A95E1F7CE010E949C0464
:100A20006F2DCE01DF91CF911F910F91FF90EF902D
:100A3000DF90CF900C949C0440E0682F8CE793E00B
:100A40000C94C90481E00E941C058BE39FE101978F
:100A5000F1F70895CF93DF93813029F090918B03C4
:100A6000986090938B0380938F031092900380E49F
:100A70008093910380E18093920380E580939303B8
:100A800061E0809180030E940504809181038F3F83
:100A900019F061E00E94050461E0809182030E94E8
:100AA0000504CCE7D3E09E012C57334080918B03A3
:100AB00084FD0BC084E090E021962817390744F4A8
:100AC00061E08E810E940504EECF88E090E0F4CFD3
:100AD0008BE39DE00197F1F760E0809180030E9435
:100AE000D30360E0809182030E94D303809181034D
:100AF0008F3F19F060E00E94D30380918B0384FD47
:100B000034C063E08CE793E00E949C04CBE4D6E41D
:100B1000CE010197F1F763E08CE793E00E949C041B
:100B20002197F1F763E08CE793E00E949C0483E552
:100B300092E00197F1F762E08CE793E00E949C0459
:100B400080918B0380620E941C0584E080938C035B
:100B50008CE00E941C050E94220582E080938D0398
:100B600086E0DF91CF910C941C0580620E941C05E9
:100B70008BE496E40197F1F780918B0380620E94E9
:100B80001C0583E592E00197F1F780918B03806269
:100B90000E941C05D5CF90918F03691710F06FEF5D
:100BA000690FE62FF0E0E458FC4F9489890F8068C4
:100BB0000C941C0560E082E00E94CB058CE392E07F
:100BC0000C94790441E00E94C90481E090E008950A
:100BD000CF93DF930E94220560E080E00E94CB0566
:100BE00089E492E00E94790461E086E00E94CB05EE
:100BF000C3E6D2E068818CE793E00E94E20561E001
:100C000087E00E94CB0569818CE793E00E94E205B2
:100C100061E088E00E94CB056A818CE793E00E9446
:100C2000E20562E086E00E94CB056B818CE793E0F1
:100C30000E94E20562E087E00E94CB056C818CE7B0
:100C400093E00E94E20562E088E00E94CB056D819E
:100C50008CE793E00E94E20563E086E00E94CB050A
:100C60006E818CE793E00E94E20563E087E00E94DA
:100C7000CB056F818CE793E00E94E20563E088E09A
:100C80000E94CB0568858CE793E0DF91CF910C94AF
:100C9000E2051F920F920FB60F9211240BB60F921E
:100CA0002F933F934F935F936F937F938F939F9374
:100CB000AF93BF93EF93FF9380E792E00E947B0294
:100CC000FF91EF91BF91AF919F918F917F916F9124
:100CD0005F914F913F912F910F900BBE0F900FBEE0
:100CE0000F901F9018951F920F920FB60F9211241C
:100CF0000BB60F922F938F939F93EF93FF93E091F7
:100D00008002F09181028081E0918602F091870259
:100D100082FD1DC09081809189028F5F8F73209129
:100D20008A02821741F0E0918902F0E0E059FD4F1C
:100D3000958F80938902FF91EF919F918F912F91D1
:100D40000F900BBE0F900FBE0F901F9018958081D3
:100D5000F2CF1F920F920FB60F9211242F933F9351
:100D60008F939F93AF93BF9380916C0290916D028C
:100D7000A0916E02B0916F023091620223E0230FC6
:100D80002D3758F50196A11DB11D20936202809365
:100D90006C0290936D02A0936E02B0936F028091EB
:100DA0005E0290915F02A0916002B0916102019693
:100DB000A11DB11D80935E0290935F02A09360021B
:100DC000B0936102BF91AF919F918F913F912F910D
:100DD0000F900FBE0F901F90189526E8230F0296D4
:100DE000A11DB11DD2CF109273021092720288EE33
:100DF00093E0A0E0B0E08093740290937502A0931A
:100E00007602B093770288E192E09093710280932A
:100E1000700285EC90E090937D0280937C0284ECDC
:100E200090E090937F0280937E0280EC90E090931C
:100E300081028093800281EC90E090938302809302
:100E4000820282EC90E0909385028093840286EC8B
:100E500090E090938702809386021092890210920C
:100E60008A0210928B0210928C0210927F031092D1
:100E70007E0384E392E090937D0380937C038DE076
:100E8000809380038FEF8093810388E080938203B7
:100E90008CE0809383038BE0809384038AE08093CB
:100EA000850389E08093860310928703109288035C
:100EB0001092890310928A0310928B0381E00E94A2
:100EC0002A0510920F03109213031092120310922E
:100ED00014038AE292E090930E0380930D03E9E2FB
:100EE000F3E01082148213821582369683E0E53691
:100EF000F807B9F784E092E09093700380936F0352
:100F000081E092E0909372038093710384E0809378
:100F1000730383E08093740388E092E090936E0300
:100F200080936D038AE090E090937603809375033D
:100F300084EF91E0909378038093770310927B0382
:100F400010927A031092690310926A0310926B0355
:100F500010926C03109279030895789484B582609E
:100F600084BD84B5816084BD85B5826085BD85B54D
:100F7000816085BD80916E00816080936E001092CB
:100F80008100809181008260809381008091810046
:100F900081608093810080918000816080938000D7
:100FA0008091B10084608093B1008091B000816035
:100FB0008093B00080919100826080939100809135
:100FC0009100816080939100809190008160809376
:100FD00090008091A10082608093A1008091A10087
:100FE00081608093A1008091A00081608093A00027
:100FF0008091210182608093210180912101816093
:101000008093210180912001816080932001809153
:101010007A00846080937A0080917A008260809365
:101020007A0080917A00816080937A0080917A00C2
:10103000806880937A001092C10084E00E942A05A3
:101040000E942205E0918002F091810282E080837B
:10105000E0917C02F0917D021082E0917E02F0919D
:101060007F028FEC808310928802E0918402F091DD
:10107000850286E08083E0918202F0918302808184
:1010800080618083E0918202F09183028081886098
:101090008083E0918202F091830280818068808366
:1010A000E0918202F091830280818F7D8083E3E66C
:1010B000F2E08CE692E02FE521938E179F07E1F78F
:1010C0000E94E80555245394812C912C540183945B
:1010D00066246A94762C58E7452E80E792E00E94B9
:1010E0006502892BC1F080E792E00E9443028536B9
:1010F00059F41092000260E082E00E94CB058BE47C
:1011000092E00E94790407C0883709F03FC010922E
:1011100000020E94DA0580910002882309F44EC182
:10112000509279038FB7F89440916C0250916D0200
:1011300060916E0270916F028FBF809169039091F0
:101140006A03A0916B03B0916C03481B590B6A0BA7
:101150007B0B8091750390917603B0E0A0E084173B
:101160009507A607B70708F02CC1C0E0809173036C
:10117000C81730F5E0916F03F0917003EC0FF11D8B
:1011800062E080810E940504CF5FF0CF8F3649F482
:101190001092000260E082E00E94CB0581E592E0BF
:1011A000B0CF509200020E944904FC01EE59FD4F5D
:1011B00080818F3509F0B4CF40820E94E805ABCF23
:1011C000312C80917403381608F05FC0032D10E0B5
:1011D000E0917103F0917203E00FF11F61E08081F3
:1011E0000E940504E0917103F0917203E00FF11F7A
:1011F00060E080810E94D303D501C401032C04C0A8
:10120000880F991FAA1FBB1F0A94D2F76C017C019B
:10121000E094F094212C809173032816F8F4C22DE9
:10122000D0E0E0916F03F0917003EC0FFD1F80811F
:101230000E94A7032496CC0FDD1FC35FDC4F892BD0
:1012400041F4888199818C299D29998388832394ED
:10125000E2CF888199818E219F21F7CFE0917103A0
:10126000F0917203E00FF11F61E080810E94D303CF
:101270008091710390917203080F191F60E0F801CB
:1012800080810E94050433949CCF9DE0E92E93E079
:10129000F92EE7018F8D98A1892B21F41C8E7E8E6B
:1012A0006D8E19A22696F3E0C934DF0799F7D12C89
:1012B00080917303D81608F051C0C12C0D2D10E099
:1012C000000F111F0B5E1C4F20917403C21608F013
:1012D00043C0F801608171810C2C02C0769567953E
:1012E0000A94E2F7D29E900111242C0D311DEDE0FD
:1012F000F3E080E0458D568D2417350709F413C1BE
:101300008F5F36968A30B1F760FF24C0EDE0F3E0DE
:1013100090E080E0448D411118C0E0916D03F091A0
:101320006E03E20FF31F408156E0589FF001599F72
:10133000F00D1124E35FFC4F448F368F258F10A2F0
:10134000178E61E00E94970105C0019636968A309B
:10135000910501F7C394B8CFD394AACF80E0F701E9
:1013600091A19111892FF6E0EF0EF11CCE15DF054A
:10137000B1F79FB7F89440916C0250916D02609163
:101380006E0270916F029FBF4093690350936A038E
:1013900060936B0370936C03882399F0D0912E03B4
:1013A000DD2379F080912C0390912D03019749F46E
:1013B000109129038FEC810F893030F00E940F03C8
:1013C0008CCE10927903FACF812F0E944904FC0140
:1013D000EE59FD4F80818F3589F75FE650830E947B
:1013E000E8051092000280916302509164026091BE
:1013F0006502851306C0861304C09D2FC82F8F3544
:1014000011F490E0CEE6709166023091670240914F
:101410006802731306C0471304C04F3511F09D2FA7
:10142000C42F20916902E0916A022E1308C0F09146
:101430006B022F1304C02F3511F09D2FC22F87137D
:1014400006C0821304C08F3511F09D2FC82F53138F
:1014500006C05E1304C05F3511F09D2FC52F4613E3
:1014600008C0F0916B024F1304C04F3511F09D2F4F
:10147000C42F831307C0F0916B023F1303C03F35A5
:1014800009F053C0361305C0261303C02F3509F0E9
:1014900052C0D92F8F3561F15F3551F16F3541F170
:1014A0007F3531F13F3521F14F3511F12F3501F104
:1014B000EF35F1F080916B028F35D1F0D11101C081
:1014C000C5E6812F110F990B0E94EA02CE3609F46E
:1014D00075CFC53689F485E690E00E94EA0260E0A7
:1014E00082E00E94CB058BE492E00E94790466CFF3
:1014F000D111E7CFCEE6E5CFC83739F488E790E0E1
:101500000E94EA020E94DA0559CFCF3609F056CF81
:101510008FE690E00E94EA0260E082E00E94CB0544
:1015200081E592E0E2CF61700DCFC32F3613B4CFC7
:101530009D2FC82FA9CFC22F8F3509F0ADCFC1CFB6
:10154000EE0FFF1F881F8BBF0790F691E02D1994B7
:04155000F894FFCF3D
:10155400014344454241403F313233343536373814
:10156400392A3023000000009D0207023402EF02F2
:101574006502430257020000000041040104D00345
:1015840000000000E205070246044504506C61793E
:101594006572205820776F6E004F00457175616C3D
:0E15A40000506C61796572204F20776F6E00E9
:00000001FF
