:100000000C9428010C9459010C9459010C94590139
:100010000C9459010C9459010C9459010C945901F8
:100020000C9459010C9459010C9459010C945901E8
:100030000C9459010C9459010C9459010C945901D8
:100040000C9459010C94B7050C9459010C94590166
:100050000C9459010C9459010C9459010C94E3042B
:100060000C9459010C94AD040C9483040C94590124
:100070000C9459010C9459010C9459010C94590198
:100080000C9489050C9459010C9459010C94590154
:100090000C9459010C9459010C9459010C94590178
:1000A0000C9459010C9459010C945B050C94590162
:1000B0000C9459010C9459010C9459010C942D0580
:1000C0000C9459010C9459010C9459010C94590148
:1000D0000C9459010C9459010C9459010C94590138
:1000E0000C9459010C947F030C9483030C945203D9
:1000F0000C945E030C9461030C946B030C947903D1
:100100000C9427020C943B030C948D030C949103E4
:100110000C945A030C9440030C94E5050C9475035D
:100120000C9471030C9456030C9413020C94040267
:100130000C94D7010C9487030C946D020C94BA02B2
:100140000C9435020C94670300000A0B02090C0D95
:100150000E0807030401000000000000000000007A
:10016000000000000000000000000000000000008F
:10017000000000001211100000000000000000004C
:10018000000000000000000000000000000000006F
:100190002200250028002B002E003100340002012F
:1001A0000000050108010B010000210024002700C8
:1001B0002A002D0030003300010100000401070176
:1001C0000A010505050507050808080802020202DC
:1001D0000A0A0808040404040101010101010101E3
:1001E0000303030303030303040707070C0C0C0CAE
:1001F0000C0C0C0C02020202060606060606060697
:100200000B0B0B0B0B0B0B0B010210202008081023
:100210002040102040800201020108040201010276
:10022000040810204080804020100804020180044F
:1002300002018040201008040201080402010102AA
:100240000408102040800102040810204080E505C9
:1002500011241FBECFEFD1E2DEBFCDBF00E00CBF47
:1002600012E0A0E0B2E0ECEBF1E100E00BBF02C075
:1002700007900D92A032B107D9F723E0A0E2B2E0D7
:1002800001C01D92A236B207E1F711E0C8E2D1E049
:1002900000E006C021970109802FFE010E94D408CA
:1002A000C732D10780E00807A9F70E9442060C94E4
:1002B000DC080C940000CF92DF92EF92FF92DC01F9
:1002C000A03282E0B807D4F5A53BB10514F0A4EB49
:1002D000B0E04091600328E830E0241B310947FD7D
:1002E0003395220F331F220F331F6901330FEE089E
:1002F000FF084091610328E532E0241B310947FDE6
:100300003395220F331F220F331F032E000C440B93
:10031000550B2C193D094E095F09B7FF02C0B0E02B
:10032000A0E00E948F0824EB30E040E050E00E9403
:100330006508C20ED31EE41EF51ED601E0915F03D0
:10034000E03380F52091600388E890E0821B9109FA
:1003500027FD9395880F991F880F991FA817B90734
:1003600084F02091610388E592E0821B910927FDCA
:100370009395880F991F880F991FA817B9070CF438
:10038000CD010297880F991F4FB7F8942E2F30E0B8
:10039000F901EE0FFF1FE20FF31FE253FD4F9283AF
:1003A00081834FBFFF90EF90DF90CF900895AF9281
:1003B000BF92CF92DF92EF92FF920F931F93CF9352
:1003C000DF936C017B018B01040F151FEB015E01B4
:1003D000AE18BF08C017D10759F06991D601ED9149
:1003E000FC910190F081E02DC6011995892B79F7D8
:1003F000C501DF91CF911F910F91FF90EF90DF909A
:10040000CF90BF90AF900895FC01538D448D252F60
:1004100030E0842F90E0821B930B541710F0CF969E
:10042000089501970895FC01918D828D981761F0D0
:10043000A28DAE0FBF2FB11D5D968C91928D9F5FE7
:100440009F73928F90E008958FEF9FEF0895FC01C6
:10045000918D828D981731F0828DE80FF11D858D79
:1004600090E008958FEF9FEF0895FC01918D228D0C
:10047000892F90E0805C9F4F821B91098F73992791
:10048000089581E392E00E94350221E0892B09F46E
:1004900020E0822F0895FC01A48DA80FB92FB11D73
:1004A000A35ABF4F2C91848D90E001968F739927AA
:1004B000848FA689B7892C93A089B1898C91837088
:1004C00080648C93938D848D981306C00288F38981
:1004D000E02D80818F7D80830895EF92FF920F93AE
:1004E0001F93CF93DF93EC0181E0888F9B8D8C8DE0
:1004F00098131AC0E889F989808185FF15C09FB7D4
:10050000F894EE89FF896083E889F9898081837096
:10051000806480839FBF81E090E0DF91CF911F9145
:100520000F91FF90EF900895F62E0B8D10E00F5F66
:100530001F4F0F731127E02E8C8D8E110CC00FB63C
:1005400007FCFACFE889F989808185FFF5CFCE01D4
:100550000E944B02F1CFEB8DEC0FFD2FF11DE35A02
:10056000FF4FF0829FB7F8940B8FEA89FB89808157
:100570008062CFCFCF93DF93EC01888D8823B9F0D1
:10058000AA89BB89E889F9898C9185FD03C080819E
:1005900086FD0DC00FB607FCF7CF8C9185FFF2CF1B
:1005A000808185FFEDCFCE010E944B02E9CFDF9124
:1005B000CF91089580E090E0892B29F00E944102BC
:1005C00081110E94000080E090E0892B49F080E0DA
:1005D00090E0892B29F00E94000081110E94000008
:1005E00080E090E0892B49F080E090E0892B29F0B1
:1005F0000E94000081110E94000080E090E0892BA1
:1006000049F080E090E0892B29F00E9400008111E0
:100610000C9400000895282F30E0F901E85BFE4FAC
:100620009491F901E85FFD4F44912E533E4FF9013B
:100630002491222309F435C0992311F1915092316C
:10064000F8F4E92FF0E08827E75DFC4F8F4F0C941A
:10065000D4085A035E033B0352035603400361036D
:1006600067036B037103750379037F0383034003FF
:1006700087038D039103809180008F7780938000A2
:10068000E22FF0E0EE0FFF1FE257FE4FA591B4916D
:100690008FB7F894EC91611148C040954E234C936C
:1006A0008FBF0895809180008F7DE8CF809180007A
:1006B000877FE4CF84B58F7784BDE2CF84B58F7D0B
:1006C000FBCF8091B0008F778093B000D9CF80911D
:1006D000B0008F7DF9CF809190008F77809390004C
:1006E000CFCF809190008F7DF9CF80919000877F50
:1006F000F5CF8091A0008F778093A000C1CF80912B
:10070000A0008F7DF9CF8091A000877FF5CF8091E9
:1007100020018F7780932001B3CF809120018F7DBE
:10072000F9CF80912001877FF5CF4E2BB8CF3FB70F
:10073000F8948091290290912A02A0912B02B09105
:100740002C0226B5A89B05C02F3F19F00196A11DCC
:10075000B11D3FBFBA2FA92F982F8827BC01CD010B
:10076000620F711D811D911D42E0660F771F881F6A
:10077000991F4A95D1F70895AF92BF92CF92DF9219
:10078000EF92FF920F931F93CF93DF936B017A0148
:10079000EC01C05EDD4F28813CE0389F8001399F2D
:1007A000100D1124A0905E03B12C27FF1FC0FB0188
:1007B0001182108288818F5F888388819801280F39
:1007C000311D87FD3A95F6012A153B051CF48881F9
:1007D0008C30C4F180819181049680349C4908F466
:1007E00073C0F60180819181049670C08881980160
:1007F000280F311D87FD3A952A153B05DCF68881C7
:10080000A801480F511D87FD5A95FA01EE0FFF1FF1
:10081000E40FF51FE253FD4F808186FFCBCF888127
:10082000F801E80FF11D87FDFA95CF01EE0FFF1FCC
:10083000E80FF91FE253FD4F808160E08F730E9443
:100840000B03B8CF808191812881A801420F511DEF
:1008500027FD5A959A01FA01EE0FFF1FE20FF31FD1
:10086000E253FD4F21813281820F931FF701918363
:10087000808388819801280F311D87FD3A95F90101
:10088000EE0FFF1FE20FF31FE253FD4F808186FF43
:1008900022C08881080F111D87FD1A95F801EE0FFF
:1008A000FF1FE00FF11FE253FD4F808161E08F7366
:1008B000DF91CF911F910F91FF90EF90DF90CF903C
:1008C000BF90AF900C940B0380E49CE9F7019183F7
:1008D00080838FEF8883DF91CF911F910F91FF90DD
:1008E000EF90DF90CF90BF90AF900895FC01019002
:1008F0000020E9F73197AF01481B590BBC0181E398
:1009000092E00C94D7011F920F920FB60F92112410
:100910000BB60F922F933F934F935F936F937F93F9
:100920008F939F93AF93BF93EF93FF9381E392E0F5
:100930000E944B02FF91EF91BF91AF919F918F91D8
:100940007F916F915F914F913F912F910F900BBECF
:100950000F900FBE0F901F9018951F920F920FB619
:100960000F9211240BB60F922F938F939F93EF93B7
:10097000FF93E0914102F09142028081E0914702B1
:10098000F091480282FD1DC0908180914A028F5FE4
:100990008F7320914B02821741F0E0914A02F0E000
:1009A000EF5CFD4F958F80934A02FF91EF919F91ED
:1009B0008F912F910F900BBE0F900FBE0F901F9035
:1009C00018958081F2CF1F920F920FB60F921124CB
:1009D0002F933F938F939F93AF93BF938091250263
:1009E00090912602A0912702B09128023091240212
:1009F00023E0230F2D3758F50196A11DB11D20933B
:100A000024028093250290932602A0932702B0939C
:100A100028028091290290912A02A0912B02B09184
:100A20002C020196A11DB11D8093290290932A02E8
:100A3000A0932B02B0932C02BF91AF919F918F9105
:100A40003F912F910F900FBE0F901F90189526E8A1
:100A5000230F0296A11DB11DD2CF1F920F920FB688
:100A60000F9211240BB60F922F933F934F935F93E6
:100A70006F937F938F939F93AF93BF93EF93FF9366
:100A800048E251E064E271E090E080E00E94BC0343
:100A9000FF91EF91BF91AF919F918F917F916F9156
:100AA0005F914F913F912F910F900BBE0F900FBE12
:100AB0000F901F9018951F920F920FB60F9211244E
:100AC0000BB60F922F933F934F935F936F937F9348
:100AD0008F939F93AF93BF93EF93FF9348EA50E0B8
:100AE00064EA70E083E090E00E94BC03FF91EF9124
:100AF000BF91AF919F918F917F916F915F914F9136
:100B00003F912F910F900BBE0F900FBE0F901F9033
:100B100018951F920F920FB60F9211240BB60F92D9
:100B20002F933F934F935F936F937F938F939F93F5
:100B3000AF93BF93EF93FF9348E950E064E970E00F
:100B400082E090E00E94BC03FF91EF91BF91AF91D2
:100B50009F918F917F916F915F914F913F912F91D5
:100B60000F900BBE0F900FBE0F901F9018951F9205
:100B70000F920FB60F9211240BB60F922F933F9343
:100B80004F935F936F937F938F939F93AF93BF9395
:100B9000EF93FF9348E850E064E870E081E090E074
:100BA0000E94BC03FF91EF91BF91AF919F918F91F4
:100BB0007F916F915F914F913F912F910F900BBE5D
:100BC0000F900FBE0F901F90189510923402109244
:100BD000330288EE93E0A0E0B0E08093350290937A
:100BE0003602A0933702B093380284E092E09093EB
:100BF00032028093310285EC90E090933E02809324
:100C00003D0284EC90E09093400280933F0280ECA0
:100C100090E0909342028093410281EC90E09093A7
:100C200044028093430282EC90E0909346028093CA
:100C3000450286EC90E09093480280934702109220
:100C40004A0210924B0210924C0210924D02809177
:100C50005E03803398F491E0980F90935E03809345
:100C60005F0390E0FC01EE0FFF1FE80FF91FE25356
:100C7000FD4F88EB9BE09283818308958FEF8093F3
:100C80005F030895CF93DF93CDB7DEB7A1970FB67B
:100C9000F894DEBF0FBECDBF789484B5826084BD6A
:100CA00084B5816084BD85B5826085BD85B5816070
:100CB00085BD80916E00816080936E0010928100EE
:100CC00080918100826080938100809181008160A9
:100CD000809381008091800081608093800080916A
:100CE000B10084608093B1008091B00081608093F6
:100CF000B00080919100826080939100809191007A
:100D00008160809391008091900081608093900039
:100D10008091A10082608093A1008091A1008160F8
:100D20008093A1008091A00081608093A0008091B9
:100D30002101826080932101809121018160809353
:100D400021018091200181608093200180917A00AF
:100D5000846080937A0080917A00826080937A0028
:100D600080917A00816080937A0080917A00806817
:100D700080937A001092C10080915F03803308F065
:100D80006BC0E1E1F2E02491EBECF1E08491882387
:100D900099F090E0880F991FFC01E855FE4FA5914E
:100DA000B491FC01E257FE4F859194918FB7F8946E
:100DB000EC91E22BEC938FBF80915F03282F30E002
:100DC000F901EE0FFF1FE20FF31FE253FD4F908179
:100DD000907C996090839EE89093600394E6909352
:100DE00061032CE0622F0E94C808829FB001112489
:100DF00030E020E0AB01420F531FFA01EE0FFF1F5E
:100E0000E40FF51FE253FD4F908196FD17C02F5F51
:100E10003F4F2C30310571F7813009F073C01092CB
:100E2000800082E0809381001092850010928400FF
:100E3000B19A80916F00826080936F00E0915F03B0
:100E40008E2F90E0FC01EE0FFF1FE80FF91FE25319
:100E5000FD4F808180648083E0914102F0914202E5
:100E600082E08083E0913D02F0913E021082E091A9
:100E70003F02F09140028FEC808310924902E09192
:100E80004502F091460286E08083E0914302F091B2
:100E90004402808180618083E0914302F0914402AA
:100EA000808188608083E0914302F09144028081D8
:100EB00080688083E0914302F091440280818F7DBD
:100EC00080838AE590E00E945B019AE0892E912C54
:100ED000A12CB12C22242394312C81E392E00E9496
:100EE0003502181619065CF481E392E00E941302A1
:100EF0008D32910599F53092300220922F020E9496
:100F0000DA02EBCF823061F410929000809391006E
:100F1000109295001092940088BB809371008ECF40
:100F2000833069F41092A00082E08093A1001092B7
:100F3000A5001092A40089BB809372007FCF81111D
:100F40007DCF1092200182E0809321011092250133
:100F5000109224018ABB8093730070CF8D3391056A
:100F600009F09CC082E192E00E9476048CE192E05C
:100F70000E947604C0902D02D0902E0280912F0204
:100F800090913002019709F46EC0D194C194D108B8
:100F90000D2C000CEE08FF08A701960128593E4FC2
:100FA0004F4F5F4FA4EBB0E00E94840820ED32E089
:100FB00040E050E00E946508C9010E945B01F7FE15
:100FC00057C06DE281E392E00E946D022227332731
:100FD000A9012C193D094E095F0919A28E010F5D67
:100FE0001F4FCA01B901A50194010E949708605DD5
:100FF000F80162938F01211531054105510589F7EB
:101000000115110519F0C8010E9476048CE192E0E7
:101010000E94760410922E0210922D020E949703D5
:101020002B013C0184E6C82ED12CE12CF12C0E942E
:1010300097036419750986099709683E734081050D
:101040009105A8F3F1E0CF1AD108E108F10828EEE4
:10105000420E23E0521E611C711CC114D104E10434
:10106000F10429F74CCF1092300210922F0290CF4A
:10107000A701960119A28E010F5D1F4FCA01B90188
:10108000A50194010E949708605DF80162938F01A9
:10109000211531054105510589F7B2CF20ED280F03
:1010A0002A3008F02CCF40912D0250912E02FAE008
:1010B000F49F9001F59F300D1124C097820F931F6C
:1010C00090932E0280932D021ACF052E97FB1EF4CB
:1010D00000940E947C0857FD07D00E94970807FCE7
:1010E00003D04EF40C947C08509540953095219592
:1010F0003F4F4F4F5F4F0895909580957095619544
:101100007F4F8F4F9F4F08950E94B908A59F900D64
:10111000B49F900DA49F800D911D11240895B7FFD9
:101120000C9484080E948408821B930B0895A1E20A
:101130001A2EAA1BBB1BFD010DC0AA1FBB1FEE1F51
:10114000FF1FA217B307E407F50720F0A21BB30B9C
:10115000E40BF50B661F771F881F991F1A9469F718
:1011600060957095809590959B01AC01BD01CF0174
:101170000895A29FB001B39FC001A39F700D811D70
:101180001124911DB29F700D811D1124911D089590
:10119000991B79E004C0991F961708F0961B881FC9
:1011A0007A95C9F780950895EE0FFF1F881F8BBFB2
:0C11B0000790F691E02D1994F894FFCF01
:1011BC00000000006D02D7010402BA0235021302CE
:1011CC0027020A204465677265653A000D0A000023
:00000001FF
