:100000000C943B010C946C010C946C010C946C01ED
:100010000C946C010C946C010C946C010C946C01AC
:100020000C946C010C946C010C946C010C946C019C
:100030000C946C010C946C010C946C010C946C018C
:100040000C946C010C94A4060C946C010C946C013F
:100050000C946C010C946C010C946C010C94D00504
:100060000C946C010C949A050C9470050C946C0122
:100070000C946C010C946C010C946C010C946C014C
:100080000C9476060C946C010C946C010C946C012D
:100090000C946C010C946C010C946C010C946C012C
:1000A0000C946C010C946C010C9448060C946C013B
:1000B0000C946C010C946C010C946C010C941A0659
:1000C0000C946C010C946C010C946C010C946C01FC
:1000D0000C946C010C946C010C946C010C946C01EC
:1000E0000C946C010C9436040C9498030C948A03C1
:1000F0000C9459030C9401020C946E030C94780335
:100100000C9465030C9461030C9468030C948E03A7
:100110000C9493030C9451020C94E4020C949403F9
:100120000C94D2060C9486030C9480030C94530315
:100130000C9472030C943D020C94C5030C947C0344
:100140000C945F020C94F6030C9497020C945D03DC
:100150000C942E0200002100240027002A002D000C
:100160003000330001010000040107010A01000012
:100170002200250028002B002E003100340002014F
:100180000000050108010B010000200023002600EB
:1001900029002C002F00320000010000030106019D
:1001A00009010505050507050808080802020202FD
:1001B0000A0A080804040404010101010101010103
:1001C0000303030303030303040707070C0C0C0CCE
:1001D0000C0C0C0C020202020606060606060606B7
:1001E0000B0B0B0B0B0B0B0B010210202008081044
:1001F0002040102040800201020108040201010297
:10020000040810204080804020100804020180046F
:1002100002018040201008040201080402010102CA
:1002200004081020408001020408102040800000D3
:100230000A0B02090C0D0E08070304010000000060
:1002400000000000000000000000000000000000AE
:10025000000000000000000000001211100000006B
:10026000000000000000000000000000000000008E
:1002700000000000D20611241FBECFEFD1E2DEBF86
:10028000CDBF00E00CBF12E0A0E0B2E0ECE2FCE188
:1002900000E00BBF02C007900D92AE33B107D9F753
:1002A00023E0AEE3B2E001C01D92AD3FB207E1F73B
:1002B00011E0CBE3D1E000E006C021970109802FD7
:1002C000FE010E94F60BCA33D10780E00807A9F7A8
:1002D0000E9479070C94140E0C94000096E0899FFC
:1002E000D0011124A657BC4F90967C936E935F97D4
:1002F00091E091969C939197E091F703F091F80328
:100300009091F603992339F0309751F0811108C08C
:100310008091A6031994309719F05C968C91FACFCE
:100320000895CF92DF92EF92FF920F931F9396E082
:10033000899FF0011124E657FC4F11A2278D30A1AF
:100340002130310551F178F02230310509F451C0E6
:100350002330310509F452C01F910F91FF90EF90A7
:10036000DF90CF9008956623B9F361E070E00E94BA
:100370006E012FB7F89480914F0290915002A09196
:100380005102B09152022FBF8093E2039093E30396
:10039000A093E403B093E503DFCF9FB7F894C09038
:1003A0004F02D0905002E0905102F09052029FBF55
:1003B0000091E2031091E3032091E4033091E503FF
:1003C000C01AD10AE20AF30A0091F4031091F5036E
:1003D00030E020E00C151D052E053F0550F462E0CD
:1003E00070E01F910F91FF90EF90DF90CF900C94F1
:1003F0006E016111B1CF63E070E0F3CF70E060E0B7
:10040000F0CFAF92BF92CF92DF92EF92FF920F9315
:100410001F93CF93DF936C017B018B01040F151F9A
:10042000EB015E01AE18BF08C017D10759F0699102
:10043000D601ED91FC910190F081E02DC601199556
:10044000892B79F7C501DF91CF911F910F91FF9013
:10045000EF90DF90CF90BF90AF900895FC01538D47
:10046000448D252F30E0842F90E0821B930B54178E
:1004700010F0CF96089501970895FC01918D828D1B
:10048000981761F0A28DAE0FBF2FB11D5D968C91B4
:10049000928D9F5F9F73928F90E008958FEF9FEFF3
:1004A0000895FC01918D828D981731F0828DE80FAF
:1004B000F11D858D90E008958FEF9FEF0895FC0169
:1004C000918D228D892F90E0805C9F4F821B910936
:1004D0008F739927089589E592E00E945F0221E0D9
:1004E000892B09F420E0822F0895FC01A48DA80F28
:1004F000B92FB11DA35ABF4F2C91848D90E0019666
:100500008F739927848FA689B7892C93A089B18985
:100510008C91837080648C93938D848D981306C026
:100520000288F389E02D80818F7D80830895EF928A
:10053000FF920F931F93CF93DF93EC0181E0888F9D
:100540009B8D8C8D98131AC0E889F989808185FF6D
:1005500015C09FB7F894EE89FF896083E889F9890F
:1005600080818370806480839FBF81E090E0DF9111
:10057000CF911F910F91FF90EF900895F62E0B8D64
:1005800010E00F5F1F4F0F731127E02E8C8D8E111F
:100590000CC00FB607FCFACFE889F989808185FF86
:1005A000F5CFCE010E947502F1CFEB8DEC0FFD2F40
:1005B000F11DE35AFF4FF0829FB7F8940B8FEA8941
:1005C000FB8980818062CFCFCF93DF93EC01888D50
:1005D0008823B9F0AA89BB89E889F9898C9185FDBE
:1005E00003C0808186FD0DC00FB607FCF7CF8C914C
:1005F00085FFF2CF808185FFEDCFCE010E9475028D
:10060000E9CFDF91CF91089580E090E0892B29F028
:100610000E946B0281110E94000080E090E0892B13
:1006200049F080E090E0892B29F00E9400008111C0
:100630000E94000080E090E0892B49F080E090E08B
:10064000892B29F00E94000081110E94000080E0A7
:1006500090E0892B49F080E090E0892B29F00E94FE
:10066000000081110C94000008958150823108F03F
:100670005AC0E82FF0E08827EF5BFC4F8F4F0C94B7
:10068000F60B61036503530359035D03930368038A
:100690006E03720378037C03800386038A0393034B
:1006A0008E0394039803809180008F77809380005D
:1006B0000895809180008F7DF9CF80918000877FA1
:1006C000F5CF84B58F7784BD089584B58F7DFBCF3A
:1006D0008091B0008F778093B00008958091B00032
:1006E0008F7DF9CF809190008F778093900008954F
:1006F000809190008F7DF9CF80919000877FF5CF1A
:100700008091A0008F778093A00008958091A00031
:100710008F7DF9CF8091A000877FF5CF8091200158
:100720008F77809320010895809120018F7DF9CFEC
:1007300080912001877FF5CFCF93DF93282F30E082
:10074000F901E25DFD4F8491F901E851FE4FD4912A
:10075000F901EE55FE4FC491CC23A1F081110E9406
:100760003503EC2FF0E0EE0FFF1FE857FE4FA59189
:10077000B491EC91ED2381E090E009F480E0DF9109
:10078000CF91089580E090E0FACF862F0C949C03DF
:100790001F93CF93DF93282F30E0F901E25DFD4FE7
:1007A0008491F901E851FE4FD491F901EE55FE4FC5
:1007B000C491CC23A9F0162F81110E943503EC2F90
:1007C000F0E0EE0FFF1FE259FE4FA591B4918FB7F5
:1007D000F894EC91111108C0D095DE23DC938FBF03
:1007E000DF91CF911F910895DE2BF8CF862F642FD4
:1007F0000C94C803CF93DF9390E0FC01E851FE4FC7
:1008000024918E559E4FFC0184918823C9F090E07D
:10081000880F991FFC01EC5AFE4FA591B491FC0181
:10082000E259FE4FC591D49161110DC09FB7F89464
:100830008C91209582238C938881282328839FBFC5
:10084000DF91CF910895623051F49FB7F8943C91B5
:10085000822F809583238C93E8812E2BEFCF8FB747
:10086000F894EC912E2B2C938FBFEACF862F642F18
:100870000C94FA03AF92BF92CF92DF92EF92FF9265
:100880000F931F93CF93DF936B017A01EC01C25C4E
:10089000DD4F28813CE0389F8001399F100D1124E5
:1008A000A0908603B12C27FF1FC0FB01118210828C
:1008B00088818F5F888388819801280F311D87FD8B
:1008C0003A95F6012A153B051CF488818C30C4F159
:1008D00080819181049680349C4908F473C0F601AC
:1008E00080819181049670C088819801280F311D04
:1008F00087FD3A952A153B05DCF68881A801480F4B
:10090000511D87FD5A95FA01EE0FFF1FE40FF51FE9
:10091000EA50FD4F808186FFCBCF8881F801E80F38
:10092000F11D87FDFA95CF01EE0FFF1FE80FF91FAC
:10093000EA50FD4F808160E08F730E94C803B8CFFA
:10094000808191812881A801420F511D27FD5A9570
:100950009A01FA01EE0FFF1FE20FF31FEA50FD4F5D
:1009600021813281820F931FF701918380838881D7
:100970009801280F311D87FD3A95F901EE0FFF1FF1
:10098000E20FF31FEA50FD4F808186FF22C088816D
:10099000080F111D87FD1A95F801EE0FFF1FE00FDC
:1009A000F11FEA50FD4F808161E08F73DF91CF919D
:1009B0001F910F91FF90EF90DF90CF90BF90AF907D
:1009C0000C94C80380E49CE9F701918380838FEF46
:1009D0008883DF91CF911F910F91FF90EF90DF906F
:1009E000CF90BF90AF900895CF93DF93EC018091AB
:1009F000530290915402009759F020915502309182
:100A000056022C173D0720F081E0DF91CF91089529
:100A1000BE016F5F7F4F0E94230D009789F0909376
:100A2000540280935302D0935602C09355022091F2
:100A3000570230915802232B39F7FC011082E4CF82
:100A400080E0E3CF8F929F92AF92BF920F931F935C
:100A5000CF93DF93CDB7DEB7A1970FB6F894DEBF83
:100A60000FBECDBF19A2423008F44AE08E010F5DDF
:100A70001F4F842E912CB12CA12CA50194010E9412
:100A8000B90BE62FB901CA01EA3044F5E05DD8019F
:100A9000EE938D01232B242B252B79F790E080E01A
:100AA000109769F0FD0101900020E9F73197AF013F
:100AB0004A1B5B0BBD0189E592E00E940102A196F1
:100AC0000FB6F894DEBF0FBECDBFDF91CF911F915F
:100AD0000F91BF90AF909F908F900895E95CD7CF12
:100AE0001F920F920FB60F9211240BB60F922F93F5
:100AF0003F934F935F936F937F938F939F93AF93A6
:100B0000BF93EF93FF9389E592E00E947502FF91F6
:100B1000EF91BF91AF919F918F917F916F915F9175
:100B20004F913F912F910F900BBE0F900FBE0F90E2
:100B30001F9018951F920F920FB60F9211240BB6AB
:100B40000F922F938F939F93EF93FF93E0916902FE
:100B5000F0916A028081E0916F02F091700282FD53
:100B60001DC09081809172028F5F8F7320917302FC
:100B7000821741F0E0917202F0E0E75AFD4F958F45
:100B800080937202FF91EF919F918F912F910F901F
:100B90000BBE0F900FBE0F901F9018958081F2CF63
:100BA0001F920F920FB60F9211242F933F938F93A2
:100BB0009F93AF93BF9380914F0290915002A09169
:100BC0005102B09152023091460223E0230F2D379B
:100BD00058F50196A11DB11D2093460280934F0246
:100BE00090935002A0935102B0935202809142021E
:100BF00090914302A0914402B09145020196A11D3B
:100C0000B11D8093420290934302A0934402B0939B
:100C10004502BF91AF919F918F913F912F910F907E
:100C20000FBE0F901F90189526E8230F0296A11D66
:100C3000B11DD2CF1F920F920FB60F9211240BB697
:100C40000F922F933F934F935F936F937F938F9365
:100C50009F93AF93BF93EF93FF9348E251E064E219
:100C600071E090E080E00E943A04FF91EF91BF9123
:100C7000AF919F918F917F916F915F914F913F9134
:100C80002F910F900BBE0F900FBE0F901F901895D5
:100C90001F920F920FB60F9211240BB60F922F9343
:100CA0003F934F935F936F937F938F939F93AF93F4
:100CB000BF93EF93FF9348EA50E064EA70E083E06B
:100CC00090E00E943A04FF91EF91BF91AF919F9104
:100CD0008F917F916F915F914F913F912F910F90E5
:100CE0000BBE0F900FBE0F901F9018951F920F9282
:100CF0000FB60F9211240BB60F922F933F934F9381
:100D00005F936F937F938F939F93AF93BF93EF9373
:100D1000FF9348E950E064E970E082E090E00E94CF
:100D20003A04FF91EF91BF91AF919F918F917F9185
:100D30006F915F914F913F912F910F900BBE0F904C
:100D40000FBE0F901F9018951F920F920FB60F9223
:100D500011240BB60F922F933F934F935F936F9392
:100D60007F938F939F93AF93BF93EF93FF9348E845
:100D700050E064E870E081E090E00E943A04FF9166
:100D8000EF91BF91AF919F918F917F916F915F9103
:100D90004F913F912F910F900BBE0F900FBE0F9070
:100DA0001F90189510925C0210925B0288EE93E0FF
:100DB000A0E0B0E080935D0290935E02A0935F029A
:100DC000B093600282E292E090935A0280935902BB
:100DD00085EC90E0909366028093650284EC90E04D
:100DE000909368028093670280EC90E090936A028F
:100DF0008093690281EC90E090936C0280936B0287
:100E000082EC90E090936E0280936D0286EC90E00D
:100E10009093700280936F0210927202109273028C
:100E2000109274021092750210928C03109290032B
:100E300010928F031092910384E392E090938B03BE
:100E400080938A03E6EAF3E010821482138215820B
:100E5000369683E0E23EF807B9F784E092E090939B
:100E6000ED038093EC0380E092E09093EF03809396
:100E7000EE0384E08093F0038093F10388E092E036
:100E80009093EB038093EA038AE090E09093F3035E
:100E90008093F20384EF91E09093F5038093F40341
:100EA0001092F8031092F7031092E6031092E703F2
:100EB0001092E8031092E9031092F60380918603E2
:100EC000803398F491E0980F909386038093870382
:100ED00090E0FC01EE0FFF1FE80FF91FEA50FD4FF5
:100EE00088EB9BE09283818308958FEF8093870343
:100EF0000895CF93DF931F921F92CDB7DEB77894FA
:100F000084B5826084BD84B5816084BD85B582600E
:100F100085BD85B5816085BD80916E0081608093BF
:100F20006E00109281008091810082608093810028
:100F30008091810081608093810080918000816038
:100F4000809380008091B10084608093B100809193
:100F5000B00081608093B0008091910082608093A6
:100F60009100809191008160809391008091900028
:100F70008160809390008091A10082608093A100A5
:100F80008091A10081608093A1008091A000816088
:100F90008093A00080912101826080932101809143
:100FA00021018160809321018091200181608093E3
:100FB000200180917A00846080937A0080917A0089
:100FC000826080937A0080917A00816080937A00B9
:100FD00080917A00806880937A001092C10080919D
:100FE0008703803308F054C061E089E00E94FA036F
:100FF00080918703282F30E0F901EE0FFF1FE20FE9
:10100000F31FEA50FD4F9081907C996090839EE899
:101010009093880394E6909389032CE0622F0E94BA
:10102000EA0B829FB001112430E020E0AB01420FB7
:10103000531FFA01EE0FFF1FE40FF51FEA50FD4F9B
:10104000908196FD17C02F5F3F4F2C30310571F70F
:10105000813009F0C1C01092800082E0809381004D
:101060001092850010928400B19A80916F00826086
:1010700080936F00E09187038E2F90E0FC01EE0FCC
:10108000FF1FE80FF91FEA50FD4F808180648083C5
:10109000E0916902F0916A0282E08083E09165024A
:1010A000F09166021082E0916702F09168028FEC85
:1010B000808310927102E0916D02F0916E0286E0E1
:1010C0008083E0916B02F0916C028081806180836B
:1010D000E0916B02F0916C02808188608083E091E6
:1010E0006B02F0916C02808180688083E0916B02DA
:1010F000F0916C0280818F7D8083BB24B39436E0B5
:10110000232E48E6442E55245394612C712C809153
:10111000470281112AC01092540210925302109279
:10112000560210925502109258021092570290E007
:1011300080E00E94F4042091530230915402811106
:1011400077C02115310519F0C9010E949A0C10923F
:1011500054021092530210925802109257021092A9
:10116000560210925502B0924702B092F6038FB722
:10117000F89440914F025091500260915102709149
:1011800052028FBF8091E6039091E703A091E8039C
:10119000B091E903481B590B6A0B7B0B8091F2035A
:1011A0009091F303B0E0A0E084179507A607B70776
:1011B00008F050C110E08091F003181708F042C009
:1011C000E091EC03F091ED03E10FF11D62E080810D
:1011D0000E94FA031F5FEFCF823061F410929000FB
:1011E00080939100109295001092940088BB809398
:1011F000710040CF833069F41092A00082E08093A8
:10120000A1001092A5001092A40089BB80937200E7
:1012100031CF81112FCF1092200182E080932101E4
:1012200010922501109224018ABB8093730022CF73
:1012300010925802109257026CE372E0C9010E94AA
:101240000D0E91CFA12C8091F103A81608F063C078
:10125000EA2CF12CE091EE03F091EF03EE0DFF1D6F
:1012600061E080810E94FA03E091EE03F091EF03C8
:10127000EE0DFF1D60E080810E94C80381E090E0D8
:10128000A0E0B0E00A2C04C0880F991FAA1FBB1F62
:101290000A94D2F74C016C01C094D094312C809107
:1012A000F003381608F5032D10E0E091EC03F091FF
:1012B000ED03E00FF11F80810E949C030C5F1F4F24
:1012C000000F111FF801E657FC4F892B41F4808174
:1012D000918188299929918380833394E0CF8081FB
:1012E00091818C219D21F7CFE091EE03F091EF03E6
:1012F000EE0DFF1D61E080810E94C8038091EE0326
:101300009091EF03E80EF91E60E0F70180810E94E2
:10131000FA03A39498CF9AE8E92E93E0F92E870177
:10132000F801878D90A1892B31F4148E4FEF5FEF78
:10133000568F458F11A20A5F1F4F53E0063C1507D9
:1013400079F7D12C8091F003D81608F052C0C12C47
:101350008D2C912C880C991CC4018E569C4F4C01ED
:101360002091F103C21608F042C0F401608171813E
:101370000C2C02C0769567950A94E2F7D29E9001F4
:1013800011242C0D311DEAE8F3E080E0458D568DE7
:101390002417350709F47DC18F5F36968A30B1F77F
:1013A00060FF23C0EAE8F3E090E080E0448D411163
:1013B00017C0E091EA03F091EB03E20FF31F4081C5
:1013C000289EF001299EF00D1124E657FC4F448F12
:1013D000368F258F10A2178E61E00E94910105C003
:1013E000019636968A30910509F7C394B9CFD39404
:1013F000A9CF80E0F70191A19111892FF6E0EF0EBE
:10140000F11C0E151F05B1F79FB7F89440914F02DC
:101410005091500260915102709152029FBF4093CF
:10142000E6035093E7036093E8037093E90388238E
:1014300089F08091AB03882369F08091A903909192
:10144000AA03019739F48091A603811106C00E9476
:1014500004035DCE1092F603FACF8A3209F0F2C08F
:101460008091530290915402009709F48CC00E941D
:101470004B0B8B016B01770FEE08FF084AE0C701A9
:10148000B601F7FE0DC06DE289E592E00E94970279
:1014900066277727CB016C197D098E099F094AE0E1
:1014A0000E942205053B11050CF471C0D801A45B14
:1014B000B109A03242E0B40708F47FC0209187034D
:1014C000203380F580918803E8E8F0E0E81BF1091B
:1014D00087FDF395CF01880F991F880F991FA817D3
:1014E000B90784F03091890388E592E0831B910964
:1014F00037FD9395880F991F880F991FA817B90773
:101500000CF4CD010297880F991F4FB7F89430E083
:10151000F901EE0FFF1FE20FF31FEA50FD4F928318
:1015200081834FBF90E080E00E94F4042091530239
:101530003091540281117CC02115310519F0C90187
:101540000E949A0C10925402109253021092580268
:101550001092570210925602109255024091570273
:1015600050915802609153027091540289E592E0C3
:101570000E94010242E050E06AE372E089E592E0F5
:101580000E94010264CF60E070E0CB0172CFA7013E
:1015900096012C543F4F4F4F5F4FA4EBB0E00E9499
:1015A000A60BA30192010E94870BD901A03252E041
:1015B000B5070CF083CFB7FD38C0A53BB10514F0DB
:1015C000A4EBB0E080918803E8E8CE2ED12CC81AB5
:1015D000D10887FDD394CC0CDD1CCC0CDD1C0D2C6C
:1015E000000CEE08FF088091890328E532E0281BF3
:1015F000310987FD3395220F331F220F331F032E2E
:10160000000C440B550B2C193D094E095F090E9433
:10161000B10B24EB30E040E050E00E94870BC20E9B
:10162000D31EE41EF51ED60149CFB0E0A0E0CACF1C
:1016300010925802109257026CE372E0C9010E94A6
:101640000D0E8CCF90ED980F9A3008F087CF009157
:1016500057021091580289831A820F5F1F4FC801E9
:101660000E94F404882309F479CF20915302309129
:1016700054028091570290915802BE016F5F7F4FD4
:10168000820F931F0E940D0E109358020093570271
:1016900065CF6170A2CE1F93FC0199278827BC01FA
:1016A000E89411911032E9F3193010F01E30C8F3AC
:1016B0001B3251F01D3249F4689406C00E94720B2F
:1016C000610F711D811D911D119110531A30B0F3DE
:1016D0003EF490958095709561957F4F8F4F9F4F09
:1016E0001F910895592F482F372F262F660F771FE8
:1016F000881F991F660F771F881F991F620F731F1E
:10170000841F951F660F771F881F991F0895052E48
:1017100097FB1EF400940E949E0B57FD07D00E9479
:10172000B90B07FC03D04EF40C949E0B50954095DA
:10173000309521953F4F4F4F5F4F0895909580957D
:10174000709561957F4F8F4F9F4F08950E94DB0BDF
:10175000A59F900DB49F900DA49F800D911D112405
:101760000895B7FF0C94A60B0E94A60B821B930B47
:101770000895A1E21A2EAA1BBB1BFD010DC0AA1FD2
:10178000BB1FEE1FFF1FA217B307E407F50720F0EA
:10179000A21BB30BE40BF50B661F771F881F991F65
:1017A0001A9469F760957095809590959B01AC01AE
:1017B000BD01CF010895A29FB001B39FC001A39FB7
:1017C000700D811D1124911DB29F700D811D11247A
:1017D000911D0895991B79E004C0991F961708F090
:1017E000961B881F7A95C9F780950895EE0FFF1F05
:1017F000881F8BBF0790F691E02D19940F931F93CC
:10180000CF93DF938230910510F482E090E0E09175
:10181000FB03F091FC0330E020E0B0E0A0E0309763
:1018200099F42115310509F44AC0281B390B2430DD
:101830003105D8F58A819B816115710589F1FB011C
:1018400093838283FE0111C0408151810281138103
:1018500048175907E0F04817590799F4109761F0B5
:1018600012960C93129713961C933296CF01DF9128
:10187000CF911F910F9108950093FB031093FC03E8
:10188000F4CF2115310551F04217530738F0A90163
:10189000DB019A01BD01DF01F801C1CFEF01F9CFF2
:1018A0009093FC038093FB03CDCFFE01E20FF31F67
:1018B000819391932250310939832883D7CF209186
:1018C000F9033091FA03232B41F420911A0230914D
:1018D0001B023093FA032093F903209118023091F0
:1018E00019022115310541F42DB73EB740911C0274
:1018F00050911D02241B350BE091F903F091FA037E
:10190000E217F307A0F42E1B3F0B2817390778F0D6
:10191000AC014E5F5F4F2417350748F04E0F5F1F35
:101920005093FA034093F903819391939FCFF0E092
:10193000E0E09CCFCF93DF930097E9F0FC01329772
:1019400013821282A091FB03B091FC03ED0130E001
:1019500020E01097A1F420813181820F931F209104
:10196000F9033091FA032817390709F061C0F093A1
:10197000FA03E093F903DF91CF910895EA01CE17BE
:10198000DF07E8F54A815B819E0141155105B1F7FA
:10199000E901FB83EA8349915991C40FD51FEC17E4
:1019A000FD0761F4808191810296840F951FE90102
:1019B00099838883828193819B838A83F0E0E0E02E
:1019C00012968D919C9113970097B9F52D913C91AA
:1019D0001197CD010296820F931F2091F903309148
:1019E000FA032817390739F6309751F51092FC039E
:1019F0001092FB03B093FA03A093F903BCCFD383F7
:101A0000C28340815181840F951FC817D90761F4A3
:101A10004E5F5F4F88819981480F591F51834083E2
:101A20008A819B81938382832115310509F0B0CF90
:101A3000F093FC03E093FB039ECFFD01DC01C0CFDC
:101A400013821282D7CF4F925F926F927F928F92C2
:101A50009F92AF92BF92CF92DF92EF92FF920F933D
:101A60001F93CF93DF938C01009799F4CB01DF9103
:101A7000CF911F910F91FF90EF90DF90CF90BF908B
:101A8000AF909F908F907F906F905F904F900C944D
:101A9000FE0BFC01E60FF71F9C0122503109E217F3
:101AA000F30708F4AEC0D901CD91DC911197C617A8
:101AB000D70720F1C530D10578F0CE0104978617FD
:101AC000970750F0C61BD70B2297C193D1936D9304
:101AD0007C93CF010E949A0CC801DF91CF911F9196
:101AE0000F91FF90EF90DF90CF90BF90AF909F90BD
:101AF0008F907F906F905F904F9008955B01AC1A2C
:101B0000BD0A4C018C0E9D1EA091FB03B091FC03FD
:101B1000512C412CF12CE12C109731F58091F903D7
:101B20009091FA038815990509F05CC0461657068E
:101B300008F058C08091180290911902009741F462
:101B40008DB79EB740911C0250911D02841B950BCE
:101B5000E817F90708F055C0F093FA03E093F9038A
:101B6000F90171836083B8CF8D919C911197129682
:101B70006C90129713967C901397A815B90559F598
:101B80006C0142E0C40ED11CCA14DB0420F1AC018C
:101B90004A195B09DA011296159780F06282738206
:101BA00051834083D9016D937C93E114F10471F06A
:101BB000D7011396FC93EE9312978ECF22968C0F3B
:101BC0009D1FF90191838083F301EFCFF093FC0314
:101BD000E093FB0381CF4816590608F42C017D01E0
:101BE000D3019ACFCB010E94FE0B7C01009749F0F4
:101BF000AE01B8010E94040EC8010E949A0C870130
:101C00006BCF10E000E068CFFB01DC0102C0019067
:101C10000D9241505040D8F70895FB01DC0101902E
:0C1C20000D920020E1F70895F894FFCF2A
:101C2C001F21232517191B1D3738392F3435362A18
:101C3C003132332D4F303D2B0000FD03800000006E
:101C4C000000970201022E02E4025F023D025102E3
:0E1C5C00000000003604F603C5030D0A000068
:00000001FF
