:100000000C941F010C94FA030C94CF030C94A403DA
:100010000C9479030C944E030C9423030C94F80273
:100020000C94CD020C9440010C9440010C944001BE
:100030000C9440010C9440010C9440010C9440013C
:100040000C9440010C9440010C9440010C9440012C
:100050000C9440010C9440010C9440010C948302D8
:100060000C9440010C9440010C9440010C9440010C
:100070000C9440010C9440010C9440010C944001FC
:100080000C9440010C9440010C9440010C944001EC
:100090000C9440010C9440010C9440010C944001DC
:1000A0000C9440010C9440010C9440010C944001CC
:1000B0000C9440010C9440010C9440010C944001BC
:1000C0000C9440010C9440010C9440010C944001AC
:1000D0000C9440010C9440010C9440010C9440019C
:1000E0000C9440010C9446010C94C6010C94AA0196
:1000F0000C94A0010C947A010C9499010C94420187
:100100000C94C2010C949D010C94A6010C94D00196
:100110000C94BE010C94B0010C94CC010C9495018C
:100120000C94B4010C9491010C94B8010C94D60178
:100130000C947F010C94820200002100240027000F
:100140002A002D00300033000101000004010701E6
:100150000A0100002200250028002B002E0031009B
:10016000340002010000050108010B010505050529
:10017000070508080808020202020A0A080804041F
:10018000040401010101010101010303030303034D
:100190000303040707070C0C0C0C0C0C0C0C0202DC
:1001A000020206060606060606060B0B0B0B0B0BD9
:1001B0000B0B010210202008081020401020408066
:1001C000020102010804020101020408102040801B
:1001D00080402010080402018004020180402010A9
:1001E00008040201080402010102040810204080F2
:1001F000010204081020408000000A0B02090C0DC7
:100200000E080703040100000000000000000000C9
:1002100000000000000000000000000000000000DE
:10022000000000001211100000000000000000009B
:100230000000000000000000000000000000112489
:100240001FBECFEFD1E2DEBFCDBF00E00CBF12E09A
:10025000A0E0B2E0E0E4FBE000E00BBF02C00790EA
:100260000D92A031B107D9F722E0A0E1B2E001C0C0
:100270001D92AB31B207E1F70E9425040C949E0554
:100280000C94000081E080931A02089581E080932D
:1002900019020895282F30E0F901E850FE4F94919B
:1002A000F901EE54FE4F449124593E4FF901249137
:1002B000222309F435C0992311F191509231F8F4B9
:1002C000E92FF0E08827E859FE4F8F4F0C949605F0
:1002D00099019D017A01910195017F01A001A6017B
:1002E000AA01B001B401B801BE01C2017F01C6017B
:1002F000CC01D001809180008F7780938000E22F25
:10030000F0E0EE0FFF1FEE5AFE4FA591B4918FB7AC
:10031000F894EC91611148C040954E234C938FBFE7
:100320000895809180008F7DE8CF80918000877F45
:10033000E4CF84B58F7784BDE2CF84B58F7DFBCFCA
:100340008091B0008F778093B000D9CF8091B000BA
:100350008F7DF9CF809190008F7780939000CFCFE1
:10036000809190008F7DF9CF80919000877FF5CFAD
:100370008091A0008F778093A000C1CF8091A000D2
:100380008F7DF9CF8091A000877FF5CF80912001EC
:100390008F7780932001B3CF809120018F7DF9CF9B
:1003A00080912001877FF5CF4E2BB8CF60E080E0B1
:1003B0000E944A0160E081E00E944A0160E082E020
:1003C0000E944A0160E083E00E944A0160E084E00C
:1003D0000E944A0160E085E00E944A0160E086E0F8
:1003E0000E944A0160E087E00C944A01CF93DF93BA
:1003F00090E0FC01EE54FE4F249184599E4FFC0185
:1004000084918823D1F090E0880F991FFC01E85C6B
:10041000FE4FA591B491FC01EE5AFE4FC591D491C7
:1004200061110EC09FB7F8948C91E22FE0958E2356
:100430008C932881E223E8839FBFDF91CF910895B9
:100440008FB7F894EC91E22BEC938FBFF6CF3FB7C8
:10045000F8948091150290911602A0911702B09124
:10046000180226B5A89B05C02F3F19F00196A11DC3
:10047000B11D3FBFBA2FA92F982F8827BC01CD01EE
:10048000620F711D811D911D42E0660F771F881F4D
:10049000991F4A95D1F708958F929F92AF92BF927C
:1004A000CF92DF92EF92FF920E9427024B015C01F4
:1004B00088EEC82E83E0D82EE12CF12C0E94270272
:1004C000681979098A099B09683E7340810591057D
:1004D000A8F321E0C21AD108E108F10888EE880EDD
:1004E00083E0981EA11CB11CC114D104E104F104E5
:1004F00029F7FF90EF90DF90CF90BF90AF909F9043
:100500008F90089508951F920F920FB60F921124A5
:100510002F933F938F939F93AF93BF93809111023B
:1005200090911202A0911302B09114023091100226
:1005300023E0230F2D3758F50196A11DB11D2093FF
:1005400010028093110290931202A0931302B093B1
:1005500014028091150290911602A0911702B09199
:1005600018020196A11DB11D8093150290931602E9
:10057000A0931702B0931802BF91AF919F918F91F2
:100580003F912F910F900FBE0F901F90189526E866
:10059000230F0296A11DB11DD2CF1F920F920FB64D
:1005A0000F9211240BB60F922F933F934F935F93AB
:1005B0006F937F938F939F93AF93BF93EF93FF932B
:1005C000E0910E02F0910F021995FF91EF91BF910A
:1005D000AF919F918F917F916F915F914F913F91DB
:1005E0002F910F900BBE0F900FBE0F901F9018957C
:1005F0001F920F920FB60F9211240BB60F922F93EA
:100600003F934F935F936F937F938F939F93AF939A
:10061000BF93EF93FF93E0910C02F0910D021995B7
:10062000FF91EF91BF91AF919F918F917F916F91CA
:100630005F914F913F912F910F900BBE0F900FBE86
:100640000F901F9018951F920F920FB60F921124C2
:100650000BB60F922F933F934F935F936F937F93BC
:100660008F939F93AF93BF93EF93FF93E091020219
:10067000F09103021995FF91EF91BF91AF919F9176
:100680008F917F916F915F914F913F912F910F903B
:100690000BBE0F900FBE0F901F9018951F920F92D8
:1006A0000FB60F9211240BB60F922F933F934F93D7
:1006B0005F936F937F938F939F93AF93BF93EF93CA
:1006C000FF93E0910002F09101021995FF91EF91E3
:1006D000BF91AF919F918F917F916F915F914F915A
:1006E0003F912F910F900BBE0F900FBE0F901F9058
:1006F00018951F920F920FB60F9211240BB60F92FE
:100700002F933F934F935F936F937F938F939F9319
:10071000AF93BF93EF93FF93E0910A02F0910B0226
:100720001995FF91EF91BF91AF919F918F917F911B
:100730006F915F914F913F912F910F900BBE0F9052
:100740000FBE0F901F9018951F920F920FB60F9229
:1007500011240BB60F922F933F934F935F936F9398
:100760007F938F939F93AF93BF93EF93FF93E0910A
:100770000802F09109021995FF91EF91BF91AF9195
:100780009F918F917F916F915F914F913F912F91A9
:100790000F900BBE0F900FBE0F901F9018951F92D9
:1007A0000F920FB60F9211240BB60F922F933F9317
:1007B0004F935F936F937F938F939F93AF93BF9369
:1007C000EF93FF93E0910602F09107021995FF91D4
:1007D000EF91BF91AF919F918F917F916F915F91B9
:1007E0004F913F912F910F900BBE0F900FBE0F9026
:1007F0001F9018951F920F920FB60F9211240BB6EF
:100800000F922F933F934F935F936F937F938F93A9
:100810009F93AF93BF93EF93FF93E0910402F09106
:1008200005021995FF91EF91BF91AF919F918F9123
:100830007F916F915F914F913F912F910F900BBEE0
:100840000F900FBE0F901F901895789484B582601A
:1008500084BD84B5816084BD85B5826085BD85B564
:10086000816085BD80916E00816080936E001092E2
:10087000810080918100826080938100809181005D
:1008800081608093810080918000816080938000EE
:100890008091B10084608093B1008091B00081604C
:1008A0008093B0008091910082608093910080914C
:1008B000910081608093910080919000816080938D
:1008C00090008091A10082608093A1008091A1009E
:1008D00081608093A1008091A00081608093A0003E
:1008E00080912101826080932101809121018160AA
:1008F000809321018091200181608093200180916B
:100900007A00846080937A0080917A00826080937C
:100910007A0080917A00816080937A0080917A00D9
:10092000806880937A001092C10061E080E00E94AC
:10093000F60161E081E00E94F60161E082E00E9440
:10094000F60161E083E00E94F60161E084E00E942C
:10095000F60161E085E00E94F60161E086E00E9418
:10096000F60161E087E00E94F60160E082E10E940A
:10097000F60160E083E10E94F60160E084E10E94FC
:10098000F60182E491E090930B0280930A02809139
:1009900069008F73806880936900EB9A86E491E028
:1009A0009093090280930802809169008F7C806295
:1009B00080936900EA9A86ED91E090930702809314
:1009C000060280916900837F886080936900E99ABC
:1009D00000E010E080911A02882391F161E080E04C
:1009E0000E944A010E944C0261E081E00E944A019B
:1009F0000E944C0261E082E00E944A010E944C0287
:100A000061E083E00E944A010E944C0261E084E0C0
:100A10000E944A010E944C0261E085E00E944A0166
:100A20000E944C0261E086E00E944A010E944C0252
:100A300061E087E00E944A010E944C0210921A0273
:100A400080911902882309F46AC0C7E0D0E0219799
:100A500061E080E009F443C00E944A0161E081E066
:100A60000E944A0161E082E00E944A0161E083E065
:100A70000E944A0161E084E00E944A0161E085E051
:100A80000E944A0161E086E00E944A0161E087E03D
:100A90000E944A010E944C0260E080E00E944A01EC
:100AA00060E081E00E944A0160E082E00E944A0129
:100AB00060E083E00E944A0160E084E00E944A0115
:100AC00060E085E00E944A0160E086E00E944A0101
:100AD00060E087E00E944A010E944C02B8CF0E9469
:100AE0004A0161E081E00E944A0161E082E00E94E7
:100AF0004A0161E083E00E944A0161E084E00E94D3
:100B00004A0161E085E00E944A0161E086E00E94BE
:100B10004A0161E087E00E944A0110921902011522
:100B2000110509F457CF0E94000054CFEE0FFF1FAC
:100B3000881F8BBF0790F691E02D1994F894FFCF92
:100B40008202820282028202820282028202820285
:00000001FF
