:020000040000FA
:100000000C94C1010C94F2010C94F2010C94F201D5
:100010000C94F2010C94F2010C94F2010C94F20194
:100020000C94F2010C94F2010C94F2010C94F20184
:100030000C94F2010C94F2010C94F2010C94F20174
:100040000C94F2010C94EE090C94F2010C94F20160
:100050000C94F2010C94F2010C94F2010C941A0924
:100060000C94F2010C94E4080C94BA080C94F2017C
:100070000C94F2010C94F2010C94F2010C94F20134
:100080000C94C0090C94F2010C94F2010C94F2014E
:100090000C94F2010C94F2010C94F2010C94F20114
:1000A0000C94F2010C94F2010C9492090C94F2015C
:1000B0000C94F2010C94F2010C94F2010C9464097A
:1000C0000C94F2010C94F2010C94F2010C94F201E4
:1000D0000C94F2010C94F2010C94F2010C94F201D4
:1000E0000C94F2010C940A040C941C0A0C940E0457
:1000F0000C9468030C94B2020C947A040C94F603EA
:100100000C9412040C94E1030C94C1020C94490465
:100110000C947C020C94DD030C94E9030C941B03F7
:100120000C945E0F0C94E5030C941C040C949D0736
:100130000C94E3020C94D7030C94EC030C94D502BA
:100140000C947D050C9404040C9418040C94F20394
:100150000C947E050C9400040C94BA040C941704BF
:100160000C94FC0300407A10F35A00A0724E180958
:100170000010A5D4E80000E87648170000E40B540E
:10018000020000CA9A3B000000E1F50500008096DD
:100190009800000040420F000000A086010000000F
:1001A000102700000000E8030000000064000000C9
:1001B00000000A00000000000100000000002C7692
:1001C000D888DC674F0823DFC1DFAE59E1B1B796AD
:1001D000E5E3E453C63AE651997696E8E6C284260A
:1001E000EB898C9B62ED407C6FFCEFBC9C9F40F2E6
:1001F000BAA56FA5F490055A2AF75C936B6CF96762
:100200006DC11BFCE0E40D47FEF520E6B500D0ED26
:10021000902E0300943577050080841E080000208E
:100220004E0A000000C80C333333330F986E12832C
:100230001141EF8D2114893BE65516CFFEE6DB1800
:10024000D1844B381BF77C1D901DA4BBE4242032C5
:1002500084725E228100C9F124ECA1E53D270000F3
:100260002100240027002A002D0030003300010166
:100270000000040107010A010000220025002800F7
:100280002B002E003100340002010000050108019E
:100290000B01000020002300260029002C002F0065
:1002A00032000001000003010601090105050505F2
:1002B000070508080808020202020A0A08080404DE
:1002C000040401010101010101010303030303030C
:1002D0000303040707070C0C0C0C0C0C0C0C02029B
:1002E000020206060606060606060B0B0B0B0B0B98
:1002F0000B0B010210202008081020401020408025
:1003000002010201080402010102040810204080D9
:100310008040201008040201800402018040201067
:1003200008040201080402010102040810204080B0
:10033000010204081020408000000A0B02090C0D85
:100340000E08070304010000000000000000000088
:10035000000000000000000000000000000000009D
:10036000000000001211100000000000000000005A
:1003700000000000000000000000000000001C0A57
:100380005E0F11241FBECFEFD1E2DEBFCDBF00E074
:100390000CBF12E0A0E0B2E0E6ECFCE200E00BBF34
:1003A00002C007900D92A23AB107D9F724E0A2EA61
:1003B000B2E001C01D92AD39B207E1F711E0C0EC27
:1003C000D1E000E006C021970109802FFE010E94C4
:1003D0002A14CF3BD10780E00807A9F70E94250B1C
:1003E0000C9451160C9400008F929F92AF92BF9282
:1003F000FF920F931F93CF93DF93F0900F042FE2A0
:100400002F1508F44CC02091110408E512E0021BDE
:10041000110927FD1395000F111F000F111F2091C7
:100420001004C8E8D0E0C21BD10927FDD395CC0F3A
:10043000DD1FCC0FDD1F4E010D2E000CAA08BB08DE
:100440009801012E000C440B550B281939094A0953
:100450005B09DC010E94061324EB30E040E050E031
:100460000E94DC12820E931EA41EB51E8C169D06E1
:100470002CF0E801801691060CF4E4012297CC0FD1
:10048000DD1F2FB7F8948F2D90E0FC01EE0FFF1FBA
:10049000E80FF91FE05BFC4FD283C1832FBFDF91D0
:1004A000CF911F910F91FF90BF90AF909F908F9031
:1004B000089596E0899FD0011124A65DBB4F9096C8
:1004C0007C936E935F9791E091969C939197E091C6
:1004D0009704F091980490919604992339F03097FD
:1004E00051F0811108C0809146041994309719F099
:1004F0005C968C91FACF0895AF92BF92CF92DF9223
:10050000EF92FF920F931F93CF93DF936C017B01C8
:100510008B01040F151FEB015E01AE18BF08C01759
:10052000D10759F06991D601ED91FC910190F081CC
:10053000E02DC6011995892B79F7C501DF91CF917F
:100540001F910F91FF90EF90DF90CF90BF90AF90F1
:100550000895FC01448155816081718182E194E0BC
:100560000C947C02FC01538D448D252F30E0842FA8
:1005700090E0821B930B541710F0CF9608950197CB
:100580000895FC01918D828D981761F0A28DAE0FB8
:10059000BF2FB11D5D968C91928D9F5F9F73928F3F
:1005A00090E008958FEF9FEF0895FC01918D828D6B
:1005B000981731F0828DE80FF11D858D90E0089538
:1005C0008FEF9FEF0895FC01918D228D892F90E090
:1005D000805C9F4F821B91098F739927089583EB4D
:1005E00092E00E94E30221E0892B09F420E0822FAF
:1005F0000895FC01A48DA80FB92FB11DA35ABF4FB8
:100600002C91848D90E001968F739927848FA68911
:10061000B7892C93A089B1898C91837080648C9365
:10062000938D848D981306C00288F389E02D808114
:100630008F7D80830895EF92FF920F931F93CF9346
:10064000DF93EC0181E0888F9B8D8C8D98131AC00D
:10065000E889F989808185FF15C09FB7F894EE89F4
:10066000FF896083E889F989808183708064808351
:100670009FBF81E090E0DF91CF911F910F91FF909C
:10068000EF900895F62E0B8D10E00F5F1F4F0F7344
:100690001127E02E8C8D8E110CC00FB607FCFACFFF
:1006A000E889F989808185FFF5CFCE010E94F902A2
:1006B000F1CFEB8DEC0FFD2FF11DE35AFF4FF082D0
:1006C0009FB7F8940B8FEA89FB8980818062CFCF36
:1006D000CF93DF93EC01888D8823B9F0AA89BB8979
:1006E000E889F9898C9185FD03C0808186FD0DC064
:1006F0000FB607FCF7CF8C9185FFF2CF808185FF85
:10070000EDCFCE010E94F902E9CFDF91CF9108959C
:1007100080E090E0892B29F00E94EF0281110E9475
:10072000000080E090E0892B49F080E090E0892B88
:1007300029F00E94000081110E94000080E090E0FA
:10074000892B49F080E090E0892B29F00E9400007D
:1007500081110E94000080E090E0892B49F080E048
:1007600090E0892B29F00E94000081110C94000078
:1007700008958150823108F05AC0E82FF0E08827B0
:10078000EB53FC4F8F4F0C942A14E503E903D70376
:10079000DD03E1031704EC03F203F603FC0300049A
:1007A00004040A040E041704120418041C048091A3
:1007B00080008F77809380000895809180008F7DE6
:1007C000F9CF80918000877FF5CF84B58F7784BD86
:1007D000089584B58F7DFBCF8091B0008F77809393
:1007E000B00008958091B0008F7DF9CF8091900086
:1007F0008F77809390000895809190008F7DF9CF3E
:1008000080919000877FF5CF8091A0008F778093B3
:10081000A00008958091A0008F7DF9CF8091A00065
:10082000877FF5CF809120018F77809320010895F5
:10083000809120018F7DF9CF80912001877FF5CFB6
:10084000CF93DF93282F30E0F901E85CFC4F8491CF
:10085000F901EE50FD4FD491F901E455FD4FC491DB
:10086000CC23A1F081110E94B903EC2FF0E0EE0F30
:10087000FF1FEE56FD4FA591B491EC91ED2381E061
:1008800090E009F480E0DF91CF91089580E090E05E
:10089000FACF862F0C9420041F93CF93DF93282F39
:1008A00030E0F901E85CFC4F8491F901EE50FD4F16
:1008B000D491F901E455FD4FC491CC23A9F0162F32
:1008C00081110E94B903EC2FF0E0EE0FFF1FE858F2
:1008D000FD4FA591B4918FB7F894EC91111108C018
:1008E000D095DE23DC938FBFDF91CF911F910895C8
:1008F000DE2BF8CF862F642F0C944C04CF93DF931C
:1009000090E0FC01EE50FD4F249184559D4FFC0179
:1009100084918823C9F090E0880F991FFC01E25A66
:10092000FD4FA591B491FC01E858FD4FC591D491BC
:1009300061110DC09FB7F8948C91209582238C9300
:100940008881282328839FBFDF91CF91089562304B
:1009500051F49FB7F8943C91822F809583238C9318
:10096000E8812E2BEFCF8FB7F894EC912E2B2C93A0
:100970008FBFEACF862F642F0C947E043FB7F89484
:100980008091AB029091AC02A091AD02B091AE0209
:1009900026B5A89B05C02F3F19F00196A11DB11DDA
:1009A0003FBFBA2FA92F982F8827BC01CD01620F16
:1009B000711D811D911D42E0660F771F881F991FD1
:1009C0004A95D1F708958F929F92AF92BF92CF929E
:1009D000DF92EF92FF924B015C010E94BE046B011B
:1009E0007C010E94BE046C197D098E099F09683E36
:1009F000734081059105A8F321E0821A9108A108AE
:100A0000B10888EEC80E83E0D81EE11CF11C8114E9
:100A10009104A104B10429F7FF90EF90DF90CF90EB
:100A2000BF90AF909F908F9008952FB7F8946091EA
:100A3000A7027091A8028091A9029091AA022FBFEB
:100A400008950F931F93CF93DF93C82FD62F86E07F
:100A5000C89FF0011124E65DFB4F11A2878D90A184
:100A600081309105F1F058F082309105F1F1039752
:100A700009F440C0DF91CF911F910F910895662333
:100A8000C9F361E070E08C2F0E9459020E941505A5
:100A9000609382047093830480938404909385040C
:100AA000E9CF0E94150500918204109183042091E2
:100AB000840430918504AB01BC01401B510B620BD7
:100AC000730B8091940490919504B0E0A0E084179A
:100AD0009507A607B70748F462E070E08C2FDF9116
:100AE000CF911F910F910C94590263E070E0D111E6
:100AF000C1CFF4CF70E060E0F1CF089590E080E0E6
:100B00000895AF92BF92CF92DF92EF92FF920F9330
:100B10001F93CF93DF936B017A01EC01CE55DD4F2C
:100B200028813CE0389F8001399F100D1124A0904E
:100B3000E003B12C27FF1FC0FB01118210828881C6
:100B40008F5F888388819801280F311D87FD3A9532
:100B5000F6012A153B051CF488818C30C4F1808194
:100B60009181049680349C4908F473C0F601808119
:100B70009181049670C088819801280F311D87FDEE
:100B80003A952A153B05DCF68881A801480F511DCE
:100B900087FD5A95FA01EE0FFF1FE40FF51FE05B8A
:100BA000FC4F808186FFCBCF8881F801E80FF11DD3
:100BB00087FDFA95CF01EE0FFF1FE80FF91FE05BED
:100BC000FC4F808160E08F730E944C04B8CF80811D
:100BD00091812881A801420F511D27FD5A959A0144
:100BE000FA01EE0FFF1FE20FF31FE05BFC4F2181C4
:100BF0003281820F931FF70191838083888198014E
:100C0000280F311D87FD3A95F901EE0FFF1FE20F06
:100C1000F31FE05BFC4F808186FF22C08881080FB4
:100C2000111D87FD1A95F801EE0FFF1FE00FF11F50
:100C3000E05BFC4F808161E08F73DF91CF911F916A
:100C40000F91FF90EF90DF90CF90BF90AF900C94FA
:100C50004C0480E49CE9F701918380838FEF8883C3
:100C6000DF91CF911F910F91FF90EF90DF90CF9088
:100C7000BF90AF90089561E085E30E944C0468EC5A
:100C800070E080E090E00E94E30460E085E30C9473
:100C90004C04CF93DF93EC0160E08E810E944C0402
:100CA00061E08E810E944C0460E08E810E944C04C1
:100CB0008BE891E00197F1F7DF91CF910895CF9202
:100CC000DF92EF92FF920F931F93CF93DF936C010C
:100CD0007C0187E0E80EF11CD0E0C0E0062F10E0B8
:100CE000B8010C2E02C0759567950A94E2F7617001
:100CF000F70181917F010E944C042196C430D105F7
:100D000079F7C601DF91CF911F910F91FF90EF907E
:100D1000DF90CF900C944906CF92DF92EF92FF9232
:100D20000F931F93CF93DF93EC01F62E642F8C81EA
:100D30000E944C048D818F3F19F060E00E944C04AA
:100D40000F2D10E08F8584FF25C06E0187E0C80E4F
:100D5000D11CF12CE12CB8010E2C02C075956795C1
:100D60000A94E2F76170F60181916F010E944C04D0
:100D7000FFEFEF1AFF0A88E0E816F10461F7CE01F1
:100D8000DF91CF911F910F91FF90EF90DF90CF9067
:100D90000C944906B80184E0759567958A95E1F74A
:100DA000CE010E945F066F2DCE01DF91CF911F9182
:100DB0000F91FF90EF90DF90CF900C945F0640E092
:100DC000682F82E194E00C948C0681E00E94DF069B
:100DD0008BE39FE10197F1F70895CF93DF93823082
:100DE00029F4909121049860909321048093250424
:100DF0001092260480E48093270480E180932804E5
:100E000080E58093290461E0809116040E947E04AD
:100E1000809117048F3F19F061E00E947E0461E029
:100E2000809118040E947E04C2E1D4E09E01225108
:100E300034408091210484FD0BC084E090E0219631
:100E40002817390744F461E08E810E947E04EECFBA
:100E500088E090E0F4CF8BE39DE00197F1F760E04C
:100E6000809116040E944C0460E0809118040E9456
:100E70004C04809117048F3F19F060E00E944C04ED
:100E80008091210484FD34C063E082E194E00E94FB
:100E90005F06CBE4D6E4CE010197F1F763E082E18F
:100EA00094E00E945F062197F1F763E082E194E00D
:100EB0000E945F0683E592E00197F1F762E082E12C
:100EC00094E00E945F068091210480620E94DF0608
:100ED00084E0809322048CE00E94DF060E94E506F5
:100EE00082E08093230486E0DF91CF910C94DF06AB
:100EF00080620E94DF068BE496E40197F1F780910F
:100F0000210480620E94DF0683E592E00197F1F7F9
:100F10008091210480620E94DF06D5CF9091250444
:100F2000691710F06FEF690FE62FF0E0EE5EFB4FF0
:100F30009489890F80680C94DF0641E00E948C063A
:100F400081E090E008950F931F93CF93DF93EC011E
:100F500088819981009759F02A813B8126173707AC
:100F600030F081E0DF91CF911F910F9108958B01B7
:100F70006F5F7F4F0E945715009759F099838883C0
:100F80001B830A832C813D81232B59F7FC0110829E
:100F9000E8CF80E0E7CFEF92FF920F931F93CF93BC
:100FA000DF936115710541F480E0DF91CF911F91CE
:100FB0000F91FF90EF90089541155105B1F07B011D
:100FC000EC010C811D81040F151FB8010E94A307BD
:100FD000882351F3288139818C819D81B701820F4B
:100FE000931F0E944A161D830C8381E0DECFCF93AE
:100FF000DF93EC0188819981009711F00E94CE1453
:10100000198218821D821C821B821A82DF91CF9165
:101010000895EF92FF920F931F93CF93DF93EC010C
:101020007B018A01BA010E94A30781110BC0CE0186
:101030000E94F707CE01DF91CF911F910F91FF9092
:10104000EF9008951D830C83B701888199810E94D8
:101050004A16F0CFFC01118210821382128215828F
:101060001482FB0101900020E9F73197AF01461B84
:10107000570B0C9409080E94E50660E080E00E948E
:101080008E078091B10226E0829FC00111248F500B
:101090009C4F0E94A90250E040E060E872E08BEEB5
:1010A00093E00C94090890E080E00E94F40160E075
:1010B00082E30E944C041092B0021092B1020E948E
:1010C0003B080C943B068F929F92AF92BF92CF92B7
:1010D000DF92EF92FF920E9415056B017C016091F7
:1010E000020270910302072E000C880B990B0E94DC
:1010F0002C124B015C018091E1039091E203A091DD
:10110000E303B091E403A7019601281B390B4A0BB6
:101110005B0BCA01B9010E942C1220E030E04AE7C3
:1011200054E40E94AC139B01AC01C501B4010E94C0
:101130003F136B017C0120E030E0A9010E942512E1
:1011400018162CF00E945308C12CD12C7601C7012F
:10115000B601FF90EF90DF90CF90BF90AF909F903F
:101160008F900895FC0180819181009711F00C947B
:10117000CE1408951F920F920FB60F9211240BB642
:101180000F922F933F934F935F936F937F938F9320
:101190009F93AF93BF93EF93FF9383EB92E00E94F3
:1011A000F902FF91EF91BF91AF919F918F917F9144
:1011B0006F915F914F913F912F910F900BBE0F90C8
:1011C0000FBE0F901F9018951F920F920FB60F929F
:1011D00011240BB60F922F938F939F93EF93FF934E
:1011E000E091C302F091C4028081E091C902F091C4
:1011F000CA0282FD1DC090818091CC028F5F8F73E7
:101200002091CD02821741F0E091CC02F0E0ED5444
:10121000FD4F958F8093CC02FF91EF919F918F911D
:101220002F910F900BBE0F900FBE0F901F9018952F
:101230008081F2CF1F920F920FB60F9211242F933D
:101240003F938F939F93AF93BF938091A702909109
:10125000A802A091A902B091AA023091A60223E0AF
:10126000230F2D3758F50196A11DB11D2093A6021D
:101270008093A7029093A802A093A902B093AA0218
:101280008091AB029091AC02A091AD02B091AE0200
:101290000196A11DB11D8093AB029093AC02A09367
:1012A000AD02B093AE02BF91AF919F918F913F91EC
:1012B0002F910F900FBE0F901F90189526E8230FC7
:1012C0000296A11DB11DD2CF1F920F920FB60F92A1
:1012D00011240BB60F922F933F934F935F936F930D
:1012E0007F938F939F93AF93BF93EF93FF9348E2C6
:1012F00051E064E271E090E080E00E948105FF919E
:10130000EF91BF91AF919F918F917F916F915F917D
:101310004F913F912F910F900BBE0F900FBE0F90EA
:101320001F9018951F920F920FB60F9211240BB6B3
:101330000F922F933F934F935F936F937F938F936E
:101340009F93AF93BF93EF93FF9348EA50E064EA13
:1013500070E083E090E00E948105FF91EF91BF91E2
:10136000AF919F918F917F916F915F914F913F913D
:101370002F910F900BBE0F900FBE0F901F901895DE
:101380001F920F920FB60F9211240BB60F922F934C
:101390003F934F935F936F937F938F939F93AF93FD
:1013A000BF93EF93FF9348E950E064E970E082E077
:1013B00090E00E948105FF91EF91BF91AF919F91C5
:1013C0008F917F916F915F914F913F912F910F90EE
:1013D0000BBE0F900FBE0F901F9018951F920F928B
:1013E0000FB60F9211240BB60F922F933F934F938A
:1013F0005F936F937F938F939F93AF93BF93EF937D
:10140000FF9348E850E064E870E081E090E00E94DB
:101410008105FF91EF91BF91AF919F918F917F9146
:101420006F915F914F913F912F910F900BBE0F9055
:101430000FBE0F901F901895CF931092B602109286
:10144000B50288EE93E0A0E0B0E08093B7029093FD
:10145000B802A093B902B093BA0286E292E09093E8
:10146000B4028093B30285EC90E09093C002809325
:10147000BF0284EC90E09093C2028093C10280ECA2
:1014800090E09093C4028093C30281EC90E090932B
:10149000C6028093C50282EC90E09093C8028093CC
:1014A000C70286EC90E09093CA028093C902109222
:1014B000CC021092CD021092CE021092CF02109266
:1014C0002C041092300410922F041092310484E402
:1014D00092E090932B0480932A04E6E4F4E01082D7
:1014E000148213821582369684E0E238F807B9F741
:1014F00088E092E090938D0480938C0484E092E0E5
:1015000090938F0480938E0484E080939004809362
:1015100091048CE092E090938B0480938A048AE09B
:1015200090E0909393048093920484EF91E09093E1
:10153000950480939404109298041092970410924A
:1015400086041092870410928804109289041092E5
:101550009604109215041092140488E392E090937C
:101560001304809312048DE080931604CFEFC09390
:1015700017048CE08093180488E08093190489E0B4
:1015800080931A048AE080931B048BE080931C04F0
:1015900010921D0410921E0410921F041092200439
:1015A0001092210481E00E94ED068091E0038033D7
:1015B00008F048C091E0980F9093E00380930F04E7
:1015C00090E0FC01EE0FFF1FE80FF91FE05BFC4FFE
:1015D00088EB9BE09283818366E572E081EF93E084
:1015E0000E942A086AE472E087EF93E00E942A08CA
:1015F00064E572E08DEF93E00E942A086DE572E0E9
:1016000083E094E00E942A0866E672E089E094E0B4
:101610000E942A0860E872E08BEE93E00E942A089C
:1016200061E772E085EE93E00E942A080E941505AA
:101630006093E1037093E2038093E3039093E403E8
:10164000CF910895C0930F04C7CFCF93DF93CDB749
:10165000DEB7A7970FB6F894DEBF0FBECDBF789464
:1016600084B5826084BD84B5816084BD85B58260A7
:1016700085BD85B5816085BD80916E008160809358
:101680006E001092810080918100826080938100C1
:1016900080918100816080938100809180008160D1
:1016A000809380008091B10084608093B10080912C
:1016B000B00081608093B00080919100826080933F
:1016C00091008091910081608093910080919000C1
:1016D0008160809390008091A10082608093A1003E
:1016E0008091A10081608093A1008091A000816021
:1016F0008093A000809121018260809321018091DC
:10170000210181608093210180912001816080937B
:10171000200180917A00846080937A0080917A0021
:10172000826080937A0080917A00816080937A0051
:1017300080917A00806880937A001092C100E091D5
:10174000C302F091C40282E08083E091BF02F09175
:10175000C0021082E091C102F091C2028FEC80833E
:101760001092CB02E091C702F091C80286E080831C
:10177000E091C502F091C602808180618083E09192
:10178000C502F091C602808188608083E091C50225
:10179000F091C602808180688083E091C502F0915B
:1017A000C60280818F7D808380910F04803308F092
:1017B00052C061E087E00E947E0480910F04282FD0
:1017C00030E0F901EE0FFF1FE20FF31FE05BFC4F6B
:1017D0009081907C97609083109210041092110475
:1017E0002CE0622F0E941E14829FB001112430E071
:1017F00020E0AB01420F531FFA01EE0FFF1FE40F71
:10180000F51FE05BFC4F908196FD17C02F5F3F4FA7
:101810002C30310571F7813009F0DBC01092800067
:1018200082E0809381001092850010928400B19A2A
:1018300080916F00826080936F00E0910F048E2F83
:1018400090E0FC01EE0FFF1FE80FF91FE05BFC4F7B
:1018500080818064808390E080E00E94F40182E0D7
:101860000E94ED060E94E50660E080E00E948E077F
:101870008091B10226E0829FC00111248F509C4FBD
:101880000E94A90261E082E30E947E0461E085E398
:101890000E947E04412C512C3201439422242A942C
:1018A000322C8091B00281110E9463080E941505BC
:1018B0006B017C018091B2028111B7C08091B002AE
:1018C000882309F4F3C00E9463086B017C0161E086
:1018D00080E00E948E071BA21AA21DA21CA21FA2BA
:1018E0001EA28E010F5F1F4F22E044E0C701B60128
:1018F0000E947A0F009709F4DDC0FC0101900020DE
:10190000E9F73197AF01481B590BBC01CE01829614
:101910000E94090866E772E0CE0101960E942A083B
:101920004EA15FA16AA17BA1CE0101960E94CB07C7
:10193000811104C0CE0101960E94F70742E050E0F9
:101940006EE772E0CE0101960E94CB07811104C0C0
:10195000CE0101960E94F707CE0101960E94A902CE
:10196000CE0101960E94B208CE0182960E94B20872
:1019700081E0809396040E941505009186041091E1
:1019800087042091880430918904AB01BC01401B7D
:10199000510B620B730B8091920490919304B0E011
:1019A000A0E084179507A607B70708F08AC110E0E2
:1019B00080919004181708F082C0E0918C04F09197
:1019C0008D04E10FF11D62E080810E947E041F5FA3
:1019D000EFCF823061F410929000809391001092CA
:1019E00095001092940088BB8093710026CF8330BD
:1019F00069F41092A00082E08093A1001092A500EB
:101A00001092A40089BB8093720017CF811115CF6B
:101A10001092200182E08093210110922501109202
:101A200024018ABB8093730008CF009100021091BB
:101A30000102B801012E000C880B990B0E942C1298
:101A40004B015C018091E1039091E203A091E303DB
:101A5000B091E403A7019601281B390B4A0B5B0BDD
:101A6000CA01B9010E942C1220E030E04AE754E498
:101A70000E94AC139B01AC01C501B4010E943F134D
:101A80006B017C0120E030E0A9010E9425121816AC
:101A90000CF41DCF000F111F1093010200930002E0
:101AA0001092B2021092B1020E943B08C12CD12CBC
:101AB00076010DCFCE0182960E94F7072BCF912C95
:101AC00080919104981608F061C0E92CF12CE09106
:101AD0008E04F0918F04EE0DFF1D61E080810E9465
:101AE0007E04E0918E04F0918F04EE0DFF1D60E006
:101AF00080810E944C04D301C201092C04C0880FCC
:101B0000991FAA1FBB1F0A94D2F75C016C01C094F5
:101B1000D094812C80919004881608F5082D10E04F
:101B2000E0918C04F0918D04E00FF11F80810E9400
:101B300020040C5F1F4F000F111FF801E65DFB4FE3
:101B4000892B41F4808191818A299B29918380830B
:101B50008394E0CF808191818C219D21F7CFE0910A
:101B60008E04F0918F04EE0DFF1D61E080810E94D4
:101B70004C0480918E0490918F04E80EF91E60E071
:101B8000F70180810E947E0493949ACF9AE2E92E15
:101B900094E0F92E6701F601878D90A1892B21F43D
:101BA000148E368E258E11A2F6E0CF0ED11C26E6BD
:101BB00034E02C153D0579F7B12C80919004B816CE
:101BC00008F051C0A12C0B2D10E0000F111F0E5C6E
:101BD0001B4F20919104A21608F043C0F8016081C8
:101BE00071810A2C02C0769567950A94E2F7B29E3D
:101BF000900111242A0D311DEAE2F4E080E0458DC8
:101C0000568D2417350709F408C18F5F36968A3040
:101C1000B1F760FF24C0EAE2F4E090E080E0448D98
:101C2000411118C0E0918A04F0918B04E20FF31F78
:101C3000408156E0589FF001599FF00D1124E65D58
:101C4000FB4F448F368F258F10A2178E61E00E94C4
:101C5000210505C0019636968A30910501F7A394B7
:101C6000B8CFB394AACF10E0F70181A18111182F4A
:101C7000F6E0EF0EF11CCE14DF04B1F70E9415055B
:101C800060938604709387048093880490938904FA
:101C90001123B9F010914B04112399F0809149045C
:101CA00090914A04019769F40091460401110CC017
:101CB00062E370E080E090E00E94E3040E94880309
:101CC000F0CD10929604F4CF8091B2028111F0CF42
:101CD000F090B10226E0F29EF0011124EF50FC4F8B
:101CE00094818091EF0360E0890F0E948E070D338D
:101CF000D9F00D3209F493C00A3209F4A1C00F36AD
:101D000009F496C041E0602F82E194E00E948C06C5
:101D100009831A8241E050E0BE016F5F7F4F8BEE76
:101D200093E00E94CB07C4CF8091B002811146C0DE
:101D300060E00E948E074091EF035091F0032091E4
:101D4000E9033091EA0342175307C1F48091EB0392
:101D50009091EC036091E5037091E603009709F41C
:101D600076C06115710539F4452B09F47EC0FC017C
:101D7000808190E077C00E94411674C08091AF02CC
:101D8000833061F41092AF0284E08093B1020E942C
:101D90003B061093B2020E943B088ACF1092B10218
:101DA0004EE050E062E972E082E194E00E947C0241
:101DB0008091AF028F5F8093AF0278C0F2E0FF1294
:101DC00018C06091EB037091EC036115710561F02F
:101DD0004091EF035091F00385EE93E00E940908D3
:101DE00081E08093B102D7CF85EE93E00E94F707A0
:101DF000F7CF23E0F212CFCF8091EB039091EC0369
:101E0000009739F00E94980F7093030260930202CA
:101E1000E7CF60E070E0CB01F7CF617018CF809121
:101E2000B002882309F474CF33E03093B102B3CF0A
:101E30008091B002882309F46BCF0E94530838CFF9
:101E40008091B002882309F463CF82E0CACF611584
:101E5000710559F0232B49F0FB01808190E09195A9
:101E600081959109892B09F089CF40E150E061E823
:101E700072E082E194E00E947C0211E01093B102D2
:101E80000E9415056093E1037093E2038093E303DE
:101E90009093E4031093B00261E082E30E944C044B
:101EA0000E943B0684EB90E00E94F40164E670E03F
:101EB00080E090E00E94E30410E06BCF85EE93E0B9
:101EC0000E94B2088BEE93E00E94B20889E094E091
:101ED0000E94B20883E094E00E94B2088DEF93E084
:101EE0000E94B20887EF93E00E94B20881EF93E06E
:101EF0000C94B208EF920F931F93CF93DF93E801F6
:101F000034E047FD34E1042E000C550B57FF03C0AD
:101F1000519541955109E32E022F242FAE010E94C5
:101F2000D40FCE01DF91CF911F910F91EF900895C3
:101F30001F93FC0199278827BC01E8941191103266
:101F4000E9F3193010F01E30C8F31B3251F01D3286
:101F500049F4689406C00E94BF0F610F711D811D76
:101F6000911D119110531A30B0F33EF49095809565
:101F7000709561957F4F8F4F9F4F1F910895592FF7
:101F8000482F372F262F660F771F881F991F660F40
:101F9000771F881F991F620F731F841F951F660F7D
:101FA000771F881F991F08958F929F92AF92BF92BB
:101FB000CF92DF92EF92FF920F931F93CF93DF9315
:101FC00000D000D000D0CDB7DEB76A01F22EB02E1F
:101FD000102FFBE3AF2EA01608F41BE31F5F012FA9
:101FE00027E0AE014F5F5F4F0E944D11BC01898118
:101FF000982F9970913009F44EC09BE2E1FC04C027
:102000009E2D9170E0FC49C05E2D5071E82FE87064
:1020100083FF55C084E0911101C083E0EF2DE81BE0
:102020008F1508F0E0E0D6018E2F20E25523C9F18C
:10203000992329F0D6019C93C60101966C01960163
:102040002D5F3F4FE2FE33C08EE4D6018C9391E4C6
:1020500011969C93119712968C93D9018E2F90E232
:1020600081112AC0E20FF32FF11D10828EEF9FEF36
:1020700029960FB6F894DEBF0FBECDBFDF91CF918A
:102080001F910F91FF90EF90DF90CF90BF90AF9096
:102090009F908F9008959DE2B7CF90E2B5CF2D939A
:1020A00081508111FCCFCE0ED11CE0E0C1CF8EE675
:1020B000D6018C9391E6CCCF9D938150D1CF482F00
:1020C000447082FF3DC084E0911101C083E08F1510
:1020D00010F4EF2DE81BD6018E2F20E2552309F1D5
:1020E000992329F0D6019C93C60101966C019601B3
:1020F0002D5F3F4FE2FE1BC089E4D6018C938EE436
:1021000011968C93119786E412968C93D9018E2F99
:1021100090E2882309F4A6CF9D938150FACF2D93A6
:1021200081508111FCCFCE0ED11CE0E0D9CF89E6E1
:10213000D6018C938EE611968C93119786E6E4CFA8
:102140009B0177FF02C030E020E0A1E0B0E09111F8
:1021500002C0B0E0A0E0F9013196AE0FBF1F8B2C9A
:10216000912CBB2009F461C05401EFEFAE1ABE0AF6
:10217000AA0DBB1DFA161B0619F014F04F2D4A1BB1
:10218000511188C0E3FC59C07601A42FB0E2A1111F
:102190004FC0C40ED11C992309F45BC040E0D601A6
:1021A0001196F60190836D01552309F448C0012F63
:1021B000060F9A81582F507184FF03C0913309F4A0
:1021C000015010160CF047C0093008F008E0EEE2AC
:1021D000FE2E5B01A01AB1088501919481949108AB
:1021E0002F3F320729F4D601FC92F60131966F0198
:1021F0006217730794F1021713077CF5DB01A21B2A
:10220000B30BAA24A394B12CAC0EBD1EAA0DBB1D0A
:1022100011968C9121503109D60111962815390556
:10222000F4F0F60180836D01DBCFB12CA12CA0CF9F
:10223000F701B1937F01A150AACF9111B0CFD60180
:10224000942F50E302C05D9391509111FCCFC40EC6
:10225000D11C40E0ACCF01E0BACF80E3DBCF621706
:10226000730731F4963388F4953311F4552369F0EC
:10227000F6018083FD01842F90E2811108C0A40F34
:10228000B11D1C9290E080E0F3CE81E3F1CF9193F9
:102290008150F3CF911183CF8ACF283008F027E007
:1022A0003327DA01990F311D87FD91600096610592
:1022B000710539F432602E5F3D9330E32A95E1F7E2
:1022C00008959F3F30F080387105610509F03C5F4B
:1022D0003C5F3D93913008F08068911DDF93CF9370
:1022E0001F930F93FF92EF92192F987F9695E92FE6
:1022F00096959695E90FFF27E254FE4F99273327CD
:10230000EE24FF24A701E70105900894079428F420
:10231000360FE71EF81E491F511D660F771F881FD5
:10232000991F0694A1F70590079428F4E70EF81E6C
:10233000491F561FC11D770F881F991F661F0694DE
:10234000A1F70590079428F4F80E491F561FC71FE0
:10235000D11D880F991F661F771F0694A1F705905E
:10236000079420F4490F561FC71FD81F990F661FE7
:10237000771F881F0694A9F784911095177041F074
:10238000D695C79557954795F794E7941A95C1F751
:10239000E4E6F1E068941590159135916591959179
:1023A00005907FE27395E118F10A430B560BC90BB8
:1023B000D009C0F7E10CF11E431F561FC91FD01DE5
:1023C0007EF4703311F48A95E6CFE894015030F032
:1023D000080F0AF40027021708F4202F2395022F74
:1023E0007A3328F079E37D932A95E9F710C07D933D
:1023F0002A9589F6069497956795379517951794BA
:10240000E118F10A430B560BC90BD00998F023953C
:102410007E9173957A3308F070E37C932013B8F7BC
:102420007E9170617D9330F0839571E37D9370E3CD
:102430002A95E1F71124EF90FF900F911F91CF9112
:10244000DF91992787FD909508950E94671208F4FF
:1024500081E00895E89409C097FB3EF4909580953B
:10246000709561957F4F8F4F9F4F9923A9F0F92F5A
:1024700096E9BB279395F695879577956795B795D8
:10248000F111F8CFFAF4BB0F11F460FF1BC06F5FBE
:102490007F4F8F4F9F4F16C0882311F096E911C0D0
:1024A000772321F09EE8872F762F05C0662371F0F1
:1024B00096E8862F70E060E02AF09A95660F771F05
:1024C000881FDAF7880F9695879597F90895990FE1
:1024D0000008550FAA0BE0E8FEEF16161706E807EE
:1024E000F907C0F012161306E407F50798F0621B0F
:1024F000730B840B950B39F40A2661F0232B242BE4
:10250000252B21F408950A2609F4A140A6958FEF02
:10251000811D811D089597F99F6780E870E060E054
:1025200008959FEF80EC089500240A94161617066C
:1025300018060906089500240A94121613061406B4
:1025400005060895092E0394000C11F4882352F017
:10255000BB0F40F4BF2B11F460FF04C06F5F7F4FCF
:102560008F4F9F4F089557FD9058440F551F59F0B6
:102570005F3F71F04795880F97FB991F61F09F3F70
:1025800079F087950895121613061406551FF2CF99
:102590004695F1DF08C0161617061806991FF1CFE9
:1025A00086957105610508940895E894BB27662710
:1025B0007727CB0197F90895052E97FB1EF4009419
:1025C0000E94F31257FD07D00E940E1307FC03D0A0
:1025D0004EF40C94F31250954095309521953F4F51
:1025E0004F4F5F4F089590958095709561957F4FFF
:1025F0008F4F9F4F08950E943013A59F900DB49F59
:10260000900DA49F800D911D11240895B7FF0C9487
:10261000FB120E94FB12821B930B0895A1E21A2E5B
:10262000AA1BBB1BFD010DC0AA1FBB1FEE1FFF1F76
:10263000A217B307E407F50720F0A21BB30BE40BC6
:10264000F50B661F771F881F991F1A9469F760950D
:102650007095809590959B01AC01BD01CF010895C7
:10266000A29FB001B39FC001A39F700D811D1124D3
:10267000911DB29F700D811D1124911D0895505818
:10268000BB27AA270E9457130C94A2120E949412EF
:1026900038F00E949B1220F039F49F3F19F426F481
:1026A0000C9491120EF4E095E7FB0C948B12E92F39
:1026B0000E94B31258F3BA1762077307840795078D
:1026C00020F079F4A6F50C94D5120EF4E0950B2EBB
:1026D000BA2FA02D0B01B90190010C01CA01A00174
:1026E0001124FF27591B99F0593F50F4503E68F1CF
:1026F0001A16F040A22F232F342F4427585FF3CF10
:10270000469537952795A795F0405395C9F77EF4E0
:102710001F16BA0B620B730B840BBAF09150A1F029
:10272000FF0FBB1F661F771F881FC2F70EC0BA0FAF
:10273000621F731F841F48F4879577956795B79537
:10274000F7959E3F08F0B0CF9395880F08F0992732
:10275000EE0F9795879508950E94C0130C94A212CE
:102760000E949B1258F00E94941240F029F45F3F9F
:1027700029F00C948B1251110C94D6120C949112D6
:102780000E94B31268F39923B1F3552391F3951B7B
:10279000550BBB27AA2762177307840738F09F5F82
:1027A0005F4F220F331F441FAA1FA9F335D00E2EEF
:1027B0003AF0E0E832D091505040E695001CCAF75C
:1027C0002BD0FE2F29D0660F771F881FBB1F26171F
:1027D00037074807AB07B0E809F0BB0B802DBF01F6
:1027E000FF2793585F4F3AF09E3F510578F00C94C5
:1027F0008B120C94D6125F3FE4F3983ED4F3869587
:1028000077956795B795F7959F5FC9F7880F911DE5
:102810009695879597F90895E1E0660F771F881FD1
:10282000BB1F621773078407BA0720F0621B730B84
:10283000840BBA0BEE1F88F7E0950895991B79E099
:1028400004C0991F961708F0961B881F7A95C9F740
:1028500080950895EE0FFF1F881F8BBF0790F6919C
:10286000E02D19940F931F93CF93DF93823091053E
:1028700010F482E090E0E0919B04F0919C0430E041
:1028800020E0B0E0A0E0309799F42115310509F47B
:102890004AC0281B390B24303105D8F58A819B8129
:1028A0006115710589F1FB0193838283FE0111C0DB
:1028B000408151810281138148175907E0F0481780
:1028C000590799F4109761F012960C93129713968A
:1028D0001C933296CF01DF91CF911F910F910895F4
:1028E00000939B0410939C04F4CF2115310551F003
:1028F0004217530738F0A901DB019A01BD01DF013E
:10290000F801C1CFEF01F9CF90939C0480939B0411
:10291000CDCFFE01E20FF31F819391932250310935
:1029200039832883D7CF2091990430919A04232B9F
:1029300041F420911E0230911F0230939A0420939B
:10294000990420911C0230911D022115310541F49A
:102950002DB73EB74091200250912102241B350B28
:10296000E0919904F0919A04E217F307A0F42E1B6A
:102970003F0B2817390778F0AC014E5F5F4F2417E3
:10298000350748F04E0F5F1F50939A044093990407
:10299000819391939FCFF0E0E0E09CCFCF93DF93C2
:1029A0000097E9F0FC01329713821282A0919B04F8
:1029B000B0919C04ED0130E020E01097A1F420815B
:1029C0003181820F931F2091990430919A04281726
:1029D000390709F061C0F0939A04E0939904DF91FC
:1029E000CF910895EA01CE17DF07E8F54A815B81B0
:1029F0009E0141155105B1F7E901FB83EA83499135
:102A00005991C40FD51FEC17FD0761F480819181A6
:102A10000296840F951FE9019983888382819381AF
:102A20009B838A83F0E0E0E012968D919C9113974E
:102A30000097B9F52D913C911197CD010296820F27
:102A4000931F2091990430919A042817390739F679
:102A5000309751F510929C0410929B04B0939A0405
:102A6000A0939904BCCFD383C28340815181840F4A
:102A7000951FC817D90761F44E5F5F4F8881998110
:102A8000480F591F518340838A819B81938382839E
:102A90002115310509F0B0CFF0939C04E0939B041D
:102AA0009ECFFD01DC01C0CF13821282D7CF4F929F
:102AB0005F926F927F928F929F92AF92BF92CF92CE
:102AC000DF92EF92FF920F931F93CF93DF938C01CE
:102AD000009799F4CB01DF91CF911F910F91FF9057
:102AE000EF90DF90CF90BF90AF909F908F907F90AE
:102AF0006F905F904F900C943214FC01E60FF71F1B
:102B00009C0122503109E217F30708F4AEC0D90145
:102B1000CD91DC911197C617D70720F1C530D105AB
:102B200078F0CE0104978617970750F0C61BD70B95
:102B30002297C193D1936D937C93CF010E94CE14C1
:102B4000C801DF91CF911F910F91FF90EF90DF901F
:102B5000CF90BF90AF909F908F907F906F905F903D
:102B60004F9008955B01AC1ABD0A4C018C0E9D1E5E
:102B7000A0919B04B0919C04512C412CF12CE12C90
:102B8000109731F58091990490919A0488159905D0
:102B900009F05CC04616570608F058C080911C0228
:102BA00090911D02009741F48DB79EB7409120028D
:102BB00050912102841B950BE817F90708F055C0C6
:102BC000F0939A04E0939904F90171836083B8CF7C
:102BD0008D919C91119712966C90129713967C9000
:102BE0001397A815B90559F56C0142E0C40ED11C24
:102BF000CA14DB0420F1AC014A195B09DA01129610
:102C0000159780F06282738251834083D9016D935E
:102C10007C93E114F10471F0D7011396FC93EE93C9
:102C200012978ECF22968C0F9D1FF901918380837E
:102C3000F301EFCFF0939C04E0939B0481CF4816FF
:102C4000590608F42C017D01D3019ACFCB010E94D3
:102C500032147C01009749F0AE01B8010E94381689
:102C6000C8010E94CE1487016BCF10E000E068CF4E
:102C7000FB01DC0102C001900D9241505040D8F799
:102C80000895FB01DC018D91019080190110D9F3A9
:102C9000990B0895FB01DC0101900D920020E1F7F2
:102CA000089511E0C0ECD1E000E006C0802FFE01E5
:102CB0000E942A142196011DC13CD10780E008071B
:102CC000A9F7F894FFCF05000A0017191B1D1F2153
:102CD00023253738392F3435362A3132332D6F30AA
:102CE0003D2B00009D048000000000001B037C02BF
:102CF000B2026803E302C102D502000000009D0792
:102D00007C027E057D0500000000BA047A044904B7
:102D1000446F6F72204F70656E004368506173732B
:102D20003A2000436854696D653A2000616E746909
:102D300020746865667400313233340054696D65FF
:102D4000723A2000202000436F7272656374207015
:102D5000617373776F72640057726F6E6720706172
:082D60007373776F72640000C9
:020000040003F7
:10E000000D9489F10D94B2F10D94B2F10D94B2F129
:10E010000D94B2F10D94B2F10D94B2F10D94B2F1F0
:10E020000D94B2F10D94B2F10D94B2F10D94B2F1E0
:10E030000D94B2F10D94B2F10D94B2F10D94B2F1D0
:10E040000D94B2F10D94B2F10D94B2F10D94B2F1C0
:10E050000D94B2F10D94B2F10D94B2F10D94B2F1B0
:10E060000D94B2F10D94B2F10D94B2F10D94B2F1A0
:10E070000D94B2F10D94B2F10D94B2F10D94B2F190
:10E080000D94B2F10D94B2F10D94B2F10D94B2F180
:10E090000D94B2F10D94B2F10D94B2F10D94B2F170
:10E0A0000D94B2F10D94B2F10D94B2F10D94B2F160
:10E0B0000D94B2F10D94B2F10D94B2F10D94B2F150
:10E0C0000D94B2F10D94B2F10D94B2F10D94B2F140
:10E0D0000D94B2F10D94B2F10D94B2F10D94B2F130
:10E0E0000D94B2F141546D656761323536300041AF
:10E0F000726475696E6F206578706C6F72657220DE
:10E1000073746B3530305632206279204D4C530099
:10E11000426F6F746C6F616465723E004875683F52
:10E1200000436F6D70696C6564206F6E203D200048
:10E130004350552054797065202020203D20005FF9
:10E140005F4156525F415243485F5F3D2000415658
:10E1500052204C696243205665723D20004743437C
:10E160002056657273696F6E203D20004350552024
:10E1700049442020202020203D20004C6F7720663D
:10E18000757365202020203D20004869676820665F
:10E190007573652020203D200045787420667573D6
:10E1A00065202020203D20004C6F636B2066757336
:10E1B000652020203D20004D617220203720323024
:10E1C000313300312E362E3800342E332E350056A2
:10E1D00023202020414444522020206F7020636F70
:10E1E00064652020202020696E73747275637469E1
:10E1F0006F6E2061646472202020496E74657272B3
:10E20000757074006E6F20766563746F7200726A49
:10E210006D702020006A6D70200057686174207056
:10E220006F72743A00506F7274206E6F7420737541
:10E2300070706F72746564004D7573742062652030
:10E2400061206C6574746572002000577269747483
:10E25000696E672045450052656164696E672045B7
:10E26000450045452065727220636E743D00504F35
:10E27000525400303D5A65726F2061646472003FF1
:10E280003D43505520737461747300403D454550C3
:10E29000524F4D207465737400423D426C696E6B41
:10E2A000204C454400453D44756D70204545505215
:10E2B0004F4D00463D44756D7020464C415348001B
:10E2C000483D48656C70004C3D4C69737420492F83
:10E2D0004F20506F72747300513D51756974005234
:10E2E0003D44756D702052414D00563D73686F7707
:10E2F00020696E7465727275707420566563746FF0
:10E30000727300593D506F727420626C696E6B00BD
:10E310002A0011241FBECFEFD1E2DEBFCDBF01E046
:10E320000CBF12E0A0E0B2E0EEE1FDEF03E00BBFB6
:10E3300002C007900D92A030B107D9F712E0A0E01B
:10E34000B2E001C01D92AE30B107E1F70F9460F367
:10E350000D948DFE01E20EBF0FEF0DBF11241FBE05
:10E360000D9460F30D9400F020E030E040ED57E0B4
:10E3700005C0FA013197F1F72F5F3F4F2817390792
:10E38000C0F308959C01260F311DC901A0E0B0E043
:10E390002F5F3F4FABBFFC018791882361F08093D3
:10E3A000C6008091C00086FFFCCF8091C0008064D1
:10E3B0008093C000EACF08958DE08093C6008091DD
:10E3C000C00086FFFCCF8091C00080648093C000B5
:10E3D0008AE08093C6008091C00086FFFCCF8091C8
:10E3E000C00080648093C00008950F94C2F10F9420
:10E3F000DCF10895FC019081992359F09093C600B7
:10E400008091C00086FFFCCF8091C0008064809323
:10E41000C0003196992379F70895282F982F929567
:10E420009F70892F805D8A3308F0895F8093C600D2
:10E430008091C00086FFFCCF8091C00080648093F3
:10E44000C000822F8F70982F905D9A3308F0995FEB
:10E450009093C6008091C00086FFFCCF8091C000E1
:10E4600080648093C00008959C01FB01853691056E
:10E470001CF46330710594F0C90164E670E00F94F8
:10E480002EFE605D7F4F6093C6008091C00086FFC6
:10E49000FCCF8091C00080648093C0002B30310598
:10E4A00014F43297B4F0C90164E670E00F942EFEC4
:10E4B0006AE070E00F942EFE605D7F4F6093C600AF
:10E4C0008091C00086FFFCCF8091C0008064809363
:10E4D000C000C9016AE070E00F942EFEC0968093E0
:10E4E000C6008091C00086FFFCCF8091C000806490
:10E4F0008093C00008951F93182F8EE692EE60E07F
:10E500000F94C2F11093C6008091C00086FFFCCF2B
:10E510008091C00080648093C0000F94DCF11F9153
:10E5200008952F923F924F925F926F927F928F92B7
:10E530009F92AF92BF92CF92DF92EF92FF920F9392
:10E540001F93DF93CF93CDB7DEB762970FB6F894E2
:10E55000DEBF0FBECDBF382E622ECA01DB015C01CB
:10E560006D01772420E2222E2E010894411C511CBB
:10E570008BC081E0A81680E0B80681E0C80680E084
:10E58000D80628F0C601AA27BB270F940DF2BB2797
:10E59000AD2D9C2D8B2D0F940DF28A2D0F940DF225
:10E5A0002092C6008091C00086FFFCCF8091C00001
:10E5B00080648093C0009DE29093C6008091C0006B
:10E5C00086FFFCCF8091C00080648093C0002092C1
:10E5D000C6008091C00086FFFCCF8091C00080649F
:10E5E0008093C00019828601750188249924A1E0D6
:10E5F0003A1651F03A1620F0B2E03B1661F409C029
:10E600000BBFF701779007C0C7010F9477FE782EF4
:10E6100002C0F7017080872D0F940DF22092C60082
:10E620008091C00086FFFCCF8091C0008064809301
:10E63000C000872D8052F401EF70F0708F3520F408
:10E64000E40DF51D708204C0E40DF51D8EE280839B
:10E650000894E11CF11C011D111D0894811C911CE2
:10E6600090E18916910409F0C2CF80E190E0A0E02A
:10E67000B0E0A80EB91ECA1EDB1E198AC2010F9493
:10E68000FAF10F94DCF16A94662009F072CF629679
:10E690000FB6F894DEBF0FBECDBFCF91DF911F91B3
:10E6A0000F91FF90EF90DF90CF90BF90AF909F9031
:10E6B0008F907F906F905F904F903F902F90089534
:10E6C0002F923F924F925F926F927F928F929F9282
:10E6D000AF92BF92CF92DF92EF92FF920F931F9370
:10E6E000DF93CF93CDB7DEB7CD53D1400FB6F894BB
:10E6F000DEBF0FBECDBF01E20EBF0FEF0DBF94B75F
:10E70000F894A89514BE80916000886180936000A1
:10E7100010926000789493FF05C0E0910002F091A0
:10E7200001021995279A2F9A8091C00082608093E8
:10E73000C00080E18093C40088E18093C1000000A4
:10E74000EE24FF24870144E0A42EB12CCC24DD2448
:10E7500024C0C5010197F1F70894E11CF11C011DCB
:10E76000111D21E2E2162EE4F20620E0020720E06D
:10E77000120718F031E0C32ED12CC801B70127ECE5
:10E780003BE140E050E00F9441FE611571058105C9
:10E79000910519F485B1805885B98091C00087FD35
:10E7A00003C0C114D104A9F2A6014F5F5F4FC25E3E
:10E7B000DE4F59834883CE51D140C25EDE4F8881FF
:10E7C0009981CE51D140019711F00D9410FEC05D9A
:10E7D000DE4F19821882C053D14060E0C15DDE4F28
:10E7E0001882CF52D14088249924C35DDE4F19820C
:10E7F0001882CD52D140C05EDE4F188219821A8233
:10E800001B82C052D140CE5CDE4F188219821A8220
:10E810001B82C253D140EE24FF2487010BBFF701B6
:10E8200007911691C45CDE4F19830883CC53D14005
:10E830000D940BFEC25EDE4F28813981CE51D1404E
:10E840002130310509F52091C600C25EDE4F1982E4
:10E850001882CE51D14022C02F5F3F4F4F4F5F4FA4
:10E86000213082E138078AE7480780E0580780F0C6
:10E87000C45CDE4FE881F981CC53D140EF5FFF4F9C
:10E8800019F0EE27FF27099420E030E040E050E047
:10E890008091C00087FFE0CF2091C600C35DDE4FAE
:10E8A00048815981CD52D1404F5F5F4FC35DDE4FEC
:10E8B00059834883CD52D140213209F063C64A3092
:10E8C000510508F05FC60894811C911C53E0851621
:10E8D000910409F059C600E010E018C081E280936D
:10E8E000C6008091C00086FFFCCF8091C00080648C
:10E8F0008093C0002F5F3F4F2931310579F70F9486
:10E90000DCF10F5F1F4F0530110519F020E030E0FA
:10E91000E5CF10920A0210920B0210920C02109294
:10E920000D02109206021092070210920802109235
:10E930000902109202021092030210920402109235
:10E9400005028FEE90EE60E00F94F5F180E191EE1C
:10E9500060E00F94C2F18091C00087FFFCCF9091DE
:10E96000C600903608F09F759032B8F09093C600BC
:10E970008091C00086FFFCCF8091C00080648093AE
:10E98000C000A0E2A093C6008091C00086FFFCCF2B
:10E990008091C00080648093C000983409F4D7C18E
:10E9A0009934B8F4923409F459C1933458F490333B
:10E9B00019F1903308F4E3C59F33A1F1903409F0C5
:10E9C000DEC5BDC0953409F470C1963409F0D7C5D1
:10E9D00098C1923509F42BC2933538F49C3409F46C
:10E9E000F5C1913509F0CBC518C2963509F445C279
:10E9F000993509F0C4C567C483E792EE62E00F94CD
:10EA0000F5F110920602109207021092080210927D
:10EA1000090210920A0210920B0210920C0210923C
:10EA20000D0213C18FE792EE62E00F94F5F18FEEC5
:10EA300090EE60E00F94F5F181E291EE60E00F94CA
:10EA4000C2F187EB91EE60E00F94F5F180E391EE77
:10EA500060E00F94C2F184EE90EE60E00F94F5F167
:10EA60008FE391EE60E00F94C2F186E090E061E008
:10EA700070E00F9434F20F94DCF18DE591EE60E0DC
:10EA80000F94C2F189EC91EE60E00F94F5F18EE401
:10EA900091EE60E00F94C2F183EC91EE60E00F9490
:10EAA000F5F18CE691EE60E00F94C2F18EE10F94E7
:10EAB0000DF288E90F940DF281E00F940DF20F949E
:10EAC000DCF18BE791EE60E00F94C2F119E0E0E039
:10EAD000F0E010935700E4918E2F0F940DF20F94F5
:10EAE000DCF18AE891EE60E00F94C2F1E3E0F0E03F
:10EAF00010935700E4918E2F0F940DF20F94DCF1D8
:10EB000089E991EE60E00F94C2F1E2E0F0E0109349
:10EB10005700E4918E2F0F940DF20F94DCF188EAE8
:10EB200091EE60E00F94C2F1E1E0F0E01093570045
:10EB30001491812F0F940DF20F94DCF107CF8BE825
:10EB400092EE62E00F94F5F18BE492EE60E00F94A8
:10EB5000F5F10F94DCF100E010E019C0C8016F2D51
:10EB60000F947FFEFF2031F489E492EE60E00F9471
:10EB7000C2F10BC0F092C6008091C00086FFFCCFAE
:10EB80008091C00080648093C0000F5F1F4FC80158
:10EB900081519F41A0E0B0E0ABBFFC01F790BAE229
:10EBA000FB1621F0E2E000301E07C1F60F94DCF105
:10EBB0000F94DCF187E592EE60E00F94F5F10F948D
:10EBC000DCF1CC24DD2400E010E01EC0C8010F946D
:10EBD00077FEF82E882331F489E492EE60E00F94FA
:10EBE000C2F10BC08093C6008091C00086FFFCCFAD
:10EBF0008091C00080648093C000FE1419F00894D6
:10EC0000C11CD11C0F5F1F4FC80181519F41A0E063
:10EC1000B0E0ABBFFC01E790FAE2EF1621F022E092
:10EC20000030120799F60F94DCF10F94DCF182E6C4
:10EC300092EE60E00F94C2F1C60161E070E00F94C3
:10EC400034F20F94DCF10F94DCF110920202109276
:10EC50000302109204021092050278CE89E992EE26
:10EC600062E00F94F5F1279A2F9A16C02F9880E052
:10EC700090E0E0EDF7E03197F1F7019684369105E9
:10EC8000C1F72F9A80E090E0E0EDF7E03197F1F7DF
:10EC9000019684369105C1F78091C00087FFE6CFC9
:10ECA0008091C00087FFFCCF64C485EA92EE62E0E9
:10ECB0000F94F5F140910202509103026091040219
:10ECC0007091050281E020E10F9491F2809102029F
:10ECD00090910302A0910402B091050280509F4FD1
:10ECE000AF4FBF4F8093020290930302A0930402A0
:10ECF000B093050280509041A040B04008F426CE69
:10ED0000A4CF83EB92EE62E00F94F5F140910602FE
:10ED100050910702609108027091090280E020E1A1
:10ED20000F9491F28091060290910702A09108023F
:10ED3000B091090280509F4FAF4FBF4F80930602A2
:10ED400090930702A0930802B0930902FFCD80ECD4
:10ED500092EE62E00F94F5F183E792EE60E00F949B
:10ED6000F5F18FE792EE60E00F94F5F18BE892EE0B
:10ED700060E00F94F5F189E992EE60E00F94F5F10F
:10ED800085EA92EE60E00F94F5F183EB92EE60E09D
:10ED90000F94F5F180EC92EE60E00F94F5F187ECC2
:10EDA00092EE60E00F94F5F188ED92EE60E00F9442
:10EDB000F5F18FED92EE60E00F94F5F18AEE92EEB0
:10EDC00060E00F94F5F183E093EEBDCD87EC92EE19
:10EDD00062E00F94F5F181E40F947BF282E40F94EA
:10EDE0007BF283E40F947BF284E40F947BF285E45E
:10EDF0000F947BF286E40F947BF287E40F947BF20E
:10EE000088E40F947BF28AE40F947BF28BE40F94F6
:10EE10007BF28CE40F947BF299CD88ED92EE62E068
:10EE20000F94F5F1772473948824992409C48FED05
:10EE300092EE62E00F94F5F140910A0250910B02BC
:10EE400060910C0270910D0282E020E10F9491F22A
:10EE500080910A0290910B02A0910C02B0910D02D8
:10EE600080509F4FAF4FBF4F80930A0290930B0289
:10EE7000A0930C02B0930D0269CD8AEE92EE62E08F
:10EE80000F94F5F184EE90EE60E00F94F5F18FECC5
:10EE900091EE60E00F94F5F1662477244301CC5D98
:10EEA000DE4F19821882C452D140D401C301B695F5
:10EEB000A79597958795CA5DDE4F88839983AA8326
:10EEC000BB83C652D140CC5DDE4FA881B981C4520C
:10EED000D1401196CC5DDE4FB983A883C452D14096
:10EEE000CD0162E070E00F9434F2B0E2B093C6005E
:10EEF0008091C00086FFFCCF8091C0008064809329
:10EF0000C000EDE2E093C6008091C00086FFFCCF18
:10EF10008091C00080648093C000F0E2F093C6004E
:10EF20008091C00086FFFCCF8091C00080648093F8
:10EF3000C000CA5DDE4FE880F9800A811B81C6529D
:10EF4000D140BB27A12F902F8F2D0F940DF2CA5DBA
:10EF5000DE4F8881C652D1400F940DF2B0E2FB2EF5
:10EF6000F092C6008091C00086FFFCCF8091C00067
:10EF700080648093C0000DE30093C6008091C000C0
:10EF800086FFFCCF8091C00080648093C00010E2B7
:10EF90001093C6008091C00086FFFCCF8091C00016
:10EFA00080648093C0008BBEF3012791C65DDE4F65
:10EFB0002883CA52D140A22EBB24CC24DD2408943D
:10EFC000611C711C811C911C8BBEF3018791282E42
:10EFD0003324442455240894611C711C811C911C09
:10EFE0008BBEF3013791C55DDE4F3883CB52D140E4
:10EFF0000894611C711C811C911C8BBEF30147910C
:10F00000C45DDE4F4883CC52D140ADEFEA2EAFEF66
:10F01000FA2EAFEF0A2FAFEF1A2F6E0C7F1C801E57
:10F02000911E142D032DF22CEE24EA0CFB1C0C1D5A
:10F030001D1D0F940DF220E22093C6008091C000A8
:10F0400086FFFCCF8091C00080648093C000C65DC5
:10F05000DE4F8881CA52D1400F940DF230E23093D6
:10F06000C6008091C00086FFFCCF8091C000806404
:10F070008093C000C45DDE4F8881CC52D1400F9494
:10F080000DF240E24093C6008091C00086FFFCCFA5
:10F090008091C00080648093C000C55DDE4F888190
:10F0A000CB52D1400F940DF250E25093C6008091A4
:10F0B000C00086FFFCCF8091C00080648093C000B8
:10F0C0008FEFE8168FEFF80680E0080780E018075A
:10F0D00031F484E092EE60E00F94C2F1DFC0D80119
:10F0E000C7018070907CA070B0708050904CA040A0
:10F0F000B040D1F52FEF3FE340E050E0E222F322B1
:10F1000004231523CA5DDE4FA880B980CA80DB8046
:10F11000C652D140AE0CBF1CC01ED11EAA0CBB1CD7
:10F12000CC1CDD1C8EE092EE60E00F94C2F1BB2798
:10F13000A12F902F8F2D0F940DF28E2D0F940DF285
:10F1400030E23093C6008091C00086FFFCCF8091F2
:10F15000C00080648093C0004EE34093C60080915D
:10F16000C00086FFFCCF87C08EE09EEFA0E0B0E03D
:10F17000E822F9220A231B239CE0E91694E9F90608
:10F1800090E0090790E0190709F088C0C45DDE4FE0
:10F19000A881CC52D140EA2EFF2400E010E0102FCD
:10F1A0000F2DFE2CEE24C55DDE4FB881CB52D14031
:10F1B000EB0EF11C011D111DD601C501817090706F
:10F1C000A070B070DC0199278827E80EF91E0A1F8D
:10F1D0001B1F20EF30E040E050E0A222B322C42207
:10F1E000D52241E1AA0CBB1CCC1CDD1C4A95D1F7F1
:10F1F000EA0CFB1C0C1D1D1D81E090E0A0E0B0E0BE
:10F20000282239224A225B2235E1220C331C441C7D
:10F21000551C3A95D1F7E20CF31C041D151D57013E
:10F220006801AA0CBB1CCC1CDD1C85E192EE60E0E1
:10F230000F94C2F1C801AA27BB270F940DF2BB2778
:10F24000A12F902F8F2D0F940DF28E2D0F940DF274
:10F2500090E29093C6008091C00086FFFCCF809121
:10F26000C00080648093C000AEE3A093C60080918C
:10F27000C00086FFFCCF8091C00080648093C000F6
:10F28000C601AA27BB270F940DF2BB27AD2D9C2DDD
:10F290008B2D0F940DF28A2D0F940DF20F94DCF14B
:10F2A000CC5DDE4FE881F981C452D140F99709F471
:10F2B0004DCBF4E0EF2EF12C012D112D6E0C7F1CA7
:10F2C000801E911EF2CD83E093EE62E00F94F5F183
:10F2D0008AE192EE60E00F94C2F18091C00087FF56
:10F2E000FCCF1091C6001F751093C6008091C0001E
:10F2F00086FFFCCF8091C00080648093C0000F9493
:10F30000DCF1812F81548A3108F036C1163409F4BA
:10F3100095C0173490F4133409F44EC0143430F40B
:10F320001134F1F0123409F01DC130C0143409F465
:10F3300059C0153409F016C16BC01A3409F4C4C0A1
:10F340001B3438F4173409F48FC0183409F00AC19B
:10F35000A1C01B3409F4D2C01C3409F003C1E8C0B9
:10F360008FEF81B90DC082B1809582B980E090E0C5
:10F37000E0EDF7E03197F1F70196883C9105C1F790
:10F380008091C00087FFEFCF12B8EFC08FEF84B934
:10F390000DC085B1809585B980E090E0E0EDF7E0A3
:10F3A0003197F1F70196883C9105C1F78091C00033
:10F3B00087FFEFCF15B8D9C08FEF87B90DC088B1DF
:10F3C000809588B980E090E0E0EDF7E03197F1F7C3
:10F3D0000196883C9105C1F78091C00087FFEFCF6F
:10F3E00018B8C3C08FEF8AB90DC08BB180958BB9A7
:10F3F00080E090E0E0EDF7E03197F1F70196883C8E
:10F400009105C1F78091C00087FFEFCF1BB8ADC059
:10F410008FEF8DB90DC08EB180958EB980E090E0F0
:10F42000E0EDF7E03197F1F70196883C9105C1F7DF
:10F430008091C00087FFEFCF1EB897C08FEF80BBD1
:10F440000DC081B3809581BB80E090E0E0EDF7E0F6
:10F450003197F1F70196883C9105C1F78091C00082
:10F4600087FFEFCF11BA81C08FEF83BB0DC084B38C
:10F47000809584BB80E090E0E0EDF7E03197F1F714
:10F480000196883C9105C1F78091C00087FFEFCFBE
:10F4900014BA6BC08FEF809301010FC080910201FD
:10F4A00080958093020180E090E0E0EDF7E03197F5
:10F4B000F1F70196883C9105C1F78091C00087FF64
:10F4C000EDCF1092020151C08FEF809304010FC065
:10F4D0008091050180958093050180E090E0E0ED4A
:10F4E000F7E03197F1F70196883C9105C1F78091DB
:10F4F000C00087FFEDCF1092050137C08FEF8093DA
:10F5000007010FC08091080180958093080180E079
:10F5100090E0E0EDF7E03197F1F70196883C910536
:10F52000C1F78091C00087FFEDCF109208011DC088
:10F530008FEF80930A010FC080910B01809580931B
:10F540000B0180E090E0E0EDF7E03197F1F70196F4
:10F55000883C9105C1F78091C00087FFEDCF1092E4
:10F560000B0103C085E292EEEEC98091C00087FFD7
:10F57000FCCF8091C600EAC988E392EEE4C98CE131
:10F5800091EEE1C988249924933011F1943028F444
:10F59000913089F09230B8F408C0953061F195301F
:10F5A000F0F0963009F048C043C02B3109F042C951
:10F5B00091E06BE13FC96227C15DDE4F2883CF52E6
:10F5C000D14092E037C9B22FA0E0622793E032C960
:10F5D000822F90E0A82BB92B622794E02BC92E3004
:10F5E00009F039C3622795E0C05DDE4F19821882A9
:10F5F000C053D1401FC9E1E0F0E0EC0FFD1FC05D3A
:10F60000DE4F08811981C053D140E00FF11F2083E4
:10F610000F5F1F4FC05DDE4F19830883C053D14079
:10F6200062270A171B0709F005C9D80196E002C92D
:10F63000261709F010C303C0973009F0FBC87724E0
:10F640009981933109F412C19431C8F4963009F4C8
:10F65000D8C0973050F4923009F406C1933009F4C1
:10F660006DC0913009F059C253C0913109F477C08F
:10F67000923108F0BBC0903109F04FC2F5C098310B
:10F6800009F487C0993150F4953109F4EFC09531F0
:10F6900008F4C6C1963109F040C2C2C19A3109F4DA
:10F6A0006CC09A3108F491C09B3109F45BC09D3164
:10F6B00009F033C29D81903359F48F81882311F46E
:10F6C0009EE11CC0813011F091E018C098E916C08D
:10F6D000892F807591F0903539F4E0E0F0E089E011
:10F6E0008093570094910AC0983539F4E3E0F0E034
:10F6F00089E080935700949101C090E01A821B82A8
:10F700008D818C831D829E831F8227E030E009C299
:10F710001A8288E08B8381E48C8386E58D8382E581
:10F720008E8389E48F8383E5888780E589878FE5E9
:10F730008A8782E38B872BE030E0F3C18A818139AD
:10F7400041F0823941F0803911F48FE005C080E04A
:10F7500003C082E001C08AE01A828B8344C0772410
:10F76000739482C08D81882311F48EE12CC0813086
:10F7700011F081E028C088E926C01A82E1E0F0E0BB
:10F7800089E08093570084918B831C8224E030E0D1
:10F79000C8C18B81803589F48C81883039F4E2E0EE
:10F7A000F0E089E08093570084910DC0E0E0F0E044
:10F7B00089E080935700849106C0E3E0F0E089E09F
:10F7C0008093570084911A82DFCF8D81836C99E0FA
:10F7D000E1E0F0E0082E90935700E89507B600FCB2
:10F7E000FDCF1A821B8223E030E09BC180EC8A832C
:10F7F000CE5CDE4F188219821A821B82C253D1401E
:10F800008EC18A8190E0A0E0B0E0582F44273327D2
:10F8100022278B8190E0A0E0B0E0DC0199278827C7
:10F82000282B392B4A2B5B2B8D8190E0A0E0B0E098
:10F83000282B392B4A2B5B2B8C8190E0A0E0B0E089
:10F84000BA2FA92F982F8827282B392B4A2B5B2BCF
:10F85000220F331F441F551FC05EDE4F288339839C
:10F860004A835B83C052D1401A8259C13A81C95C34
:10F87000DE4F3883C753D140CA5CDE4F1882C6536F
:10F88000D1408B81C82EDD24CA5CDE4F488159816E
:10F89000C653D140C42AD52A933109F082C0CE5C28
:10F8A000DE4F88819981AA81BB81C253D1408050AB
:10F8B000904CA340B04030F583E0CE5CDE4FE88052
:10F8C000F9800A811B81C253D140F70100935B008C
:10F8D00080935700E89507B600FCFDCFCE5CDE4F65
:10F8E000088119812A813B81C253D14000501F4FAA
:10F8F0002F4F3F4FCE5CDE4F088319832A833B8313
:10F90000C253D140C05EDE4F488159816A817B81FC
:10F91000C052D140DE011B9631E08C9111962C91A2
:10F9200011971296C75CDE4F2883C953D140C85C3B
:10F93000DE4F1882C853D14090E0C85CDE4FE881AA
:10F94000F981C853D1408E2B9F2B0C01FA01609393
:10F950005B0030935700E89511244E5F5F4F6F4F67
:10F960007F4F0EEFE02E0FEFF02ECE0CDF1CC114F8
:10F97000D10499F685E0C05EDE4F088119812A81A5
:10F980003B81C052D140F80120935B008093570027
:10F99000E89507B600FCFDCF81E180935700E8951C
:10F9A00035C0C05EDE4F88819981AA81BB81C0527B
:10F9B000D140B695A795979587957C018601ABE0D8
:10F9C000AA2EB12CAC0EBD1E0BC0D5016D915D01F0
:10F9D000C7010F947FFE0894E11CF11C01501040F8
:10F9E0000115110591F7A60160E070E0440F551F65
:10F9F000661F771FC05EDE4FE880F9800A811B8199
:10FA0000C052D1404E0D5F1D601F711F1A82C05E33
:10FA1000DE4F488359836A837B83C052D1407FC0C5
:10FA2000FA80C55CDE4FF882CB53D140C65CDE4F16
:10FA30001882CA53D1408B81C82EDD24C65CDE4FAC
:10FA400008811981CA53D140C02AD12A1A828981DA
:10FA5000BE016D5F7F4F843121F59601C05EDE4FA0
:10FA6000E880F9800A811B81C052D1400BBFF701A9
:10FA700087919691DB018C9311969C936E5F7F4FDB
:10FA8000D801C7010296A11DB11DC05EDE4F88835B
:10FA90009983AA83BB83C052D14022503040F1F6F3
:10FAA00036C0C05EDE4F288139814A815B81C052F9
:10FAB000D1400894C108D108760100E010E0089414
:10FAC000C11CD11C0894E11CF11C011D111DE20E8A
:10FAD000F31E041F151F21BDBB27A52F942F832FB5
:10FAE00082BD2F5F3F4F4F4F5F4FF89A80B5DB01CC
:10FAF0008D93BD012E153F054007510761F7C05E8C
:10FB0000DE4F288339834A835B83C052D1409601FC
:10FB10002D5F3F4FFB01108204C080EC8A8322E0FE
:10FB200030E08BE18093C6008091C00086FFFCCF5F
:10FB30008091C00080648093C000C15DDE4FF88179
:10FB4000CF52D140F093C6008091C00086FFFCCF19
:10FB50008091C00080648093C000432F3093C60022
:10FB60008091C00086FFFCCF8091C00080648093AC
:10FB7000C000922F2093C6008091C00086FFFCCF6A
:10FB80008091C00080648093C0008EE08093C600A6
:10FB90008091C00086FFFCCF8091C000806480937C
:10FBA000C00065E1C15DDE4FE880CF52D1406E25D7
:10FBB00069276427FE01319610C090819093C6009A
:10FBC0008091C00086FFFCCF31968091C000806498
:10FBD0008093C0006927215030402115310569F715
:10FBE0006093C6008091C00086FFFCCF8091C0006A
:10FBF00080648093C00085B1805885B9772081F4F6
:10FC0000C15DDE4F0881CF52D1400F5FC15DDE4F35
:10FC10000883CF52D14090E0A0E0B0E00D941AF4F8
:10FC200027982F9880E090E020ED37E0F901319798
:10FC3000F1F7019684369105C9F700008091C00064
:10FC40008D7F8093C00081E180935700E895EE2777
:10FC5000FF270994FFCF90E00D941AF497FB092E2B
:10FC600007260AD077FD04D02ED006D000201AF443
:10FC7000709561957F4F0895F6F7909581959F4F08
:10FC80000895A1E21A2EAA1BBB1BFD010DC0AA1FDD
:10FC9000BB1FEE1FFF1FA217B307E407F50720F0F5
:10FCA000A21BB30BE40BF50B661F771F881F991F70
:10FCB0001A9469F760957095809590959B01AC01B9
:10FCC000BD01CF010895AA1BBB1B51E107C0AA1FAC
:10FCD000BB1FA617B70710F0A61BB70B881F991FED
:10FCE0005A95A9F780959095BC01CD010895F99991
:10FCF000FECF92BD81BDF89A992780B50895262F31
:10FD0000F999FECF1FBA92BD81BD20BD0FB6F89400
:0EFD1000FA9AF99A0FBE01960895F894FFCF63
:00000001FF
