:100000000C9445010C9476010C9476010C947601C5
:100010000C9476010C9476010C9476010C94760184
:100020000C9476010C9476010C9476010C94760174
:100030000C9476010C9476010C9476010C94760164
:100040000C9476010C9476010C9476010C94760154
:100050000C9476010C9476010C9476010C94F707BD
:100060000C9476010C9476010C9476010C94760134
:100070000C9476010C9476010C9476010C94760124
:100080000C9476010C9476010C9476010C94760114
:100090000C9476010C9476010C9476010C94410832
:1000A0000C9476010C9476010C9476010C947601F4
:1000B0000C9476010C9476010C9476010C947601E4
:1000C0000C9476010C9476010C9476010C947601D4
:1000D0000C9476010C9476010C9476010C947601C4
:1000E0000C9476010C9464070C9477060C94CB0264
:1000F0000C94F2050C9423020C941F020C94EE0154
:100100000C949C010C9414060C94F2010C941102B2
:100110000C94F6010C9428020C9403020C94150222
:100120000C942D020C941B020C9448060C94650947
:100130000C94E8010C94FD010C9401060C949B01B5
:100140000C940D020C949D010C94A3040C948B024E
:100150000C94F1050C9429020C945A020C941B0681
:100160000C9407020C94FA010000210024002700DF
:100170002A002D00300033000101000004010701B6
:100180000A0100002200250028002B002E0031006B
:10019000340002010000050108010B0100002000ED
:1001A0002300260029002C002F003200000100004F
:1001B00003010601090105050505070508080808EA
:1001C000020202020A0A08080404040401010101EF
:1001D00001010101030303030303030304070707EA
:1001E0000C0C0C0C0C0C0C0C02020202060606068F
:1001F000060606060B0B0B0B0B0B0B0B010210205C
:10020000200808102040102040800201020108044C
:1002100002010102040810204080804020100804E0
:100220000201800402018040201008040201080439
:10023000020101020408102040800102040810207D
:10024000408000000A0B02090C0D0E080703040190
:10025000000000000000000000000000000000009E
:10026000000000000000000000000000000012116B
:10027000100000000000000000000000000000006E
:100280000000000000000000650911241FBECFEF30
:10029000D1E2DEBFCDBF00E00CBF12E0A0E0B2E0D3
:1002A000EEE1FCE100E00BBF02C007900D92A23826
:1002B000B107D9F723E0A2E8B2E001C01D92AF3D3B
:1002C000B207E1F711E0C5E4D1E000E006C02197F4
:1002D0000109802FFE010E94050EC434D10780E081
:1002E0000807A9F70E948F0A0C940D0E0C940000C9
:1002F00096E0899FD0011124A059BC4F90967C9321
:100300006E935F9791E091969C939197E091DD03B6
:10031000F091DE039091DC03992339F0309751F08E
:10032000811108C080918C031994309719F05C9664
:100330008C91FACF089508950895AF92BF92CF920D
:10034000DF92EF92FF920F931F93CF93DF936C0195
:100350007B018B01040F151FEB015E01AE18BF0876
:10036000C017D10759F06991D601ED91FC91019028
:10037000F081E02DC6011995892B79F7C501DF9130
:10038000CF911F910F91FF90EF90DF90CF90BF9092
:10039000AF9008958150823108F05AC0E82FF0E004
:1003A0008827EA52FE4F8F4F0C94050EF601FA0192
:1003B000E801EE01F2012802FD01030207020D022D
:1003C000110215021B021F022802230229022D021C
:1003D000809180008F7780938000089580918000C5
:1003E0008F7DF9CF80918000877FF5CF84B58F779F
:1003F00084BD089584B58F7DFBCF8091B0008F7749
:100400008093B00008958091B0008F7DF9CF8091E6
:1004100090008F77809390000895809190008F7D59
:10042000F9CF80919000877FF5CF8091A0008F77E2
:100430008093A00008958091A0008F7DF9CF8091D6
:10044000A000877FF5CF809120018F7780932001D6
:100450000895809120018F7DF9CF80912001877FC1
:10046000F5CFCF93DF93282F30E0F901EE5BFD4FFE
:100470008491F901E450FE4FD491F901EA54FE4F02
:10048000C491CC23A1F081110E94CA01EC2FF0E0AD
:10049000EE0FFF1FE456FE4FA591B491EC91ED23B2
:1004A00081E090E009F480E0DF91CF91089580E051
:1004B00090E0FACF862F0C9431021F93CF93DF93F5
:1004C000282F30E0F901EE5BFD4F8491F901E450F3
:1004D000FE4FD491F901EA54FE4FC491CC23A9F008
:1004E000162F81110E94CA01EC2FF0E0EE0FFF1FC2
:1004F000EE57FE4FA591B4918FB7F894EC9111117E
:1005000008C0D095DE23DC938FBFDF91CF911F9180
:100510000895DE2BF8CF862F642F0C945D02CF93C5
:10052000DF9390E0FC01E450FE4F24918A549E4FEB
:10053000FC0184918823C9F090E0880F991FFC0189
:10054000E859FE4FA591B491FC01EE57FE4FC591BD
:10055000D49161110DC09FB7F8948C91209582239E
:100560008C938881282328839FBFDF91CF910895A2
:10057000623051F49FB7F8943C91822F8095832389
:100580008C93E8812E2BEFCF8FB7F894EC912E2B24
:100590002C938FBFEACF862F642F0C948F023FB726
:1005A000F8948091CB029091CC02A091CD02B091B1
:1005B000CE0226B5A89B05C02F3F19F00196A11DBC
:1005C000B11D3FBFBA2FA92F982F8827BC01CD019D
:1005D000620F711D811D911D42E0660F771F881FFC
:1005E000991F4A95D1F708952FB7F8946091C702E3
:1005F0007091C8028091C9029091CA022FBF0895DC
:100600000F931F93CF93DF93C82FD62F86E0C89FF9
:10061000F0011124E059FC4F11A2878D90A1813087
:100620009105F1F058F082309105F1F1039709F44A
:1006300040C0DF91CF911F910F9108956623C9F3B8
:1006400061E070E08C2F0E9478010E94F4026093B8
:10065000C8037093C9038093CA039093CB03E9CF77
:100660000E94F4020091C8031091C9032091CA03AB
:100670003091CB03AB01BC01401B510B620B730BE0
:100680008091DA039091DB03B0E0A0E08417950736
:10069000A607B70748F462E070E08C2FDF91CF9196
:1006A0001F910F910C94780163E070E0D111C1CFDC
:1006B000F4CF70E060E0F1CF6F927F928F929F92C3
:1006C000AF92BF92CF92DF92EF92FF920F931F9360
:1006D000CF93DF9381E08093DC030E94F4020091CA
:1006E000CC031091CD032091CE033091CF03AB0109
:1006F000BC01401B510B620B730B8091D80390918E
:10070000D903B0E0A0E084179507A607B70708F063
:1007100014C1C0E08091D603C81760F4E091D20301
:10072000F091D303EC0FF11D62E080810E948F02F3
:10073000CF5FF0CF712C812C912C54018394809148
:10074000D703781608F05FC0072D10E0E091D403BE
:10075000F091D503E00FF11F61E080810E948F02CC
:10076000E091D403F091D503E00FF11F60E08081A8
:100770000E945D02D501C401072C04C0880F991F97
:10078000AA1FBB1F0A94D2F76C017C01E094F0947D
:10079000612C8091D6036816F8F4C62DD0E0E09164
:1007A000D203F091D303EC0FFD1F80810E94310230
:1007B0002496CC0FDD1FC059DC4F892B41F4888172
:1007C00099818C299D29998388836394E2CF8881BC
:1007D00099818E219F21F7CFE091D403F091D50329
:1007E000E00FF11F61E080810E945D028091D403DF
:1007F0009091D503080F191F60E0F80180810E94D5
:100800008F0273949CCFC0E7D3E0FE018FEF9FEF80
:10081000278D30A1232B21F4148E968F858F11A262
:10082000369623E0EC3AF20799F7F12C96E0D92EB0
:100830008091D603F81608F050C0E12C0F2D10E07F
:10084000000F111F08581C4F2091D703E21608F023
:1008500042C0F801608171810E2C02C076956795C7
:100860000A94E2F7F29E900111242E0D311DE0E76B
:10087000F3E080E0458D568D2417350709F461C0FB
:100880008F5F36968A30B1F760FF23C0E0E7F3E070
:1008900090E080E0448D411117C0E091D003F091C9
:1008A000D103E20FF31F4081D89EF001D99EF00DD5
:1008B0001124E059FC4F448F368F258F10A2178EDC
:1008C00061E00E94000305C0019636968A309105CA
:1008D00009F7E394B9CFF394ABCF10E089A181116C
:1008E000182F2696F3E0CC3ADF07C1F70E94F402F6
:1008F0006093CC037093CD038093CE039093CF038A
:100900001123D9F0809191038823B9F080918F034E
:1009100090919003019789F480918C03DF91CF919E
:100920001F910F91FF90EF90DF90CF90BF90AF900D
:100930009F908F907F906F9008951092DC0380E0DD
:10094000EDCF6170BECF08952091A302260F33270B
:10095000331F21323105ECF420912203FC0190E099
:1009600080E0243069F082E00895A091A3022191F3
:10097000AC014D575D4FA40FB52FB11D2C930196BF
:10098000861798F38091A302680F6093A30280E01A
:10099000089581E008951092220381E0809321035D
:1009A0001092FC0261E084E10E945D0261E085E159
:1009B0000E945D02E9EBF0E080818E7F8083808180
:1009C0008D7F808388E48093B80085E48093BC00A9
:1009D0000895CF93DF9391E0909382028823B9F03A
:1009E000C091B800D091BA008091BC008A7B8093FE
:1009F000BC0060E084E10E945D0260E085E10E944D
:100A00005D020E94CB04D093BA00C093B800DF917E
:100A1000CF910895CF92DF92EF92FF920F931F93A1
:100A2000CF93DF93D0914B0381E0D13208F09CC08B
:100A3000C0914A030E94CF026B017C018091220386
:100A400081116CC082E08093220381E080932103B6
:100A50008FEF8093200310921F03D0931E03AAE20E
:100A6000B3E0EEEFF2E080E0D8138DC01092FD020B
:100A70008091FD02CC0FC82BC093FD028091FC0237
:100A8000813009F084C01092FC020E94CF026B01F9
:100A90007C018091FD028093BB00809124039091A2
:100AA0002503A0912603B0912703892B8A2B8B2B3A
:100AB000A1F00E94CF020091240310912503209100
:100AC0002603309127036C197D098E099F090617AB
:100AD00017072807390708F442C08091BC0083FD3E
:100AE000D8CF85EC8093BC000E94CF026B017C01C3
:100AF00080912203823009F44CC0809120038F3F03
:100B000009F469C080912003803209F466C08091A5
:100B10002003803309F463C084E026C0809124035D
:100B200090912503A0912603B0912703892B8A2B4E
:100B30008B2B09F483CF0E94CF02009124031091E4
:100B4000250320912603309127036C197D098E0916
:100B50009F09061717072807390708F06FCF8091FC
:100B600023030E94E90485E01092290310924B03AD
:100B700010922803DF91CF911F910F91FF90EF907A
:100B8000DF90CF9008959D9191938F5F6DCF85EE0B
:100B9000A9CF8091240390912503A0912603B091C1
:100BA0002703892B8A2B8B2B09F4A2CF0E94CF021B
:100BB00000912403109125032091260330912703EF
:100BC0006C197D098E099F09061717072807390731
:100BD00008F08ECFC4CF80E0C7CF82E0C5CF83E0DE
:100BE000C3CF0895E091D4028091D302E81730F486
:100BF000F0E0EB52FD4F808190E008958FEF9FEF82
:100C000008959091D4028091D3022FEF3FEF98176F
:100C100048F4E92FF0E0EB52FD4F208130E09F5F78
:100C20009093D402C90108958091D3029091D40287
:100C3000891B990B0895CF92DF92EF92FF920F9349
:100C40001F93CF93DF937C01CB018A01209128036E
:100C5000222389F0EB016B01C40ED51ECC15DD05F6
:100C600069F06991D701ED91FC910190F081E02D3F
:100C7000C7011995F3CF642F0E94A404C801DF9126
:100C8000CF911F910F91FF90EF90DF90CF9008953B
:100C9000CF93DF931F92CDB7DEB7698320912803EE
:100CA0002223F9F020914B03203258F021E030E06C
:100CB000FC013383228390E080E00F90DF91CF919D
:100CC000089580912903E82FF0E0E65DFC4F9981BB
:100CD00090838F5F8093290380934B0381E090E0A2
:100CE000ECCF61E0CE0101960E94A404F7CF90E022
:100CF00080E008958F929F92AF92BF920F931F93BF
:100D0000CF93DF93CDB7DEB7A1970FB6F894DEBFD0
:100D10000FBECDBF19A2423008F44AE08E010F5D2C
:100D20001F4F842E912CB12CA12CA50194010E945F
:100D3000E30DE62FB901CA01EA3044F5E05DD801C0
:100D4000EE938D01232B242B252B79F790E080E067
:100D5000109769F0FD0101900020E9F73197AF018C
:100D60004A1B5B0BBD0188E593E00E949D01A196A3
:100D70000FB6F894DEBF0FBECDBFDF91CF911F91AC
:100D80000F91BF90AF909F908F900895E95CD7CF5F
:100D9000CF93DF93EC0160E08E810E945D0261E001
:100DA0008E810E945D0260E08E810E945D028BE870
:100DB00091E00197F1F7DF91CF910895CF92DF9203
:100DC000EF92FF920F931F93CF93DF936C017C01FF
:100DD00087E0E80EF11CD0E0C0E0062F10E0B8017B
:100DE0000C2E02C0759567950A94E2F76170F701C1
:100DF00081917F010E945D022196C430D10579F76F
:100E0000C601DF91CF911F910F91FF90EF90DF907E
:100E1000CF900C94C806CF92DF92EF92FF920F937F
:100E20001F93CF93DF93EC01F62E642F8C810E94E9
:100E30005D028D818F3F19F060E00E945D020F2DF1
:100E400010E08F8584FF25C06E0187E0C80ED11C9D
:100E5000F12CE12CB8010E2C02C0759567950A940F
:100E6000E2F76170F60181916F010E945D02FFEF70
:100E7000EF1AFF0A88E0E816F10461F7CE01DF916E
:100E8000CF911F910F91FF90EF90DF90CF900C9436
:100E9000C806B80184E0759567958A95E1F7CE019B
:100EA0000E94DE066F2DCE01DF91CF911F910F9131
:100EB000FF90EF90DF90CF900C94DE0640E0682F1B
:100EC00088E593E00C940B0741E00E940B0781E05A
:100ED00090E00895CF92DF92EF92FF92CF93DF934D
:100EE000D82EE92EF62E81E00E945E078BE39FE16B
:100EF0000197F1F7CD2DDE2D6991662331F041E0A8
:100F000088E593E00E940B07F7CFFF2089F1E1E02D
:100F100080916B038111E0E0E195F0E0E85AFC4F2D
:100F20008489845F80680E945E07C0900002D09030
:100F300001020D2C000CEE08FF084AE0C701B601C3
:100F4000F7FE0EC041E06DE288E593E00E940B07DA
:100F500066277727CB016C197D098E099F094AE026
:100F6000DF91CF91FF90EF90DF90CF900C947A06B5
:100F7000DF91CF91FF90EF90DF90CF90089585EDB6
:100F80008093BC008091240390912503A0912603B7
:100F9000B09127030796A11DB11D23E0B695A79533
:100FA000979587952A95D1F72091BC0024FD03C021
:100FB00010922203089540912403509125036091DB
:100FC000260370912703452B462B472B69F3009787
:100FD000A105B10541F025E32A95F1F7000001973D
:100FE000A109B109E1CF809123030C94E9041F9278
:100FF0000F920FB60F9211242F933F938F939F93CD
:10100000AF93BF938091C7029091C802A091C9028B
:10101000B091CA023091C60223E0230F2D3758F554
:101020000196A11DB11D2093C6028093C702909323
:10103000C802A093C902B093CA028091CB029091DA
:10104000CC02A091CD02B091CE020196A11DB11D9E
:101050008093CB029093CC02A093CD02B093CE02AA
:10106000BF91AF919F918F913F912F910F900FBEA4
:101070000F901F90189526E8230F0296A11DB11D11
:10108000D2CF1F920F920FB60F9211240BB60F9270
:101090002F933F934F935F936F937F938F939F9380
:1010A000AF93BF93EF93FF938091B900887F803611
:1010B00009F44DC008F040C0883209F4A9C028F5F1
:1010C000803109F49DC0C8F4882309F4FBC088303E
:1010D00009F496C0FF91EF91BF91AF919F918F91CD
:1010E0007F916F915F914F913F912F910F900BBE28
:1010F0000F900FBE0F901F901895883109F488C08B
:10110000803241F78093200314C0803409F49DC0DD
:1011100040F48033B9F38833E9F68093200385ECFB
:10112000B0C0803509F485C0883509F496C088348C
:1011300089F60E94BF07CECF883909F48CC038F5F4
:10114000883729F050F4883611F0803719F683E09B
:10115000809322031092C50257C0883809F47BC0DF
:10116000803919F0803809F0B5CF8091C5028032FE
:1011700008F071C0E091C50281E08E0F8093C50236
:101180008091BB00F0E0EB55FD4F80833DC0803B7C
:1011900039F0E0F4803A09F479C0883A09F09ACF3E
:1011A00084E0809322031092A4021092A302E091A3
:1011B000D102F091D20219958091A30281110FC042
:1011C00081E08093A3021092830209C0803C09F45D
:1011D000A6CF883C09F4A3CF883B09F07BCFE091F0
:1011E000A40281E08E0F8093A402F0E0ED57FD4F42
:1011F00080818093BB009091A4028091A30229C0BA
:101200008091FD028093BB0085EC8093BC0062CF8F
:1012100090911F0380911E03981758F5E0911F03CA
:1012200081E08E0F80931F03F0E0E250FD4F80813C
:10123000E9CFE0911F0381E08E0F80931F0380911F
:10124000BB00F0E0E250FD4F808390911F0380913E
:101250001E039817C8F285E8D8CFE0911F0381E0FC
:101260008E0F80931F038091BB00F0E0E250FD4F92
:1012700080838091210381115CCF81E08093FC0207
:1012800084EA8093BC001092220324CF85EC8093E3
:10129000BC00109222038091C502803230F4E091AC
:1012A000C502F0E0EB55FD4F10826091C50270E081
:1012B000E091CF02F091D00285EA92E01995109268
:1012C000C50208CF1092200334CFCF93DF93109242
:1012D0004F0310924E0388EE93E0A0E0B0E08093BD
:1012E000500390935103A0935203B09353038DE4A2
:1012F00092E090934D0380934C03109272031092EE
:10130000760310927503109277038BE692E0909328
:10131000710380937003ECE8F3E088EC93E01082B3
:1013200014821382158236968E179F07C1F785E0C7
:1013300092E09093D3038093D20382E092E0909363
:10134000D5038093D40384E08093D60383E0809315
:10135000D70389E092E09093D1038093D0038AE091
:1013600090E09093D9038093D80384EF91E0909319
:10137000DB038093DA031092DE031092DD031092F8
:10138000CC031092CD031092CE031092CF03109293
:10139000DC0310925B0310925A038FE592E0909366
:1013A00059038093580380E280935C038FEF80930E
:1013B0005D0381E280935E0382E280935F0383E2B8
:1013C0008093600384E28093610385E280936203EB
:1013D00010926303109264031092650310926603E7
:1013E0001092670381E080936B0310926C0380E49A
:1013F00080936D0380E180936E0380E580936F039B
:1014000061E080E20E948F0280915D038F3F19F0BE
:1014100061E00E948F0261E080915E030E948F0272
:10142000C8E5D3E09E01285533408091670384FDD1
:101430000BC084E090E021962817390744F461E05E
:101440008E810E948F02EECF88E090E0F4CF8BE394
:101450009DE00197F1F760E080915C030E945D02DE
:1014600060E080915E030E945D0280915D038F3F8A
:1014700019F060E00E945D028091670384FD39C02D
:1014800063E088E593E00E94DE06CBE4D6E4CE017B
:101490000197F1F763E088E593E00E94DE0621976B
:1014A000F1F763E088E593E00E94DE0683E592E0D1
:1014B0000197F1F762E088E593E00E94DE068091F3
:1014C000670380620E945E0784E0809368038CE07B
:1014D0000E945E0781E00E945E078BE39FE1019717
:1014E000F1F782E08093690386E0DF91CF910C945D
:1014F0005E0780620E945E078BE496E40197F1F735
:101500008091670380620E945E0783E592E0019705
:10151000F1F78091670380620E945E07D0CF7894D4
:1015200084B5826084BD84B5816084BD85B58260E8
:1015300085BD85B5816085BD80916E008160809399
:101540006E00109281008091810082608093810002
:101550008091810081608093810080918000816012
:10156000809380008091B10084608093B10080916D
:10157000B00081608093B000809191008260809380
:101580009100809191008160809391008091900002
:101590008160809390008091A10082608093A1007F
:1015A0008091A10081608093A1008091A000816062
:1015B0008093A0008091210182608093210180911D
:1015C00021018160809321018091200181608093BD
:1015D000200180917A00846080937A0080917A0063
:1015E000826080937A0080917A00816080937A0093
:1015F00080917A00806880937A001092C1001092E6
:10160000D4021092D3021092290310924B030E942D
:10161000CB048BE991E09093D2028093D1028CE9C4
:1016200091E09093D0028093CF02DDE1ED2ED2E0E5
:10163000FD2EC5E1D2E01881229661E0812F0E9443
:101640008F0260E0812F0E945D02EC16FD0699F783
:1016500081E08093280380E580934A0360E08CE476
:1016600093E00E94480660E08CE493E00E94480604
:101670000E940A050E94CF026B017C018091220327
:10168000811163C081E080932203809321039FEF47
:101690009093200310921F0310921E038093FD026B
:1016A0008091FD02806A8093FD028091FC0281306E
:1016B00009F060C11092FC020E94CF026B017C0114
:1016C0008091FD028093BB008091240390912503BB
:1016D000A0912603B0912703892B8A2B8B2BA1F095
:1016E0000E94CF020091240310912503209126032C
:1016F000309127036C197D098E099F09061717077A
:101700002807390708F442C08091BC0083FDD8CF78
:1017100085EC8093BC000E94CF026B017C0180911C
:101720002203813009F428C180911F03811146C131
:1017300080911F03AEEFB2E0E5EDF2E090E0981784
:1017400051F12D9121939F5FFACF809124039091C5
:101750002503A0912603B0912703892B8A2B8B2B7D
:1017600009F48CCF0E94CF0200912403109125032D
:1017700020912603309127036C197D098E099F095A
:10178000061717072807390708F078CF8091230339
:101790000E94E90480E01092D4028093D3028CE48A
:1017A00093E00E9401068093F9022BE0829FC00122
:1017B000112460E0835E9D4F0E946A07E091F90268
:1017C000F0E0EE0FFF1FEB5EFD4F61E080810E94B5
:1017D0005D021BE00AE0B0E0CB2EB0E0DB2EC0E5FE
:1017E0003C2E0E945C03882309F477C07FECF72E1F
:1017F000F80E9091FB02E3E0EF1508F4E1C09111BF
:1018000071C09091FA029111AEC0C82F880FDD0B04
:10181000E1971C9FC0011D9F900D112460E0835E25
:101820009D4F0E946A07F092F90281E0809328039D
:1018300030924A031092290310924B0360E08CE42B
:1018400093E00E94480660E08CE493E00E94480622
:101850006091F9028CE493E00E9448060E940A0518
:101860000E94CF024B015C0164E1462E512C612C99
:10187000712C0E94CF02681979098A099B09683E78
:10188000734081059105A8F3F1E04F1A51086108F2
:10189000710828EE820E23E0921EA11CB11C411497
:1018A00051046104710429F755E1A52E52E0B52ECB
:1018B000F12CE12CF5018081F2E0AF0EB11C61E06A
:1018C000CE15DF0509F060E00E945D022FEFE21AFD
:1018D000F20A84E0E816F10469F78091FB0288239C
:1018E00009F441C00E94F4024090F5025090F602C3
:1018F0006090F7027090F8026419750986099709DB
:10190000683E73408105910570F10E94F402609376
:10191000F5027093F6028093F7029093F80280919B
:1019200000029091010201979093010280930002BE
:101930008091F902819FC001112461E0835E9D4F77
:101940000E946A07C0910002D0910102E091F90261
:10195000C0FFEAC0F0E0EE0FFF1FEB5EFD4F61E05D
:1019600080810E945D02C114D10409F43ACF0E9423
:10197000000037CF85EECDCE8091240390912503D2
:10198000A0912603B0912703892B8A2B8B2B09F476
:10199000C6CE0E94CF02009124031091250320910E
:1019A0002603309127036C197D098E099F090617BC
:1019B00017072807390708F0B2CEE8CE81E0BACE83
:1019C000833209F072C08091FA02811186CF9111A1
:1019D00089CF81E08093FA021092010210920002F6
:1019E0008091F902819FC001112461E0835E9D4FC7
:1019F0000E946A07D0E0C0E00E945C038823E1F304
:101A000090ED980F9A3090F54091000250910102AC
:101A1000049F9001059F300D1124082E000C990B96
:101A2000C097820F931F90930102809300028091D0
:101A3000F902819FC001112461E0835E9D4F0E94E5
:101A40006A07C330D10569F481E08093FB020E94EC
:101A5000F4026093F5027093F6028093F70290937C
:101A6000F8022196C430D10539F637CF833271F4AC
:101A700081E08093FB020E94F4026093F502709370
:101A8000F6028093F7029093F80227CF8A32C9F6C4
:101A90001092FA028091F902819FC001112460E046
:101AA000835E9D4F0E946A0718CF8A3209F015CFD6
:101AB0008091FA02882309F410CF992309F453CFB7
:101AC00061E081E792E00E946A07E091F902F0E0AC
:101AD000EE0FFF1FEB5EFD4F60E080810E945D0214
:101AE0000E945C038823E1F30E94F4026093F502F4
:101AF0007093F6028093F7029093F8028091F902B6
:101B0000819FC001112461E0835E9D4F0E946A079E
:101B1000E091F902F0E0EE0FFF1FEB5EFD4F61E098
:101B200080810E945D02D9CEF0E0EE0FFF1FEB5ED8
:101B3000FD4F60E080810E945D02CD2B09F013CF44
:101B400060E088E792E00E946A0761E086E20E9416
:101B50005D0261E087E20E945D0261E088E20E942E
:101B60005D0261E089E20E945D020E945C038823BD
:101B7000E1F360E086E20E945D0260E087E20E949D
:101B80005D0260E088E20E945D0260E089E20E94FE
:101B90005D02E091F902F0E0EE0FFF1FEB5EFD4FFA
:101BA00061E080810E945D021092FB021092FA02B5
:101BB0008091F902819FC001112460E0835E9D4FF6
:101BC0000E946A07D0CEA1E21A2EAA1BBB1BFD0100
:101BD0000DC0AA1FBB1FEE1FFF1FA217B307E4070C
:101BE000F50720F0A21BB30BE40BF50B661F771F64
:101BF000881F991F1A9469F7609570958095909544
:101C00009B01AC01BD01CF010895EE0FFF1F881F9E
:0E1C10008BBF0790F691E02D1994F894FFCF4A
:101C1E0064001A1B1C161718193132333435363737
:101C2E0038392A3023260027002800290050524533
:101C3E002D5741534800000057415348494E470025
:101C4E0000000057415445522D574153480044520D
:101C5E0059494E4700000000000000000048061BD6
:101C6E00067706F10514060106F205000000006471
:101C7E00079D017706A30400000000CB028B025AD9
:101C8E00025041555345440046494E495348454438
:021C9E00000044
:00000001FF
