:020000040000FA
:100000000C9445010C9476010C9476010C947601C5
:100010000C9476010C9476010C9476010C94760184
:100020000C9476010C9476010C9476010C94760174
:100030000C9476010C9476010C9476010C94760164
:100040000C9476010C9476010C9476010C94760154
:100050000C9476010C9476010C9476010C94F707BD
:100060000C9476010C9476010C9476010C94760134
:100070000C9476010C9476010C9476010C94760124
:100080000C9476010C9476010C9476010C94760114
:100090000C9476010C9476010C9476010C94410832
:1000A0000C9476010C9476010C9476010C947601F4
:1000B0000C9476010C9476010C9476010C947601E4
:1000C0000C9476010C9476010C9476010C947601D4
:1000D0000C9476010C9476010C9476010C947601C4
:1000E0000C9476010C9464070C9477060C94CB0264
:1000F0000C94F2050C9423020C941F020C94EE0154
:100100000C949C010C9414060C94F2010C941102B2
:100110000C94F6010C9428020C9403020C94150222
:100120000C942D020C941B020C9448060C94650947
:100130000C94E8010C94FD010C9401060C949B01B5
:100140000C940D020C949D010C94A3040C948B024E
:100150000C94F1050C9429020C945A020C941B0681
:100160000C9407020C94FA010000210024002700DF
:100170002A002D00300033000101000004010701B6
:100180000A0100002200250028002B002E0031006B
:10019000340002010000050108010B0100002000ED
:1001A0002300260029002C002F003200000100004F
:1001B00003010601090105050505070508080808EA
:1001C000020202020A0A08080404040401010101EF
:1001D00001010101030303030303030304070707EA
:1001E0000C0C0C0C0C0C0C0C02020202060606068F
:1001F000060606060B0B0B0B0B0B0B0B010210205C
:10020000200808102040102040800201020108044C
:1002100002010102040810204080804020100804E0
:100220000201800402018040201008040201080439
:10023000020101020408102040800102040810207D
:10024000408000000A0B02090C0D0E080703040190
:10025000000000000000000000000000000000009E
:10026000000000000000000000000000000012116B
:10027000100000000000000000000000000000006E
:100280000000000000000000650911241FBECFEF30
:10029000D1E2DEBFCDBF00E00CBF12E0A0E0B2E0D3
:1002A000EEE1FCE100E00BBF02C007900D92A23826
:1002B000B107D9F723E0A2E8B2E001C01D92AF3D3B
:1002C000B207E1F711E0C5E4D1E000E006C02197F4
:1002D0000109802FFE010E94050EC434D10780E081
:1002E0000807A9F70E948F0A0C940D0E0C940000C9
:1002F00096E0899FD0011124A059BC4F90967C9321
:100300006E935F9791E091969C939197E091DD03B6
:10031000F091DE039091DC03992339F0309751F08E
:10032000811108C080918C031994309719F05C9664
:100330008C91FACF089508950895AF92BF92CF920D
:10034000DF92EF92FF920F931F93CF93DF936C0195
:100350007B018B01040F151FEB015E01AE18BF0876
:10036000C017D10759F06991D601ED91FC91019028
:10037000F081E02DC6011995892B79F7C501DF9130
:10038000CF911F910F91FF90EF90DF90CF90BF9092
:10039000AF9008958150823108F05AC0E82FF0E004
:1003A0008827EA52FE4F8F4F0C94050EF601FA0192
:1003B000E801EE01F2012802FD01030207020D022D
:1003C000110215021B021F022802230229022D021C
:1003D000809180008F7780938000089580918000C5
:1003E0008F7DF9CF80918000877FF5CF84B58F779F
:1003F00084BD089584B58F7DFBCF8091B0008F7749
:100400008093B00008958091B0008F7DF9CF8091E6
:1004100090008F77809390000895809190008F7D59
:10042000F9CF80919000877FF5CF8091A0008F77E2
:100430008093A00008958091A0008F7DF9CF8091D6
:10044000A000877FF5CF809120018F7780932001D6
:100450000895809120018F7DF9CF80912001877FC1
:10046000F5CFCF93DF93282F30E0F901EE5BFD4FFE
:100470008491F901E450FE4FD491F901EA54FE4F02
:10048000C491CC23A1F081110E94CA01EC2FF0E0AD
:10049000EE0FFF1FE456FE4FA591B491EC91ED23B2
:1004A00081E090E009F480E0DF91CF91089580E051
:1004B00090E0FACF862F0C9431021F93CF93DF93F5
:1004C000282F30E0F901EE5BFD4F8491F901E450F3
:1004D000FE4FD491F901EA54FE4FC491CC23A9F008
:1004E000162F81110E94CA01EC2FF0E0EE0FFF1FC2
:1004F000EE57FE4FA591B4918FB7F894EC9111117E
:1005000008C0D095DE23DC938FBFDF91CF911F9180
:100510000895DE2BF8CF862F642F0C945D02CF93C5
:10052000DF9390E0FC01E450FE4F24918A549E4FEB
:10053000FC0184918823C9F090E0880F991FFC0189
:10054000E859FE4FA591B491FC01EE57FE4FC591BD
:10055000D49161110DC09FB7F8948C91209582239E
:100560008C938881282328839FBFDF91CF910895A2
:10057000623051F49FB7F8943C91822F8095832389
:100580008C93E8812E2BEFCF8FB7F894EC912E2B24
:100590002C938FBFEACF862F642F0C948F023FB726
:1005A000F8948091CB029091CC02A091CD02B091B1
:1005B000CE0226B5A89B05C02F3F19F00196A11DBC
:1005C000B11D3FBFBA2FA92F982F8827BC01CD019D
:1005D000620F711D811D911D42E0660F771F881FFC
:1005E000991F4A95D1F708952FB7F8946091C702E3
:1005F0007091C8028091C9029091CA022FBF0895DC
:100600000F931F93CF93DF93C82FD62F86E0C89FF9
:10061000F0011124E059FC4F11A2878D90A1813087
:100620009105F1F058F082309105F1F1039709F44A
:1006300040C0DF91CF911F910F9108956623C9F3B8
:1006400061E070E08C2F0E9478010E94F4026093B8
:10065000C8037093C9038093CA039093CB03E9CF77
:100660000E94F4020091C8031091C9032091CA03AB
:100670003091CB03AB01BC01401B510B620B730BE0
:100680008091DA039091DB03B0E0A0E08417950736
:10069000A607B70748F462E070E08C2FDF91CF9196
:1006A0001F910F910C94780163E070E0D111C1CFDC
:1006B000F4CF70E060E0F1CF6F927F928F929F92C3
:1006C000AF92BF92CF92DF92EF92FF920F931F9360
:1006D000CF93DF9381E08093DC030E94F4020091CA
:1006E000CC031091CD032091CE033091CF03AB0109
:1006F000BC01401B510B620B730B8091D80390918E
:10070000D903B0E0A0E084179507A607B70708F063
:1007100014C1C0E08091D603C81760F4E091D20301
:10072000F091D303EC0FF11D62E080810E948F02F3
:10073000CF5FF0CF712C812C912C54018394809148
:10074000D703781608F05FC0072D10E0E091D403BE
:10075000F091D503E00FF11F61E080810E948F02CC
:10076000E091D403F091D503E00FF11F60E08081A8
:100770000E945D02D501C401072C04C0880F991F97
:10078000AA1FBB1F0A94D2F76C017C01E094F0947D
:10079000612C8091D6036816F8F4C62DD0E0E09164
:1007A000D203F091D303EC0FFD1F80810E94310230
:1007B0002496CC0FDD1FC059DC4F892B41F4888172
:1007C00099818C299D29998388836394E2CF8881BC
:1007D00099818E219F21F7CFE091D403F091D50329
:1007E000E00FF11F61E080810E945D028091D403DF
:1007F0009091D503080F191F60E0F80180810E94D5
:100800008F0273949CCFC0E7D3E0FE018FEF9FEF80
:10081000278D30A1232B21F4148E968F858F11A262
:10082000369623E0EC3AF20799F7F12C96E0D92EB0
:100830008091D603F81608F050C0E12C0F2D10E07F
:10084000000F111F08581C4F2091D703E21608F023
:1008500042C0F801608171810E2C02C076956795C7
:100860000A94E2F7F29E900111242E0D311DE0E76B
:10087000F3E080E0458D568D2417350709F461C0FB
:100880008F5F36968A30B1F760FF23C0E0E7F3E070
:1008900090E080E0448D411117C0E091D003F091C9
:1008A000D103E20FF31F4081D89EF001D99EF00DD5
:1008B0001124E059FC4F448F368F258F10A2178EDC
:1008C00061E00E94000305C0019636968A309105CA
:1008D00009F7E394B9CFF394ABCF10E089A181116C
:1008E000182F2696F3E0CC3ADF07C1F70E94F402F6
:1008F0006093CC037093CD038093CE039093CF038A
:100900001123D9F0809191038823B9F080918F034E
:1009100090919003019789F480918C03DF91CF919E
:100920001F910F91FF90EF90DF90CF90BF90AF900D
:100930009F908F907F906F9008951092DC0380E0DD
:10094000EDCF6170BECF08952091A302260F33270B
:10095000331F21323105ECF420912203FC0190E099
:1009600080E0243069F082E00895A091A3022191F3
:10097000AC014D575D4FA40FB52FB11D2C930196BF
:10098000861798F38091A302680F6093A30280E01A
:10099000089581E008951092220381E0809321035D
:1009A0001092FC0261E084E10E945D0261E085E159
:1009B0000E945D02E9EBF0E080818E7F8083808180
:1009C0008D7F808388E48093B80085E48093BC00A9
:1009D0000895CF93DF9391E0909382028823B9F03A
:1009E000C091B800D091BA008091BC008A7B8093FE
:1009F000BC0060E084E10E945D0260E085E10E944D
:100A00005D020E94CB04D093BA00C093B800DF917E
:100A1000CF910895CF92DF92EF92FF920F931F93A1
:100A2000CF93DF93D0914B0381E0D13208F09CC08B
:100A3000C0914A030E94CF026B017C018091220386
:100A400081116CC082E08093220381E080932103B6
:100A50008FEF8093200310921F03D0931E03AAE20E
:100A6000B3E0EEEFF2E080E0D8138DC01092FD020B
:100A70008091FD02CC0FC82BC093FD028091FC0237
:100A8000813009F084C01092FC020E94CF026B01F9
:100A90007C018091FD028093BB00809124039091A2
:100AA0002503A0912603B0912703892B8A2B8B2B3A
:100AB000A1F00E94CF020091240310912503209100
:100AC0002603309127036C197D098E099F090617AB
:100AD00017072807390708F442C08091BC0083FD3E
:100AE000D8CF85EC8093BC000E94CF026B017C01C3
:100AF00080912203823009F44CC0809120038F3F03
:100B000009F469C080912003803209F466C08091A5
:100B10002003803309F463C084E026C0809124035D
:100B200090912503A0912603B0912703892B8A2B4E
:100B30008B2B09F483CF0E94CF02009124031091E4
:100B4000250320912603309127036C197D098E0916
:100B50009F09061717072807390708F06FCF8091FC
:100B600023030E94E90485E01092290310924B03AD
:100B700010922803DF91CF911F910F91FF90EF907A
:100B8000DF90CF9008959D9191938F5F6DCF85EE0B
:100B9000A9CF8091240390912503A0912603B091C1
:100BA0002703892B8A2B8B2B09F4A2CF0E94CF021B
:100BB00000912403109125032091260330912703EF
:100BC0006C197D098E099F09061717072807390731
:100BD00008F08ECFC4CF80E0C7CF82E0C5CF83E0DE
:100BE000C3CF0895E091D4028091D302E81730F486
:100BF000F0E0EB52FD4F808190E008958FEF9FEF82
:100C000008959091D4028091D3022FEF3FEF98176F
:100C100048F4E92FF0E0EB52FD4F208130E09F5F78
:100C20009093D402C90108958091D3029091D40287
:100C3000891B990B0895CF92DF92EF92FF920F9349
:100C40001F93CF93DF937C01CB018A01209128036E
:100C5000222389F0EB016B01C40ED51ECC15DD05F6
:100C600069F06991D701ED91FC910190F081E02D3F
:100C7000C7011995F3CF642F0E94A404C801DF9126
:100C8000CF911F910F91FF90EF90DF90CF9008953B
:100C9000CF93DF931F92CDB7DEB7698320912803EE
:100CA0002223F9F020914B03203258F021E030E06C
:100CB000FC013383228390E080E00F90DF91CF919D
:100CC000089580912903E82FF0E0E65DFC4F9981BB
:100CD00090838F5F8093290380934B0381E090E0A2
:100CE000ECCF61E0CE0101960E94A404F7CF90E022
:100CF00080E008958F929F92AF92BF920F931F93BF
:100D0000CF93DF93CDB7DEB7A1970FB6F894DEBFD0
:100D10000FBECDBF19A2423008F44AE08E010F5D2C
:100D20001F4F842E912CB12CA12CA50194010E945F
:100D3000E30DE62FB901CA01EA3044F5E05DD801C0
:100D4000EE938D01232B242B252B79F790E080E067
:100D5000109769F0FD0101900020E9F73197AF018C
:100D60004A1B5B0BBD0188E593E00E949D01A196A3
:100D70000FB6F894DEBF0FBECDBFDF91CF911F91AC
:100D80000F91BF90AF909F908F900895E95CD7CF5F
:100D9000CF93DF93EC0160E08E810E945D0261E001
:100DA0008E810E945D0260E08E810E945D028BE870
:100DB00091E00197F1F7DF91CF910895CF92DF9203
:100DC000EF92FF920F931F93CF93DF936C017C01FF
:100DD00087E0E80EF11CD0E0C0E0062F10E0B8017B
:100DE0000C2E02C0759567950A94E2F76170F701C1
:100DF00081917F010E945D022196C430D10579F76F
:100E0000C601DF91CF911F910F91FF90EF90DF907E
:100E1000CF900C94C806CF92DF92EF92FF920F937F
:100E20001F93CF93DF93EC01F62E642F8C810E94E9
:100E30005D028D818F3F19F060E00E945D020F2DF1
:100E400010E08F8584FF25C06E0187E0C80ED11C9D
:100E5000F12CE12CB8010E2C02C0759567950A940F
:100E6000E2F76170F60181916F010E945D02FFEF70
:100E7000EF1AFF0A88E0E816F10461F7CE01DF916E
:100E8000CF911F910F91FF90EF90DF90CF900C9436
:100E9000C806B80184E0759567958A95E1F7CE019B
:100EA0000E94DE066F2DCE01DF91CF911F910F9131
:100EB000FF90EF90DF90CF900C94DE0640E0682F1B
:100EC00088E593E00C940B0741E00E940B0781E05A
:100ED00090E00895CF92DF92EF92FF92CF93DF934D
:100EE000D82EE92EF62E81E00E945E078BE39FE16B
:100EF0000197F1F7CD2DDE2D6991662331F041E0A8
:100F000088E593E00E940B07F7CFFF2089F1E1E02D
:100F100080916B038111E0E0E195F0E0E85AFC4F2D
:100F20008489845F80680E945E07C0900002D09030
:100F300001020D2C000CEE08FF084AE0C701B601C3
:100F4000F7FE0EC041E06DE288E593E00E940B07DA
:100F500066277727CB016C197D098E099F094AE026
:100F6000DF91CF91FF90EF90DF90CF900C947A06B5
:100F7000DF91CF91FF90EF90DF90CF90089585EDB6
:100F80008093BC008091240390912503A0912603B7
:100F9000B09127030796A11DB11D23E0B695A79533
:100FA000979587952A95D1F72091BC0024FD03C021
:100FB00010922203089540912403509125036091DB
:100FC000260370912703452B462B472B69F3009787
:100FD000A105B10541F025E32A95F1F7000001973D
:100FE000A109B109E1CF809123030C94E9041F9278
:100FF0000F920FB60F9211242F933F938F939F93CD
:10100000AF93BF938091C7029091C802A091C9028B
:10101000B091CA023091C60223E0230F2D3758F554
:101020000196A11DB11D2093C6028093C702909323
:10103000C802A093C902B093CA028091CB029091DA
:10104000CC02A091CD02B091CE020196A11DB11D9E
:101050008093CB029093CC02A093CD02B093CE02AA
:10106000BF91AF919F918F913F912F910F900FBEA4
:101070000F901F90189526E8230F0296A11DB11D11
:10108000D2CF1F920F920FB60F9211240BB60F9270
:101090002F933F934F935F936F937F938F939F9380
:1010A000AF93BF93EF93FF938091B900887F803611
:1010B00009F44DC008F040C0883209F4A9C028F5F1
:1010C000803109F49DC0C8F4882309F4FBC088303E
:1010D00009F496C0FF91EF91BF91AF919F918F91CD
:1010E0007F916F915F914F913F912F910F900BBE28
:1010F0000F900FBE0F901F901895883109F488C08B
:10110000803241F78093200314C0803409F49DC0DD
:1011100040F48033B9F38833E9F68093200385ECFB
:10112000B0C0803509F485C0883509F496C088348C
:1011300089F60E94BF07CECF883909F48CC038F5F4
:10114000883729F050F4883611F0803719F683E09B
:10115000809322031092C50257C0883809F47BC0DF
:10116000803919F0803809F0B5CF8091C5028032FE
:1011700008F071C0E091C50281E08E0F8093C50236
:101180008091BB00F0E0EB55FD4F80833DC0803B7C
:1011900039F0E0F4803A09F479C0883A09F09ACF3E
:1011A00084E0809322031092A4021092A302E091A3
:1011B000D102F091D20219958091A30281110FC042
:1011C00081E08093A3021092830209C0803C09F45D
:1011D000A6CF883C09F4A3CF883B09F07BCFE091F0
:1011E000A40281E08E0F8093A402F0E0ED57FD4F42
:1011F00080818093BB009091A4028091A30229C0BA
:101200008091FD028093BB0085EC8093BC0062CF8F
:1012100090911F0380911E03981758F5E0911F03CA
:1012200081E08E0F80931F03F0E0E250FD4F80813C
:10123000E9CFE0911F0381E08E0F80931F0380911F
:10124000BB00F0E0E250FD4F808390911F0380913E
:101250001E039817C8F285E8D8CFE0911F0381E0FC
:101260008E0F80931F038091BB00F0E0E250FD4F92
:1012700080838091210381115CCF81E08093FC0207
:1012800084EA8093BC001092220324CF85EC8093E3
:10129000BC00109222038091C502803230F4E091AC
:1012A000C502F0E0EB55FD4F10826091C50270E081
:1012B000E091CF02F091D00285EA92E01995109268
:1012C000C50208CF1092200334CFCF93DF93109242
:1012D0004F0310924E0388EE93E0A0E0B0E08093BD
:1012E000500390935103A0935203B09353038DE4A2
:1012F00092E090934D0380934C03109272031092EE
:10130000760310927503109277038BE692E0909328
:10131000710380937003ECE8F3E088EC93E01082B3
:1013200014821382158236968E179F07C1F785E0C7
:1013300092E09093D3038093D20382E092E0909363
:10134000D5038093D40384E08093D60383E0809315
:10135000D70389E092E09093D1038093D0038AE091
:1013600090E09093D9038093D80384EF91E0909319
:10137000DB038093DA031092DE031092DD031092F8
:10138000CC031092CD031092CE031092CF03109293
:10139000DC0310925B0310925A038FE592E0909366
:1013A00059038093580380E280935C038FEF80930E
:1013B0005D0381E280935E0382E280935F0383E2B8
:1013C0008093600384E28093610385E280936203EB
:1013D00010926303109264031092650310926603E7
:1013E0001092670381E080936B0310926C0380E49A
:1013F00080936D0380E180936E0380E580936F039B
:1014000061E080E20E948F0280915D038F3F19F0BE
:1014100061E00E948F0261E080915E030E948F0272
:10142000C8E5D3E09E01285533408091670384FDD1
:101430000BC084E090E021962817390744F461E05E
:101440008E810E948F02EECF88E090E0F4CF8BE394
:101450009DE00197F1F760E080915C030E945D02DE
:1014600060E080915E030E945D0280915D038F3F8A
:1014700019F060E00E945D028091670384FD39C02D
:1014800063E088E593E00E94DE06CBE4D6E4CE017B
:101490000197F1F763E088E593E00E94DE0621976B
:1014A000F1F763E088E593E00E94DE0683E592E0D1
:1014B0000197F1F762E088E593E00E94DE068091F3
:1014C000670380620E945E0784E0809368038CE07B
:1014D0000E945E0781E00E945E078BE39FE1019717
:1014E000F1F782E08093690386E0DF91CF910C945D
:1014F0005E0780620E945E078BE496E40197F1F735
:101500008091670380620E945E0783E592E0019705
:10151000F1F78091670380620E945E07D0CF7894D4
:1015200084B5826084BD84B5816084BD85B58260E8
:1015300085BD85B5816085BD80916E008160809399
:101540006E00109281008091810082608093810002
:101550008091810081608093810080918000816012
:10156000809380008091B10084608093B10080916D
:10157000B00081608093B000809191008260809380
:101580009100809191008160809391008091900002
:101590008160809390008091A10082608093A1007F
:1015A0008091A10081608093A1008091A000816062
:1015B0008093A0008091210182608093210180911D
:1015C00021018160809321018091200181608093BD
:1015D000200180917A00846080937A0080917A0063
:1015E000826080937A0080917A00816080937A0093
:1015F00080917A00806880937A001092C1001092E6
:10160000D4021092D3021092290310924B030E942D
:10161000CB048BE991E09093D2028093D1028CE9C4
:1016200091E09093D0028093CF02DDE1ED2ED2E0E5
:10163000FD2EC5E1D2E01881229661E0812F0E9443
:101640008F0260E0812F0E945D02EC16FD0699F783
:1016500081E08093280380E580934A0360E08CE476
:1016600093E00E94480660E08CE493E00E94480604
:101670000E940A050E94CF026B017C018091220327
:10168000811163C081E080932203809321039FEF47
:101690009093200310921F0310921E038093FD026B
:1016A0008091FD02806A8093FD028091FC0281306E
:1016B00009F060C11092FC020E94CF026B017C0114
:1016C0008091FD028093BB008091240390912503BB
:1016D000A0912603B0912703892B8A2B8B2BA1F095
:1016E0000E94CF020091240310912503209126032C
:1016F000309127036C197D098E099F09061717077A
:101700002807390708F442C08091BC0083FDD8CF78
:1017100085EC8093BC000E94CF026B017C0180911C
:101720002203813009F428C180911F03811146C131
:1017300080911F03AEEFB2E0E5EDF2E090E0981784
:1017400051F12D9121939F5FFACF809124039091C5
:101750002503A0912603B0912703892B8A2B8B2B7D
:1017600009F48CCF0E94CF0200912403109125032D
:1017700020912603309127036C197D098E099F095A
:10178000061717072807390708F078CF8091230339
:101790000E94E90480E01092D4028093D3028CE48A
:1017A00093E00E9401068093F9022BE0829FC00122
:1017B000112460E0835E9D4F0E946A07E091F90268
:1017C000F0E0EE0FFF1FEB5EFD4F61E080810E94B5
:1017D0005D021BE00AE0B0E0CB2EB0E0DB2EC0E5FE
:1017E0003C2E0E945C03882309F477C07FECF72E1F
:1017F000F80E9091FB02E3E0EF1508F4E1C09111BF
:1018000071C09091FA029111AEC0C82F880FDD0B04
:10181000E1971C9FC0011D9F900D112460E0835E25
:101820009D4F0E946A07F092F90281E0809328039D
:1018300030924A031092290310924B0360E08CE42B
:1018400093E00E94480660E08CE493E00E94480622
:101850006091F9028CE493E00E9448060E940A0518
:101860000E94CF024B015C0164E1462E512C612C99
:10187000712C0E94CF02681979098A099B09683E78
:10188000734081059105A8F3F1E04F1A51086108F2
:10189000710828EE820E23E0921EA11CB11C411497
:1018A00051046104710429F755E1A52E52E0B52ECB
:1018B000F12CE12CF5018081F2E0AF0EB11C61E06A
:1018C000CE15DF0509F060E00E945D022FEFE21AFD
:1018D000F20A84E0E816F10469F78091FB0288239C
:1018E00009F441C00E94F4024090F5025090F602C3
:1018F0006090F7027090F8026419750986099709DB
:10190000683E73408105910570F10E94F402609376
:10191000F5027093F6028093F7029093F80280919B
:1019200000029091010201979093010280930002BE
:101930008091F902819FC001112461E0835E9D4F77
:101940000E946A07C0910002D0910102E091F90261
:10195000C0FFEAC0F0E0EE0FFF1FEB5EFD4F61E05D
:1019600080810E945D02C114D10409F43ACF0E9423
:10197000000037CF85EECDCE8091240390912503D2
:10198000A0912603B0912703892B8A2B8B2B09F476
:10199000C6CE0E94CF02009124031091250320910E
:1019A0002603309127036C197D098E099F090617BC
:1019B00017072807390708F0B2CEE8CE81E0BACE83
:1019C000833209F072C08091FA02811186CF9111A1
:1019D00089CF81E08093FA021092010210920002F6
:1019E0008091F902819FC001112461E0835E9D4FC7
:1019F0000E946A07D0E0C0E00E945C038823E1F304
:101A000090ED980F9A3090F54091000250910102AC
:101A1000049F9001059F300D1124082E000C990B96
:101A2000C097820F931F90930102809300028091D0
:101A3000F902819FC001112461E0835E9D4F0E94E5
:101A40006A07C330D10569F481E08093FB020E94EC
:101A5000F4026093F5027093F6028093F70290937C
:101A6000F8022196C430D10539F637CF833271F4AC
:101A700081E08093FB020E94F4026093F502709370
:101A8000F6028093F7029093F80227CF8A32C9F6C4
:101A90001092FA028091F902819FC001112460E046
:101AA000835E9D4F0E946A0718CF8A3209F015CFD6
:101AB0008091FA02882309F410CF992309F453CFB7
:101AC00061E081E792E00E946A07E091F902F0E0AC
:101AD000EE0FFF1FEB5EFD4F60E080810E945D0214
:101AE0000E945C038823E1F30E94F4026093F502F4
:101AF0007093F6028093F7029093F8028091F902B6
:101B0000819FC001112461E0835E9D4F0E946A079E
:101B1000E091F902F0E0EE0FFF1FEB5EFD4F61E098
:101B200080810E945D02D9CEF0E0EE0FFF1FEB5ED8
:101B3000FD4F60E080810E945D02CD2B09F013CF44
:101B400060E088E792E00E946A0761E086E20E9416
:101B50005D0261E087E20E945D0261E088E20E942E
:101B60005D0261E089E20E945D020E945C038823BD
:101B7000E1F360E086E20E945D0260E087E20E949D
:101B80005D0260E088E20E945D0260E089E20E94FE
:101B90005D02E091F902F0E0EE0FFF1FEB5EFD4FFA
:101BA00061E080810E945D021092FB021092FA02B5
:101BB0008091F902819FC001112460E0835E9D4FF6
:101BC0000E946A07D0CEA1E21A2EAA1BBB1BFD0100
:101BD0000DC0AA1FBB1FEE1FFF1FA217B307E4070C
:101BE000F50720F0A21BB30BE40BF50B661F771F64
:101BF000881F991F1A9469F7609570958095909544
:101C00009B01AC01BD01CF010895EE0FFF1F881F9E
:101C10008BBF0790F691E02D1994F894FFCF6400E4
:101C20001A1B1C1617181931323334353637383928
:101C30002A302326002700280029005052452D571E
:101C400041534800000057415348494E47000000A7
:101C50000057415445522D57415348004452594969
:101C60004E4700000000000000000048061B0677F9
:101C700006F10514060106F2050000000064079D48
:101C8000017706A30400000000CB028B025A025029
:101C900041555345440046494E4953484544000088
:020000040003F7
:10E000000D9489F10D94B2F10D94B2F10D94B2F129
:10E010000D94B2F10D94B2F10D94B2F10D94B2F1F0
:10E020000D94B2F10D94B2F10D94B2F10D94B2F1E0
:10E030000D94B2F10D94B2F10D94B2F10D94B2F1D0
:10E040000D94B2F10D94B2F10D94B2F10D94B2F1C0
:10E050000D94B2F10D94B2F10D94B2F10D94B2F1B0
:10E060000D94B2F10D94B2F10D94B2F10D94B2F1A0
:10E070000D94B2F10D94B2F10D94B2F10D94B2F190
:10E080000D94B2F10D94B2F10D94B2F10D94B2F180
:10E090000D94B2F10D94B2F10D94B2F10D94B2F170
:10E0A0000D94B2F10D94B2F10D94B2F10D94B2F160
:10E0B0000D94B2F10D94B2F10D94B2F10D94B2F150
:10E0C0000D94B2F10D94B2F10D94B2F10D94B2F140
:10E0D0000D94B2F10D94B2F10D94B2F10D94B2F130
:10E0E0000D94B2F141546D656761323536300041AF
:10E0F000726475696E6F206578706C6F72657220DE
:10E1000073746B3530305632206279204D4C530099
:10E11000426F6F746C6F616465723E004875683F52
:10E1200000436F6D70696C6564206F6E203D200048
:10E130004350552054797065202020203D20005FF9
:10E140005F4156525F415243485F5F3D2000415658
:10E1500052204C696243205665723D20004743437C
:10E160002056657273696F6E203D20004350552024
:10E1700049442020202020203D20004C6F7720663D
:10E18000757365202020203D20004869676820665F
:10E190007573652020203D200045787420667573D6
:10E1A00065202020203D20004C6F636B2066757336
:10E1B000652020203D20004D617220203720323024
:10E1C000313300312E362E3800342E332E350056A2
:10E1D00023202020414444522020206F7020636F70
:10E1E00064652020202020696E73747275637469E1
:10E1F0006F6E2061646472202020496E74657272B3
:10E20000757074006E6F20766563746F7200726A49
:10E210006D702020006A6D70200057686174207056
:10E220006F72743A00506F7274206E6F7420737541
:10E2300070706F72746564004D7573742062652030
:10E2400061206C6574746572002000577269747483
:10E25000696E672045450052656164696E672045B7
:10E26000450045452065727220636E743D00504F35
:10E27000525400303D5A65726F2061646472003FF1
:10E280003D43505520737461747300403D454550C3
:10E29000524F4D207465737400423D426C696E6B41
:10E2A000204C454400453D44756D70204545505215
:10E2B0004F4D00463D44756D7020464C415348001B
:10E2C000483D48656C70004C3D4C69737420492F83
:10E2D0004F20506F72747300513D51756974005234
:10E2E0003D44756D702052414D00563D73686F7707
:10E2F00020696E7465727275707420566563746FF0
:10E30000727300593D506F727420626C696E6B00BD
:10E310002A0011241FBECFEFD1E2DEBFCDBF01E046
:10E320000CBF12E0A0E0B2E0EEE1FDEF03E00BBFB6
:10E3300002C007900D92A030B107D9F712E0A0E01B
:10E34000B2E001C01D92AE30B107E1F70F9460F367
:10E350000D948DFE01E20EBF0FEF0DBF11241FBE05
:10E360000D9460F30D9400F020E030E040ED57E0B4
:10E3700005C0FA013197F1F72F5F3F4F2817390792
:10E38000C0F308959C01260F311DC901A0E0B0E043
:10E390002F5F3F4FABBFFC018791882361F08093D3
:10E3A000C6008091C00086FFFCCF8091C0008064D1
:10E3B0008093C000EACF08958DE08093C6008091DD
:10E3C000C00086FFFCCF8091C00080648093C000B5
:10E3D0008AE08093C6008091C00086FFFCCF8091C8
:10E3E000C00080648093C00008950F94C2F10F9420
:10E3F000DCF10895FC019081992359F09093C600B7
:10E400008091C00086FFFCCF8091C0008064809323
:10E41000C0003196992379F70895282F982F929567
:10E420009F70892F805D8A3308F0895F8093C600D2
:10E430008091C00086FFFCCF8091C00080648093F3
:10E44000C000822F8F70982F905D9A3308F0995FEB
:10E450009093C6008091C00086FFFCCF8091C000E1
:10E4600080648093C00008959C01FB01853691056E
:10E470001CF46330710594F0C90164E670E00F94F8
:10E480002EFE605D7F4F6093C6008091C00086FFC6
:10E49000FCCF8091C00080648093C0002B30310598
:10E4A00014F43297B4F0C90164E670E00F942EFEC4
:10E4B0006AE070E00F942EFE605D7F4F6093C600AF
:10E4C0008091C00086FFFCCF8091C0008064809363
:10E4D000C000C9016AE070E00F942EFEC0968093E0
:10E4E000C6008091C00086FFFCCF8091C000806490
:10E4F0008093C00008951F93182F8EE692EE60E07F
:10E500000F94C2F11093C6008091C00086FFFCCF2B
:10E510008091C00080648093C0000F94DCF11F9153
:10E5200008952F923F924F925F926F927F928F92B7
:10E530009F92AF92BF92CF92DF92EF92FF920F9392
:10E540001F93DF93CF93CDB7DEB762970FB6F894E2
:10E55000DEBF0FBECDBF382E622ECA01DB015C01CB
:10E560006D01772420E2222E2E010894411C511CBB
:10E570008BC081E0A81680E0B80681E0C80680E084
:10E58000D80628F0C601AA27BB270F940DF2BB2797
:10E59000AD2D9C2D8B2D0F940DF28A2D0F940DF225
:10E5A0002092C6008091C00086FFFCCF8091C00001
:10E5B00080648093C0009DE29093C6008091C0006B
:10E5C00086FFFCCF8091C00080648093C0002092C1
:10E5D000C6008091C00086FFFCCF8091C00080649F
:10E5E0008093C00019828601750188249924A1E0D6
:10E5F0003A1651F03A1620F0B2E03B1661F409C029
:10E600000BBFF701779007C0C7010F9477FE782EF4
:10E6100002C0F7017080872D0F940DF22092C60082
:10E620008091C00086FFFCCF8091C0008064809301
:10E63000C000872D8052F401EF70F0708F3520F408
:10E64000E40DF51D708204C0E40DF51D8EE280839B
:10E650000894E11CF11C011D111D0894811C911CE2
:10E6600090E18916910409F0C2CF80E190E0A0E02A
:10E67000B0E0A80EB91ECA1EDB1E198AC2010F9493
:10E68000FAF10F94DCF16A94662009F072CF629679
:10E690000FB6F894DEBF0FBECDBFCF91DF911F91B3
:10E6A0000F91FF90EF90DF90CF90BF90AF909F9031
:10E6B0008F907F906F905F904F903F902F90089534
:10E6C0002F923F924F925F926F927F928F929F9282
:10E6D000AF92BF92CF92DF92EF92FF920F931F9370
:10E6E000DF93CF93CDB7DEB7CD53D1400FB6F894BB
:10E6F000DEBF0FBECDBF01E20EBF0FEF0DBF94B75F
:10E70000F894A89514BE80916000886180936000A1
:10E7100010926000789493FF05C0E0910002F091A0
:10E7200001021995279A2F9A8091C00082608093E8
:10E73000C00080E18093C40088E18093C1000000A4
:10E74000EE24FF24870144E0A42EB12CCC24DD2448
:10E7500024C0C5010197F1F70894E11CF11C011DCB
:10E76000111D21E2E2162EE4F20620E0020720E06D
:10E77000120718F031E0C32ED12CC801B70127ECE5
:10E780003BE140E050E00F9441FE611571058105C9
:10E79000910519F485B1805885B98091C00087FD35
:10E7A00003C0C114D104A9F2A6014F5F5F4FC25E3E
:10E7B000DE4F59834883CE51D140C25EDE4F8881FF
:10E7C0009981CE51D140019711F00D9410FEC05D9A
:10E7D000DE4F19821882C053D14060E0C15DDE4F28
:10E7E0001882CF52D14088249924C35DDE4F19820C
:10E7F0001882CD52D140C05EDE4F188219821A8233
:10E800001B82C052D140CE5CDE4F188219821A8220
:10E810001B82C253D140EE24FF2487010BBFF701B6
:10E8200007911691C45CDE4F19830883CC53D14005
:10E830000D940BFEC25EDE4F28813981CE51D1404E
:10E840002130310509F52091C600C25EDE4F1982E4
:10E850001882CE51D14022C02F5F3F4F4F4F5F4FA4
:10E86000213082E138078AE7480780E0580780F0C6
:10E87000C45CDE4FE881F981CC53D140EF5FFF4F9C
:10E8800019F0EE27FF27099420E030E040E050E047
:10E890008091C00087FFE0CF2091C600C35DDE4FAE
:10E8A00048815981CD52D1404F5F5F4FC35DDE4FEC
:10E8B00059834883CD52D140213209F063C64A3092
:10E8C000510508F05FC60894811C911C53E0851621
:10E8D000910409F059C600E010E018C081E280936D
:10E8E000C6008091C00086FFFCCF8091C00080648C
:10E8F0008093C0002F5F3F4F2931310579F70F9486
:10E90000DCF10F5F1F4F0530110519F020E030E0FA
:10E91000E5CF10920A0210920B0210920C02109294
:10E920000D02109206021092070210920802109235
:10E930000902109202021092030210920402109235
:10E9400005028FEE90EE60E00F94F5F180E191EE1C
:10E9500060E00F94C2F18091C00087FFFCCF9091DE
:10E96000C600903608F09F759032B8F09093C600BC
:10E970008091C00086FFFCCF8091C00080648093AE
:10E98000C000A0E2A093C6008091C00086FFFCCF2B
:10E990008091C00080648093C000983409F4D7C18E
:10E9A0009934B8F4923409F459C1933458F490333B
:10E9B00019F1903308F4E3C59F33A1F1903409F0C5
:10E9C000DEC5BDC0953409F470C1963409F0D7C5D1
:10E9D00098C1923509F42BC2933538F49C3409F46C
:10E9E000F5C1913509F0CBC518C2963509F445C279
:10E9F000993509F0C4C567C483E792EE62E00F94CD
:10EA0000F5F110920602109207021092080210927D
:10EA1000090210920A0210920B0210920C0210923C
:10EA20000D0213C18FE792EE62E00F94F5F18FEEC5
:10EA300090EE60E00F94F5F181E291EE60E00F94CA
:10EA4000C2F187EB91EE60E00F94F5F180E391EE77
:10EA500060E00F94C2F184EE90EE60E00F94F5F167
:10EA60008FE391EE60E00F94C2F186E090E061E008
:10EA700070E00F9434F20F94DCF18DE591EE60E0DC
:10EA80000F94C2F189EC91EE60E00F94F5F18EE401
:10EA900091EE60E00F94C2F183EC91EE60E00F9490
:10EAA000F5F18CE691EE60E00F94C2F18EE10F94E7
:10EAB0000DF288E90F940DF281E00F940DF20F949E
:10EAC000DCF18BE791EE60E00F94C2F119E0E0E039
:10EAD000F0E010935700E4918E2F0F940DF20F94F5
:10EAE000DCF18AE891EE60E00F94C2F1E3E0F0E03F
:10EAF00010935700E4918E2F0F940DF20F94DCF1D8
:10EB000089E991EE60E00F94C2F1E2E0F0E0109349
:10EB10005700E4918E2F0F940DF20F94DCF188EAE8
:10EB200091EE60E00F94C2F1E1E0F0E01093570045
:10EB30001491812F0F940DF20F94DCF107CF8BE825
:10EB400092EE62E00F94F5F18BE492EE60E00F94A8
:10EB5000F5F10F94DCF100E010E019C0C8016F2D51
:10EB60000F947FFEFF2031F489E492EE60E00F9471
:10EB7000C2F10BC0F092C6008091C00086FFFCCFAE
:10EB80008091C00080648093C0000F5F1F4FC80158
:10EB900081519F41A0E0B0E0ABBFFC01F790BAE229
:10EBA000FB1621F0E2E000301E07C1F60F94DCF105
:10EBB0000F94DCF187E592EE60E00F94F5F10F948D
:10EBC000DCF1CC24DD2400E010E01EC0C8010F946D
:10EBD00077FEF82E882331F489E492EE60E00F94FA
:10EBE000C2F10BC08093C6008091C00086FFFCCFAD
:10EBF0008091C00080648093C000FE1419F00894D6
:10EC0000C11CD11C0F5F1F4FC80181519F41A0E063
:10EC1000B0E0ABBFFC01E790FAE2EF1621F022E092
:10EC20000030120799F60F94DCF10F94DCF182E6C4
:10EC300092EE60E00F94C2F1C60161E070E00F94C3
:10EC400034F20F94DCF10F94DCF110920202109276
:10EC50000302109204021092050278CE89E992EE26
:10EC600062E00F94F5F1279A2F9A16C02F9880E052
:10EC700090E0E0EDF7E03197F1F7019684369105E9
:10EC8000C1F72F9A80E090E0E0EDF7E03197F1F7DF
:10EC9000019684369105C1F78091C00087FFE6CFC9
:10ECA0008091C00087FFFCCF64C485EA92EE62E0E9
:10ECB0000F94F5F140910202509103026091040219
:10ECC0007091050281E020E10F9491F2809102029F
:10ECD00090910302A0910402B091050280509F4FD1
:10ECE000AF4FBF4F8093020290930302A0930402A0
:10ECF000B093050280509041A040B04008F426CE69
:10ED0000A4CF83EB92EE62E00F94F5F140910602FE
:10ED100050910702609108027091090280E020E1A1
:10ED20000F9491F28091060290910702A09108023F
:10ED3000B091090280509F4FAF4FBF4F80930602A2
:10ED400090930702A0930802B0930902FFCD80ECD4
:10ED500092EE62E00F94F5F183E792EE60E00F949B
:10ED6000F5F18FE792EE60E00F94F5F18BE892EE0B
:10ED700060E00F94F5F189E992EE60E00F94F5F10F
:10ED800085EA92EE60E00F94F5F183EB92EE60E09D
:10ED90000F94F5F180EC92EE60E00F94F5F187ECC2
:10EDA00092EE60E00F94F5F188ED92EE60E00F9442
:10EDB000F5F18FED92EE60E00F94F5F18AEE92EEB0
:10EDC00060E00F94F5F183E093EEBDCD87EC92EE19
:10EDD00062E00F94F5F181E40F947BF282E40F94EA
:10EDE0007BF283E40F947BF284E40F947BF285E45E
:10EDF0000F947BF286E40F947BF287E40F947BF20E
:10EE000088E40F947BF28AE40F947BF28BE40F94F6
:10EE10007BF28CE40F947BF299CD88ED92EE62E068
:10EE20000F94F5F1772473948824992409C48FED05
:10EE300092EE62E00F94F5F140910A0250910B02BC
:10EE400060910C0270910D0282E020E10F9491F22A
:10EE500080910A0290910B02A0910C02B0910D02D8
:10EE600080509F4FAF4FBF4F80930A0290930B0289
:10EE7000A0930C02B0930D0269CD8AEE92EE62E08F
:10EE80000F94F5F184EE90EE60E00F94F5F18FECC5
:10EE900091EE60E00F94F5F1662477244301CC5D98
:10EEA000DE4F19821882C452D140D401C301B695F5
:10EEB000A79597958795CA5DDE4F88839983AA8326
:10EEC000BB83C652D140CC5DDE4FA881B981C4520C
:10EED000D1401196CC5DDE4FB983A883C452D14096
:10EEE000CD0162E070E00F9434F2B0E2B093C6005E
:10EEF0008091C00086FFFCCF8091C0008064809329
:10EF0000C000EDE2E093C6008091C00086FFFCCF18
:10EF10008091C00080648093C000F0E2F093C6004E
:10EF20008091C00086FFFCCF8091C00080648093F8
:10EF3000C000CA5DDE4FE880F9800A811B81C6529D
:10EF4000D140BB27A12F902F8F2D0F940DF2CA5DBA
:10EF5000DE4F8881C652D1400F940DF2B0E2FB2EF5
:10EF6000F092C6008091C00086FFFCCF8091C00067
:10EF700080648093C0000DE30093C6008091C000C0
:10EF800086FFFCCF8091C00080648093C00010E2B7
:10EF90001093C6008091C00086FFFCCF8091C00016
:10EFA00080648093C0008BBEF3012791C65DDE4F65
:10EFB0002883CA52D140A22EBB24CC24DD2408943D
:10EFC000611C711C811C911C8BBEF3018791282E42
:10EFD0003324442455240894611C711C811C911C09
:10EFE0008BBEF3013791C55DDE4F3883CB52D140E4
:10EFF0000894611C711C811C911C8BBEF30147910C
:10F00000C45DDE4F4883CC52D140ADEFEA2EAFEF66
:10F01000FA2EAFEF0A2FAFEF1A2F6E0C7F1C801E57
:10F02000911E142D032DF22CEE24EA0CFB1C0C1D5A
:10F030001D1D0F940DF220E22093C6008091C000A8
:10F0400086FFFCCF8091C00080648093C000C65DC5
:10F05000DE4F8881CA52D1400F940DF230E23093D6
:10F06000C6008091C00086FFFCCF8091C000806404
:10F070008093C000C45DDE4F8881CC52D1400F9494
:10F080000DF240E24093C6008091C00086FFFCCFA5
:10F090008091C00080648093C000C55DDE4F888190
:10F0A000CB52D1400F940DF250E25093C6008091A4
:10F0B000C00086FFFCCF8091C00080648093C000B8
:10F0C0008FEFE8168FEFF80680E0080780E018075A
:10F0D00031F484E092EE60E00F94C2F1DFC0D80119
:10F0E000C7018070907CA070B0708050904CA040A0
:10F0F000B040D1F52FEF3FE340E050E0E222F322B1
:10F1000004231523CA5DDE4FA880B980CA80DB8046
:10F11000C652D140AE0CBF1CC01ED11EAA0CBB1CD7
:10F12000CC1CDD1C8EE092EE60E00F94C2F1BB2798
:10F13000A12F902F8F2D0F940DF28E2D0F940DF285
:10F1400030E23093C6008091C00086FFFCCF8091F2
:10F15000C00080648093C0004EE34093C60080915D
:10F16000C00086FFFCCF87C08EE09EEFA0E0B0E03D
:10F17000E822F9220A231B239CE0E91694E9F90608
:10F1800090E0090790E0190709F088C0C45DDE4FE0
:10F19000A881CC52D140EA2EFF2400E010E0102FCD
:10F1A0000F2DFE2CEE24C55DDE4FB881CB52D14031
:10F1B000EB0EF11C011D111DD601C501817090706F
:10F1C000A070B070DC0199278827E80EF91E0A1F8D
:10F1D0001B1F20EF30E040E050E0A222B322C42207
:10F1E000D52241E1AA0CBB1CCC1CDD1C4A95D1F7F1
:10F1F000EA0CFB1C0C1D1D1D81E090E0A0E0B0E0BE
:10F20000282239224A225B2235E1220C331C441C7D
:10F21000551C3A95D1F7E20CF31C041D151D57013E
:10F220006801AA0CBB1CCC1CDD1C85E192EE60E0E1
:10F230000F94C2F1C801AA27BB270F940DF2BB2778
:10F24000A12F902F8F2D0F940DF28E2D0F940DF274
:10F2500090E29093C6008091C00086FFFCCF809121
:10F26000C00080648093C000AEE3A093C60080918C
:10F27000C00086FFFCCF8091C00080648093C000F6
:10F28000C601AA27BB270F940DF2BB27AD2D9C2DDD
:10F290008B2D0F940DF28A2D0F940DF20F94DCF14B
:10F2A000CC5DDE4FE881F981C452D140F99709F471
:10F2B0004DCBF4E0EF2EF12C012D112D6E0C7F1CA7
:10F2C000801E911EF2CD83E093EE62E00F94F5F183
:10F2D0008AE192EE60E00F94C2F18091C00087FF56
:10F2E000FCCF1091C6001F751093C6008091C0001E
:10F2F00086FFFCCF8091C00080648093C0000F9493
:10F30000DCF1812F81548A3108F036C1163409F4BA
:10F3100095C0173490F4133409F44EC0143430F40B
:10F320001134F1F0123409F01DC130C0143409F465
:10F3300059C0153409F016C16BC01A3409F4C4C0A1
:10F340001B3438F4173409F48FC0183409F00AC19B
:10F35000A1C01B3409F4D2C01C3409F003C1E8C0B9
:10F360008FEF81B90DC082B1809582B980E090E0C5
:10F37000E0EDF7E03197F1F70196883C9105C1F790
:10F380008091C00087FFEFCF12B8EFC08FEF84B934
:10F390000DC085B1809585B980E090E0E0EDF7E0A3
:10F3A0003197F1F70196883C9105C1F78091C00033
:10F3B00087FFEFCF15B8D9C08FEF87B90DC088B1DF
:10F3C000809588B980E090E0E0EDF7E03197F1F7C3
:10F3D0000196883C9105C1F78091C00087FFEFCF6F
:10F3E00018B8C3C08FEF8AB90DC08BB180958BB9A7
:10F3F00080E090E0E0EDF7E03197F1F70196883C8E
:10F400009105C1F78091C00087FFEFCF1BB8ADC059
:10F410008FEF8DB90DC08EB180958EB980E090E0F0
:10F42000E0EDF7E03197F1F70196883C9105C1F7DF
:10F430008091C00087FFEFCF1EB897C08FEF80BBD1
:10F440000DC081B3809581BB80E090E0E0EDF7E0F6
:10F450003197F1F70196883C9105C1F78091C00082
:10F4600087FFEFCF11BA81C08FEF83BB0DC084B38C
:10F47000809584BB80E090E0E0EDF7E03197F1F714
:10F480000196883C9105C1F78091C00087FFEFCFBE
:10F4900014BA6BC08FEF809301010FC080910201FD
:10F4A00080958093020180E090E0E0EDF7E03197F5
:10F4B000F1F70196883C9105C1F78091C00087FF64
:10F4C000EDCF1092020151C08FEF809304010FC065
:10F4D0008091050180958093050180E090E0E0ED4A
:10F4E000F7E03197F1F70196883C9105C1F78091DB
:10F4F000C00087FFEDCF1092050137C08FEF8093DA
:10F5000007010FC08091080180958093080180E079
:10F5100090E0E0EDF7E03197F1F70196883C910536
:10F52000C1F78091C00087FFEDCF109208011DC088
:10F530008FEF80930A010FC080910B01809580931B
:10F540000B0180E090E0E0EDF7E03197F1F70196F4
:10F55000883C9105C1F78091C00087FFEDCF1092E4
:10F560000B0103C085E292EEEEC98091C00087FFD7
:10F57000FCCF8091C600EAC988E392EEE4C98CE131
:10F5800091EEE1C988249924933011F1943028F444
:10F59000913089F09230B8F408C0953061F195301F
:10F5A000F0F0963009F048C043C02B3109F042C951
:10F5B00091E06BE13FC96227C15DDE4F2883CF52E6
:10F5C000D14092E037C9B22FA0E0622793E032C960
:10F5D000822F90E0A82BB92B622794E02BC92E3004
:10F5E00009F039C3622795E0C05DDE4F19821882A9
:10F5F000C053D1401FC9E1E0F0E0EC0FFD1FC05D3A
:10F60000DE4F08811981C053D140E00FF11F2083E4
:10F610000F5F1F4FC05DDE4F19830883C053D14079
:10F6200062270A171B0709F005C9D80196E002C92D
:10F63000261709F010C303C0973009F0FBC87724E0
:10F640009981933109F412C19431C8F4963009F4C8
:10F65000D8C0973050F4923009F406C1933009F4C1
:10F660006DC0913009F059C253C0913109F477C08F
:10F67000923108F0BBC0903109F04FC2F5C098310B
:10F6800009F487C0993150F4953109F4EFC09531F0
:10F6900008F4C6C1963109F040C2C2C19A3109F4DA
:10F6A0006CC09A3108F491C09B3109F45BC09D3164
:10F6B00009F033C29D81903359F48F81882311F46E
:10F6C0009EE11CC0813011F091E018C098E916C08D
:10F6D000892F807591F0903539F4E0E0F0E089E011
:10F6E0008093570094910AC0983539F4E3E0F0E034
:10F6F00089E080935700949101C090E01A821B82A8
:10F700008D818C831D829E831F8227E030E009C299
:10F710001A8288E08B8381E48C8386E58D8382E581
:10F720008E8389E48F8383E5888780E589878FE5E9
:10F730008A8782E38B872BE030E0F3C18A818139AD
:10F7400041F0823941F0803911F48FE005C080E04A
:10F7500003C082E001C08AE01A828B8344C0772410
:10F76000739482C08D81882311F48EE12CC0813086
:10F7700011F081E028C088E926C01A82E1E0F0E0BB
:10F7800089E08093570084918B831C8224E030E0D1
:10F79000C8C18B81803589F48C81883039F4E2E0EE
:10F7A000F0E089E08093570084910DC0E0E0F0E044
:10F7B00089E080935700849106C0E3E0F0E089E09F
:10F7C0008093570084911A82DFCF8D81836C99E0FA
:10F7D000E1E0F0E0082E90935700E89507B600FCB2
:10F7E000FDCF1A821B8223E030E09BC180EC8A832C
:10F7F000CE5CDE4F188219821A821B82C253D1401E
:10F800008EC18A8190E0A0E0B0E0582F44273327D2
:10F8100022278B8190E0A0E0B0E0DC0199278827C7
:10F82000282B392B4A2B5B2B8D8190E0A0E0B0E098
:10F83000282B392B4A2B5B2B8C8190E0A0E0B0E089
:10F84000BA2FA92F982F8827282B392B4A2B5B2BCF
:10F85000220F331F441F551FC05EDE4F288339839C
:10F860004A835B83C052D1401A8259C13A81C95C34
:10F87000DE4F3883C753D140CA5CDE4F1882C6536F
:10F88000D1408B81C82EDD24CA5CDE4F488159816E
:10F89000C653D140C42AD52A933109F082C0CE5C28
:10F8A000DE4F88819981AA81BB81C253D1408050AB
:10F8B000904CA340B04030F583E0CE5CDE4FE88052
:10F8C000F9800A811B81C253D140F70100935B008C
:10F8D00080935700E89507B600FCFDCFCE5CDE4F65
:10F8E000088119812A813B81C253D14000501F4FAA
:10F8F0002F4F3F4FCE5CDE4F088319832A833B8313
:10F90000C253D140C05EDE4F488159816A817B81FC
:10F91000C052D140DE011B9631E08C9111962C91A2
:10F9200011971296C75CDE4F2883C953D140C85C3B
:10F93000DE4F1882C853D14090E0C85CDE4FE881AA
:10F94000F981C853D1408E2B9F2B0C01FA01609393
:10F950005B0030935700E89511244E5F5F4F6F4F67
:10F960007F4F0EEFE02E0FEFF02ECE0CDF1CC114F8
:10F97000D10499F685E0C05EDE4F088119812A81A5
:10F980003B81C052D140F80120935B008093570027
:10F99000E89507B600FCFDCF81E180935700E8951C
:10F9A00035C0C05EDE4F88819981AA81BB81C0527B
:10F9B000D140B695A795979587957C018601ABE0D8
:10F9C000AA2EB12CAC0EBD1E0BC0D5016D915D01F0
:10F9D000C7010F947FFE0894E11CF11C01501040F8
:10F9E0000115110591F7A60160E070E0440F551F65
:10F9F000661F771FC05EDE4FE880F9800A811B8199
:10FA0000C052D1404E0D5F1D601F711F1A82C05E33
:10FA1000DE4F488359836A837B83C052D1407FC0C5
:10FA2000FA80C55CDE4FF882CB53D140C65CDE4F16
:10FA30001882CA53D1408B81C82EDD24C65CDE4FAC
:10FA400008811981CA53D140C02AD12A1A828981DA
:10FA5000BE016D5F7F4F843121F59601C05EDE4FA0
:10FA6000E880F9800A811B81C052D1400BBFF701A9
:10FA700087919691DB018C9311969C936E5F7F4FDB
:10FA8000D801C7010296A11DB11DC05EDE4F88835B
:10FA90009983AA83BB83C052D14022503040F1F6F3
:10FAA00036C0C05EDE4F288139814A815B81C052F9
:10FAB000D1400894C108D108760100E010E0089414
:10FAC000C11CD11C0894E11CF11C011D111DE20E8A
:10FAD000F31E041F151F21BDBB27A52F942F832FB5
:10FAE00082BD2F5F3F4F4F4F5F4FF89A80B5DB01CC
:10FAF0008D93BD012E153F054007510761F7C05E8C
:10FB0000DE4F288339834A835B83C052D1409601FC
:10FB10002D5F3F4FFB01108204C080EC8A8322E0FE
:10FB200030E08BE18093C6008091C00086FFFCCF5F
:10FB30008091C00080648093C000C15DDE4FF88179
:10FB4000CF52D140F093C6008091C00086FFFCCF19
:10FB50008091C00080648093C000432F3093C60022
:10FB60008091C00086FFFCCF8091C00080648093AC
:10FB7000C000922F2093C6008091C00086FFFCCF6A
:10FB80008091C00080648093C0008EE08093C600A6
:10FB90008091C00086FFFCCF8091C000806480937C
:10FBA000C00065E1C15DDE4FE880CF52D1406E25D7
:10FBB00069276427FE01319610C090819093C6009A
:10FBC0008091C00086FFFCCF31968091C000806498
:10FBD0008093C0006927215030402115310569F715
:10FBE0006093C6008091C00086FFFCCF8091C0006A
:10FBF00080648093C00085B1805885B9772081F4F6
:10FC0000C15DDE4F0881CF52D1400F5FC15DDE4F35
:10FC10000883CF52D14090E0A0E0B0E00D941AF4F8
:10FC200027982F9880E090E020ED37E0F901319798
:10FC3000F1F7019684369105C9F700008091C00064
:10FC40008D7F8093C00081E180935700E895EE2777
:10FC5000FF270994FFCF90E00D941AF497FB092E2B
:10FC600007260AD077FD04D02ED006D000201AF443
:10FC7000709561957F4F0895F6F7909581959F4F08
:10FC80000895A1E21A2EAA1BBB1BFD010DC0AA1FDD
:10FC9000BB1FEE1FFF1FA217B307E407F50720F0F5
:10FCA000A21BB30BE40BF50B661F771F881F991F70
:10FCB0001A9469F760957095809590959B01AC01B9
:10FCC000BD01CF010895AA1BBB1B51E107C0AA1FAC
:10FCD000BB1FA617B70710F0A61BB70B881F991FED
:10FCE0005A95A9F780959095BC01CD010895F99991
:10FCF000FECF92BD81BDF89A992780B50895262F31
:10FD0000F999FECF1FBA92BD81BD20BD0FB6F89400
:0EFD1000FA9AF99A0FBE01960895F894FFCF63
:00000001FF
