:100000000C942E010C945F010C945F010C945F0121
:100010000C945F010C945F010C945F010C945F01E0
:100020000C945F010C945F010C945F010C945F01D0
:100030000C945F010C94A1060C945F010C945F0179
:100040000C945F010C945F010C945F010C945F01B0
:100050000C945F010C945F010C945F010C944007B9
:100060000C945F010C945F010C945F010C945F0190
:100070000C945F010C945F010C945F010C945F0180
:100080000C945F010C945F010C945F010C945F0170
:100090000C945F010C945F010C945F010C945F0160
:1000A0000C945F010C945F010C945F010C945F0150
:1000B0000C945F010C945F010C945F010C945F0140
:1000C0000C945F010C945F010C945F010C945F0130
:1000D0000C945F010C945F010C945F010C945F0120
:1000E0000C945F010C9463020C9468020C943A0225
:1000F0000C94CB020C943D020C9469020C94380AC7
:100100000C942E020C9455020C9451020C949A02F9
:100110000C944D020C9445060C9436020C945F022C
:100120000C9447020C945B020C9443020C9428023A
:100130000C9432020C946D02000021002400270070
:100140002A002D00300033000101000004010701E6
:100150000A01000020002300260029002C002F00A7
:1001600032000001000003010601090100000A0B32
:1001700002090C0D0E080703040100000000000036
:10018000000000000000000000000000000000006F
:10019000000000000000000012111000000000002C
:1001A000000000000000000000000000000000004F
:1001B000000001021020200808102040102040807C
:1001C000020102010804020101020408102040801B
:1001D00080402010080402018004020180402010A9
:1001E00008040201080402010102040810204080F2
:1001F0000102040810204080000022002500280091
:100200002B002E003100340002010000050108011E
:100210000B0105050505070508080808020202028A
:100220000A0A080804040404010101010101010192
:100230000303030303030303040707070C0C0C0C5D
:100240000C0C0C0C02020202060606060606060646
:100250000B0B0B0B0B0B0B0B0200380A11241FBEF0
:10026000CFEFD1E2DEBFCDBF00E00CBF14E0A0E0D5
:10027000B2E0E2E8F8E100E00BBF02C007900D92A7
:10028000AE39B107D9F725E0AEE9B4E001C01D925F
:10029000A833B207E1F711E0CEE2D1E000E006C0FA
:1002A00021970109802FFE010E94090CCD32D10750
:1002B00080E00807A9F70E948A070C943F0C0C9471
:1002C000000080917B00877F80937B0080E4809397
:1002D0007C0080917A00806480937A0080917A001B
:1002E00086FDFCCF8091780090917900089596E08A
:1002F000899FD0011124A755BB4F90967C936E9394
:100300005F9791E091969C939197E0911605F091FB
:10031000170590911505992339F0309751F0811107
:1003200008C08091C5041994309719F05C968C919F
:10033000FACF0895CF92DF92EF92FF920F931F931F
:1003400096E0899FF0011124E755FB4F11A2278DFC
:1003500030A12130310551F178F02230310509F416
:1003600051C02330310509F452C01F910F91FF9005
:10037000EF90DF90CF9008956623B9F361E070E0CD
:100380000E9477012FB7F8948091A5049091A6045C
:10039000A091A704B091A8042FBF8093010590936A
:1003A0000205A0930305B0930405DFCF9FB7F8942F
:1003B000C090A504D090A604E090A704F090A804F3
:1003C0009FBF009101051091020520910305309116
:1003D0000405C01AD10AE20AF30A0091130510912C
:1003E000140530E020E00C151D052E053F0550F4E6
:1003F00062E070E01F910F91FF90EF90DF90CF903F
:100400000C9477016111B1CF63E070E0F3CF70E03D
:1004100060E0F0CF8150823108F05AC0E82FF0E060
:100420008827EA5EFD4F8F4F0C94090C36023A0282
:1004300028022E02320268023D02430247024D02A8
:10044000510255025B025F026802630269026D029B
:10045000809180008F778093800008958091800044
:100460008F7DF9CF80918000877FF5CF84B58F771E
:1004700084BD089584B58F7DFBCF8091B0008F77C8
:100480008093B00008958091B0008F7DF9CF809166
:1004900090008F77809390000895809190008F7DD9
:1004A000F9CF80919000877FF5CF8091A0008F7762
:1004B0008093A00008958091A0008F7DF9CF809156
:1004C000A000877FF5CF809120018F778093200156
:1004D0000895809120018F7DF9CF80912001877F41
:1004E000F5CFCF93DF93282F30E0F901E459FE4F89
:1004F0008491F901EE54FE4FD491F901EE5EFD4F67
:10050000C491CC23A1F081110E940A02EC2FF0E0EB
:10051000EE0FFF1FEE5AFE4FA591B491EC91ED2323
:1005200081E090E009F480E0DF91CF91089580E0D0
:1005300090E0FACF862F0C9471021F93CF93DF9334
:10054000282F30E0F901E459FE4F8491F901EE546F
:10055000FE4FD491F901EE5EFD4FC491CC23A9F07A
:10056000162F81110E940A02EC2FF0E0EE0FFF1F00
:10057000E850FE4FA591B4918FB7F894EC9111110A
:1005800008C0D095DE23DC938FBFDF91CF911F9100
:100590000895DE2BF8CF862F642F0C949D02CF9305
:1005A000DF9390E0FC01EE54FE4F24918E5E9D4F50
:1005B000FC0184918823C9F090E0880F991FFC0109
:1005C000E85CFE4FA591B491FC01E850FE4FC59147
:1005D000D49161110DC09FB7F8948C91209582231E
:1005E0008C938881282328839FBFDF91CF91089522
:1005F000623051F49FB7F8943C91822F8095832309
:100600008C93E8812E2BEFCF8FB7F894EC912E2BA3
:100610002C938FBFEACF4F925F926F927F928F920F
:100620009F92AF92BF92CF92DF92EF92FF920F9381
:100630001F93CF93DF9300D01F921F92CDB7DEB7E9
:100640008C012A013B01809118028830C9F08F3F4C
:1006500009F492C00F900F900F900F900F90DF91C0
:10066000CF911F910F91FF90EF90DF90CF90BF90AF
:10067000AF909F908F907F906F905F904F90089574
:10068000E8E5F2E084918D8387FDE4CF61E088E0C6
:100690000E94CF029D81992321F08D81823009F043
:1006A000D2C14801B12CA12C60E072E18AE790E050
:1006B000A50198010E94EA0B29833A834B835C834E
:1006C00069017A0191E0C91AD108E108F1088FEFB8
:1006D000C816D104E104F10409F00CF483C160E40C
:1006E00072E48FE090E0A50198010E94EA0B690195
:1006F0007A0191E0C91AD108E108F1088D818230B0
:1007000009F011C182E09FEFC916D104E104F104A0
:1007100009F00CF460C160E970ED83E090E0A501A0
:1007200098010E94EA0B69017A0181E0C81AD10898
:10073000E108F10883E09FEFC916D104E104F10458
:1007400009F00CF448C168E478EE81E090E0A5017E
:1007500098010E94EA0B69017A0191E0C91AD10857
:10076000E108F1088FEFC816D104E104F10411F09B
:100770000CF019C184E02FC188E080931802E8E5ED
:10078000F2E094919D83892F9F3F09F463CF9230CB
:1007900009F469C060F4992381F1913009F445C0EE
:1007A00087FD58CF61E088E00E94CF0276CF9D811F
:1007B000943009F49AC008F478C0953089F7109203
:1007C00020011092210180912101886080932101F4
:1007D00080912101816080932101EAE1F2E0E491BE
:1007E000F0E0EE0FFF1FE850FE4F85919491EAEB89
:1007F000F1E0E491E093180549CF14BC15BC84B531
:10080000826084BD85B5816085BDEAE1F2E0E49156
:10081000F0E0EE0FFF1FE850FE4F85919491EAEB58
:10082000F1E0E491E0931F0531CF10928000109227
:100830008100809181008860809381008091810097
:10084000816080938100EAE1F2E0E491F0E0EE0F54
:10085000FF1FE850FE4F85919491EAEBF1E0E4919F
:10086000E0931E0513CF1092B0001092B10080915A
:10087000B00082608093B0008091B100816080936D
:10088000B100EAE1F2E0E491F0E0EE0FFF1FE85082
:10089000FE4F8591949190931D0580931C05EAEB82
:1008A000F1E0E491E0931B05F1CE109290001092DC
:1008B00091008091910088608093910080919100D7
:1008C000816080939100EAE1F2E0E491F0E0EE0FC4
:1008D000FF1FE850FE4F85919491EAEBF1E0E4911F
:1008E000E0931A0583E08D83D1CE1092A000109280
:1008F000A1008091A10088608093A1008091A10057
:1009000081608093A100EAE1F2E0E491F0E0EE0F73
:10091000FF1FE850FE4F85919491EAEBF1E0E491DE
:10092000E0931905B3CE8FEFC816D104E104F104AA
:1009300009F00CF486C068E478EE81E090E0A5014F
:1009400098010E94EA0B69017A0191E0C91AD10865
:10095000E108F1088D81882309F48DC18FEFC81655
:10096000D104E104F10409F00CF404CF62E17AE768
:1009700080E090E0A50194010E94EA0B69017A01F0
:1009800091E0C91AD108E108F1088D81882309F4A2
:1009900047C18FEFC816D104E104F10411F008F04B
:1009A00048C186E018C064E274EF80E090E0A501E1
:1009B00094010E94EA0B69017A0191E0C91AD108F9
:1009C000E108F1088FEFC816D104E104F10411F039
:1009D00008F041C185E09091B100987F892B809308
:1009E000B10008C081E09D819111F5CF95B5987F48
:1009F000892B85BD2FEF3FEFA901411451046104FC
:100A0000710409F049C09D81923009F4E7C00CF0EF
:100A1000CEC0992309F4D3C0913009F01BCED092F7
:100A20008900C092880020933005309331054093AF
:100A300032055093330580916F00826080936F0080
:100A400009CE82E0D0CFB12CA12C60E072E18AE720
:100A500090E0A50198010E94EA0B69017A0181E00A
:100A6000C81AD108E108F108C114D10491E0E906DF
:100A7000F10404F591E08D81813069F58091810068
:100A8000887F892B809381002FEF3FEFA9014114CC
:100A900051046104710419F2D801AA0FBB1FA3010C
:100AA00092010E94110C28EE33E040E050E00E94D9
:100AB000C80BA9CF68E478EE81E090E0A501980129
:100AC0000E94EA0B69017A0181E0C81AD108E108A5
:100AD000F10893E0D0CF8D81833001F580919100B2
:100AE000887F892B809391002FEF3FEFA90141145C
:100AF00051046104710481F6D0929900C09298006B
:100B0000209328053093290540932A0550932B05FF
:100B1000809171008260809371009CCD8D818430C2
:100B200009F58091A100887F892B8093A1002FEF88
:100B30003FEFA901411451046104710409F0ACCFE5
:100B4000D092A900C092A8002093240530932505D7
:100B50004093260550932705809172008260809310
:100B6000720078CD8D81853009F044CF80912101CC
:100B7000887F892B809321012FEF3FEFA90141143A
:100B800051046104710409F087CFD0922901C09209
:100B9000280120932005309321054093220550938E
:100BA00023058091730082608093730053CD8D8103
:100BB000843031F20CF4A0CF853039F34BCDC7BC73
:100BC000209334053093350540933605509337050F
:100BD00080916E00826080936E003CCDC092B30025
:100BE00020932C0530932D0540932E0550932F050F
:100BF000809170008260809370002CCDC980DA8073
:100C0000EB80FC809AE0F594E794D794C7949A958A
:100C1000D1F791E0C91AD108E108F10885E0E6CEE4
:100C20008FEFC816D104E104F10409F038F784E02D
:100C3000DDCEC980DA80EB80FC808AE0F594E79411
:100C4000D794C7948A95D1F791E0C91AD108E108E1
:100C5000F10887E0C0CE62E17AE780E090E0A5018C
:100C600094010E94EA0B69017A0191E0C91AD10846
:100C7000E108F1088ECE83E09FEFC916D104E104AC
:100C8000F10411F00CF072CEB1CE862F642F0C94CB
:100C9000CF023FB7F89480919F049091A004A09157
:100CA000A104B091A20426B5A89B05C02F3F19F05E
:100CB0000196A11DB11D3FBFBA2FA92F982F8827DC
:100CC000BC01CD01620F711D811D911D42E0660FB7
:100CD000771F881F991F4A95D1F708958F929F9289
:100CE000AF92BF92CF92DF92EF92FF926B017C01A5
:100CF0000E9449064B015C01C114D104E104F104D6
:100D0000B9F00E944906681979098A099B09683E69
:100D100073408105910580F321E0C21AD108E108F2
:100D2000F10888EE880E83E0981EA11CB11CE4CF68
:100D3000FF90EF90DF90CF90BF90AF909F908F90FB
:100D400008951F920F920FB60F9211240BB60F92B7
:100D50002F933F934F935F936F937F938F939F93C3
:100D6000AF93BF93EF93FF9380912C0590912D0546
:100D7000A0912E05B0912F05892B8A2B8B2BE1F1A9
:100D800090911B05E0911C05F0911D05808189273C
:100D9000808380912C0590912D05A0912E05B09116
:100DA0002F05181619061A061B069CF480912C05AF
:100DB00090912D05A0912E05B0912F050197A109C5
:100DC000B10980932C0590932D05A0932E05B09327
:100DD0002F05FF91EF91BF91AF919F918F917F91DF
:100DE0006F915F914F913F912F910F900BBE0F909C
:100DF0000FBE0F901F90189580911802E8E5F2E061
:100E0000E4919FEF90931802E230E9F040F4EE2372
:100E100089F0E13091F060E00E949D02DACFE43089
:100E200049F110F1E530B9F7909173009D7F9093EF
:100E30007300F1CF10926E00EECF90916F009D7F06
:100E400090936F00E8CF909170009D7F9093700019
:100E500091E09093B0009091B100987F946090934E
:100E6000B1001092B300D7CF909171009D7F909305
:100E70007100D1CF909172009D7F90937200CBCF83
:100E80001F920F920FB60F9211242F933F938F93BF
:100E90009F93AF93BF938091A5049091A604A091D6
:100EA000A704B091A80430919E0423E0230F2D37AE
:100EB00058F50196A11DB11D20939E048093A504B1
:100EC0009093A604A093A704B093A80480919F04D4
:100ED0009091A004A091A104B091A2040196A11D3B
:100EE000B11D80939F049093A004A093A104B0939C
:100EF000A204BF91AF919F918F913F912F910F903D
:100F00000FBE0F901F90189526E8230F0296A11D83
:100F1000B11DD2CFCF93DF9300D01F92CDB7DEB7F4
:100F2000789484B5826084BD84B5816084BD85B5C4
:100F3000826085BD85B5816085BD80916E008160D0
:100F400080936E0010928100809181008260809376
:100F50008100809181008160809381008091800078
:100F60008160809380008091B10084608093B100A3
:100F70008091B00081608093B00080919100826088
:100F80008093910080919100816080939100809185
:100F900090008160809390008091A1008260809396
:100FA000A1008091A10081608093A1008091A000A8
:100FB00081608093A0008091210182608093210153
:100FC00080912101816080932101809120018160C5
:100FD0008093200180917A00846080937A008091D0
:100FE0007A00826080937A0080917A008160809399
:100FF0007A0080917A00806880937A001092C10014
:1010000060E082E00E94CF02812C912C54018394F5
:1010100040E9242E332433941092A4041092A304A4
:1010200021E0209315058FB7F8944091A5045091C5
:10103000A6046091A7047091A8048FBF8091050554
:1010400090910605A0910705B0910805481B590B22
:101050006A0B7B0B8091110590911205B0E0A0E026
:1010600084179507A607B70708F031C11982809148
:101070000F053981381770F4E0910B05F0910C05DC
:10108000E30FF11D62E080810E94CF0259815F5F12
:101090005983EDCF712C80911005781608F06FC040
:1010A000072D10E0E0910D05F0910E05E00FF11F06
:1010B00061E080810E94CF02E0910D05F0910E0564
:1010C000E00FF11F60E080810E949D02D501C40104
:1010D000072C04C0880F991FAA1FBB1F0A94D2F7C0
:1010E0006C017C01E094F094612C80910F056816EE
:1010F00078F5862D90E09A838983E0910B05F09135
:101100000C059C01E20FF31F80810E947102E981AE
:10111000FA813496FA83E983892B61F4EE0FFF1F7D
:10112000E755FB4F808191818C299D299183808394
:101130006394DBCF29813A81220F331F27553B4F20
:101140003A832983F901808191818E219F21EECFFD
:10115000E0910D05F0910E05E00FF11F61E0808137
:101160000E949D0280910D0590910E05080F191F98
:1011700060E0F80180810E94CF0273948CCF09EA6D
:1011800014E01A830983E981FA81878D90A1892B64
:1011900031F4148E2FEF3FEF368F258F11A2898106
:1011A0009A8106969A838983855E944061F7F12C33
:1011B00080910F05F81608F053C0E12CCF2CD12CEC
:1011C000CC0CDD1C96012F543B4F6901209110057A
:1011D000E21608F043C0F601608171810E2C02C056
:1011E000769567950A94E2F7F29E900111242E0DF0
:1011F000311DE9EAF4E080E0458D568D241735076E
:1012000009F434C18F5F36968A30B1F760FF24C08D
:10121000E9EAF4E090E080E0448D411118C0E091EB
:101220000905F0910A05E20FF31F408156E0589F2F
:10123000F001599FF00D1124E755FB4F448F368F75
:10124000258F10A2178E61E00E949A0105C00196B9
:1012500036968A30910501F7E394B8CFF394A8CF7E
:1012600080E0F80191A19111892F0A5F1F4F298118
:101270003A8120173107A9F79FB7F8944091A50448
:101280005091A6046091A7047091A8049FBF409359
:10129000050550930605609307057093080588239C
:1012A000B1F08091CA04882391F08091C804909194
:1012B000C904019761F48091C50481110BC020E03D
:1012C00030E0232B09F4A8CE0E940000A5CE109296
:1012D0001505F5CF813309F063C00BED13E087E10D
:1012E00093E09C838B830E9461019C01F8016191D2
:1012F00071918F01C1010E94B40BEB81FC8181913E
:101300009191FC83EB839A8389836B01770FEE08BD
:10131000FF08B901330F880B990B0E94BB0A20E02C
:1013200030E040E05BE30E941F0B2B013C01E981B0
:10133000FA81BF01FF0F880B990B0E94BB0A9B012A
:10134000AC01C301B2010E941F0B0E94830ACB01B2
:10135000B701A6010E940B03C701B6010E94BB0A98
:1013600026E636E646EA5FE30E941F0B0E94830AE8
:10137000072E000C880B990B0E946E0682E00E94DB
:1013800071028130910521F49093A4048093A30409
:101390008091A3049091A404019709F0A4CF8FCF6A
:1013A000823309F097CF0FE912E023E232E03C8369
:1013B0002B830E9461019C01F801619171918F0161
:1013C000C1010E94B40BEB81FC8181919191FC835E
:1013D000EB839A8389836B01770FEE08FF08B901CD
:1013E000330F880B990B0E94BB0A20E030E040E0ED
:1013F0005BE30E941F0B2B013C01E981FA81BF01D5
:10140000FF0F880B990B0E94BB0A9B01AC01C30123
:10141000B2010E941F0B0E94830ACB01B701A601F3
:101420000E940B03C701B6010E94BB0A26E636E6FE
:1014300046EA5FE30E941F0B0E94830A072E000CFE
:10144000880B990B0E946E0682E00E947102813027
:10145000910521F49093A4048093A3048091A304A4
:101460009091A404019709F0A4CF29CF6170ECCE2C
:101470001092AB041092AF041092AE041092B0041C
:101480008DE192E09093AA048093A904E5ECF4E046
:101490001082148213821582369685E0E130F807B7
:1014A000B9F784E092E090930C0580930B0580E0FF
:1014B00092E090930E0580930D0584E080930F05D4
:1014C0008093100588E092E090930A0580930905C7
:1014D0008AE090E0909312058093110584EF91E0EB
:1014E000909314058093130510921705109216051A
:1014F0001092050510920605109207051092080536
:101500001092150508950E948A0A6894B1110C94EE
:10151000190B08950E94FE0A88F09F5798F0B92F82
:101520009927B751B0F0E1F0660F771F881F991F18
:101530001AF0BA95C9F714C0B13091F00E94180B97
:10154000B1E008950C94180B672F782F8827B85FA7
:1015500039F0B93FCCF3869577956795B395D9F770
:101560003EF490958095709561957F4F8F4F9F4F7A
:101570000895E89409C097FB3EF490958095709586
:1015800061957F4F8F4F9F4F9923A9F0F92F96E9CF
:10159000BB279395F695879577956795B795F11144
:1015A000F8CFFAF4BB0F11F460FF1BC06F5F7F4FE1
:1015B0008F4F9F4F16C0882311F096E911C07723F3
:1015C00021F09EE8872F762F05C0662371F096E8FC
:1015D000862F70E060E02AF09A95660F771F881FCB
:1015E000DAF7880F9695879597F9089557FD9058E3
:1015F000440F551F59F05F3F71F04795880F97FBD7
:10160000991F61F09F3F79F0879508951216130690
:101610001406551FF2CF4695F1DF08C016161706BF
:101620001806991FF1CF86957105610508940895F4
:10163000E894BB2766277727CB0197F908950E9486
:10164000320B0C94A30B0E94950B38F00E949C0B5C
:1016500020F0952311F00C948C0B0C94920B112418
:101660000C94190B0E94F60A70F3959FC1F3950F25
:1016700050E0551F629FF001729FBB27F00DB11D16
:10168000639FAA27F00DB11DAA1F649F6627B00DA6
:10169000A11D661F829F2227B00DA11D621F739F8F
:1016A000B00DA11D621F839FA00D611D221F749F9D
:1016B0003327A00D611D231F849F600D211D822FE4
:1016C000762F6A2F11249F5750409AF0F1F088230B
:1016D0004AF0EE0FFF1FBB1F661F771F881F915038
:1016E0005040A9F79E3F510580F00C948C0B0C9450
:1016F000190B5F3FE4F3983ED4F386957795679591
:10170000B795F795E7959F5FC1F7FE2B880F911D61
:101710009695879597F9089597F99F6780E870E007
:1017200060E008959FEF80EC089500240A94161657
:10173000170618060906089500240A9412161306BF
:10174000140605060895092E0394000C11F488234D
:1017500052F0BB0F40F4BF2B11F460FF04C06F5F69
:101760007F4F8F4F9F4F089597FB072E16F40094DD
:1017700007D077FD09D00E941C0C07FC05D03EF471
:10178000909581959F4F0895709561957F4F08952D
:10179000A1E21A2EAA1BBB1BFD010DC0AA1FBB1F75
:1017A000EE1FFF1FA217B307E407F50720F0A21BE7
:1017B000B30BE40BF50B661F771F881F991F1A9454
:1017C00069F760957095809590959B01AC01BD017E
:1017D000CF010895052E97FB1EF400940E94010C82
:1017E00057FD07D00E94C80B07FC03D04EF40C94A1
:1017F000010C50954095309521953F4F4F4F5F4FCD
:10180000089590958095709561957F4F8F4F9F4F6C
:101810000895EE0FFF1F881F8BBF0790F691E02DF4
:1018200019940E94300CA59F900DB49F900DA49F19
:10183000800D911D11240895AA1BBB1B51E107C007
:10184000AA1FBB1FA617B70710F0A61BB70B881F50
:10185000991F5A95A9F780959095BC01CD010895DF
:10186000A29FB001B39FC001A39F700D811D1124E1
:10187000911DB29F700D811D1124911D0895F89442
:02188000FFCF98
:1018820016171819121314153738392F3435362A0A
:101892003132332D6F303D2BFF000000004506CB67
:1018A200029A0293029302BA0210031003BA02933D
:1018B200024B020B020B024B02930293024B024BAE
:1018C2000293029302BA0210031003BA0293024B6C
:1018D200020B020B024B0293024B020B020B024B56
:1018E200024B0293020B024B029302BA0293020BC7
:1018F200024B029302BA0293024B020B024B028882
:101902000193029302BA0210031003BA0293024B2C
:10191200020B020B024B0293024B020B020B02045C
:101922000004000400040004000400040003000496
:101932000004000400040003000800020003000485
:101942000004000400040004000400030004000476
:101952000004000400030008000200030004000465
:101962000004000400080008000400040004000849
:101972000008000300080002000300040004000441
:101982000004000400040004000400040004000435
:1019920000030008000200880193024B020B028838
:1019A20001880193024B020B02B801B801BA0293FB
:1019B200024B02EE0110031003BA024B029302889B
:1019C2000193024B020B028801880193024B020B26
:1019D20002B801B801BA0293024B021003100310BD
:1019E200031003100370031003BA024B020B024BE5
:1019F20002930293029302930293029302930210C0
:101A0200030B024B029302BA02BA02BA02BA02BA38
:101A120002BA02930293029302930293024B024B85
:101A22000293024B021003930293029302930293D6
:101A3200029302930210030B024B029302BA02BA00
:101A420002BA02BA02BA02BA029302930293029350
:101A52000210031003BA024B020B0208000800082E
:101A62000008000200080008000800080002000840
:101A7200000800080008000200080008000800082A
:101A82000002000800080008000800020008000820
:101A9200000800080002000800080008000800080A
:101AA20000080008001000100008000800080008E4
:101AB20000040004000800080004000800080004F4
:101AC20000080008000800080002000800080008DA
:101AD20000100010000800080008001000100008A4
:101AE20000080008000800040004000800080004C0
:101AF20000080008000400080008000800080002AE
:101B02000008000800080010001000080008000883
:0E1B1200001000100008000800080008000085
:00000001FF
