:020000040000FA
:100000000C942E010C945F010C945F010C945F0121
:100010000C945F010C945F010C945F010C945F01E0
:100020000C945F010C945F010C945F010C945F01D0
:100030000C945F010C94A1060C945F010C945F0179
:100040000C945F010C945F010C945F010C945F01B0
:100050000C945F010C945F010C945F010C944007B9
:100060000C945F010C945F010C945F010C945F0190
:100070000C945F010C945F010C945F010C945F0180
:100080000C945F010C945F010C945F010C945F0170
:100090000C945F010C945F010C945F010C945F0160
:1000A0000C945F010C945F010C945F010C945F0150
:1000B0000C945F010C945F010C945F010C945F0140
:1000C0000C945F010C945F010C945F010C945F0130
:1000D0000C945F010C945F010C945F010C945F0120
:1000E0000C945F010C9463020C9468020C943A0225
:1000F0000C94CB020C943D020C9469020C94380AC7
:100100000C942E020C9455020C9451020C949A02F9
:100110000C944D020C9445060C9436020C945F022C
:100120000C9447020C945B020C9443020C9428023A
:100130000C9432020C946D02000021002400270070
:100140002A002D00300033000101000004010701E6
:100150000A01000020002300260029002C002F00A7
:1001600032000001000003010601090100000A0B32
:1001700002090C0D0E080703040100000000000036
:10018000000000000000000000000000000000006F
:10019000000000000000000012111000000000002C
:1001A000000000000000000000000000000000004F
:1001B000000001021020200808102040102040807C
:1001C000020102010804020101020408102040801B
:1001D00080402010080402018004020180402010A9
:1001E00008040201080402010102040810204080F2
:1001F0000102040810204080000022002500280091
:100200002B002E003100340002010000050108011E
:100210000B0105050505070508080808020202028A
:100220000A0A080804040404010101010101010192
:100230000303030303030303040707070C0C0C0C5D
:100240000C0C0C0C02020202060606060606060646
:100250000B0B0B0B0B0B0B0B0200380A11241FBEF0
:10026000CFEFD1E2DEBFCDBF00E00CBF14E0A0E0D5
:10027000B2E0E2E8F8E100E00BBF02C007900D92A7
:10028000AE39B107D9F725E0AEE9B4E001C01D925F
:10029000A833B207E1F711E0CEE2D1E000E006C0FA
:1002A00021970109802FFE010E94090CCD32D10750
:1002B00080E00807A9F70E948A070C943F0C0C9471
:1002C000000080917B00877F80937B0080E4809397
:1002D0007C0080917A00806480937A0080917A001B
:1002E00086FDFCCF8091780090917900089596E08A
:1002F000899FD0011124A755BB4F90967C936E9394
:100300005F9791E091969C939197E0911605F091FB
:10031000170590911505992339F0309751F0811107
:1003200008C08091C5041994309719F05C968C919F
:10033000FACF0895CF92DF92EF92FF920F931F931F
:1003400096E0899FF0011124E755FB4F11A2278DFC
:1003500030A12130310551F178F02230310509F416
:1003600051C02330310509F452C01F910F91FF9005
:10037000EF90DF90CF9008956623B9F361E070E0CD
:100380000E9477012FB7F8948091A5049091A6045C
:10039000A091A704B091A8042FBF8093010590936A
:1003A0000205A0930305B0930405DFCF9FB7F8942F
:1003B000C090A504D090A604E090A704F090A804F3
:1003C0009FBF009101051091020520910305309116
:1003D0000405C01AD10AE20AF30A0091130510912C
:1003E000140530E020E00C151D052E053F0550F4E6
:1003F00062E070E01F910F91FF90EF90DF90CF903F
:100400000C9477016111B1CF63E070E0F3CF70E03D
:1004100060E0F0CF8150823108F05AC0E82FF0E060
:100420008827EA5EFD4F8F4F0C94090C36023A0282
:1004300028022E02320268023D02430247024D02A8
:10044000510255025B025F026802630269026D029B
:10045000809180008F778093800008958091800044
:100460008F7DF9CF80918000877FF5CF84B58F771E
:1004700084BD089584B58F7DFBCF8091B0008F77C8
:100480008093B00008958091B0008F7DF9CF809166
:1004900090008F77809390000895809190008F7DD9
:1004A000F9CF80919000877FF5CF8091A0008F7762
:1004B0008093A00008958091A0008F7DF9CF809156
:1004C000A000877FF5CF809120018F778093200156
:1004D0000895809120018F7DF9CF80912001877F41
:1004E000F5CFCF93DF93282F30E0F901E459FE4F89
:1004F0008491F901EE54FE4FD491F901EE5EFD4F67
:10050000C491CC23A1F081110E940A02EC2FF0E0EB
:10051000EE0FFF1FEE5AFE4FA591B491EC91ED2323
:1005200081E090E009F480E0DF91CF91089580E0D0
:1005300090E0FACF862F0C9471021F93CF93DF9334
:10054000282F30E0F901E459FE4F8491F901EE546F
:10055000FE4FD491F901EE5EFD4FC491CC23A9F07A
:10056000162F81110E940A02EC2FF0E0EE0FFF1F00
:10057000E850FE4FA591B4918FB7F894EC9111110A
:1005800008C0D095DE23DC938FBFDF91CF911F9100
:100590000895DE2BF8CF862F642F0C949D02CF9305
:1005A000DF9390E0FC01EE54FE4F24918E5E9D4F50
:1005B000FC0184918823C9F090E0880F991FFC0109
:1005C000E85CFE4FA591B491FC01E850FE4FC59147
:1005D000D49161110DC09FB7F8948C91209582231E
:1005E0008C938881282328839FBFDF91CF91089522
:1005F000623051F49FB7F8943C91822F8095832309
:100600008C93E8812E2BEFCF8FB7F894EC912E2BA3
:100610002C938FBFEACF4F925F926F927F928F920F
:100620009F92AF92BF92CF92DF92EF92FF920F9381
:100630001F93CF93DF9300D01F921F92CDB7DEB7E9
:100640008C012A013B01809118028830C9F08F3F4C
:1006500009F492C00F900F900F900F900F90DF91C0
:10066000CF911F910F91FF90EF90DF90CF90BF90AF
:10067000AF909F908F907F906F905F904F90089574
:10068000E8E5F2E084918D8387FDE4CF61E088E0C6
:100690000E94CF029D81992321F08D81823009F043
:1006A000D2C14801B12CA12C60E072E18AE790E050
:1006B000A50198010E94EA0B29833A834B835C834E
:1006C00069017A0191E0C91AD108E108F1088FEFB8
:1006D000C816D104E104F10409F00CF483C160E40C
:1006E00072E48FE090E0A50198010E94EA0B690195
:1006F0007A0191E0C91AD108E108F1088D818230B0
:1007000009F011C182E09FEFC916D104E104F104A0
:1007100009F00CF460C160E970ED83E090E0A501A0
:1007200098010E94EA0B69017A0181E0C81AD10898
:10073000E108F10883E09FEFC916D104E104F10458
:1007400009F00CF448C168E478EE81E090E0A5017E
:1007500098010E94EA0B69017A0191E0C91AD10857
:10076000E108F1088FEFC816D104E104F10411F09B
:100770000CF019C184E02FC188E080931802E8E5ED
:10078000F2E094919D83892F9F3F09F463CF9230CB
:1007900009F469C060F4992381F1913009F445C0EE
:1007A00087FD58CF61E088E00E94CF0276CF9D811F
:1007B000943009F49AC008F478C0953089F7109203
:1007C00020011092210180912101886080932101F4
:1007D00080912101816080932101EAE1F2E0E491BE
:1007E000F0E0EE0FFF1FE850FE4F85919491EAEB89
:1007F000F1E0E491E093180549CF14BC15BC84B531
:10080000826084BD85B5816085BDEAE1F2E0E49156
:10081000F0E0EE0FFF1FE850FE4F85919491EAEB58
:10082000F1E0E491E0931F0531CF10928000109227
:100830008100809181008860809381008091810097
:10084000816080938100EAE1F2E0E491F0E0EE0F54
:10085000FF1FE850FE4F85919491EAEBF1E0E4919F
:10086000E0931E0513CF1092B0001092B10080915A
:10087000B00082608093B0008091B100816080936D
:10088000B100EAE1F2E0E491F0E0EE0FFF1FE85082
:10089000FE4F8591949190931D0580931C05EAEB82
:1008A000F1E0E491E0931B05F1CE109290001092DC
:1008B00091008091910088608093910080919100D7
:1008C000816080939100EAE1F2E0E491F0E0EE0FC4
:1008D000FF1FE850FE4F85919491EAEBF1E0E4911F
:1008E000E0931A0583E08D83D1CE1092A000109280
:1008F000A1008091A10088608093A1008091A10057
:1009000081608093A100EAE1F2E0E491F0E0EE0F73
:10091000FF1FE850FE4F85919491EAEBF1E0E491DE
:10092000E0931905B3CE8FEFC816D104E104F104AA
:1009300009F00CF486C068E478EE81E090E0A5014F
:1009400098010E94EA0B69017A0191E0C91AD10865
:10095000E108F1088D81882309F48DC18FEFC81655
:10096000D104E104F10409F00CF404CF62E17AE768
:1009700080E090E0A50194010E94EA0B69017A01F0
:1009800091E0C91AD108E108F1088D81882309F4A2
:1009900047C18FEFC816D104E104F10411F008F04B
:1009A00048C186E018C064E274EF80E090E0A501E1
:1009B00094010E94EA0B69017A0191E0C91AD108F9
:1009C000E108F1088FEFC816D104E104F10411F039
:1009D00008F041C185E09091B100987F892B809308
:1009E000B10008C081E09D819111F5CF95B5987F48
:1009F000892B85BD2FEF3FEFA901411451046104FC
:100A0000710409F049C09D81923009F4E7C00CF0EF
:100A1000CEC0992309F4D3C0913009F01BCED092F7
:100A20008900C092880020933005309331054093AF
:100A300032055093330580916F00826080936F0080
:100A400009CE82E0D0CFB12CA12C60E072E18AE720
:100A500090E0A50198010E94EA0B69017A0181E00A
:100A6000C81AD108E108F108C114D10491E0E906DF
:100A7000F10404F591E08D81813069F58091810068
:100A8000887F892B809381002FEF3FEFA9014114CC
:100A900051046104710419F2D801AA0FBB1FA3010C
:100AA00092010E94110C28EE33E040E050E00E94D9
:100AB000C80BA9CF68E478EE81E090E0A501980129
:100AC0000E94EA0B69017A0181E0C81AD108E108A5
:100AD000F10893E0D0CF8D81833001F580919100B2
:100AE000887F892B809391002FEF3FEFA90141145C
:100AF00051046104710481F6D0929900C09298006B
:100B0000209328053093290540932A0550932B05FF
:100B1000809171008260809371009CCD8D818430C2
:100B200009F58091A100887F892B8093A1002FEF88
:100B30003FEFA901411451046104710409F0ACCFE5
:100B4000D092A900C092A8002093240530932505D7
:100B50004093260550932705809172008260809310
:100B6000720078CD8D81853009F044CF80912101CC
:100B7000887F892B809321012FEF3FEFA90141143A
:100B800051046104710409F087CFD0922901C09209
:100B9000280120932005309321054093220550938E
:100BA00023058091730082608093730053CD8D8103
:100BB000843031F20CF4A0CF853039F34BCDC7BC73
:100BC000209334053093350540933605509337050F
:100BD00080916E00826080936E003CCDC092B30025
:100BE00020932C0530932D0540932E0550932F050F
:100BF000809170008260809370002CCDC980DA8073
:100C0000EB80FC809AE0F594E794D794C7949A958A
:100C1000D1F791E0C91AD108E108F10885E0E6CEE4
:100C20008FEFC816D104E104F10409F038F784E02D
:100C3000DDCEC980DA80EB80FC808AE0F594E79411
:100C4000D794C7948A95D1F791E0C91AD108E108E1
:100C5000F10887E0C0CE62E17AE780E090E0A5018C
:100C600094010E94EA0B69017A0191E0C91AD10846
:100C7000E108F1088ECE83E09FEFC916D104E104AC
:100C8000F10411F00CF072CEB1CE862F642F0C94CB
:100C9000CF023FB7F89480919F049091A004A09157
:100CA000A104B091A20426B5A89B05C02F3F19F05E
:100CB0000196A11DB11D3FBFBA2FA92F982F8827DC
:100CC000BC01CD01620F711D811D911D42E0660FB7
:100CD000771F881F991F4A95D1F708958F929F9289
:100CE000AF92BF92CF92DF92EF92FF926B017C01A5
:100CF0000E9449064B015C01C114D104E104F104D6
:100D0000B9F00E944906681979098A099B09683E69
:100D100073408105910580F321E0C21AD108E108F2
:100D2000F10888EE880E83E0981EA11CB11CE4CF68
:100D3000FF90EF90DF90CF90BF90AF909F908F90FB
:100D400008951F920F920FB60F9211240BB60F92B7
:100D50002F933F934F935F936F937F938F939F93C3
:100D6000AF93BF93EF93FF9380912C0590912D0546
:100D7000A0912E05B0912F05892B8A2B8B2BE1F1A9
:100D800090911B05E0911C05F0911D05808189273C
:100D9000808380912C0590912D05A0912E05B09116
:100DA0002F05181619061A061B069CF480912C05AF
:100DB00090912D05A0912E05B0912F050197A109C5
:100DC000B10980932C0590932D05A0932E05B09327
:100DD0002F05FF91EF91BF91AF919F918F917F91DF
:100DE0006F915F914F913F912F910F900BBE0F909C
:100DF0000FBE0F901F90189580911802E8E5F2E061
:100E0000E4919FEF90931802E230E9F040F4EE2372
:100E100089F0E13091F060E00E949D02DACFE43089
:100E200049F110F1E530B9F7909173009D7F9093EF
:100E30007300F1CF10926E00EECF90916F009D7F06
:100E400090936F00E8CF909170009D7F9093700019
:100E500091E09093B0009091B100987F946090934E
:100E6000B1001092B300D7CF909171009D7F909305
:100E70007100D1CF909172009D7F90937200CBCF83
:100E80001F920F920FB60F9211242F933F938F93BF
:100E90009F93AF93BF938091A5049091A604A091D6
:100EA000A704B091A80430919E0423E0230F2D37AE
:100EB00058F50196A11DB11D20939E048093A504B1
:100EC0009093A604A093A704B093A80480919F04D4
:100ED0009091A004A091A104B091A2040196A11D3B
:100EE000B11D80939F049093A004A093A104B0939C
:100EF000A204BF91AF919F918F913F912F910F903D
:100F00000FBE0F901F90189526E8230F0296A11D83
:100F1000B11DD2CFCF93DF9300D01F92CDB7DEB7F4
:100F2000789484B5826084BD84B5816084BD85B5C4
:100F3000826085BD85B5816085BD80916E008160D0
:100F400080936E0010928100809181008260809376
:100F50008100809181008160809381008091800078
:100F60008160809380008091B10084608093B100A3
:100F70008091B00081608093B00080919100826088
:100F80008093910080919100816080939100809185
:100F900090008160809390008091A1008260809396
:100FA000A1008091A10081608093A1008091A000A8
:100FB00081608093A0008091210182608093210153
:100FC00080912101816080932101809120018160C5
:100FD0008093200180917A00846080937A008091D0
:100FE0007A00826080937A0080917A008160809399
:100FF0007A0080917A00806880937A001092C10014
:1010000060E082E00E94CF02812C912C54018394F5
:1010100040E9242E332433941092A4041092A304A4
:1010200021E0209315058FB7F8944091A5045091C5
:10103000A6046091A7047091A8048FBF8091050554
:1010400090910605A0910705B0910805481B590B22
:101050006A0B7B0B8091110590911205B0E0A0E026
:1010600084179507A607B70708F031C11982809148
:101070000F053981381770F4E0910B05F0910C05DC
:10108000E30FF11D62E080810E94CF0259815F5F12
:101090005983EDCF712C80911005781608F06FC040
:1010A000072D10E0E0910D05F0910E05E00FF11F06
:1010B00061E080810E94CF02E0910D05F0910E0564
:1010C000E00FF11F60E080810E949D02D501C40104
:1010D000072C04C0880F991FAA1FBB1F0A94D2F7C0
:1010E0006C017C01E094F094612C80910F056816EE
:1010F00078F5862D90E09A838983E0910B05F09135
:101100000C059C01E20FF31F80810E947102E981AE
:10111000FA813496FA83E983892B61F4EE0FFF1F7D
:10112000E755FB4F808191818C299D299183808394
:101130006394DBCF29813A81220F331F27553B4F20
:101140003A832983F901808191818E219F21EECFFD
:10115000E0910D05F0910E05E00FF11F61E0808137
:101160000E949D0280910D0590910E05080F191F98
:1011700060E0F80180810E94CF0273948CCF09EA6D
:1011800014E01A830983E981FA81878D90A1892B64
:1011900031F4148E2FEF3FEF368F258F11A2898106
:1011A0009A8106969A838983855E944061F7F12C33
:1011B00080910F05F81608F053C0E12CCF2CD12CEC
:1011C000CC0CDD1C96012F543B4F6901209110057A
:1011D000E21608F043C0F601608171810E2C02C056
:1011E000769567950A94E2F7F29E900111242E0DF0
:1011F000311DE9EAF4E080E0458D568D241735076E
:1012000009F434C18F5F36968A30B1F760FF24C08D
:10121000E9EAF4E090E080E0448D411118C0E091EB
:101220000905F0910A05E20FF31F408156E0589F2F
:10123000F001599FF00D1124E755FB4F448F368F75
:10124000258F10A2178E61E00E949A0105C00196B9
:1012500036968A30910501F7E394B8CFF394A8CF7E
:1012600080E0F80191A19111892F0A5F1F4F298118
:101270003A8120173107A9F79FB7F8944091A50448
:101280005091A6046091A7047091A8049FBF409359
:10129000050550930605609307057093080588239C
:1012A000B1F08091CA04882391F08091C804909194
:1012B000C904019761F48091C50481110BC020E03D
:1012C00030E0232B09F4A8CE0E940000A5CE109296
:1012D0001505F5CF813309F063C00BED13E087E10D
:1012E00093E09C838B830E9461019C01F8016191D2
:1012F00071918F01C1010E94B40BEB81FC8181913E
:101300009191FC83EB839A8389836B01770FEE08BD
:10131000FF08B901330F880B990B0E94BB0A20E02C
:1013200030E040E05BE30E941F0B2B013C01E981B0
:10133000FA81BF01FF0F880B990B0E94BB0A9B012A
:10134000AC01C301B2010E941F0B0E94830ACB01B2
:10135000B701A6010E940B03C701B6010E94BB0A98
:1013600026E636E646EA5FE30E941F0B0E94830AE8
:10137000072E000C880B990B0E946E0682E00E94DB
:1013800071028130910521F49093A4048093A30409
:101390008091A3049091A404019709F0A4CF8FCF6A
:1013A000823309F097CF0FE912E023E232E03C8369
:1013B0002B830E9461019C01F801619171918F0161
:1013C000C1010E94B40BEB81FC8181919191FC835E
:1013D000EB839A8389836B01770FEE08FF08B901CD
:1013E000330F880B990B0E94BB0A20E030E040E0ED
:1013F0005BE30E941F0B2B013C01E981FA81BF01D5
:10140000FF0F880B990B0E94BB0A9B01AC01C30123
:10141000B2010E941F0B0E94830ACB01B701A601F3
:101420000E940B03C701B6010E94BB0A26E636E6FE
:1014300046EA5FE30E941F0B0E94830A072E000CFE
:10144000880B990B0E946E0682E00E947102813027
:10145000910521F49093A4048093A3048091A304A4
:101460009091A404019709F0A4CF29CF6170ECCE2C
:101470001092AB041092AF041092AE041092B0041C
:101480008DE192E09093AA048093A904E5ECF4E046
:101490001082148213821582369685E0E130F807B7
:1014A000B9F784E092E090930C0580930B0580E0FF
:1014B00092E090930E0580930D0584E080930F05D4
:1014C0008093100588E092E090930A0580930905C7
:1014D0008AE090E0909312058093110584EF91E0EB
:1014E000909314058093130510921705109216051A
:1014F0001092050510920605109207051092080536
:101500001092150508950E948A0A6894B1110C94EE
:10151000190B08950E94FE0A88F09F5798F0B92F82
:101520009927B751B0F0E1F0660F771F881F991F18
:101530001AF0BA95C9F714C0B13091F00E94180B97
:10154000B1E008950C94180B672F782F8827B85FA7
:1015500039F0B93FCCF3869577956795B395D9F770
:101560003EF490958095709561957F4F8F4F9F4F7A
:101570000895E89409C097FB3EF490958095709586
:1015800061957F4F8F4F9F4F9923A9F0F92F96E9CF
:10159000BB279395F695879577956795B795F11144
:1015A000F8CFFAF4BB0F11F460FF1BC06F5F7F4FE1
:1015B0008F4F9F4F16C0882311F096E911C07723F3
:1015C00021F09EE8872F762F05C0662371F096E8FC
:1015D000862F70E060E02AF09A95660F771F881FCB
:1015E000DAF7880F9695879597F9089557FD9058E3
:1015F000440F551F59F05F3F71F04795880F97FBD7
:10160000991F61F09F3F79F0879508951216130690
:101610001406551FF2CF4695F1DF08C016161706BF
:101620001806991FF1CF86957105610508940895F4
:10163000E894BB2766277727CB0197F908950E9486
:10164000320B0C94A30B0E94950B38F00E949C0B5C
:1016500020F0952311F00C948C0B0C94920B112418
:101660000C94190B0E94F60A70F3959FC1F3950F25
:1016700050E0551F629FF001729FBB27F00DB11D16
:10168000639FAA27F00DB11DAA1F649F6627B00DA6
:10169000A11D661F829F2227B00DA11D621F739F8F
:1016A000B00DA11D621F839FA00D611D221F749F9D
:1016B0003327A00D611D231F849F600D211D822FE4
:1016C000762F6A2F11249F5750409AF0F1F088230B
:1016D0004AF0EE0FFF1FBB1F661F771F881F915038
:1016E0005040A9F79E3F510580F00C948C0B0C9450
:1016F000190B5F3FE4F3983ED4F386957795679591
:10170000B795F795E7959F5FC1F7FE2B880F911D61
:101710009695879597F9089597F99F6780E870E007
:1017200060E008959FEF80EC089500240A94161657
:10173000170618060906089500240A9412161306BF
:10174000140605060895092E0394000C11F488234D
:1017500052F0BB0F40F4BF2B11F460FF04C06F5F69
:101760007F4F8F4F9F4F089597FB072E16F40094DD
:1017700007D077FD09D00E941C0C07FC05D03EF471
:10178000909581959F4F0895709561957F4F08952D
:10179000A1E21A2EAA1BBB1BFD010DC0AA1FBB1F75
:1017A000EE1FFF1FA217B307E407F50720F0A21BE7
:1017B000B30BE40BF50B661F771F881F991F1A9454
:1017C00069F760957095809590959B01AC01BD017E
:1017D000CF010895052E97FB1EF400940E94010C82
:1017E00057FD07D00E94C80B07FC03D04EF40C94A1
:1017F000010C50954095309521953F4F4F4F5F4FCD
:10180000089590958095709561957F4F8F4F9F4F6C
:101810000895EE0FFF1F881F8BBF0790F691E02DF4
:1018200019940E94300CA59F900DB49F900DA49F19
:10183000800D911D11240895AA1BBB1B51E107C007
:10184000AA1FBB1FA617B70710F0A61BB70B881F50
:10185000991F5A95A9F780959095BC01CD010895DF
:10186000A29FB001B39FC001A39F700D811D1124E1
:10187000911DB29F700D811D1124911D0895F89442
:10188000FFCF16171819121314153738392F34359E
:10189000362A3132332D6F303D2BFF0000000045DA
:1018A00006CB029A0293029302BA0210031003BA03
:1018B0000293024B020B020B024B02930293024B68
:1018C000024B0293029302BA0210031003BA02936E
:1018D000024B020B020B024B0293024B020B020B58
:1018E000024B024B0293020B024B029302BA029389
:1018F000020B024B029302BA0293024B020B024B01
:1019000002880193029302BA0210031003BA0293F1
:10191000024B020B020B024B0293024B020B020B17
:101920000204000400040004000400040004000396
:101930000004000400040004000300080002000387
:101940000004000400040004000400040003000478
:101950000004000400040003000800020003000467
:10196000000400040004000800080004000400044F
:10197000000800080003000800020003000400043F
:101980000004000400040004000400040004000437
:10199000000400030008000200880193024B020BC0
:1019A000028801880193024B020B02B801B801BA08
:1019B0000293024B02EE0110031003BA024B029392
:1019C00002880193024B020B028801880193024BAB
:1019D000020B02B801B801BA0293024B02100310C5
:1019E0000310031003100370031003BA024B020B21
:1019F000024B029302930293029302930293029387
:101A00000210030B024B029302BA02BA02BA02BAE4
:101A100002BA02BA02930293029302930293024B18
:101A2000024B0293024B0210039302930293029320
:101A30000293029302930210030B024B029302BA29
:101A400002BA02BA02BA02BA02BA0293029302932B
:101A500002930210031003BA024B020B02080008A3
:101A60000008000800020008000800080008000242
:101A7000000800080008000800020008000800082C
:101A80000008000200080008000800080002000822
:101A9000000800080008000200080008000800080C
:101AA00000080008000800100010000800080008E6
:101AB00000080004000400080008000400080008F2
:101AC00000040008000800080008000200080008E0
:101AD00000080010001000080008000800100010A6
:101AE00000080008000800080004000400080008BE
:101AF00000040008000800040008000800080008AE
:101B0000000200080008000800100010000800088B
:101B1000000800100010000800080008000800007D
:020000040003F7
:10E000000D9489F10D94B2F10D94B2F10D94B2F129
:10E010000D94B2F10D94B2F10D94B2F10D94B2F1F0
:10E020000D94B2F10D94B2F10D94B2F10D94B2F1E0
:10E030000D94B2F10D94B2F10D94B2F10D94B2F1D0
:10E040000D94B2F10D94B2F10D94B2F10D94B2F1C0
:10E050000D94B2F10D94B2F10D94B2F10D94B2F1B0
:10E060000D94B2F10D94B2F10D94B2F10D94B2F1A0
:10E070000D94B2F10D94B2F10D94B2F10D94B2F190
:10E080000D94B2F10D94B2F10D94B2F10D94B2F180
:10E090000D94B2F10D94B2F10D94B2F10D94B2F170
:10E0A0000D94B2F10D94B2F10D94B2F10D94B2F160
:10E0B0000D94B2F10D94B2F10D94B2F10D94B2F150
:10E0C0000D94B2F10D94B2F10D94B2F10D94B2F140
:10E0D0000D94B2F10D94B2F10D94B2F10D94B2F130
:10E0E0000D94B2F141546D656761323536300041AF
:10E0F000726475696E6F206578706C6F72657220DE
:10E1000073746B3530305632206279204D4C530099
:10E11000426F6F746C6F616465723E004875683F52
:10E1200000436F6D70696C6564206F6E203D200048
:10E130004350552054797065202020203D20005FF9
:10E140005F4156525F415243485F5F3D2000415658
:10E1500052204C696243205665723D20004743437C
:10E160002056657273696F6E203D20004350552024
:10E1700049442020202020203D20004C6F7720663D
:10E18000757365202020203D20004869676820665F
:10E190007573652020203D200045787420667573D6
:10E1A00065202020203D20004C6F636B2066757336
:10E1B000652020203D20004D617220203720323024
:10E1C000313300312E362E3800342E332E350056A2
:10E1D00023202020414444522020206F7020636F70
:10E1E00064652020202020696E73747275637469E1
:10E1F0006F6E2061646472202020496E74657272B3
:10E20000757074006E6F20766563746F7200726A49
:10E210006D702020006A6D70200057686174207056
:10E220006F72743A00506F7274206E6F7420737541
:10E2300070706F72746564004D7573742062652030
:10E2400061206C6574746572002000577269747483
:10E25000696E672045450052656164696E672045B7
:10E26000450045452065727220636E743D00504F35
:10E27000525400303D5A65726F2061646472003FF1
:10E280003D43505520737461747300403D454550C3
:10E29000524F4D207465737400423D426C696E6B41
:10E2A000204C454400453D44756D70204545505215
:10E2B0004F4D00463D44756D7020464C415348001B
:10E2C000483D48656C70004C3D4C69737420492F83
:10E2D0004F20506F72747300513D51756974005234
:10E2E0003D44756D702052414D00563D73686F7707
:10E2F00020696E7465727275707420566563746FF0
:10E30000727300593D506F727420626C696E6B00BD
:10E310002A0011241FBECFEFD1E2DEBFCDBF01E046
:10E320000CBF12E0A0E0B2E0EEE1FDEF03E00BBFB6
:10E3300002C007900D92A030B107D9F712E0A0E01B
:10E34000B2E001C01D92AE30B107E1F70F9460F367
:10E350000D948DFE01E20EBF0FEF0DBF11241FBE05
:10E360000D9460F30D9400F020E030E040ED57E0B4
:10E3700005C0FA013197F1F72F5F3F4F2817390792
:10E38000C0F308959C01260F311DC901A0E0B0E043
:10E390002F5F3F4FABBFFC018791882361F08093D3
:10E3A000C6008091C00086FFFCCF8091C0008064D1
:10E3B0008093C000EACF08958DE08093C6008091DD
:10E3C000C00086FFFCCF8091C00080648093C000B5
:10E3D0008AE08093C6008091C00086FFFCCF8091C8
:10E3E000C00080648093C00008950F94C2F10F9420
:10E3F000DCF10895FC019081992359F09093C600B7
:10E400008091C00086FFFCCF8091C0008064809323
:10E41000C0003196992379F70895282F982F929567
:10E420009F70892F805D8A3308F0895F8093C600D2
:10E430008091C00086FFFCCF8091C00080648093F3
:10E44000C000822F8F70982F905D9A3308F0995FEB
:10E450009093C6008091C00086FFFCCF8091C000E1
:10E4600080648093C00008959C01FB01853691056E
:10E470001CF46330710594F0C90164E670E00F94F8
:10E480002EFE605D7F4F6093C6008091C00086FFC6
:10E49000FCCF8091C00080648093C0002B30310598
:10E4A00014F43297B4F0C90164E670E00F942EFEC4
:10E4B0006AE070E00F942EFE605D7F4F6093C600AF
:10E4C0008091C00086FFFCCF8091C0008064809363
:10E4D000C000C9016AE070E00F942EFEC0968093E0
:10E4E000C6008091C00086FFFCCF8091C000806490
:10E4F0008093C00008951F93182F8EE692EE60E07F
:10E500000F94C2F11093C6008091C00086FFFCCF2B
:10E510008091C00080648093C0000F94DCF11F9153
:10E5200008952F923F924F925F926F927F928F92B7
:10E530009F92AF92BF92CF92DF92EF92FF920F9392
:10E540001F93DF93CF93CDB7DEB762970FB6F894E2
:10E55000DEBF0FBECDBF382E622ECA01DB015C01CB
:10E560006D01772420E2222E2E010894411C511CBB
:10E570008BC081E0A81680E0B80681E0C80680E084
:10E58000D80628F0C601AA27BB270F940DF2BB2797
:10E59000AD2D9C2D8B2D0F940DF28A2D0F940DF225
:10E5A0002092C6008091C00086FFFCCF8091C00001
:10E5B00080648093C0009DE29093C6008091C0006B
:10E5C00086FFFCCF8091C00080648093C0002092C1
:10E5D000C6008091C00086FFFCCF8091C00080649F
:10E5E0008093C00019828601750188249924A1E0D6
:10E5F0003A1651F03A1620F0B2E03B1661F409C029
:10E600000BBFF701779007C0C7010F9477FE782EF4
:10E6100002C0F7017080872D0F940DF22092C60082
:10E620008091C00086FFFCCF8091C0008064809301
:10E63000C000872D8052F401EF70F0708F3520F408
:10E64000E40DF51D708204C0E40DF51D8EE280839B
:10E650000894E11CF11C011D111D0894811C911CE2
:10E6600090E18916910409F0C2CF80E190E0A0E02A
:10E67000B0E0A80EB91ECA1EDB1E198AC2010F9493
:10E68000FAF10F94DCF16A94662009F072CF629679
:10E690000FB6F894DEBF0FBECDBFCF91DF911F91B3
:10E6A0000F91FF90EF90DF90CF90BF90AF909F9031
:10E6B0008F907F906F905F904F903F902F90089534
:10E6C0002F923F924F925F926F927F928F929F9282
:10E6D000AF92BF92CF92DF92EF92FF920F931F9370
:10E6E000DF93CF93CDB7DEB7CD53D1400FB6F894BB
:10E6F000DEBF0FBECDBF01E20EBF0FEF0DBF94B75F
:10E70000F894A89514BE80916000886180936000A1
:10E7100010926000789493FF05C0E0910002F091A0
:10E7200001021995279A2F9A8091C00082608093E8
:10E73000C00080E18093C40088E18093C1000000A4
:10E74000EE24FF24870144E0A42EB12CCC24DD2448
:10E7500024C0C5010197F1F70894E11CF11C011DCB
:10E76000111D21E2E2162EE4F20620E0020720E06D
:10E77000120718F031E0C32ED12CC801B70127ECE5
:10E780003BE140E050E00F9441FE611571058105C9
:10E79000910519F485B1805885B98091C00087FD35
:10E7A00003C0C114D104A9F2A6014F5F5F4FC25E3E
:10E7B000DE4F59834883CE51D140C25EDE4F8881FF
:10E7C0009981CE51D140019711F00D9410FEC05D9A
:10E7D000DE4F19821882C053D14060E0C15DDE4F28
:10E7E0001882CF52D14088249924C35DDE4F19820C
:10E7F0001882CD52D140C05EDE4F188219821A8233
:10E800001B82C052D140CE5CDE4F188219821A8220
:10E810001B82C253D140EE24FF2487010BBFF701B6
:10E8200007911691C45CDE4F19830883CC53D14005
:10E830000D940BFEC25EDE4F28813981CE51D1404E
:10E840002130310509F52091C600C25EDE4F1982E4
:10E850001882CE51D14022C02F5F3F4F4F4F5F4FA4
:10E86000213082E138078AE7480780E0580780F0C6
:10E87000C45CDE4FE881F981CC53D140EF5FFF4F9C
:10E8800019F0EE27FF27099420E030E040E050E047
:10E890008091C00087FFE0CF2091C600C35DDE4FAE
:10E8A00048815981CD52D1404F5F5F4FC35DDE4FEC
:10E8B00059834883CD52D140213209F063C64A3092
:10E8C000510508F05FC60894811C911C53E0851621
:10E8D000910409F059C600E010E018C081E280936D
:10E8E000C6008091C00086FFFCCF8091C00080648C
:10E8F0008093C0002F5F3F4F2931310579F70F9486
:10E90000DCF10F5F1F4F0530110519F020E030E0FA
:10E91000E5CF10920A0210920B0210920C02109294
:10E920000D02109206021092070210920802109235
:10E930000902109202021092030210920402109235
:10E9400005028FEE90EE60E00F94F5F180E191EE1C
:10E9500060E00F94C2F18091C00087FFFCCF9091DE
:10E96000C600903608F09F759032B8F09093C600BC
:10E970008091C00086FFFCCF8091C00080648093AE
:10E98000C000A0E2A093C6008091C00086FFFCCF2B
:10E990008091C00080648093C000983409F4D7C18E
:10E9A0009934B8F4923409F459C1933458F490333B
:10E9B00019F1903308F4E3C59F33A1F1903409F0C5
:10E9C000DEC5BDC0953409F470C1963409F0D7C5D1
:10E9D00098C1923509F42BC2933538F49C3409F46C
:10E9E000F5C1913509F0CBC518C2963509F445C279
:10E9F000993509F0C4C567C483E792EE62E00F94CD
:10EA0000F5F110920602109207021092080210927D
:10EA1000090210920A0210920B0210920C0210923C
:10EA20000D0213C18FE792EE62E00F94F5F18FEEC5
:10EA300090EE60E00F94F5F181E291EE60E00F94CA
:10EA4000C2F187EB91EE60E00F94F5F180E391EE77
:10EA500060E00F94C2F184EE90EE60E00F94F5F167
:10EA60008FE391EE60E00F94C2F186E090E061E008
:10EA700070E00F9434F20F94DCF18DE591EE60E0DC
:10EA80000F94C2F189EC91EE60E00F94F5F18EE401
:10EA900091EE60E00F94C2F183EC91EE60E00F9490
:10EAA000F5F18CE691EE60E00F94C2F18EE10F94E7
:10EAB0000DF288E90F940DF281E00F940DF20F949E
:10EAC000DCF18BE791EE60E00F94C2F119E0E0E039
:10EAD000F0E010935700E4918E2F0F940DF20F94F5
:10EAE000DCF18AE891EE60E00F94C2F1E3E0F0E03F
:10EAF00010935700E4918E2F0F940DF20F94DCF1D8
:10EB000089E991EE60E00F94C2F1E2E0F0E0109349
:10EB10005700E4918E2F0F940DF20F94DCF188EAE8
:10EB200091EE60E00F94C2F1E1E0F0E01093570045
:10EB30001491812F0F940DF20F94DCF107CF8BE825
:10EB400092EE62E00F94F5F18BE492EE60E00F94A8
:10EB5000F5F10F94DCF100E010E019C0C8016F2D51
:10EB60000F947FFEFF2031F489E492EE60E00F9471
:10EB7000C2F10BC0F092C6008091C00086FFFCCFAE
:10EB80008091C00080648093C0000F5F1F4FC80158
:10EB900081519F41A0E0B0E0ABBFFC01F790BAE229
:10EBA000FB1621F0E2E000301E07C1F60F94DCF105
:10EBB0000F94DCF187E592EE60E00F94F5F10F948D
:10EBC000DCF1CC24DD2400E010E01EC0C8010F946D
:10EBD00077FEF82E882331F489E492EE60E00F94FA
:10EBE000C2F10BC08093C6008091C00086FFFCCFAD
:10EBF0008091C00080648093C000FE1419F00894D6
:10EC0000C11CD11C0F5F1F4FC80181519F41A0E063
:10EC1000B0E0ABBFFC01E790FAE2EF1621F022E092
:10EC20000030120799F60F94DCF10F94DCF182E6C4
:10EC300092EE60E00F94C2F1C60161E070E00F94C3
:10EC400034F20F94DCF10F94DCF110920202109276
:10EC50000302109204021092050278CE89E992EE26
:10EC600062E00F94F5F1279A2F9A16C02F9880E052
:10EC700090E0E0EDF7E03197F1F7019684369105E9
:10EC8000C1F72F9A80E090E0E0EDF7E03197F1F7DF
:10EC9000019684369105C1F78091C00087FFE6CFC9
:10ECA0008091C00087FFFCCF64C485EA92EE62E0E9
:10ECB0000F94F5F140910202509103026091040219
:10ECC0007091050281E020E10F9491F2809102029F
:10ECD00090910302A0910402B091050280509F4FD1
:10ECE000AF4FBF4F8093020290930302A0930402A0
:10ECF000B093050280509041A040B04008F426CE69
:10ED0000A4CF83EB92EE62E00F94F5F140910602FE
:10ED100050910702609108027091090280E020E1A1
:10ED20000F9491F28091060290910702A09108023F
:10ED3000B091090280509F4FAF4FBF4F80930602A2
:10ED400090930702A0930802B0930902FFCD80ECD4
:10ED500092EE62E00F94F5F183E792EE60E00F949B
:10ED6000F5F18FE792EE60E00F94F5F18BE892EE0B
:10ED700060E00F94F5F189E992EE60E00F94F5F10F
:10ED800085EA92EE60E00F94F5F183EB92EE60E09D
:10ED90000F94F5F180EC92EE60E00F94F5F187ECC2
:10EDA00092EE60E00F94F5F188ED92EE60E00F9442
:10EDB000F5F18FED92EE60E00F94F5F18AEE92EEB0
:10EDC00060E00F94F5F183E093EEBDCD87EC92EE19
:10EDD00062E00F94F5F181E40F947BF282E40F94EA
:10EDE0007BF283E40F947BF284E40F947BF285E45E
:10EDF0000F947BF286E40F947BF287E40F947BF20E
:10EE000088E40F947BF28AE40F947BF28BE40F94F6
:10EE10007BF28CE40F947BF299CD88ED92EE62E068
:10EE20000F94F5F1772473948824992409C48FED05
:10EE300092EE62E00F94F5F140910A0250910B02BC
:10EE400060910C0270910D0282E020E10F9491F22A
:10EE500080910A0290910B02A0910C02B0910D02D8
:10EE600080509F4FAF4FBF4F80930A0290930B0289
:10EE7000A0930C02B0930D0269CD8AEE92EE62E08F
:10EE80000F94F5F184EE90EE60E00F94F5F18FECC5
:10EE900091EE60E00F94F5F1662477244301CC5D98
:10EEA000DE4F19821882C452D140D401C301B695F5
:10EEB000A79597958795CA5DDE4F88839983AA8326
:10EEC000BB83C652D140CC5DDE4FA881B981C4520C
:10EED000D1401196CC5DDE4FB983A883C452D14096
:10EEE000CD0162E070E00F9434F2B0E2B093C6005E
:10EEF0008091C00086FFFCCF8091C0008064809329
:10EF0000C000EDE2E093C6008091C00086FFFCCF18
:10EF10008091C00080648093C000F0E2F093C6004E
:10EF20008091C00086FFFCCF8091C00080648093F8
:10EF3000C000CA5DDE4FE880F9800A811B81C6529D
:10EF4000D140BB27A12F902F8F2D0F940DF2CA5DBA
:10EF5000DE4F8881C652D1400F940DF2B0E2FB2EF5
:10EF6000F092C6008091C00086FFFCCF8091C00067
:10EF700080648093C0000DE30093C6008091C000C0
:10EF800086FFFCCF8091C00080648093C00010E2B7
:10EF90001093C6008091C00086FFFCCF8091C00016
:10EFA00080648093C0008BBEF3012791C65DDE4F65
:10EFB0002883CA52D140A22EBB24CC24DD2408943D
:10EFC000611C711C811C911C8BBEF3018791282E42
:10EFD0003324442455240894611C711C811C911C09
:10EFE0008BBEF3013791C55DDE4F3883CB52D140E4
:10EFF0000894611C711C811C911C8BBEF30147910C
:10F00000C45DDE4F4883CC52D140ADEFEA2EAFEF66
:10F01000FA2EAFEF0A2FAFEF1A2F6E0C7F1C801E57
:10F02000911E142D032DF22CEE24EA0CFB1C0C1D5A
:10F030001D1D0F940DF220E22093C6008091C000A8
:10F0400086FFFCCF8091C00080648093C000C65DC5
:10F05000DE4F8881CA52D1400F940DF230E23093D6
:10F06000C6008091C00086FFFCCF8091C000806404
:10F070008093C000C45DDE4F8881CC52D1400F9494
:10F080000DF240E24093C6008091C00086FFFCCFA5
:10F090008091C00080648093C000C55DDE4F888190
:10F0A000CB52D1400F940DF250E25093C6008091A4
:10F0B000C00086FFFCCF8091C00080648093C000B8
:10F0C0008FEFE8168FEFF80680E0080780E018075A
:10F0D00031F484E092EE60E00F94C2F1DFC0D80119
:10F0E000C7018070907CA070B0708050904CA040A0
:10F0F000B040D1F52FEF3FE340E050E0E222F322B1
:10F1000004231523CA5DDE4FA880B980CA80DB8046
:10F11000C652D140AE0CBF1CC01ED11EAA0CBB1CD7
:10F12000CC1CDD1C8EE092EE60E00F94C2F1BB2798
:10F13000A12F902F8F2D0F940DF28E2D0F940DF285
:10F1400030E23093C6008091C00086FFFCCF8091F2
:10F15000C00080648093C0004EE34093C60080915D
:10F16000C00086FFFCCF87C08EE09EEFA0E0B0E03D
:10F17000E822F9220A231B239CE0E91694E9F90608
:10F1800090E0090790E0190709F088C0C45DDE4FE0
:10F19000A881CC52D140EA2EFF2400E010E0102FCD
:10F1A0000F2DFE2CEE24C55DDE4FB881CB52D14031
:10F1B000EB0EF11C011D111DD601C501817090706F
:10F1C000A070B070DC0199278827E80EF91E0A1F8D
:10F1D0001B1F20EF30E040E050E0A222B322C42207
:10F1E000D52241E1AA0CBB1CCC1CDD1C4A95D1F7F1
:10F1F000EA0CFB1C0C1D1D1D81E090E0A0E0B0E0BE
:10F20000282239224A225B2235E1220C331C441C7D
:10F21000551C3A95D1F7E20CF31C041D151D57013E
:10F220006801AA0CBB1CCC1CDD1C85E192EE60E0E1
:10F230000F94C2F1C801AA27BB270F940DF2BB2778
:10F24000A12F902F8F2D0F940DF28E2D0F940DF274
:10F2500090E29093C6008091C00086FFFCCF809121
:10F26000C00080648093C000AEE3A093C60080918C
:10F27000C00086FFFCCF8091C00080648093C000F6
:10F28000C601AA27BB270F940DF2BB27AD2D9C2DDD
:10F290008B2D0F940DF28A2D0F940DF20F94DCF14B
:10F2A000CC5DDE4FE881F981C452D140F99709F471
:10F2B0004DCBF4E0EF2EF12C012D112D6E0C7F1CA7
:10F2C000801E911EF2CD83E093EE62E00F94F5F183
:10F2D0008AE192EE60E00F94C2F18091C00087FF56
:10F2E000FCCF1091C6001F751093C6008091C0001E
:10F2F00086FFFCCF8091C00080648093C0000F9493
:10F30000DCF1812F81548A3108F036C1163409F4BA
:10F3100095C0173490F4133409F44EC0143430F40B
:10F320001134F1F0123409F01DC130C0143409F465
:10F3300059C0153409F016C16BC01A3409F4C4C0A1
:10F340001B3438F4173409F48FC0183409F00AC19B
:10F35000A1C01B3409F4D2C01C3409F003C1E8C0B9
:10F360008FEF81B90DC082B1809582B980E090E0C5
:10F37000E0EDF7E03197F1F70196883C9105C1F790
:10F380008091C00087FFEFCF12B8EFC08FEF84B934
:10F390000DC085B1809585B980E090E0E0EDF7E0A3
:10F3A0003197F1F70196883C9105C1F78091C00033
:10F3B00087FFEFCF15B8D9C08FEF87B90DC088B1DF
:10F3C000809588B980E090E0E0EDF7E03197F1F7C3
:10F3D0000196883C9105C1F78091C00087FFEFCF6F
:10F3E00018B8C3C08FEF8AB90DC08BB180958BB9A7
:10F3F00080E090E0E0EDF7E03197F1F70196883C8E
:10F400009105C1F78091C00087FFEFCF1BB8ADC059
:10F410008FEF8DB90DC08EB180958EB980E090E0F0
:10F42000E0EDF7E03197F1F70196883C9105C1F7DF
:10F430008091C00087FFEFCF1EB897C08FEF80BBD1
:10F440000DC081B3809581BB80E090E0E0EDF7E0F6
:10F450003197F1F70196883C9105C1F78091C00082
:10F4600087FFEFCF11BA81C08FEF83BB0DC084B38C
:10F47000809584BB80E090E0E0EDF7E03197F1F714
:10F480000196883C9105C1F78091C00087FFEFCFBE
:10F4900014BA6BC08FEF809301010FC080910201FD
:10F4A00080958093020180E090E0E0EDF7E03197F5
:10F4B000F1F70196883C9105C1F78091C00087FF64
:10F4C000EDCF1092020151C08FEF809304010FC065
:10F4D0008091050180958093050180E090E0E0ED4A
:10F4E000F7E03197F1F70196883C9105C1F78091DB
:10F4F000C00087FFEDCF1092050137C08FEF8093DA
:10F5000007010FC08091080180958093080180E079
:10F5100090E0E0EDF7E03197F1F70196883C910536
:10F52000C1F78091C00087FFEDCF109208011DC088
:10F530008FEF80930A010FC080910B01809580931B
:10F540000B0180E090E0E0EDF7E03197F1F70196F4
:10F55000883C9105C1F78091C00087FFEDCF1092E4
:10F560000B0103C085E292EEEEC98091C00087FFD7
:10F57000FCCF8091C600EAC988E392EEE4C98CE131
:10F5800091EEE1C988249924933011F1943028F444
:10F59000913089F09230B8F408C0953061F195301F
:10F5A000F0F0963009F048C043C02B3109F042C951
:10F5B00091E06BE13FC96227C15DDE4F2883CF52E6
:10F5C000D14092E037C9B22FA0E0622793E032C960
:10F5D000822F90E0A82BB92B622794E02BC92E3004
:10F5E00009F039C3622795E0C05DDE4F19821882A9
:10F5F000C053D1401FC9E1E0F0E0EC0FFD1FC05D3A
:10F60000DE4F08811981C053D140E00FF11F2083E4
:10F610000F5F1F4FC05DDE4F19830883C053D14079
:10F6200062270A171B0709F005C9D80196E002C92D
:10F63000261709F010C303C0973009F0FBC87724E0
:10F640009981933109F412C19431C8F4963009F4C8
:10F65000D8C0973050F4923009F406C1933009F4C1
:10F660006DC0913009F059C253C0913109F477C08F
:10F67000923108F0BBC0903109F04FC2F5C098310B
:10F6800009F487C0993150F4953109F4EFC09531F0
:10F6900008F4C6C1963109F040C2C2C19A3109F4DA
:10F6A0006CC09A3108F491C09B3109F45BC09D3164
:10F6B00009F033C29D81903359F48F81882311F46E
:10F6C0009EE11CC0813011F091E018C098E916C08D
:10F6D000892F807591F0903539F4E0E0F0E089E011
:10F6E0008093570094910AC0983539F4E3E0F0E034
:10F6F00089E080935700949101C090E01A821B82A8
:10F700008D818C831D829E831F8227E030E009C299
:10F710001A8288E08B8381E48C8386E58D8382E581
:10F720008E8389E48F8383E5888780E589878FE5E9
:10F730008A8782E38B872BE030E0F3C18A818139AD
:10F7400041F0823941F0803911F48FE005C080E04A
:10F7500003C082E001C08AE01A828B8344C0772410
:10F76000739482C08D81882311F48EE12CC0813086
:10F7700011F081E028C088E926C01A82E1E0F0E0BB
:10F7800089E08093570084918B831C8224E030E0D1
:10F79000C8C18B81803589F48C81883039F4E2E0EE
:10F7A000F0E089E08093570084910DC0E0E0F0E044
:10F7B00089E080935700849106C0E3E0F0E089E09F
:10F7C0008093570084911A82DFCF8D81836C99E0FA
:10F7D000E1E0F0E0082E90935700E89507B600FCB2
:10F7E000FDCF1A821B8223E030E09BC180EC8A832C
:10F7F000CE5CDE4F188219821A821B82C253D1401E
:10F800008EC18A8190E0A0E0B0E0582F44273327D2
:10F8100022278B8190E0A0E0B0E0DC0199278827C7
:10F82000282B392B4A2B5B2B8D8190E0A0E0B0E098
:10F83000282B392B4A2B5B2B8C8190E0A0E0B0E089
:10F84000BA2FA92F982F8827282B392B4A2B5B2BCF
:10F85000220F331F441F551FC05EDE4F288339839C
:10F860004A835B83C052D1401A8259C13A81C95C34
:10F87000DE4F3883C753D140CA5CDE4F1882C6536F
:10F88000D1408B81C82EDD24CA5CDE4F488159816E
:10F89000C653D140C42AD52A933109F082C0CE5C28
:10F8A000DE4F88819981AA81BB81C253D1408050AB
:10F8B000904CA340B04030F583E0CE5CDE4FE88052
:10F8C000F9800A811B81C253D140F70100935B008C
:10F8D00080935700E89507B600FCFDCFCE5CDE4F65
:10F8E000088119812A813B81C253D14000501F4FAA
:10F8F0002F4F3F4FCE5CDE4F088319832A833B8313
:10F90000C253D140C05EDE4F488159816A817B81FC
:10F91000C052D140DE011B9631E08C9111962C91A2
:10F9200011971296C75CDE4F2883C953D140C85C3B
:10F93000DE4F1882C853D14090E0C85CDE4FE881AA
:10F94000F981C853D1408E2B9F2B0C01FA01609393
:10F950005B0030935700E89511244E5F5F4F6F4F67
:10F960007F4F0EEFE02E0FEFF02ECE0CDF1CC114F8
:10F97000D10499F685E0C05EDE4F088119812A81A5
:10F980003B81C052D140F80120935B008093570027
:10F99000E89507B600FCFDCF81E180935700E8951C
:10F9A00035C0C05EDE4F88819981AA81BB81C0527B
:10F9B000D140B695A795979587957C018601ABE0D8
:10F9C000AA2EB12CAC0EBD1E0BC0D5016D915D01F0
:10F9D000C7010F947FFE0894E11CF11C01501040F8
:10F9E0000115110591F7A60160E070E0440F551F65
:10F9F000661F771FC05EDE4FE880F9800A811B8199
:10FA0000C052D1404E0D5F1D601F711F1A82C05E33
:10FA1000DE4F488359836A837B83C052D1407FC0C5
:10FA2000FA80C55CDE4FF882CB53D140C65CDE4F16
:10FA30001882CA53D1408B81C82EDD24C65CDE4FAC
:10FA400008811981CA53D140C02AD12A1A828981DA
:10FA5000BE016D5F7F4F843121F59601C05EDE4FA0
:10FA6000E880F9800A811B81C052D1400BBFF701A9
:10FA700087919691DB018C9311969C936E5F7F4FDB
:10FA8000D801C7010296A11DB11DC05EDE4F88835B
:10FA90009983AA83BB83C052D14022503040F1F6F3
:10FAA00036C0C05EDE4F288139814A815B81C052F9
:10FAB000D1400894C108D108760100E010E0089414
:10FAC000C11CD11C0894E11CF11C011D111DE20E8A
:10FAD000F31E041F151F21BDBB27A52F942F832FB5
:10FAE00082BD2F5F3F4F4F4F5F4FF89A80B5DB01CC
:10FAF0008D93BD012E153F054007510761F7C05E8C
:10FB0000DE4F288339834A835B83C052D1409601FC
:10FB10002D5F3F4FFB01108204C080EC8A8322E0FE
:10FB200030E08BE18093C6008091C00086FFFCCF5F
:10FB30008091C00080648093C000C15DDE4FF88179
:10FB4000CF52D140F093C6008091C00086FFFCCF19
:10FB50008091C00080648093C000432F3093C60022
:10FB60008091C00086FFFCCF8091C00080648093AC
:10FB7000C000922F2093C6008091C00086FFFCCF6A
:10FB80008091C00080648093C0008EE08093C600A6
:10FB90008091C00086FFFCCF8091C000806480937C
:10FBA000C00065E1C15DDE4FE880CF52D1406E25D7
:10FBB00069276427FE01319610C090819093C6009A
:10FBC0008091C00086FFFCCF31968091C000806498
:10FBD0008093C0006927215030402115310569F715
:10FBE0006093C6008091C00086FFFCCF8091C0006A
:10FBF00080648093C00085B1805885B9772081F4F6
:10FC0000C15DDE4F0881CF52D1400F5FC15DDE4F35
:10FC10000883CF52D14090E0A0E0B0E00D941AF4F8
:10FC200027982F9880E090E020ED37E0F901319798
:10FC3000F1F7019684369105C9F700008091C00064
:10FC40008D7F8093C00081E180935700E895EE2777
:10FC5000FF270994FFCF90E00D941AF497FB092E2B
:10FC600007260AD077FD04D02ED006D000201AF443
:10FC7000709561957F4F0895F6F7909581959F4F08
:10FC80000895A1E21A2EAA1BBB1BFD010DC0AA1FDD
:10FC9000BB1FEE1FFF1FA217B307E407F50720F0F5
:10FCA000A21BB30BE40BF50B661F771F881F991F70
:10FCB0001A9469F760957095809590959B01AC01B9
:10FCC000BD01CF010895AA1BBB1B51E107C0AA1FAC
:10FCD000BB1FA617B70710F0A61BB70B881F991FED
:10FCE0005A95A9F780959095BC01CD010895F99991
:10FCF000FECF92BD81BDF89A992780B50895262F31
:10FD0000F999FECF1FBA92BD81BD20BD0FB6F89400
:0EFD1000FA9AF99A0FBE01960895F894FFCF63
:00000001FF
