:100000000C943B010C946C010C946C010C946C01ED
:100010000C946C010C946C010C946C010C946C01AC
:100020000C946C010C946C010C946C010C946C019C
:100030000C946C010C946C010C946C010C946C018C
:100040000C946C010C94C9060C946C010C946C011A
:100050000C946C010C946C010C946C010C94F505DF
:100060000C946C010C94BF050C9495050C946C01D8
:100070000C946C010C946C010C946C010C946C014C
:100080000C949B060C946C010C946C010C946C0108
:100090000C946C010C946C010C946C010C946C012C
:1000A0000C946C010C946C010C946D060C946C0116
:1000B0000C946C010C946C010C946C010C943F0634
:1000C0000C946C010C946C010C946C010C946C01FC
:1000D0000C946C010C946C010C946C010C946C01EC
:1000E0000C946C010C9453030C9459030C945F0210
:1000F0000C9472030C94C5030C9494030C942E027C
:100100000C9478030C9486030C94F7060C9451021B
:100110000C94E4020C9498030C9493030C943D0209
:100120000C94F6030C9468030C9480030C9436042E
:100130000C947C030C9401020C9465030C948A03C8
:100140000C946E030C948E030C945D030C94610369
:100150000C94970200002100240027002A002D00A3
:100160003000330001010000040107010A01000012
:100170002200250028002B002E003100340002014F
:100180000000050108010B010000200023002600EB
:1001900029002C002F00320000010000030106019D
:1001A00009010505050507050808080802020202FD
:1001B0000A0A080804040404010101010101010103
:1001C0000303030303030303040707070C0C0C0CCE
:1001D0000C0C0C0C020202020606060606060606B7
:1001E0000B0B0B0B0B0B0B0B010210202008081044
:1001F0002040102040800201020108040201010297
:10020000040810204080804020100804020180046F
:1002100002018040201008040201080402010102CA
:1002200004081020408001020408102040800000D3
:100230000A0B02090C0D0E08070304010000000060
:1002400000000000000000000000000000000000AE
:10025000000000000000000000001211100000006B
:10026000000000000000000000000000000000008E
:1002700000000000F70611241FBECFEFD1E2DEBF61
:10028000CDBF00E00CBF12E0A0E0B2E0E4E7FCE18B
:1002900000E00BBF02C007900D92AC33B107D9F755
:1002A00023E0ACE3B2E001C01D92AB3FB207E1F73F
:1002B00011E0CBE3D1E000E006C021970109802FD7
:1002C000FE010E941A0CCA33D10780E00807A9F783
:1002D0000E949E070C94380E0C94000096E0899FB3
:1002E000D0011124A857BC4F90967C936E935F97D2
:1002F00091E091969C939197E091F503F091F6032C
:100300009091F403992339F0309751F0811108C08E
:100310008091A4031994309719F05C968C91FACFD0
:100320000895CF92DF92EF92FF920F931F9396E082
:10033000899FF0011124E857FC4F11A2278D30A1AD
:100340002130310551F178F02230310509F451C0E6
:100350002330310509F452C01F910F91FF90EF90A7
:10036000DF90CF9008956623B9F361E070E00E94BA
:100370006E012FB7F89480914D0290914E02A0919A
:100380004F02B09150022FBF8093E0039093E1039E
:10039000A093E203B093E303DFCF9FB7F894C0903C
:1003A0004D02D0904E02E0904F02F09050029FBF5D
:1003B0000091E0031091E1032091E2033091E30307
:1003C000C01AD10AE20AF30A0091F2031091F30372
:1003D00030E020E00C151D052E053F0550F462E0CD
:1003E00070E01F910F91FF90EF90DF90CF900C94F1
:1003F0006E016111B1CF63E070E0F3CF70E060E0B7
:10040000F0CFAF92BF92CF92DF92EF92FF920F9315
:100410001F93CF93DF936C017B018B01040F151F9A
:10042000EB015E01AE18BF08C017D10759F0699102
:10043000D601ED91FC910190F081E02DC601199556
:10044000892B79F7C501DF91CF911F910F91FF9013
:10045000EF90DF90CF90BF90AF900895FC01538D47
:10046000448D252F30E0842F90E0821B930B54178E
:1004700010F0CF96089501970895FC01918D828D1B
:10048000981761F0A28DAE0FBF2FB11D5D968C91B4
:10049000928D9F5F9F73928F90E008958FEF9FEFF3
:1004A0000895FC01918D828D981731F0828DE80FAF
:1004B000F11D858D90E008958FEF9FEF0895FC0169
:1004C000918D228D892F90E0805C9F4F821B910936
:1004D0008F739927089587E592E00E945F0221E0DB
:1004E000892B09F420E0822F0895FC01A48DA80F28
:1004F000B92FB11DA35ABF4F2C91848D90E0019666
:100500008F739927848FA689B7892C93A089B18985
:100510008C91837080648C93938D848D981306C026
:100520000288F389E02D80818F7D80830895EF928A
:10053000FF920F931F93CF93DF93EC0181E0888F9D
:100540009B8D8C8D98131AC0E889F989808185FF6D
:1005500015C09FB7F894EE89FF896083E889F9890F
:1005600080818370806480839FBF81E090E0DF9111
:10057000CF911F910F91FF90EF900895F62E0B8D64
:1005800010E00F5F1F4F0F731127E02E8C8D8E111F
:100590000CC00FB607FCFACFE889F989808185FF86
:1005A000F5CFCE010E947502F1CFEB8DEC0FFD2F40
:1005B000F11DE35AFF4FF0829FB7F8940B8FEA8941
:1005C000FB8980818062CFCFCF93DF93EC01888D50
:1005D0008823B9F0AA89BB89E889F9898C9185FDBE
:1005E00003C0808186FD0DC00FB607FCF7CF8C914C
:1005F00085FFF2CF808185FFEDCFCE010E9475028D
:10060000E9CFDF91CF91089580E090E0892B29F028
:100610000E946B0281110E94000080E090E0892B13
:1006200049F080E090E0892B29F00E9400008111C0
:100630000E94000080E090E0892B49F080E090E08B
:10064000892B29F00E94000081110E94000080E0A7
:1006500090E0892B49F080E090E0892B29F00E94FE
:10066000000081110C94000008958150823108F03F
:100670005AC0E82FF0E08827EF5BFC4F8F4F0C94B7
:100680001A0C61036503530359035D039303680365
:100690006E03720378037C03800386038A0393034B
:1006A0008E0394039803809180008F77809380005D
:1006B0000895809180008F7DF9CF80918000877FA1
:1006C000F5CF84B58F7784BD089584B58F7DFBCF3A
:1006D0008091B0008F778093B00008958091B00032
:1006E0008F7DF9CF809190008F778093900008954F
:1006F000809190008F7DF9CF80919000877FF5CF1A
:100700008091A0008F778093A00008958091A00031
:100710008F7DF9CF8091A000877FF5CF8091200158
:100720008F77809320010895809120018F7DF9CFEC
:1007300080912001877FF5CFCF93DF93282F30E082
:10074000F901E25DFD4F8491F901E851FE4FD4912A
:10075000F901EE55FE4FC491CC23A1F081110E9406
:100760003503EC2FF0E0EE0FFF1FE857FE4FA59189
:10077000B491EC91ED2381E090E009F480E0DF9109
:10078000CF91089580E090E0FACF862F0C949C03DF
:100790001F93CF93DF93282F30E0F901E25DFD4FE7
:1007A0008491F901E851FE4FD491F901EE55FE4FC5
:1007B000C491CC23A9F0162F81110E943503EC2F90
:1007C000F0E0EE0FFF1FE259FE4FA591B4918FB7F5
:1007D000F894EC91111108C0D095DE23DC938FBF03
:1007E000DF91CF911F910895DE2BF8CF862F642FD4
:1007F0000C94C803CF93DF9390E0FC01E851FE4FC7
:1008000024918E559E4FFC0184918823C9F090E07D
:10081000880F991FFC01EC5AFE4FA591B491FC0181
:10082000E259FE4FC591D49161110DC09FB7F89464
:100830008C91209582238C938881282328839FBFC5
:10084000DF91CF910895623051F49FB7F8943C91B5
:10085000822F809583238C93E8812E2BEFCF8FB747
:10086000F894EC912E2B2C938FBFEACF862F642F18
:100870000C94FA033FB7F8948091410290914202A0
:10088000A0914302B091440226B5A89B05C02F3F1A
:1008900019F00196A11DB11D3FBFBA2FA92F982FA6
:1008A0008827BC01CD01620F711D811D911D42E0A1
:1008B000660F771F881F991F4A95D1F70895AF9249
:1008C000BF92CF92DF92EF92FF920F931F93CF933D
:1008D000DF936B017A01EC01C45CDD4F28813CE0C1
:1008E000389F8001399F100D1124A0908403B12CF2
:1008F00027FF1FC0FB011182108288818F5F8883D0
:1009000088819801280F311D87FD3A95F6012A1537
:100910003B051CF488818C30C4F180819181049660
:1009200080349C4908F473C0F6018081918104965B
:1009300070C088819801280F311D87FD3A952A15CE
:100940003B05DCF68881A801480F511D87FD5A95AB
:10095000FA01EE0FFF1FE40FF51FEC50FD4F8081F1
:1009600086FFCBCF8881F801E80FF11D87FDFA954E
:10097000CF01EE0FFF1FE80FF91FEC50FD4F8081F4
:1009800060E08F730E94C803B8CF80819181288175
:10099000A801420F511D27FD5A959A01FA01EE0F49
:1009A000FF1FE20FF31FEC50FD4F21813281820FB8
:1009B000931FF7019183808388819801280F311D4F
:1009C00087FD3A95F901EE0FFF1FE20FF31FEC5080
:1009D000FD4F808186FF22C08881080F111D87FD91
:1009E0001A95F801EE0FFF1FE00FF11FEC50FD4FBD
:1009F000808161E08F73DF91CF911F910F91FF9004
:100A0000EF90DF90CF90BF90AF900C94C80380E43C
:100A10009CE9F701918380838FEF8883DF91CF91E9
:100A20001F910F91FF90EF90DF90CF90BF90AF900C
:100A300008958F929F92AF92BF920F931F93CF937F
:100A4000DF93CDB7DEB7A1970FB6F894DEBF0FBE28
:100A5000CDBF19A2423008F44AE08E010F5D1F4F4E
:100A6000842E912CB12CA12CA50194010E94DD0BA8
:100A7000E62FB901CA01EA3044F5E05DD801EE93F2
:100A80008D01232B242B252B79F790E080E0109704
:100A900069F0FD0101900020E9F73197AF014A1B91
:100AA0005B0BBD0187E592E00E940102A1960FB6A3
:100AB000F894DEBF0FBECDBFDF91CF911F910F9194
:100AC000BF90AF909F908F900895E95CD7CFCF9360
:100AD000DF93EC018091510290915202009759F0FE
:100AE00020915302309154022C173D0720F081E0F1
:100AF000DF91CF910895BE016F5F7F4F0E94470D38
:100B0000009789F09093520280935102D09354023F
:100B1000C09353022091550230915602232B39F78E
:100B2000FC011082E4CF80E0E3CF1F920F920FB65A
:100B30000F9211240BB60F922F933F934F935F9315
:100B40006F937F938F939F93AF93BF93EF93FF9395
:100B500087E592E00E947502FF91EF91BF91AF91FE
:100B60009F918F917F916F915F914F913F912F91C5
:100B70000F900BBE0F900FBE0F901F9018951F92F5
:100B80000F920FB60F9211240BB60F922F938F93E3
:100B90009F93EF93FF93E0916702F0916802808149
:100BA000E0916D02F0916E0282FD1DC090818091F6
:100BB00070028F5F8F7320917102821741F0E09174
:100BC0007002F0E0E95AFD4F958F80937002FF911B
:100BD000EF919F918F912F910F900BBE0F900FBEB1
:100BE0000F901F9018958081F2CF1F920F920FB631
:100BF0000F9211242F933F938F939F93AF93BF93A3
:100C000080914D0290914E02A0914F02B0915002FE
:100C10003091400223E0230F2D3758F50196A11D96
:100C2000B11D2093400280934D0290934E02A093F9
:100C30004F02B09350028091410290914202A091E4
:100C40004302B09144020196A11DB11D809341025F
:100C500090934202A0934302B0934402BF91AF919C
:100C60009F918F913F912F910F900FBE0F901F90EA
:100C7000189526E8230F0296A11DB11DD2CF1F9211
:100C80000F920FB60F9211240BB60F922F933F9332
:100C90004F935F936F937F938F939F93AF93BF9384
:100CA000EF93FF9348E251E064E271E090E080E06E
:100CB0000E945F04FF91EF91BF91AF919F918F913F
:100CC0007F916F915F914F913F912F910F900BBE4C
:100CD0000F900FBE0F901F9018951F920F920FB696
:100CE0000F9211240BB60F922F933F934F935F9364
:100CF0006F937F938F939F93AF93BF93EF93FF93E4
:100D000048EA50E064EA70E083E090E00E945F040B
:100D1000FF91EF91BF91AF919F918F917F916F91D3
:100D20005F914F913F912F910F900BBE0F900FBE8F
:100D30000F901F9018951F920F920FB60F921124CB
:100D40000BB60F922F933F934F935F936F937F93C5
:100D50008F939F93AF93BF93EF93FF9348E950E036
:100D600064E970E082E090E00E945F04FF91EF91FF
:100D7000BF91AF919F918F917F916F915F914F91B3
:100D80003F912F910F900BBE0F900FBE0F901F90B1
:100D900018951F920F920FB60F9211240BB60F9257
:100DA0002F933F934F935F936F937F938F939F9373
:100DB000AF93BF93EF93FF9348E850E064E870E08F
:100DC00081E090E00E945F04FF91EF91BF91AF91AD
:100DD0009F918F917F916F915F914F913F912F9153
:100DE0000F900BBE0F900FBE0F901F901895109292
:100DF0005A021092590288EE93E0A0E0B0E080938E
:100E00005B0290935C02A0935D02B0935E0282E26B
:100E100092E0909358028093570285EC90E0909373
:100E200064028093630284EC90E090936602809366
:100E3000650280EC90E0909368028093670281ECF9
:100E400090E090936A028093690282EC90E0909324
:100E50006C0280936B0286EC90E090936E0280931C
:100E60006D02109270021092710210927202109232
:100E7000730210928A0310928E0310928D031092C7
:100E80008F0384E392E09093890380938803E4EADC
:100E9000F3E01082148213821582369683E0E03EDE
:100EA000F807B9F784E092E09093EB038093EA03AC
:100EB00080E092E09093ED038093EC0384E08093D4
:100EC000EE038093EF0388E092E09093E903809330
:100ED000E8038AE090E09093F1038093F00384EFBD
:100EE00091E09093F3038093F2031092F603109233
:100EF000F5031092E4031092E5031092E6031092BA
:100F0000E7031092F40380918403803398F491E016
:100F1000980F909384038093850390E0FC01EE0F7B
:100F2000FF1FE80FF91FEC50FD4F88EB9BE0928309
:100F3000818308958FEF809385030895CF93DF9386
:100F40001F921F92CDB7DEB7789484B5826084BDBE
:100F500084B5816084BD85B5826085BD85B58160BD
:100F600085BD80916E00816080936E00109281003B
:100F700080918100826080938100809181008160F6
:100F800080938100809180008160809380008091B7
:100F9000B10084608093B1008091B0008160809343
:100FA000B0008091910082608093910080919100C7
:100FB0008160809391008091900081608093900087
:100FC0008091A10082608093A1008091A100816046
:100FD0008093A1008091A00081608093A000809107
:100FE00021018260809321018091210181608093A1
:100FF00021018091200181608093200180917A00FD
:10100000846080937A0080917A00826080937A0075
:1010100080917A00816080937A0080917A00806864
:1010200080937A001092C10080918503803308F08C
:1010300054C061E089E00E94FA0380918503282F63
:1010400030E0F901EE0FFF1FE20FF31FEC50FD4FF0
:101050009081907C996090839EE89093860394E6BB
:10106000909387032CE0622F0E940E0C829FB001A8
:10107000112430E020E0AB01420F531FFA01EE0FC4
:10108000FF1FE40FF51FEC50FD4F908196FD17C038
:101090002F5F3F4F2C30310571F7813009F0C0C010
:1010A0001092800082E0809381001092850010925F
:1010B0008400B19A80916F00826080936F00E0910C
:1010C00085038E2F90E0FC01EE0FFF1FE80FF91F44
:1010D000EC50FD4F808180648083E0916702F09145
:1010E000680282E08083E0916302F09164021082E2
:1010F000E0916502F09166028FEC808310926F029E
:10110000E0916B02F0916C0286E08083E0916902CD
:10111000F0916A02808180618083E0916902F091A0
:101120006A02808188608083E0916902F0916A029E
:10113000808180688083E0916902F0916A028081F9
:101140008F7D808336E0232E44EB442E512C612C7E
:10115000712C8091450281112BC010925202109285
:1011600051021092540210925302109256021092A1
:10117000550290E080E00E94670520915102309175
:101180005202811179C02115310519F0C9010E945F
:10119000BE0C1092520210925102109256021092FE
:1011A0005502109254021092530221E020934502FE
:1011B00041E04093F4038FB7F89440914D02509171
:1011C0004E0260914F02709150028FBF8091E403F4
:1011D0009091E503A091E603B091E703481B590BFA
:1011E0006A0B7B0B8091F0039091F103B0E0A0E0DB
:1011F00084179507A607B70708F039C210E0809159
:10120000EE03181708F042C0E091EA03F091EB03F7
:10121000E10FF11D62E080810E94FA031F5FEFCFB2
:10122000823061F4109290008093910010929500AA
:101230001092940088BB8093710041CF833069F491
:101240001092A00082E08093A1001092A50010925D
:10125000A40089BB8093720032CF811130CF1092ED
:10126000200182E080932101109225011092240137
:101270008ABB8093730023CF1092560210925502BE
:101280006AE372E0C9010E94310E8FCFF12C809188
:10129000EF03F81608F063C0CF2CD12CE091EC03DB
:1012A000F091ED03EC0DFD1D61E080810E94FA03D9
:1012B000E091EC03F091ED03EC0DFD1D60E0808109
:1012C0000E94C80381E090E0A0E0B0E00F2C04C0D1
:1012D000880F991FAA1FBB1F0A94D2F74C015C010B
:1012E000A094B094312C8091EE03381608F5032DAC
:1012F00010E0E091EA03F091EB03E00FF11F808131
:101300000E949C030C5F1F4F000F111FF801E8574C
:10131000FC4F892B41F480819181882999299183FF
:1013200080833394E0CF808191818A219B21F7CF04
:10133000E091EC03F091ED03EC0DFD1D61E0808187
:101340000E94C8038091EC039091ED03C80ED91E52
:1013500060E0F60180810E94FA03F39498CF08E8D8
:1013600013E0F801878D90A1892B31F4148E4FEF93
:101370005FEF568F458F11A2369653E0E43CF50798
:1013800089F7F12C8091EE03F81608F052C0D12CA9
:10139000AF2CB12CAA0CBB1CC50180579C4F5C0123
:1013A0002091EF03D21608F042C0F50160817181EF
:1013B0000D2C02C0769567950A94E2F7F29E900193
:1013C00011242D0D311DE8E8F3E080E0458D568DA8
:1013D0002417350709F481C18F5F36968A30B1F73B
:1013E00060FF23C0E8E8F3E090E080E0448D411125
:1013F00017C0E091E803F091E903E20FF31F408189
:10140000289EF001299EF00D1124E857FC4F448FCF
:10141000368F258F10A2178E61E00E94910105C0C2
:10142000019636968A30910509F7D394B9CFF39493
:10143000A9CF80E0F80191A19111892F0A5F1F4F78
:10144000F3E0043C1F07B1F79FB7F89440914D02B9
:1014500050914E0260914F02709150029FBF409395
:10146000E4035093E5036093E6037093E703882356
:1014700009F4FDC08091A903882309F4F8C0809184
:10148000A7039091A803019709F0F1C08091A403EC
:101490008D3309F0EFC08091510290915202009774
:1014A00009F40DC10E946F0B645B71094B01770F4A
:1014B000AA08BB084AE0C501B401B7FE0DC06DE241
:1014C00087E592E00E94970266277727CB0168198B
:1014D00079098A099B094AE00E941905A50194012E
:1014E0002C543F4F4F4F5F4FA4EBB0E00E94CA0B0C
:1014F00028E631E040E050E00E94AB0BC901490111
:10150000803222E09207DCF520918603E8E88E2EF7
:10151000912C821A910827FD9394880C991C880CB1
:10152000991C092C000CAA08BB082091870348E5E8
:1015300052E0421B510927FD5395440F551F440F9C
:10154000551F052E000C660B770B9A01AB0128196D
:1015500039094A095B09DC01853B910514F0A4EBCC
:10156000B0E0B7FF02C0B0E0A0E00E94D50BA3013D
:1015700092010E94AB0B820E931EA41EB51E2091F9
:101580008503203380F58091860348E850E0481BAE
:10159000510987FD5395CA01880F991F880F991F1C
:1015A0008816990684F03091870388E592E0831BC2
:1015B000910937FD9395880F991F880F991F8816F9
:1015C00099060CF4C4010297880F991F4FB7F8943D
:1015D00030E0F901EE0FFF1FE20FF31FEC50FD4F5B
:1015E000928381834FBF0E943A044B015C0188E8DB
:1015F000C82E83E1D82EE12CF12C0E943A04681900
:1016000079098A099B09683E734081059105A8F311
:1016100051E0C51AD108E108F10888EE880E83E090
:10162000981EA11CB11CC114D104E104F10429F7D6
:1016300090E080E00E9467052091510230915202B3
:10164000811141C02115310519F0C9010E94BE0C5C
:1016500010925202109251021092560210925502AC
:1016600010925402109253020E94040372CD109201
:10167000F40380E090ED980F9A30B0F789831A82D6
:1016800000915502109156020F5F1F4FC8010E9432
:101690006705882349F320915102309152028091CD
:1016A000550290915602BE016F5F7F4F820F931FCC
:1016B0000E94310E1093560200935502D5CF60E080
:1016C00070E0CB01F1CE10925602109255026AE3FF
:1016D00072E0C9010E94310EC7CF61709ECE1F9388
:1016E000FC0199278827BC01E89411911032E9F395
:1016F000193010F01E30C8F31B3251F01D3249F47E
:10170000689406C00E94960B610F711D811D911D8A
:10171000119110531A30B0F33EF490958095709566
:1017200061957F4F8F4F9F4F1F910895592F482FDD
:10173000372F262F660F771F881F991F660F771F79
:10174000881F991F620F731F841F951F660F771FD5
:10175000881F991F0895052E97FB1EF400940E9480
:10176000C20B57FD07D00E94DD0B07FC03D04EF4DF
:101770000C94C20B50954095309521953F4F4F4F9B
:101780005F4F089590958095709561957F4F8F4F2D
:101790009F4F08950E94FF0BA59F900DB49F900D41
:1017A000A49F800D911D11240895B7FF0C94CA0BBE
:1017B0000E94CA0B821B930B0895A1E21A2EAA1B4A
:1017C000BB1BFD010DC0AA1FBB1FEE1FFF1FA217F1
:1017D000B307E407F50720F0A21BB30BE40BF50BEE
:1017E000661F771F881F991F1A9469F76095709577
:1017F000809590959B01AC01BD01CF010895A29FFA
:10180000B001B39FC001A39F700D811D1124911DD4
:10181000B29F700D811D1124911D0895991B79E0CF
:1018200004C0991F961708F0961B881F7A95C9F770
:1018300080950895EE0FFF1F881F8BBF0790F691CC
:10184000E02D19940F931F93CF93DF93823091056E
:1018500010F482E090E0E091F903F091FA0330E0B7
:1018600020E0B0E0A0E0309799F42115310509F4AB
:101870004AC0281B390B24303105D8F58A819B8159
:101880006115710589F1FB0193838283FE0111C00B
:10189000408151810281138148175907E0F04817B0
:1018A000590799F4109761F012960C9312971396BA
:1018B0001C933296CF01DF91CF911F910F91089524
:1018C0000093F9031093FA03F4CF2115310551F079
:1018D0004217530738F0A901DB019A01BD01DF016E
:1018E000F801C1CFEF01F9CF9093FA038093F90388
:1018F000CDCFFE01E20FF31F819391932250310966
:1019000039832883D7CF2091F7033091F803232B15
:1019100041F420911A0230911B023093F803209376
:10192000F70320911802309119022115310541F475
:101930002DB73EB740911C0250911D02241B350B60
:10194000E091F703F091F803E217F307A0F42E1BE0
:101950003F0B2817390778F0AC014E5F5F4F241713
:10196000350748F04E0F5F1F5093F8034093F7037D
:10197000819391939FCFF0E0E0E09CCFCF93DF93F2
:101980000097E9F0FC01329713821282A091F903CB
:10199000B091FA03ED0130E020E01097A1F420812E
:1019A0003181820F931F2091F7033091F80328179C
:1019B000390709F061C0F093F803E093F703DF9172
:1019C000CF910895EA01CE17DF07E8F54A815B81E0
:1019D0009E0141155105B1F7E901FB83EA83499165
:1019E0005991C40FD51FEC17FD0761F480819181D7
:1019F0000296840F951FE9019983888382819381E0
:101A00009B838A83F0E0E0E012968D919C9113977E
:101A10000097B9F52D913C911197CD010296820F57
:101A2000931F2091F7033091F8032817390739F6EF
:101A3000309751F51092FA031092F903B093F8031E
:101A4000A093F703BCCFD383C28340815181840F1D
:101A5000951FC817D90761F44E5F5F4F8881998140
:101A6000480F591F518340838A819B8193838283CE
:101A70002115310509F0B0CFF093FA03E093F90393
:101A80009ECFFD01DC01C0CF13821282D7CF4F92CF
:101A90005F926F927F928F929F92AF92BF92CF92FE
:101AA000DF92EF92FF920F931F93CF93DF938C01FE
:101AB000009799F4CB01DF91CF911F910F91FF9087
:101AC000EF90DF90CF90BF90AF909F908F907F90DE
:101AD0006F905F904F900C94220CFC01E60FF71F63
:101AE0009C0122503109E217F30708F4AEC0D90176
:101AF000CD91DC911197C617D70720F1C530D105DC
:101B000078F0CE0104978617970750F0C61BD70BC5
:101B10002297C193D1936D937C93CF010E94BE0C09
:101B2000C801DF91CF911F910F91FF90EF90DF904F
:101B3000CF90BF90AF909F908F907F906F905F906D
:101B40004F9008955B01AC1ABD0A4C018C0E9D1E8E
:101B5000A091F903B091FA03512C412CF12CE12C06
:101B6000109731F58091F7039091F8038815990546
:101B700009F05CC04616570608F058C0809118025C
:101B800090911902009741F48DB79EB740911C02C5
:101B900050911D02841B950BE817F90708F055C0FA
:101BA000F093F803E093F703F90171836083B8CFF2
:101BB0008D919C91119712966C90129713967C9030
:101BC0001397A815B90559F56C0142E0C40ED11C54
:101BD000CA14DB0420F1AC014A195B09DA01129640
:101BE000159780F06282738251834083D9016D938F
:101BF0007C93E114F10471F0D7011396FC93EE93FA
:101C000012978ECF22968C0F9D1FF90191838083AE
:101C1000F301EFCFF093FA03E093F90381CF481675
:101C2000590608F42C017D01D3019ACFCB010E9403
:101C3000220C7C01009749F0AE01B8010E94280EE9
:101C4000C8010E94BE0C87016BCF10E000E068CF96
:101C5000FB01DC0102C001900D9241505040D8F7C9
:101C60000895FB01DC0101900D920020E1F7089539
:041C7000F894FFCF16
:101C74001F21232517191B1D3738392F3435362AD0
:101C84003132332D4F303D2B0000FB038000000028
:101C94000000970201022E02E4025F023D0251029B
:0C1CA400000000003604F603C503000039
:00000001FF
