:100000000C9444010C9475010C9475010C947501C9
:100010000C9475010C9475010C9475010C94750188
:100020000C9475010C9475010C9475010C94750178
:100030000C9475010C9475010C9475010C94750168
:100040000C9475010C9475010C9475010C94750158
:100050000C9475010C9475010C9475010C941D069B
:100060000C9475010C94E7050C94BD050C94750176
:100070000C9475010C9475010C9475010C94750128
:100080000C9475010C9475010C9475010C94750118
:100090000C9475010C9475010C9475010C94750108
:1000A0000C9475010C9475010C9475010C947501F8
:1000B0000C9475010C9475010C9475010C947501E8
:1000C0000C9475010C9475010C9475010C947501D8
:1000D0000C9475010C9475010C9475010C947501C8
:1000E0000C9475010C94A1030C9467060C944404C1
:1000F0000C949D030C9468020C9437020C94FF033B
:100100000C945A020C9471030C948F030C94ED021E
:100110000C9497030C949C030C9485030C94770324
:100120000C946A030C9489050C946E030C940A02D7
:100130000C947B030C9489030C9462030C9493033A
:100140000C9446020C94A0020C945C030C94C3091A
:100150000C9481030C9466030C9443040C943F04A8
:100160000C94CE0300002100240027002A002D005B
:100170003000330001010000040107010A01000002
:100180002200250028002B002E003100340002013F
:100190000000050108010B010000200023002600DB
:1001A00029002C002F00320000010000030106018D
:1001B00009010505050507050808080802020202ED
:1001C0000A0A0808040404040101010101010101F3
:1001D0000303030303030303040707070C0C0C0CBE
:1001E0000C0C0C0C020202020606060606060606A7
:1001F0000B0B0B0B0B0B0B0B010210202008081034
:100200002040102040800201020108040201010286
:10021000040810204080804020100804020180045F
:1002200002018040201008040201080402010102BA
:1002300004081020408001020408102040800000C3
:100240000A0B02090C0D0E08070304010000000050
:10025000000000000000000000000000000000009E
:10026000000000000000000000001211100000005B
:10027000000000000000000000000000000000007E
:10028000000000006706C30911241FBECFEFD1E2B2
:10029000DEBFCDBF00E00CBF23E0A2E7B2E001C0AB
:1002A0001D92AA3AB207E1F712E0A0E0B2E0EAE05C
:1002B000F8E100E00BBF02C007900D92A237B10732
:1002C000D9F711E0C3E4D1E000E006C021970109AD
:1002D000802FFE010E94CC09C234D10780E00807BC
:1002E000A9F70E9451070C94F30B0C94000096E0C0
:1002F000899FD0011124A95CBC4F90967C936E938A
:100300005F9791E091969C939197E091A403F0916F
:10031000A5039091A303992339F0309751F08111EF
:1003200008C0809153031994309719F05C968C9112
:10033000FACF0895CF92DF92EF92FF920F931F931F
:1003400096E0899FF0011124E95CFC4F11A2278DF2
:1003500030A12130310551F178F02230310509F416
:1003600051C02330310509F452C01F910F91FF9005
:10037000EF90DF90CF9008956623B9F361E070E0CD
:100380000E9477012FB7F8948091780290917902BA
:10039000A0917A02B0917B022FBF80938F0390933C
:1003A0009003A0939103B0939203DFCF9FB7F8948B
:1003B000C0907802D0907902E0907A02F0907B02AF
:1003C0009FBF00918F031091900320919103309172
:1003D0009203C01AD10AE20AF30A0091A103109114
:1003E000A20330E020E00C151D052E053F0550F45A
:1003F00062E070E01F910F91FF90EF90DF90CF903F
:100400000C9477016111B1CF63E070E0F3CF70E03D
:1004100060E0F0CFAF92BF92CF92DF92EF92FF9267
:100420000F931F93CF93DF936C017B018B01040F1C
:10043000151FEB015E01AE18BF08C017D10759F0B8
:100440006991D601ED91FC910190F081E02DC601FA
:100450001995892B79F7C501DF91CF911F910F91E4
:10046000FF90EF90DF90CF90BF90AF900895FC0188
:10047000538D448D252F30E0842F90E0821B930B09
:10048000541710F0CF96089501970895FC01918DAF
:10049000828D981761F0A28DAE0FBF2FB11D5D96B2
:1004A0008C91928D9F5F9F73928F90E008958FEF54
:1004B0009FEF0895FC01918D828D981731F0828D08
:1004C000E80FF11D858D90E008958FEF9FEF08955F
:1004D000FC01918D228D892F90E0805C9F4F821BC3
:1004E00091098F73992708958CE792E00E94680222
:1004F00021E0892B09F420E0822F0895FC01A48DCE
:10050000A80FB92FB11DA35ABF4F2C91848D90E035
:1005100001968F739927848FA689B7892C93A08918
:10052000B1898C91837080648C93938D848D9813A2
:1005300006C00288F389E02D80818F7D8083089535
:10054000EF92FF920F931F93CF93DF93EC0181E023
:10055000888F9B8D8C8D98131AC0E889F9898081CA
:1005600085FF15C09FB7F894EE89FF896083E889FD
:10057000F98980818370806480839FBF81E090E0EF
:10058000DF91CF911F910F91FF90EF900895F62E7C
:100590000B8D10E00F5F1F4F0F731127E02E8C8D16
:1005A0008E110CC00FB607FCFACFE889F98980815B
:1005B00085FFF5CFCE010E947E02F1CFEB8DEC0FCF
:1005C000FD2FF11DE35AFF4FF0829FB7F8940B8F78
:1005D000EA89FB8980818062CFCFCF93DF93EC01E2
:1005E000888D8823B9F0AA89BB89E889F9898C911B
:1005F00085FD03C0808186FD0DC00FB607FCF7CFD7
:100600008C9185FFF2CF808185FFEDCFCE010E94D6
:100610007E02E9CFDF91CF91089580E090E0892BB1
:1006200029F00E94740281110E94000080E090E095
:10063000892B49F080E090E0892B29F00E9400008E
:1006400081110E94000080E090E0892B49F080E059
:1006500090E0892B29F00E94000081110E94000087
:1006600080E090E0892B49F080E090E0892B29F030
:100670000E94000081110C94000008958150823185
:1006800008F05AC0E82FF0E08827E65BFC4F8F4F58
:100690000C94CC096A036E035C03620366039C033B
:1006A000710377037B038103850389038F0393031E
:1006B0009C0397039D03A103809180008F77809313
:1006C00080000895809180008F7DF9CF8091800017
:1006D000877FF5CF84B58F7784BD089584B58F7DEE
:1006E000FBCF8091B0008F778093B0000895809108
:1006F000B0008F7DF9CF809190008F77809390002C
:100700000895809190008F7DF9CF80919000877F30
:10071000F5CF8091A0008F778093A00008958091FD
:10072000A0008F7DF9CF8091A000877FF5CF8091C9
:1007300020018F77809320010895809120018F7D83
:10074000F9CF80912001877FF5CFCF93DF93282FBA
:1007500030E0F901E25CFD4F8491F901E850FE4F71
:10076000D491F901EE54FE4FC491CC23A1F0811134
:100770000E943E03EC2FF0E0EE0FFF1FE856FE4F05
:10078000A591B491EC91ED2381E090E009F480E033
:10079000DF91CF91089580E090E0FACF862F0C94FE
:1007A000A5031F93CF93DF93282F30E0F901E25C7C
:1007B000FD4F8491F901E850FE4FD491F901EE54B8
:1007C000FE4FC491CC23A9F0162F81110E943E0345
:1007D000EC2FF0E0EE0FFF1FE258FE4FA591B49111
:1007E0008FB7F894EC91111108C0D095DE23DC93FB
:1007F0008FBFDF91CF911F910895DE2BF8CF862F09
:10080000642F0C94D103CF93DF9390E0FC01E85068
:10081000FE4F24918E549E4FFC0184918823C9F091
:1008200090E0880F991FFC01EC59FE4FA591B491FF
:10083000FC01E258FE4FC591D49161110DC09FB7E4
:10084000F8948C91209582238C9388812823288387
:100850009FBFDF91CF910895623051F49FB7F89414
:100860003C91822F809583238C93E8812E2BEFCFB0
:100870008FB7F894EC912E2B2C938FBFEACF862F55
:10088000642F0C940304089590E080E00895CF93C2
:10089000DF93EC0160E08E810E94D10361E08E81E4
:1008A0000E94D10360E08E810E94D1038BE891E029
:1008B0000197F1F7DF91CF910895CF92DF92EF92F8
:1008C000FF920F931F93CF93DF936C017C0187E01E
:1008D000E80EF11CD0E0C0E0062F10E0B8010C2EAD
:1008E00002C0759567950A94E2F76170F7018191EE
:1008F0007F010E94D1032196C430D10579F7C6014A
:10090000DF91CF911F910F91FF90EF90DF90CF90EB
:100910000C944704CF92DF92EF92FF920F931F93B4
:10092000CF93DF93EC01F62E642F8C810E94D103CC
:100930008D818F3F19F060E00E94D1030F2D10E0F0
:100940008F8584FF25C06E0187E0C80ED11CF12C75
:10095000E12CB8010E2C02C0759567950A94E2F758
:100960006170F60181916F010E94D103FFEFEF1AD0
:10097000FF0A88E0E816F10461F7CE01DF91CF911C
:100980001F910F91FF90EF90DF90CF900C94470450
:10099000B80184E0759567958A95E1F7CE010E94CC
:1009A0005D046F2DCE01DF91CF911F910F91FF90CC
:1009B000EF90DF90CF900C945D0440E0682F8FE1C2
:1009C00093E00C948A04CF93DF93823029F49091C2
:1009D0002E03986090932E0380933203109233037A
:1009E00080E48093340380E18093350380E5809335
:1009F000360361E0809123030E9403048091240365
:100A00008F3F19F061E00E94030461E080912503AB
:100A10000E940304CFE1D3E09E012F513340809127
:100A20002E0384FD0BC084E090E02196281739073F
:100A300044F461E08E810E940304EECF88E090E0F0
:100A4000F4CF8BE39DE00197F1F760E08091230301
:100A50000E94D10360E0809125030E94D103809120
:100A600024038F3F19F060E00E94D10380912E0390
:100A700084FD39C063E08FE193E00E945D04CBE424
:100A8000D6E4CE010197F1F763E08FE193E00E9495
:100A90005D042197F1F763E08FE193E00E945D042C
:100AA00083E592E00197F1F762E08FE193E00E9425
:100AB0005D0480912E0380620E94DD0484E08093B7
:100AC0002F038CE00E94DD0481E00E94DD048BE3B3
:100AD0009FE10197F1F782E08093300386E0DF9198
:100AE000CF910C94DD0480620E94DD048BE496E4D7
:100AF0000197F1F780912E0380620E94DD0483E567
:100B000092E00197F1F780912E0380620E94DD044C
:100B1000D0CF41E00E948A0481E090E00895CF9315
:100B2000DF93EC018091190390911A03009759F01B
:100B300020911B0330911C032C173D0720F081E00E
:100B4000DF91CF910895BE016F5F7F4F0E94F90A38
:100B5000009789F090931A0380931903D0931C0394
:100B6000C0931B0320911D0330911E03232B39F7E3
:100B7000FC011082E4CF80E0E3CF1F920F920FB60A
:100B80000F9211240BB60F922F933F934F935F93C5
:100B90006F937F938F939F93AF93BF93EF93FF9345
:100BA0008CE792E00E947E02FF91EF91BF91AF919E
:100BB0009F918F917F916F915F914F913F912F9175
:100BC0000F900BBE0F900FBE0F901F9018951F92A5
:100BD0000F920FB60F9211240BB60F922F938F9393
:100BE0009F93EF93FF93E0918C02F0918D028081AF
:100BF000E0919202F091930282FD1DC0908180915C
:100C000095028F5F8F7320919602821741F0E091D9
:100C10009502F0E0E458FD4F958F80939502FF9187
:100C2000EF919F918F912F910F900BBE0F900FBE60
:100C30000F901F9018958081F2CF1F920F920FB6E0
:100C40000F9211242F933F938F939F93AF93BF9352
:100C50008091780290917902A0917A02B0917B0202
:100C60003091760223E0230F2D3758F50196A11D10
:100C7000B11D209376028093780290937902A0931D
:100C80007A02B0937B028091720290917302A091DC
:100C90007402B09175020196A11DB11D809372027C
:100CA00090937302A0937402B0937502BF91AF91B9
:100CB0009F918F913F912F910F900FBE0F901F909A
:100CC000189526E8230F0296A11DB11DD2CF1092D0
:100CD0007F0210927E0288EE93E0A0E0B0E0809365
:100CE000800290938102A0938202B093830282E2F9
:100CF00092E090937D0280937C0285EC90E090934B
:100D000089028093880284EC90E090938B02809318
:100D10008A0280EC90E090938D0280938C0281ECAB
:100D200090E090938F0280938E0282EC90E09093FB
:100D300091028093900286EC90E0909393028093CE
:100D400092021092950210929602109297021092BF
:100D500098021092390310923D0310923C031092B6
:100D60003E0380E492E09093380380933703E3E5F9
:100D7000F3E01082148213821582369683E0EF38F6
:100D8000F807B9F784E092E090939A03809399036F
:100D900080E092E090939C0380939B0384E0809397
:100DA0009D0380939E0388E092E090939803809344
:100DB00097038AE090E09093A00380939F0384EFD1
:100DC00091E09093A2038093A1031092A503109247
:100DD000A40310929303109294031092950310921F
:100DE00096031092A303109222031092210384E32E
:100DF00092E09093200380931F038DE08093230360
:100E00008FEF809324038CE08093250388E0809308
:100E1000260389E0809327038AE0809328038BE0F0
:100E20008093290310922A0310922B0310922C0313
:100E300010922D0310922E0381E00E94E304109281
:100E40001A031092190310921C0310921B031092A4
:100E50001E0310921D0390E080E00E948F052091F8
:100E6000190330911A03811113C02115310519F0AE
:100E7000C9010E94700A10921A031092190310926D
:100E80001E0310921D0310921C0310921B03089561
:100E900010921E0310921D0368E472E0C9010C94C5
:100EA000EC0BCF93DF931F921F92CDB7DEB77894F0
:100EB00084B5826084BD84B5816084BD85B582605F
:100EC00085BD85B5816085BD80916E008160809310
:100ED0006E00109281008091810082608093810079
:100EE0008091810081608093810080918000816089
:100EF000809380008091B10084608093B1008091E4
:100F0000B00081608093B0008091910082608093F6
:100F10009100809191008160809391008091900078
:100F20008160809390008091A10082608093A100F5
:100F30008091A10081608093A1008091A0008160D8
:100F40008093A00080912101826080932101809193
:100F50002101816080932101809120018160809333
:100F6000200180917A00846080937A0080917A00D9
:100F7000826080937A0080917A00816080937A0009
:100F800080917A00806880937A001092C100E0918D
:100F90008C02F0918D0282E08083E0918802F091D2
:100FA00089021082E0918A02F0918B028FEC80839B
:100FB00010929402E0919002F091910286E0808379
:100FC000E0918E02F0918F02808180618083E091B8
:100FD0008E02F0918F02808188608083E0918E0282
:100FE000F0918F02808180688083E0918E02F09181
:100FF0008F0280818F7D808382E00E94E30481E004
:101000000E94DD048BE39FE10197F1F7412C512C05
:1010100032014394AA24AA94BA2CE1E080913203CD
:101020008111E0E0E195F0E0E15EFC4F8489909170
:101030007702890F80680E94DD0451E05093A3037A
:101040008FB7F894409178025091790260917A02BA
:1010500070917B028FBF8091930390919403A09134
:101060009503B0919603481B590B6A0B7B0B80913B
:101070009F039091A003B0E0A0E084179507A60716
:10108000B70708F015C110E080919D03181760F4B0
:10109000E0919903F0919A03E10FF11D62E08081E4
:1010A0000E9403041F5FF0CF312C80919E033816FD
:1010B00008F061C0E32CF12CE0919B03F0919C03BC
:1010C000EE0DFF1D61E080810E940304E0919B030F
:1010D000F0919C03EE0DFF1D60E080810E94D10322
:1010E000D301C201032C04C0880F991FAA1FBB1F84
:1010F0000A94D2F74C016C01C094D094212C8091B9
:101100009D03281608F5022D10E0E0919903F09157
:101110009A03E00FF11F80810E94A5030C5F1F4F0F
:10112000000F111FF801E95CFC4F892B41F480810D
:10113000918188299929918380832394E0CF8081AC
:1011400091818C219D21F7CFE0919B03F0919C032D
:10115000EE0DFF1D61E080810E94D10380919B0311
:1011600090919C03E80EF91E60E0F70180810E94D7
:10117000030433949ACF07E313E07801F701878DD6
:1011800090A1892B21F4148EB68EA58E11A2F6E0C3
:10119000EF0EF11C83E793E08E159F0579F7912CF4
:1011A00080919D03981608F053C0812CC92CD12C36
:1011B000CC0CDD1CF601E15CFC4F6F0120919E031D
:1011C000821608F043C0F60160817181082C02C0CC
:1011D000769567950A94E2F7929E90011124280D66
:1011E000311DE7E3F3E080E0458D568D2417350788
:1011F00009F4C7C08F5F36968A30B1F760FF24C00C
:10120000E7E3F3E090E080E0448D411118C0E09105
:101210009703F0919803E20FF31F408156E0589F27
:10122000F001599FF00D1124E95CFC4F448F368F7B
:10123000258F10A2178E61E00E949A0105C00196C9
:1012400036968A30910501F78394B8CF9394A8CF4E
:1012500080E0F80191A19111892F0A5F1F4FE016DC
:10126000F106B9F79FB7F89440917802509179024E
:1012700060917A0270917B029FBF409393035093D9
:1012800094036093950370939603882389F080916B
:101290005803882369F08091560390915703019772
:1012A00039F410915303111106C00E940D03B5CEFD
:1012B0001092A303FACF612F8CE792E00E94A00264
:1012C00042E050E066E472E08CE792E00E940A029D
:1012D00041E0612F8FE193E00E948A041A3249F5C0
:1012E000E0913203E23008F04AC0E150F0E0E15E04
:1012F000FC4F848980680E94DD0480911D039091D9
:101300001E03892B71F069E472E0809119039091BA
:101310001A030E94E30B40E150E061E572E0892B83
:1013200021F04EE050E062E672E08FE193E00E942F
:101330000A0219831A8200911D0310911E030F5F88
:101340001F4FC8010E948F05882399F0209119032F
:1013500030911A0380911D0390911E03BE016F5FAF
:101360007F4F820F931F0E94EC0B10931E0300937C
:101370001D03809177028F5F8093770296CFE1E023
:10138000B5CF617059CF8091190390911A030097DE
:1013900011F00C94700A0895EE0FFF1F881F8BBF89
:1013A0000790F691E02D19940F931F93CF93DF933D
:1013B0008230910510F482E090E0E091A803F09172
:1013C000A90330E020E0B0E0A0E0309799F42115C7
:1013D000310509F44AC0281B390B24303105D8F5F2
:1013E0008A819B816115710589F1FB019383828359
:1013F000FE0111C0408151810281138148175907B4
:10140000E0F04817590799F4109761F012960C9381
:10141000129713961C933296CF01DF91CF911F91B3
:101420000F9108950093A8031093A903F4CF2115F9
:10143000310551F04217530738F0A901DB019A0139
:10144000BD01DF01F801C1CFEF01F9CF9093A903EE
:101450008093A803CDCFFE01E20FF31F81939193F8
:101460002250310939832883D7CF2091A6033091A8
:10147000A703232B41F420911A0230911B023093D1
:10148000A7032093A6032091180230911902211579
:10149000310541F42DB73EB740911C0250911D0219
:1014A000241B350BE091A603F091A703E217F30785
:1014B000A0F42E1B3F0B2817390778F0AC014E5FC4
:1014C0005F4F2417350748F04E0F5F1F5093A70357
:1014D0004093A603819391939FCFF0E0E0E09CCFEF
:1014E000CF93DF930097E9F0FC01329713821282C9
:1014F000A091A803B091A903ED0130E020E010977E
:10150000A1F420813181820F931F2091A603309195
:10151000A7032817390709F061C0F093A703E093E8
:10152000A603DF91CF910895EA01CE17DF07E8F512
:101530004A815B819E0141155105B1F7E901FB83A9
:10154000EA8349915991C40FD51FEC17FD0761F447
:10155000808191810296840F951FE9019983888388
:10156000828193819B838A83F0E0E0E012968D91E3
:101570009C9113970097B9F52D913C911197CD014E
:101580000296820F931F2091A6033091A70328177C
:10159000390739F6309751F51092A9031092A80334
:1015A000B093A703A093A603BCCFD383C28340818B
:1015B0005181840F951FC817D90761F44E5F5F4FA3
:1015C00088819981480F591F518340838A819B816B
:1015D000938382832115310509F0B0CFF093A903DD
:1015E000E093A8039ECFFD01DC01C0CF13821282DD
:1015F000D7CF4F925F926F927F928F929F92AF92CE
:10160000BF92CF92DF92EF92FF920F931F93CF93EF
:10161000DF938C01009799F4CB01DF91CF911F915B
:101620000F91FF90EF90DF90CF90BF90AF909F9081
:101630008F907F906F905F904F900C94D409FC0135
:10164000E60FF71F9C0122503109E217F30708F457
:10165000AEC0D901CD91DC911197C617D70720F103
:10166000C530D10578F0CE0104978617970750F062
:10167000C61BD70B2297C193D1936D937C93CF0157
:101680000E94700AC801DF91CF911F910F91FF90C6
:10169000EF90DF90CF90BF90AF909F908F907F9012
:1016A0006F905F904F9008955B01AC1ABD0A4C019A
:1016B0008C0E9D1EA091A803B091A903512C412C22
:1016C000F12CE12C109731F58091A6039091A7039E
:1016D0008815990509F05CC04616570608F058C0F1
:1016E0008091180290911902009741F48DB79EB72E
:1016F00040911C0250911D02841B950BE817F907BD
:1017000008F055C0F093A703E093A603F901718395
:101710006083B8CF8D919C91119712966C9012971F
:1017200013967C901397A815B90559F56C0142E002
:10173000C40ED11CCA14DB0420F1AC014A195B09A8
:10174000DA011296159780F062827382518340838A
:10175000D9016D937C93E114F10471F0D7011396D4
:10176000FC93EE9312978ECF22968C0F9D1FF9015A
:1017700091838083F301EFCFF093A903E093A80353
:1017800081CF4816590608F42C017D01D3019ACF68
:10179000CB010E94D4097C01009749F0AE01B80149
:1017A0000E94DA0BC8010E94700A87016BCF10E01B
:1017B00000E068CFFB01DC0102C001900D924150B6
:1017C0005040D8F70895FB01DC018D9101908019FC
:1017D0000110D9F3990B0895FB01DC0101900D92E2
:1017E0000020E1F7089511E0C3E4D1E000E006C075
:1017F000802FFE010E94CC092196011DC434D1071F
:0A18000080E00807A9F7F894FFCF75
:10180A0017191B1D1F2123253738392F3435362A3E
:10181A003132332D6F303D2B0000AA0380000000C7
:10182A000000A0020A023702ED02680246025A02CA
:10183A000000000089050A02440443040000000075
:10184A003F04FF03CE030D0A0039383331313033F8
:10185A0000436F72726563742070617373776F727D
:10186A00640057726F6E672070617373776F72646A
:02187A0000006C
:00000001FF
